{
  "_format": "hh-sol-artifact-1",
  "contractName": "DBeatsPlatformWallet",
  "sourceName": "contracts/PlatformWallet.sol",
  "abi": [
    {
      "inputs": [
        {
          "internalType": "address[]",
          "name": "_owners",
          "type": "address[]"
        },
        {
          "internalType": "uint256",
          "name": "_requiredConfirmations",
          "type": "uint256"
        }
      ],
      "stateMutability": "nonpayable",
      "type": "constructor"
    },
    {
      "inputs": [],
      "name": "confirm",
      "outputs": [],
      "stateMutability": "nonpayable",
      "type": "function"
    },
    {
      "inputs": [],
      "name": "confirmations",
      "outputs": [
        {
          "internalType": "uint256",
          "name": "",
          "type": "uint256"
        }
      ],
      "stateMutability": "view",
      "type": "function"
    },
    {
      "inputs": [],
      "name": "currentRound",
      "outputs": [
        {
          "internalType": "uint256",
          "name": "",
          "type": "uint256"
        }
      ],
      "stateMutability": "view",
      "type": "function"
    },
    {
      "inputs": [
        {
          "internalType": "address",
          "name": "",
          "type": "address"
        }
      ],
      "name": "isOwner",
      "outputs": [
        {
          "internalType": "bool",
          "name": "",
          "type": "bool"
        }
      ],
      "stateMutability": "view",
      "type": "function"
    },
    {
      "inputs": [
        {
          "internalType": "address",
          "name": "",
          "type": "address"
        }
      ],
      "name": "lastConfirmedRound",
      "outputs": [
        {
          "internalType": "uint256",
          "name": "",
          "type": "uint256"
        }
      ],
      "stateMutability": "view",
      "type": "function"
    },
    {
      "inputs": [
        {
          "internalType": "uint256",
          "name": "",
          "type": "uint256"
        }
      ],
      "name": "owners",
      "outputs": [
        {
          "internalType": "address",
          "name": "",
          "type": "address"
        }
      ],
      "stateMutability": "view",
      "type": "function"
    },
    {
      "inputs": [],
      "name": "requiredConfirmations",
      "outputs": [
        {
          "internalType": "uint256",
          "name": "",
          "type": "uint256"
        }
      ],
      "stateMutability": "view",
      "type": "function"
    },
    {
      "stateMutability": "payable",
      "type": "receive"
    }
  ],
  "bytecode": "0x60806040523480156200001157600080fd5b506040516200122038038062001220833981810160405281019062000037919062000509565b6001600081905550600082511162000086576040517f08c379a00000000000000000000000000000000000000000000000000000000081526004016200007d90620005d0565b60405180910390fd5b8151811115620000cd576040517f08c379a0000000000000000000000000000000000000000000000000000000008152600401620000c49062000642565b60405180910390fd5b60005b8251811015620002c8576000838281518110620000f257620000f162000664565b5b60200260200101519050600073ffffffffffffffffffffffffffffffffffffffff168173ffffffffffffffffffffffffffffffffffffffff16036200016e576040517f08c379a00000000000000000000000000000000000000000000000000000000081526004016200016590620006e3565b60405180910390fd5b600260008273ffffffffffffffffffffffffffffffffffffffff1673ffffffffffffffffffffffffffffffffffffffff16815260200190815260200160002060009054906101000a900460ff1615620001fe576040517f08c379a0000000000000000000000000000000000000000000000000000000008152600401620001f59062000755565b60405180910390fd5b6001600260008373ffffffffffffffffffffffffffffffffffffffff1673ffffffffffffffffffffffffffffffffffffffff16815260200190815260200160002060006101000a81548160ff0219169083151502179055506001819080600181540180825580915050600190039060005260206000200160009091909190916101000a81548173ffffffffffffffffffffffffffffffffffffffff021916908373ffffffffffffffffffffffffffffffffffffffff160217905550508080600101915050620000d0565b50806005819055506001600681905550505062000777565b6000604051905090565b600080fd5b600080fd5b600080fd5b6000601f19601f8301169050919050565b7f4e487b7100000000000000000000000000000000000000000000000000000000600052604160045260246000fd5b6200034482620002f9565b810181811067ffffffffffffffff821117156200036657620003656200030a565b5b80604052505050565b60006200037b620002e0565b905062000389828262000339565b919050565b600067ffffffffffffffff821115620003ac57620003ab6200030a565b5b602082029050602081019050919050565b600080fd5b600073ffffffffffffffffffffffffffffffffffffffff82169050919050565b6000620003ef82620003c2565b9050919050565b6200040181620003e2565b81146200040d57600080fd5b50565b6000815190506200042181620003f6565b92915050565b60006200043e62000438846200038e565b6200036f565b90508083825260208201905060208402830185811115620004645762000463620003bd565b5b835b818110156200049157806200047c888262000410565b84526020840193505060208101905062000466565b5050509392505050565b600082601f830112620004b357620004b2620002f4565b5b8151620004c584826020860162000427565b91505092915050565b6000819050919050565b620004e381620004ce565b8114620004ef57600080fd5b50565b6000815190506200050381620004d8565b92915050565b60008060408385031215620005235762000522620002ea565b5b600083015167ffffffffffffffff811115620005445762000543620002ef565b5b62000552858286016200049b565b92505060206200056585828601620004f2565b9150509250929050565b600082825260208201905092915050565b7f4f776e6572732072657175697265640000000000000000000000000000000000600082015250565b6000620005b8600f836200056f565b9150620005c58262000580565b602082019050919050565b60006020820190508181036000830152620005eb81620005a9565b9050919050565b7f496e76616c696420726571756972656420636f6e6669726d6174696f6e730000600082015250565b60006200062a601e836200056f565b91506200063782620005f2565b602082019050919050565b600060208201905081810360008301526200065d816200061b565b9050919050565b7f4e487b7100000000000000000000000000000000000000000000000000000000600052603260045260246000fd5b7f496e76616c6964206f776e657200000000000000000000000000000000000000600082015250565b6000620006cb600d836200056f565b9150620006d88262000693565b602082019050919050565b60006020820190508181036000830152620006fe81620006bc565b9050919050565b7f4f776e6572206e6f7420756e6971756500000000000000000000000000000000600082015250565b60006200073d6010836200056f565b91506200074a8262000705565b602082019050919050565b6000602082019050818103600083015262000770816200072e565b9050919050565b610a9980620007876000396000f3fe6080604052600436106100745760003560e01c80637022b58e1161004e5780637022b58e1461013757806382e717f71461014e5780638a19c8bc146101795780639cf5d607146101a45761007b565b8063025e7c27146100805780632f54bf6e146100bd57806353f19773146100fa5761007b565b3661007b57005b600080fd5b34801561008c57600080fd5b506100a760048036038101906100a291906105ee565b6101cf565b6040516100b4919061065c565b60405180910390f35b3480156100c957600080fd5b506100e460048036038101906100df91906106a3565b61020e565b6040516100f191906106eb565b60405180910390f35b34801561010657600080fd5b50610121600480360381019061011c91906106a3565b61022e565b60405161012e9190610715565b60405180910390f35b34801561014357600080fd5b5061014c610246565b005b34801561015a57600080fd5b506101636103c9565b6040516101709190610715565b60405180910390f35b34801561018557600080fd5b5061018e6103cf565b60405161019b9190610715565b60405180910390f35b3480156101b057600080fd5b506101b96103d5565b6040516101c69190610715565b60405180910390f35b600181815481106101df57600080fd5b906000526020600020016000915054906101000a900473ffffffffffffffffffffffffffffffffffffffff1681565b60026020528060005260406000206000915054906101000a900460ff1681565b60036020528060005260406000206000915090505481565b600260003373ffffffffffffffffffffffffffffffffffffffff1673ffffffffffffffffffffffffffffffffffffffff16815260200190815260200160002060009054906101000a900460ff166102d2576040517f08c379a00000000000000000000000000000000000000000000000000000000081526004016102c99061078d565b60405180910390fd5b600654600360003373ffffffffffffffffffffffffffffffffffffffff1673ffffffffffffffffffffffffffffffffffffffff1681526020019081526020016000205410610355576040517f08c379a000000000000000000000000000000000000000000000000000000000815260040161034c906107f9565b60405180910390fd5b600654600360003373ffffffffffffffffffffffffffffffffffffffff1673ffffffffffffffffffffffffffffffffffffffff16815260200190815260200160002081905550600460008154809291906103ae90610848565b9190505550600554600454106103c7576103c66103db565b5b565b60055481565b60065481565b60045481565b6103e3610538565b60004711610426576040517f08c379a000000000000000000000000000000000000000000000000000000000815260040161041d906108dc565b60405180910390fd5b600554600454101561046d576040517f08c379a000000000000000000000000000000000000000000000000000000000815260040161046490610948565b60405180910390fd5b6000600180549050476104809190610997565b905060005b60018054905081101561052457600181815481106104a6576104a56109c8565b5b9060005260206000200160009054906101000a900473ffffffffffffffffffffffffffffffffffffffff1673ffffffffffffffffffffffffffffffffffffffff166108fc839081150290604051600060405180830381858888f19350505050158015610516573d6000803e3d6000fd5b508080600101915050610485565b5061052d610587565b506105366105a9565b565b60026000540361057d576040517f08c379a000000000000000000000000000000000000000000000000000000000815260040161057490610a43565b60405180910390fd5b6002600081905550565b6000600481905550600660008154809291906105a290610848565b9190505550565b6001600081905550565b600080fd5b6000819050919050565b6105cb816105b8565b81146105d657600080fd5b50565b6000813590506105e8816105c2565b92915050565b600060208284031215610604576106036105b3565b5b6000610612848285016105d9565b91505092915050565b600073ffffffffffffffffffffffffffffffffffffffff82169050919050565b60006106468261061b565b9050919050565b6106568161063b565b82525050565b6000602082019050610671600083018461064d565b92915050565b6106808161063b565b811461068b57600080fd5b50565b60008135905061069d81610677565b92915050565b6000602082840312156106b9576106b86105b3565b5b60006106c78482850161068e565b91505092915050565b60008115159050919050565b6106e5816106d0565b82525050565b600060208201905061070060008301846106dc565b92915050565b61070f816105b8565b82525050565b600060208201905061072a6000830184610706565b92915050565b600082825260208201905092915050565b7f4e6f7420616e206f776e65720000000000000000000000000000000000000000600082015250565b6000610777600c83610730565b915061078282610741565b602082019050919050565b600060208201905081810360008301526107a68161076a565b9050919050565b7f596f75206861766520616c726561647920636f6e6669726d6564000000000000600082015250565b60006107e3601a83610730565b91506107ee826107ad565b602082019050919050565b60006020820190508181036000830152610812816107d6565b9050919050565b7f4e487b7100000000000000000000000000000000000000000000000000000000600052601160045260246000fd5b6000610853826105b8565b91507fffffffffffffffffffffffffffffffffffffffffffffffffffffffffffffffff820361088557610884610819565b5b600182019050919050565b7f4e6f2062616c616e636520746f20776974686472617700000000000000000000600082015250565b60006108c6601683610730565b91506108d182610890565b602082019050919050565b600060208201905081810360008301526108f5816108b9565b9050919050565b7f4e6f7420656e6f75676820636f6e6669726d6174696f6e730000000000000000600082015250565b6000610932601883610730565b915061093d826108fc565b602082019050919050565b6000602082019050818103600083015261096181610925565b9050919050565b7f4e487b7100000000000000000000000000000000000000000000000000000000600052601260045260246000fd5b60006109a2826105b8565b91506109ad836105b8565b9250826109bd576109bc610968565b5b828204905092915050565b7f4e487b7100000000000000000000000000000000000000000000000000000000600052603260045260246000fd5b7f5265656e7472616e637947756172643a207265656e7472616e742063616c6c00600082015250565b6000610a2d601f83610730565b9150610a38826109f7565b602082019050919050565b60006020820190508181036000830152610a5c81610a20565b905091905056fea2646970667358221220fd881cb5b7680726d776d37bacb0ac5ed8e398e3bcbd7a6957a526767a0a121d64736f6c63430008180033",
  "linkReferences": {},
  "deployedLinkReferences": {}
}