{
  "_format": "hh-sol-artifact-1",
  "contractName": "DBeatsFactory",
  "sourceName": "contracts/Factory.sol",
  "abi": [
    {
      "inputs": [
        {
          "internalType": "address",
          "name": "_platformWalletAddress",
          "type": "address"
        },
        {
          "internalType": "address",
          "name": "_feeManagerAddress",
          "type": "address"
        }
      ],
      "stateMutability": "nonpayable",
      "type": "constructor"
    },
    {
      "anonymous": false,
      "inputs": [
        {
          "indexed": true,
          "internalType": "address",
          "name": "nftAddress",
          "type": "address"
        },
        {
          "indexed": false,
          "internalType": "address",
          "name": "_artistAddress",
          "type": "address"
        },
        {
          "indexed": false,
          "internalType": "string",
          "name": "_newTokenURI",
          "type": "string"
        },
        {
          "indexed": false,
          "internalType": "string",
          "name": "name",
          "type": "string"
        },
        {
          "indexed": false,
          "internalType": "string",
          "name": "symbol",
          "type": "string"
        },
        {
          "indexed": false,
          "internalType": "uint256",
          "name": "mintPrice",
          "type": "uint256"
        },
        {
          "indexed": false,
          "internalType": "string",
          "name": "_genre",
          "type": "string"
        }
      ],
      "name": "NewNFT",
      "type": "event"
    },
    {
      "anonymous": false,
      "inputs": [
        {
          "indexed": true,
          "internalType": "address",
          "name": "previousOwner",
          "type": "address"
        },
        {
          "indexed": true,
          "internalType": "address",
          "name": "newOwner",
          "type": "address"
        }
      ],
      "name": "OwnershipTransferred",
      "type": "event"
    },
    {
      "anonymous": false,
      "inputs": [
        {
          "indexed": true,
          "internalType": "bytes32",
          "name": "role",
          "type": "bytes32"
        },
        {
          "indexed": true,
          "internalType": "bytes32",
          "name": "previousAdminRole",
          "type": "bytes32"
        },
        {
          "indexed": true,
          "internalType": "bytes32",
          "name": "newAdminRole",
          "type": "bytes32"
        }
      ],
      "name": "RoleAdminChanged",
      "type": "event"
    },
    {
      "anonymous": false,
      "inputs": [
        {
          "indexed": true,
          "internalType": "bytes32",
          "name": "role",
          "type": "bytes32"
        },
        {
          "indexed": true,
          "internalType": "address",
          "name": "account",
          "type": "address"
        },
        {
          "indexed": true,
          "internalType": "address",
          "name": "sender",
          "type": "address"
        }
      ],
      "name": "RoleGranted",
      "type": "event"
    },
    {
      "anonymous": false,
      "inputs": [
        {
          "indexed": true,
          "internalType": "bytes32",
          "name": "role",
          "type": "bytes32"
        },
        {
          "indexed": true,
          "internalType": "address",
          "name": "account",
          "type": "address"
        },
        {
          "indexed": true,
          "internalType": "address",
          "name": "sender",
          "type": "address"
        }
      ],
      "name": "RoleRevoked",
      "type": "event"
    },
    {
      "inputs": [],
      "name": "ADMIN_ROLE",
      "outputs": [
        {
          "internalType": "bytes32",
          "name": "",
          "type": "bytes32"
        }
      ],
      "stateMutability": "view",
      "type": "function"
    },
    {
      "inputs": [],
      "name": "ARTIST_ROLE",
      "outputs": [
        {
          "internalType": "bytes32",
          "name": "",
          "type": "bytes32"
        }
      ],
      "stateMutability": "view",
      "type": "function"
    },
    {
      "inputs": [],
      "name": "DEFAULT_ADMIN_ROLE",
      "outputs": [
        {
          "internalType": "bytes32",
          "name": "",
          "type": "bytes32"
        }
      ],
      "stateMutability": "view",
      "type": "function"
    },
    {
      "inputs": [
        {
          "internalType": "address",
          "name": "account",
          "type": "address"
        }
      ],
      "name": "addAdmin",
      "outputs": [],
      "stateMutability": "nonpayable",
      "type": "function"
    },
    {
      "inputs": [
        {
          "internalType": "address",
          "name": "account",
          "type": "address"
        }
      ],
      "name": "addArtist",
      "outputs": [],
      "stateMutability": "nonpayable",
      "type": "function"
    },
    {
      "inputs": [
        {
          "internalType": "bytes32",
          "name": "role",
          "type": "bytes32"
        },
        {
          "internalType": "address",
          "name": "account",
          "type": "address"
        }
      ],
      "name": "addUserToRole",
      "outputs": [],
      "stateMutability": "nonpayable",
      "type": "function"
    },
    {
      "inputs": [
        {
          "internalType": "address",
          "name": "_artistAddress",
          "type": "address"
        },
        {
          "internalType": "string",
          "name": "_newTokenURI",
          "type": "string"
        },
        {
          "internalType": "string",
          "name": "name",
          "type": "string"
        },
        {
          "internalType": "string",
          "name": "symbol",
          "type": "string"
        },
        {
          "internalType": "uint256",
          "name": "mintPrice",
          "type": "uint256"
        },
        {
          "internalType": "string",
          "name": "_genre",
          "type": "string"
        }
      ],
      "name": "createNFT",
      "outputs": [],
      "stateMutability": "nonpayable",
      "type": "function"
    },
    {
      "inputs": [
        {
          "internalType": "address",
          "name": "creator",
          "type": "address"
        }
      ],
      "name": "getNFTsByCreator",
      "outputs": [
        {
          "internalType": "address[]",
          "name": "",
          "type": "address[]"
        }
      ],
      "stateMutability": "view",
      "type": "function"
    },
    {
      "inputs": [],
      "name": "getPlatformFeePercentage",
      "outputs": [
        {
          "internalType": "uint256",
          "name": "",
          "type": "uint256"
        }
      ],
      "stateMutability": "view",
      "type": "function"
    },
    {
      "inputs": [
        {
          "internalType": "bytes32",
          "name": "role",
          "type": "bytes32"
        }
      ],
      "name": "getRoleAdmin",
      "outputs": [
        {
          "internalType": "bytes32",
          "name": "",
          "type": "bytes32"
        }
      ],
      "stateMutability": "view",
      "type": "function"
    },
    {
      "inputs": [],
      "name": "getTokenCount",
      "outputs": [
        {
          "internalType": "uint256",
          "name": "",
          "type": "uint256"
        }
      ],
      "stateMutability": "view",
      "type": "function"
    },
    {
      "inputs": [
        {
          "internalType": "bytes32",
          "name": "role",
          "type": "bytes32"
        },
        {
          "internalType": "address",
          "name": "account",
          "type": "address"
        }
      ],
      "name": "grantRole",
      "outputs": [],
      "stateMutability": "nonpayable",
      "type": "function"
    },
    {
      "inputs": [
        {
          "internalType": "bytes32",
          "name": "role",
          "type": "bytes32"
        },
        {
          "internalType": "address",
          "name": "account",
          "type": "address"
        }
      ],
      "name": "hasRole",
      "outputs": [
        {
          "internalType": "bool",
          "name": "",
          "type": "bool"
        }
      ],
      "stateMutability": "view",
      "type": "function"
    },
    {
      "inputs": [
        {
          "internalType": "address",
          "name": "",
          "type": "address"
        },
        {
          "internalType": "uint256",
          "name": "",
          "type": "uint256"
        }
      ],
      "name": "nftsByCreator",
      "outputs": [
        {
          "internalType": "address",
          "name": "",
          "type": "address"
        }
      ],
      "stateMutability": "view",
      "type": "function"
    },
    {
      "inputs": [],
      "name": "owner",
      "outputs": [
        {
          "internalType": "address",
          "name": "",
          "type": "address"
        }
      ],
      "stateMutability": "view",
      "type": "function"
    },
    {
      "inputs": [],
      "name": "platformWalletAddress",
      "outputs": [
        {
          "internalType": "address",
          "name": "",
          "type": "address"
        }
      ],
      "stateMutability": "view",
      "type": "function"
    },
    {
      "inputs": [],
      "name": "renounceOwnership",
      "outputs": [],
      "stateMutability": "nonpayable",
      "type": "function"
    },
    {
      "inputs": [
        {
          "internalType": "bytes32",
          "name": "role",
          "type": "bytes32"
        },
        {
          "internalType": "address",
          "name": "account",
          "type": "address"
        }
      ],
      "name": "renounceRole",
      "outputs": [],
      "stateMutability": "nonpayable",
      "type": "function"
    },
    {
      "inputs": [
        {
          "internalType": "bytes32",
          "name": "role",
          "type": "bytes32"
        },
        {
          "internalType": "address",
          "name": "account",
          "type": "address"
        }
      ],
      "name": "revokeRole",
      "outputs": [],
      "stateMutability": "nonpayable",
      "type": "function"
    },
    {
      "inputs": [
        {
          "internalType": "bytes4",
          "name": "interfaceId",
          "type": "bytes4"
        }
      ],
      "name": "supportsInterface",
      "outputs": [
        {
          "internalType": "bool",
          "name": "",
          "type": "bool"
        }
      ],
      "stateMutability": "view",
      "type": "function"
    },
    {
      "inputs": [
        {
          "internalType": "address",
          "name": "newOwner",
          "type": "address"
        }
      ],
      "name": "transferOwnership",
      "outputs": [],
      "stateMutability": "nonpayable",
      "type": "function"
    }
  ],
  "bytecode": "0x60806040523480156200001157600080fd5b50604051620062ee380380620062ee8339818101604052810190620000379190620003ba565b620000576200004b6200012860201b60201c565b6200013060201b60201c565b6200006c6000801b33620001f460201b60201c565b6200009e7fa49807205ce4d355092ef5a8a18f56e8913cf4a201fbe287825b095693c2177533620001f460201b60201c565b81600360006101000a81548173ffffffffffffffffffffffffffffffffffffffff021916908373ffffffffffffffffffffffffffffffffffffffff16021790555080600460006101000a81548173ffffffffffffffffffffffffffffffffffffffff021916908373ffffffffffffffffffffffffffffffffffffffff160217905550505062000401565b600033905090565b60008060009054906101000a900473ffffffffffffffffffffffffffffffffffffffff169050816000806101000a81548173ffffffffffffffffffffffffffffffffffffffff021916908373ffffffffffffffffffffffffffffffffffffffff1602179055508173ffffffffffffffffffffffffffffffffffffffff168173ffffffffffffffffffffffffffffffffffffffff167f8be0079c531659141344cd1fd0a4f28419497f9722a3daafe3b4186f6b6457e060405160405180910390a35050565b620002068282620002e560201b60201c565b620002e157600180600084815260200190815260200160002060000160008373ffffffffffffffffffffffffffffffffffffffff1673ffffffffffffffffffffffffffffffffffffffff16815260200190815260200160002060006101000a81548160ff021916908315150217905550620002866200012860201b60201c565b73ffffffffffffffffffffffffffffffffffffffff168173ffffffffffffffffffffffffffffffffffffffff16837f2f8788117e7eff1d82e926ec794901d17c78024a50270940304540a733656f0d60405160405180910390a45b5050565b60006001600084815260200190815260200160002060000160008373ffffffffffffffffffffffffffffffffffffffff1673ffffffffffffffffffffffffffffffffffffffff16815260200190815260200160002060009054906101000a900460ff16905092915050565b600080fd5b600073ffffffffffffffffffffffffffffffffffffffff82169050919050565b6000620003828262000355565b9050919050565b620003948162000375565b8114620003a057600080fd5b50565b600081519050620003b48162000389565b92915050565b60008060408385031215620003d457620003d362000350565b5b6000620003e485828601620003a3565b9250506020620003f785828601620003a3565b9150509250929050565b615edd80620004116000396000f3fe60806040523480156200001157600080fd5b5060043610620001545760003560e01c8063818d7f7b11620000c9578063a217fddf1162000087578063a217fddf1462000371578063a966a0df1462000393578063c263bdaa14620003b5578063d547741f14620003eb578063f2fde38b146200040b578063ffa03821146200042b5762000154565b8063818d7f7b14620002b75780638da5cb5b14620002d757806391d1485414620002f957806399bd73d4146200032f5780639f2a6374146200034f5762000154565b8063704802751162000117578063704802751462000225578063715018a6146200024557806375b238fc146200025157806378a8956714620002735780637a3a27ea14620002955762000154565b806301ffc9a71462000159578063248a9ca3146200018f5780632f2ff15d14620001c557806336568abe14620001e55780634d287f2b1462000205575b600080fd5b62000177600480360381019062000171919062001413565b62000461565b60405162000186919062001462565b60405180910390f35b620001ad6004803603810190620001a79190620014ba565b620004de565b604051620001bc9190620014fd565b60405180910390f35b620001e36004803603810190620001dd91906200157f565b620004fe565b005b620002036004803603810190620001fd91906200157f565b62000525565b005b6200022360048036038101906200021d9190620015c6565b620005af565b005b6200024360048036038101906200023d9190620015c6565b6200064c565b005b6200024f620006e9565b005b6200025b62000701565b6040516200026a9190620014fd565b60405180910390f35b6200027d62000725565b6040516200028c919062001613565b60405180910390f35b6200029f62000738565b604051620002ae919062001613565b60405180910390f35b620002d56004803603810190620002cf91906200157f565b620007d3565b005b620002e1620007ed565b604051620002f0919062001641565b60405180910390f35b6200031760048036038101906200031191906200157f565b62000816565b60405162000326919062001462565b60405180910390f35b6200034d6004803603810190620003479190620016fd565b62000881565b005b6200035962000aa1565b60405162000368919062001641565b60405180910390f35b6200037b62000ac7565b6040516200038a9190620014fd565b60405180910390f35b6200039d62000ace565b604051620003ac9190620014fd565b60405180910390f35b620003d36004803603810190620003cd919062001828565b62000af2565b604051620003e2919062001641565b60405180910390f35b6200040960048036038101906200040391906200157f565b62000b41565b005b620004296004803603810190620004239190620015c6565b62000b68565b005b620004496004803603810190620004439190620015c6565b62000bf2565b6040516200045891906200193d565b60405180910390f35b60007f7965db0b000000000000000000000000000000000000000000000000000000007bffffffffffffffffffffffffffffffffffffffffffffffffffffffff1916827bffffffffffffffffffffffffffffffffffffffffffffffffffffffff19161480620004d75750620004d68262000cc1565b5b9050919050565b600060016000838152602001908152602001600020600101549050919050565b6200050982620004de565b620005148162000d2b565b62000520838362000d43565b505050565b6200052f62000e28565b73ffffffffffffffffffffffffffffffffffffffff168173ffffffffffffffffffffffffffffffffffffffff16146200059f576040517f08c379a00000000000000000000000000000000000000000000000000000000081526004016200059690620019e8565b60405180910390fd5b620005ab828262000e30565b5050565b620005db7fa49807205ce4d355092ef5a8a18f56e8913cf4a201fbe287825b095693c217753362000816565b6200061d576040517f08c379a0000000000000000000000000000000000000000000000000000000008152600401620006149062001a5a565b60405180910390fd5b620006497f877a78dc988c0ec5f58453b44888a55eb39755c3d5ed8d8ea990912aa3ef29c682620004fe565b50565b620006787fa49807205ce4d355092ef5a8a18f56e8913cf4a201fbe287825b095693c217753362000816565b620006ba576040517f08c379a0000000000000000000000000000000000000000000000000000000008152600401620006b19062001a5a565b60405180910390fd5b620006e67fa49807205ce4d355092ef5a8a18f56e8913cf4a201fbe287825b095693c2177582620004fe565b50565b620006f362000f17565b620006ff600062000f9c565b565b7fa49807205ce4d355092ef5a8a18f56e8913cf4a201fbe287825b095693c2177581565b600062000733600262001060565b905090565b6000600460009054906101000a900473ffffffffffffffffffffffffffffffffffffffff1673ffffffffffffffffffffffffffffffffffffffff16637a3a27ea6040518163ffffffff1660e01b8152600401602060405180830381865afa158015620007a8573d6000803e3d6000fd5b505050506040513d601f19601f82011682018060405250810190620007ce919062001a93565b905090565b620007dd62000f17565b620007e98282620004fe565b5050565b60008060009054906101000a900473ffffffffffffffffffffffffffffffffffffffff16905090565b60006001600084815260200190815260200160002060000160008373ffffffffffffffffffffffffffffffffffffffff1673ffffffffffffffffffffffffffffffffffffffff16815260200190815260200160002060009054906101000a900460ff16905092915050565b620008ad7f877a78dc988c0ec5f58453b44888a55eb39755c3d5ed8d8ea990912aa3ef29c63362000816565b620008ef576040517f08c379a0000000000000000000000000000000000000000000000000000000008152600401620008e69062001b15565b60405180910390fd5b620008fb60026200106e565b60008a8a8a8a8a8a8a8a8a8a600460009054906101000a900473ffffffffffffffffffffffffffffffffffffffff16600360009054906101000a900473ffffffffffffffffffffffffffffffffffffffff166040516200095b906200139e565b620009729c9b9a9998979695949392919062001b8a565b604051809103906000f0801580156200098f573d6000803e3d6000fd5b5090508073ffffffffffffffffffffffffffffffffffffffff167f6f218921a97d923227e7485415a5d546c6e7a33a9ca09ee376b79e7f6cf652078c8c8c8c8c8c8c8c8c8c604051620009ec9a9998979695949392919062001c3c565b60405180910390a2600560008c73ffffffffffffffffffffffffffffffffffffffff1673ffffffffffffffffffffffffffffffffffffffff168152602001908152602001600020819080600181540180825580915050600190039060005260206000200160009091909190916101000a81548173ffffffffffffffffffffffffffffffffffffffff021916908373ffffffffffffffffffffffffffffffffffffffff1602179055505050505050505050505050565b600360009054906101000a900473ffffffffffffffffffffffffffffffffffffffff1681565b6000801b81565b7f877a78dc988c0ec5f58453b44888a55eb39755c3d5ed8d8ea990912aa3ef29c681565b6005602052816000526040600020818154811062000b0f57600080fd5b906000526020600020016000915091509054906101000a900473ffffffffffffffffffffffffffffffffffffffff1681565b62000b4c82620004de565b62000b578162000d2b565b62000b63838362000e30565b505050565b62000b7262000f17565b600073ffffffffffffffffffffffffffffffffffffffff168173ffffffffffffffffffffffffffffffffffffffff160362000be4576040517f08c379a000000000000000000000000000000000000000000000000000000000815260040162000bdb9062001d43565b60405180910390fd5b62000bef8162000f9c565b50565b6060600560008373ffffffffffffffffffffffffffffffffffffffff1673ffffffffffffffffffffffffffffffffffffffff16815260200190815260200160002080548060200260200160405190810160405280929190818152602001828054801562000cb557602002820191906000526020600020905b8160009054906101000a900473ffffffffffffffffffffffffffffffffffffffff1673ffffffffffffffffffffffffffffffffffffffff168152602001906001019080831162000c6a575b50505050509050919050565b60007f01ffc9a7000000000000000000000000000000000000000000000000000000007bffffffffffffffffffffffffffffffffffffffffffffffffffffffff1916827bffffffffffffffffffffffffffffffffffffffffffffffffffffffff1916149050919050565b62000d408162000d3a62000e28565b62001084565b50565b62000d4f828262000816565b62000e2457600180600084815260200190815260200160002060000160008373ffffffffffffffffffffffffffffffffffffffff1673ffffffffffffffffffffffffffffffffffffffff16815260200190815260200160002060006101000a81548160ff02191690831515021790555062000dc962000e28565b73ffffffffffffffffffffffffffffffffffffffff168173ffffffffffffffffffffffffffffffffffffffff16837f2f8788117e7eff1d82e926ec794901d17c78024a50270940304540a733656f0d60405160405180910390a45b5050565b600033905090565b62000e3c828262000816565b1562000f135760006001600084815260200190815260200160002060000160008373ffffffffffffffffffffffffffffffffffffffff1673ffffffffffffffffffffffffffffffffffffffff16815260200190815260200160002060006101000a81548160ff02191690831515021790555062000eb862000e28565b73ffffffffffffffffffffffffffffffffffffffff168173ffffffffffffffffffffffffffffffffffffffff16837ff6391f5c32d9c69d2a47ea670b442974b53935d1edc7fd64eb21e047a839171b60405160405180910390a45b5050565b62000f2162000e28565b73ffffffffffffffffffffffffffffffffffffffff1662000f41620007ed565b73ffffffffffffffffffffffffffffffffffffffff161462000f9a576040517f08c379a000000000000000000000000000000000000000000000000000000000815260040162000f919062001db5565b60405180910390fd5b565b60008060009054906101000a900473ffffffffffffffffffffffffffffffffffffffff169050816000806101000a81548173ffffffffffffffffffffffffffffffffffffffff021916908373ffffffffffffffffffffffffffffffffffffffff1602179055508173ffffffffffffffffffffffffffffffffffffffff168173ffffffffffffffffffffffffffffffffffffffff167f8be0079c531659141344cd1fd0a4f28419497f9722a3daafe3b4186f6b6457e060405160405180910390a35050565b600081600001549050919050565b6001816000016000828254019250508190555050565b62001090828262000816565b6200111057620010a08162001114565b620010b08360001c602062001143565b604051602001620010c392919062001ef0565b6040516020818303038152906040526040517f08c379a000000000000000000000000000000000000000000000000000000000815260040162001107919062001f73565b60405180910390fd5b5050565b60606200113c8273ffffffffffffffffffffffffffffffffffffffff16601460ff1662001143565b9050919050565b60606000600283600262001158919062001fc6565b62001164919062002011565b67ffffffffffffffff81111562001180576200117f6200204c565b5b6040519080825280601f01601f191660200182016040528015620011b35781602001600182028036833780820191505090505b5090507f300000000000000000000000000000000000000000000000000000000000000081600081518110620011ee57620011ed6200207b565b5b60200101907effffffffffffffffffffffffffffffffffffffffffffffffffffffffffffff1916908160001a9053507f7800000000000000000000000000000000000000000000000000000000000000816001815181106200125557620012546200207b565b5b60200101907effffffffffffffffffffffffffffffffffffffffffffffffffffffffffffff1916908160001a9053506000600184600262001297919062001fc6565b620012a3919062002011565b90505b60018111156200134d577f3031323334353637383961626364656600000000000000000000000000000000600f861660108110620012e957620012e86200207b565b5b1a60f81b8282815181106200130357620013026200207b565b5b60200101907effffffffffffffffffffffffffffffffffffffffffffffffffffffffffffff1916908160001a905350600485901c9450806200134590620020aa565b9050620012a6565b506000841462001394576040517f08c379a00000000000000000000000000000000000000000000000000000000081526004016200138b9062002128565b60405180910390fd5b8091505092915050565b613d5d806200214b83390190565b600080fd5b600080fd5b60007fffffffff0000000000000000000000000000000000000000000000000000000082169050919050565b620013ed81620013b6565b8114620013f957600080fd5b50565b6000813590506200140d81620013e2565b92915050565b6000602082840312156200142c576200142b620013ac565b5b60006200143c84828501620013fc565b91505092915050565b60008115159050919050565b6200145c8162001445565b82525050565b600060208201905062001479600083018462001451565b92915050565b6000819050919050565b62001494816200147f565b8114620014a057600080fd5b50565b600081359050620014b48162001489565b92915050565b600060208284031215620014d357620014d2620013ac565b5b6000620014e384828501620014a3565b91505092915050565b620014f7816200147f565b82525050565b6000602082019050620015146000830184620014ec565b92915050565b600073ffffffffffffffffffffffffffffffffffffffff82169050919050565b600062001547826200151a565b9050919050565b62001559816200153a565b81146200156557600080fd5b50565b60008135905062001579816200154e565b92915050565b60008060408385031215620015995762001598620013ac565b5b6000620015a985828601620014a3565b9250506020620015bc8582860162001568565b9150509250929050565b600060208284031215620015df57620015de620013ac565b5b6000620015ef8482850162001568565b91505092915050565b6000819050919050565b6200160d81620015f8565b82525050565b60006020820190506200162a600083018462001602565b92915050565b6200163b816200153a565b82525050565b600060208201905062001658600083018462001630565b92915050565b600080fd5b600080fd5b600080fd5b60008083601f8401126200168657620016856200165e565b5b8235905067ffffffffffffffff811115620016a657620016a562001663565b5b602083019150836001820283011115620016c557620016c462001668565b5b9250929050565b620016d781620015f8565b8114620016e357600080fd5b50565b600081359050620016f781620016cc565b92915050565b60008060008060008060008060008060c08b8d031215620017235762001722620013ac565b5b6000620017338d828e0162001568565b9a505060208b013567ffffffffffffffff811115620017575762001756620013b1565b5b620017658d828e016200166d565b995099505060408b013567ffffffffffffffff8111156200178b576200178a620013b1565b5b620017998d828e016200166d565b975097505060608b013567ffffffffffffffff811115620017bf57620017be620013b1565b5b620017cd8d828e016200166d565b95509550506080620017e28d828e01620016e6565b93505060a08b013567ffffffffffffffff811115620018065762001805620013b1565b5b620018148d828e016200166d565b92509250509295989b9194979a5092959850565b60008060408385031215620018425762001841620013ac565b5b6000620018528582860162001568565b92505060206200186585828601620016e6565b9150509250929050565b600081519050919050565b600082825260208201905092915050565b6000819050602082019050919050565b620018a6816200153a565b82525050565b6000620018ba83836200189b565b60208301905092915050565b6000602082019050919050565b6000620018e0826200186f565b620018ec81856200187a565b9350620018f9836200188b565b8060005b8381101562001930578151620019148882620018ac565b97506200192183620018c6565b925050600181019050620018fd565b5085935050505092915050565b60006020820190508181036000830152620019598184620018d3565b905092915050565b600082825260208201905092915050565b7f416363657373436f6e74726f6c3a2063616e206f6e6c792072656e6f756e636560008201527f20726f6c657320666f722073656c660000000000000000000000000000000000602082015250565b6000620019d0602f8362001961565b9150620019dd8262001972565b604082019050919050565b6000602082019050818103600083015262001a0381620019c1565b9050919050565b7f43616c6c6572206973206e6f7420616e2061646d696e00000000000000000000600082015250565b600062001a4260168362001961565b915062001a4f8262001a0a565b602082019050919050565b6000602082019050818103600083015262001a758162001a33565b9050919050565b60008151905062001a8d81620016cc565b92915050565b60006020828403121562001aac5762001aab620013ac565b5b600062001abc8482850162001a7c565b91505092915050565b7f43616c6c6572206973206e6f7420616e20617274697374000000000000000000600082015250565b600062001afd60178362001961565b915062001b0a8262001ac5565b602082019050919050565b6000602082019050818103600083015262001b308162001aee565b9050919050565b82818337600083830152505050565b6000601f19601f8301169050919050565b600062001b65838562001961565b935062001b7483858462001b37565b62001b7f8362001b46565b840190509392505050565b60006101008201905062001ba2600083018f62001630565b818103602083015262001bb7818d8f62001b57565b9050818103604083015262001bce818b8d62001b57565b9050818103606083015262001be581898b62001b57565b905062001bf6608083018862001602565b81810360a083015262001c0b81868862001b57565b905062001c1c60c083018562001630565b62001c2b60e083018462001630565b9d9c50505050505050505050505050565b600060c08201905062001c53600083018d62001630565b818103602083015262001c68818b8d62001b57565b9050818103604083015262001c7f81898b62001b57565b9050818103606083015262001c9681878962001b57565b905062001ca7608083018662001602565b81810360a083015262001cbc81848662001b57565b90509b9a5050505050505050505050565b7f4f776e61626c653a206e6577206f776e657220697320746865207a65726f206160008201527f6464726573730000000000000000000000000000000000000000000000000000602082015250565b600062001d2b60268362001961565b915062001d388262001ccd565b604082019050919050565b6000602082019050818103600083015262001d5e8162001d1c565b9050919050565b7f4f776e61626c653a2063616c6c6572206973206e6f7420746865206f776e6572600082015250565b600062001d9d60208362001961565b915062001daa8262001d65565b602082019050919050565b6000602082019050818103600083015262001dd08162001d8e565b9050919050565b600081905092915050565b7f416363657373436f6e74726f6c3a206163636f756e7420000000000000000000600082015250565b600062001e1a60178362001dd7565b915062001e278262001de2565b601782019050919050565b600081519050919050565b60005b8381101562001e5d57808201518184015260208101905062001e40565b60008484015250505050565b600062001e768262001e32565b62001e82818562001dd7565b935062001e9481856020860162001e3d565b80840191505092915050565b7f206973206d697373696e6720726f6c6520000000000000000000000000000000600082015250565b600062001ed860118362001dd7565b915062001ee58262001ea0565b601182019050919050565b600062001efd8262001e0b565b915062001f0b828562001e69565b915062001f188262001ec9565b915062001f26828462001e69565b91508190509392505050565b600062001f3f8262001e32565b62001f4b818562001961565b935062001f5d81856020860162001e3d565b62001f688162001b46565b840191505092915050565b6000602082019050818103600083015262001f8f818462001f32565b905092915050565b7f4e487b7100000000000000000000000000000000000000000000000000000000600052601160045260246000fd5b600062001fd382620015f8565b915062001fe083620015f8565b925082820262001ff081620015f8565b915082820484148315176200200a576200200962001f97565b5b5092915050565b60006200201e82620015f8565b91506200202b83620015f8565b925082820190508082111562002046576200204562001f97565b5b92915050565b7f4e487b7100000000000000000000000000000000000000000000000000000000600052604160045260246000fd5b7f4e487b7100000000000000000000000000000000000000000000000000000000600052603260045260246000fd5b6000620020b782620015f8565b915060008203620020cd57620020cc62001f97565b5b600182039050919050565b7f537472696e67733a20686578206c656e67746820696e73756666696369656e74600082015250565b60006200211060208362001961565b91506200211d82620020d8565b602082019050919050565b60006020820190508181036000830152620021438162002101565b905091905056fe60806040523480156200001157600080fd5b5060405162003d5d38038062003d5d83398181016040528101906200003791906200047c565b858581600090816200004a919062000802565b5080600190816200005c919062000802565b5050506200007f620000736200017b60201b60201c565b6200018360201b60201c565b86600b908162000090919062000802565b5087600c60006101000a81548173ffffffffffffffffffffffffffffffffffffffff021916908373ffffffffffffffffffffffffffffffffffffffff1602179055508360098190555080600d60006101000a81548173ffffffffffffffffffffffffffffffffffffffff021916908373ffffffffffffffffffffffffffffffffffffffff16021790555082600e90816200012b919062000802565b5081600f60006101000a81548173ffffffffffffffffffffffffffffffffffffffff021916908373ffffffffffffffffffffffffffffffffffffffff1602179055505050505050505050620008e9565b600033905090565b6000600760009054906101000a900473ffffffffffffffffffffffffffffffffffffffff16905081600760006101000a81548173ffffffffffffffffffffffffffffffffffffffff021916908373ffffffffffffffffffffffffffffffffffffffff1602179055508173ffffffffffffffffffffffffffffffffffffffff168173ffffffffffffffffffffffffffffffffffffffff167f8be0079c531659141344cd1fd0a4f28419497f9722a3daafe3b4186f6b6457e060405160405180910390a35050565b6000604051905090565b600080fd5b600080fd5b600073ffffffffffffffffffffffffffffffffffffffff82169050919050565b60006200028a826200025d565b9050919050565b6200029c816200027d565b8114620002a857600080fd5b50565b600081519050620002bc8162000291565b92915050565b600080fd5b600080fd5b6000601f19601f8301169050919050565b7f4e487b7100000000000000000000000000000000000000000000000000000000600052604160045260246000fd5b6200031782620002cc565b810181811067ffffffffffffffff82111715620003395762000338620002dd565b5b80604052505050565b60006200034e62000249565b90506200035c82826200030c565b919050565b600067ffffffffffffffff8211156200037f576200037e620002dd565b5b6200038a82620002cc565b9050602081019050919050565b60005b83811015620003b75780820151818401526020810190506200039a565b60008484015250505050565b6000620003da620003d48462000361565b62000342565b905082815260208101848484011115620003f957620003f8620002c7565b5b6200040684828562000397565b509392505050565b600082601f830112620004265762000425620002c2565b5b815162000438848260208601620003c3565b91505092915050565b6000819050919050565b620004568162000441565b81146200046257600080fd5b50565b60008151905062000476816200044b565b92915050565b600080600080600080600080610100898b031215620004a0576200049f62000253565b5b6000620004b08b828c01620002ab565b985050602089015167ffffffffffffffff811115620004d457620004d362000258565b5b620004e28b828c016200040e565b975050604089015167ffffffffffffffff81111562000506576200050562000258565b5b620005148b828c016200040e565b965050606089015167ffffffffffffffff81111562000538576200053762000258565b5b620005468b828c016200040e565b9550506080620005598b828c0162000465565b94505060a089015167ffffffffffffffff8111156200057d576200057c62000258565b5b6200058b8b828c016200040e565b93505060c06200059e8b828c01620002ab565b92505060e0620005b18b828c01620002ab565b9150509295985092959890939650565b600081519050919050565b7f4e487b7100000000000000000000000000000000000000000000000000000000600052602260045260246000fd5b600060028204905060018216806200061457607f821691505b6020821081036200062a5762000629620005cc565b5b50919050565b60008190508160005260206000209050919050565b60006020601f8301049050919050565b600082821b905092915050565b600060088302620006947fffffffffffffffffffffffffffffffffffffffffffffffffffffffffffffffff8262000655565b620006a0868362000655565b95508019841693508086168417925050509392505050565b6000819050919050565b6000620006e3620006dd620006d78462000441565b620006b8565b62000441565b9050919050565b6000819050919050565b620006ff83620006c2565b620007176200070e82620006ea565b84845462000662565b825550505050565b600090565b6200072e6200071f565b6200073b818484620006f4565b505050565b5b8181101562000763576200075760008262000724565b60018101905062000741565b5050565b601f821115620007b2576200077c8162000630565b620007878462000645565b8101602085101562000797578190505b620007af620007a68562000645565b83018262000740565b50505b505050565b600082821c905092915050565b6000620007d760001984600802620007b7565b1980831691505092915050565b6000620007f28383620007c4565b9150826002028217905092915050565b6200080d82620005c1565b67ffffffffffffffff811115620008295762000828620002dd565b5b620008358254620005fb565b6200084282828562000767565b600060209050601f8311600181146200087a576000841562000865578287015190505b620008718582620007e4565b865550620008e1565b601f1984166200088a8662000630565b60005b82811015620008b4578489015182556001820191506020850194506020810190506200088d565b86831015620008d45784890151620008d0601f891682620007c4565b8355505b6001600288020188555050505b505050505050565b61346480620008f96000396000f3fe6080604052600436106101405760003560e01c806370a08231116100b6578063a22cb4651161006f578063a22cb4651461042b578063b88d4fde14610454578063bb244e401461047d578063c87b56dd146104a8578063e985e9c5146104e5578063f2fde38b1461052257610140565b806370a082311461032b578063715018a6146103685780638d2fe3e11461037f5780638da5cb5b146103aa57806393dd6446146103d557806395d89b411461040057610140565b80630dccc9ad116101085780630dccc9ad1461023e57806323b872dd146102695780633ccfd60b1461029257806340c10f19146102a957806342842e0e146102c55780636352211e146102ee57610140565b806301ffc9a7146101455780630387da421461018257806306fdde03146101ad578063081812fc146101d8578063095ea7b314610215575b600080fd5b34801561015157600080fd5b5061016c600480360381019061016791906120f8565b61054b565b6040516101799190612140565b60405180910390f35b34801561018e57600080fd5b5061019761055d565b6040516101a49190612174565b60405180910390f35b3480156101b957600080fd5b506101c2610563565b6040516101cf919061221f565b60405180910390f35b3480156101e457600080fd5b506101ff60048036038101906101fa919061226d565b6105f5565b60405161020c91906122db565b60405180910390f35b34801561022157600080fd5b5061023c60048036038101906102379190612322565b61063b565b005b34801561024a57600080fd5b50610253610752565b604051610260919061221f565b60405180910390f35b34801561027557600080fd5b50610290600480360381019061028b9190612362565b6107e0565b005b34801561029e57600080fd5b506102a7610840565b005b6102c360048036038101906102be9190612322565b6109a9565b005b3480156102d157600080fd5b506102ec60048036038101906102e79190612362565b610c7d565b005b3480156102fa57600080fd5b506103156004803603810190610310919061226d565b610c9d565b60405161032291906122db565b60405180910390f35b34801561033757600080fd5b50610352600480360381019061034d91906123b5565b610d23565b60405161035f9190612174565b60405180910390f35b34801561037457600080fd5b5061037d610dda565b005b34801561038b57600080fd5b50610394610dee565b6040516103a1919061221f565b60405180910390f35b3480156103b657600080fd5b506103bf610e7c565b6040516103cc91906122db565b60405180910390f35b3480156103e157600080fd5b506103ea610ea6565b6040516103f791906122db565b60405180910390f35b34801561040c57600080fd5b50610415610ecc565b604051610422919061221f565b60405180910390f35b34801561043757600080fd5b50610452600480360381019061044d919061240e565b610f5e565b005b34801561046057600080fd5b5061047b60048036038101906104769190612583565b610f74565b005b34801561048957600080fd5b50610492610fd6565b60405161049f91906122db565b60405180910390f35b3480156104b457600080fd5b506104cf60048036038101906104ca919061226d565b610ffc565b6040516104dc919061221f565b60405180910390f35b3480156104f157600080fd5b5061050c60048036038101906105079190612606565b611090565b6040516105199190612140565b60405180910390f35b34801561052e57600080fd5b50610549600480360381019061054491906123b5565b611124565b005b6000610556826111a7565b9050919050565b60095481565b60606000805461057290612675565b80601f016020809104026020016040519081016040528092919081815260200182805461059e90612675565b80156105eb5780601f106105c0576101008083540402835291602001916105eb565b820191906000526020600020905b8154815290600101906020018083116105ce57829003601f168201915b5050505050905090565b600061060082611208565b6004600083815260200190815260200160002060009054906101000a900473ffffffffffffffffffffffffffffffffffffffff169050919050565b600061064682610c9d565b90508073ffffffffffffffffffffffffffffffffffffffff168373ffffffffffffffffffffffffffffffffffffffff16036106b6576040517f08c379a00000000000000000000000000000000000000000000000000000000081526004016106ad90612718565b60405180910390fd5b8073ffffffffffffffffffffffffffffffffffffffff166106d5611253565b73ffffffffffffffffffffffffffffffffffffffff1614806107045750610703816106fe611253565b611090565b5b610743576040517f08c379a000000000000000000000000000000000000000000000000000000000815260040161073a906127aa565b60405180910390fd5b61074d838361125b565b505050565b600b805461075f90612675565b80601f016020809104026020016040519081016040528092919081815260200182805461078b90612675565b80156107d85780601f106107ad576101008083540402835291602001916107d8565b820191906000526020600020905b8154815290600101906020018083116107bb57829003601f168201915b505050505081565b6107f16107eb611253565b82611314565b610830576040517f08c379a00000000000000000000000000000000000000000000000000000000081526004016108279061283c565b60405180910390fd5b61083b8383836113a9565b505050565b600c60009054906101000a900473ffffffffffffffffffffffffffffffffffffffff1673ffffffffffffffffffffffffffffffffffffffff163373ffffffffffffffffffffffffffffffffffffffff16146108d0576040517f08c379a00000000000000000000000000000000000000000000000000000000081526004016108c7906128ce565b60405180910390fd5b600c60009054906101000a900473ffffffffffffffffffffffffffffffffffffffff1673ffffffffffffffffffffffffffffffffffffffff163373ffffffffffffffffffffffffffffffffffffffff1614610960576040517f08c379a00000000000000000000000000000000000000000000000000000000081526004016109579061293a565b60405180910390fd5b3373ffffffffffffffffffffffffffffffffffffffff166108fc479081150290604051600060405180830381858888f193505050501580156109a6573d6000803e3d6000fd5b50565b600081116109ec576040517f08c379a00000000000000000000000000000000000000000000000000000000081526004016109e3906129a6565b60405180910390fd5b600954816109fa91906129f5565b341015610a3c576040517f08c379a0000000000000000000000000000000000000000000000000000000008152600401610a3390612a83565b60405180910390fd5b60006064600f60009054906101000a900473ffffffffffffffffffffffffffffffffffffffff1673ffffffffffffffffffffffffffffffffffffffff16637a3a27ea6040518163ffffffff1660e01b8152600401602060405180830381865afa158015610aad573d6000803e3d6000fd5b505050506040513d601f19601f82011682018060405250810190610ad19190612ab8565b34610adc91906129f5565b610ae69190612b14565b9050600d60009054906101000a900473ffffffffffffffffffffffffffffffffffffffff1673ffffffffffffffffffffffffffffffffffffffff166108fc829081150290604051600060405180830381858888f19350505050158015610b50573d6000803e3d6000fd5b5060005b82811015610c7757610b6660086116a2565b6000610b7260086116b8565b9050610b7e85826116c6565b808573ffffffffffffffffffffffffffffffffffffffff167fe7cd4ce7f2a465edc730269a1305e8a48bad821e8fb7e152ec413829c01a53c4610bc084610ffc565b604051610bcd919061221f565b60405180910390a3610c6981600b8054610be690612675565b80601f0160208091040260200160405190810160405280929190818152602001828054610c1290612675565b8015610c5f5780601f10610c3457610100808354040283529160200191610c5f565b820191906000526020600020905b815481529060010190602001808311610c4257829003601f168201915b50505050506116e4565b508080600101915050610b54565b50505050565b610c9883838360405180602001604052806000815250610f74565b505050565b600080610ca983611788565b9050600073ffffffffffffffffffffffffffffffffffffffff168173ffffffffffffffffffffffffffffffffffffffff1603610d1a576040517f08c379a0000000000000000000000000000000000000000000000000000000008152600401610d1190612b91565b60405180910390fd5b80915050919050565b60008073ffffffffffffffffffffffffffffffffffffffff168273ffffffffffffffffffffffffffffffffffffffff1603610d93576040517f08c379a0000000000000000000000000000000000000000000000000000000008152600401610d8a90612c23565b60405180910390fd5b600360008373ffffffffffffffffffffffffffffffffffffffff1673ffffffffffffffffffffffffffffffffffffffff168152602001908152602001600020549050919050565b610de26117c5565b610dec6000611843565b565b600e8054610dfb90612675565b80601f0160208091040260200160405190810160405280929190818152602001828054610e2790612675565b8015610e745780601f10610e4957610100808354040283529160200191610e74565b820191906000526020600020905b815481529060010190602001808311610e5757829003601f168201915b505050505081565b6000600760009054906101000a900473ffffffffffffffffffffffffffffffffffffffff16905090565b600c60009054906101000a900473ffffffffffffffffffffffffffffffffffffffff1681565b606060018054610edb90612675565b80601f0160208091040260200160405190810160405280929190818152602001828054610f0790612675565b8015610f545780601f10610f2957610100808354040283529160200191610f54565b820191906000526020600020905b815481529060010190602001808311610f3757829003601f168201915b5050505050905090565b610f70610f69611253565b8383611909565b5050565b610f85610f7f611253565b83611314565b610fc4576040517f08c379a0000000000000000000000000000000000000000000000000000000008152600401610fbb9061283c565b60405180910390fd5b610fd084848484611a75565b50505050565b600d60009054906101000a900473ffffffffffffffffffffffffffffffffffffffff1681565b6060600b805461100b90612675565b80601f016020809104026020016040519081016040528092919081815260200182805461103790612675565b80156110845780601f1061105957610100808354040283529160200191611084565b820191906000526020600020905b81548152906001019060200180831161106757829003601f168201915b50505050509050919050565b6000600560008473ffffffffffffffffffffffffffffffffffffffff1673ffffffffffffffffffffffffffffffffffffffff16815260200190815260200160002060008373ffffffffffffffffffffffffffffffffffffffff1673ffffffffffffffffffffffffffffffffffffffff16815260200190815260200160002060009054906101000a900460ff16905092915050565b61112c6117c5565b600073ffffffffffffffffffffffffffffffffffffffff168173ffffffffffffffffffffffffffffffffffffffff160361119b576040517f08c379a000000000000000000000000000000000000000000000000000000000815260040161119290612cb5565b60405180910390fd5b6111a481611843565b50565b6000634906490660e01b7bffffffffffffffffffffffffffffffffffffffffffffffffffffffff1916827bffffffffffffffffffffffffffffffffffffffffffffffffffffffff19161480611201575061120082611ad1565b5b9050919050565b61121181611bb3565b611250576040517f08c379a000000000000000000000000000000000000000000000000000000000815260040161124790612b91565b60405180910390fd5b50565b600033905090565b816004600083815260200190815260200160002060006101000a81548173ffffffffffffffffffffffffffffffffffffffff021916908373ffffffffffffffffffffffffffffffffffffffff160217905550808273ffffffffffffffffffffffffffffffffffffffff166112ce83610c9d565b73ffffffffffffffffffffffffffffffffffffffff167f8c5be1e5ebec7d5bd14f71427d1e84f3dd0314c0f7b2291e5b200ac8c7c3b92560405160405180910390a45050565b60008061132083610c9d565b90508073ffffffffffffffffffffffffffffffffffffffff168473ffffffffffffffffffffffffffffffffffffffff16148061136257506113618185611090565b5b806113a057508373ffffffffffffffffffffffffffffffffffffffff16611388846105f5565b73ffffffffffffffffffffffffffffffffffffffff16145b91505092915050565b8273ffffffffffffffffffffffffffffffffffffffff166113c982610c9d565b73ffffffffffffffffffffffffffffffffffffffff161461141f576040517f08c379a000000000000000000000000000000000000000000000000000000000815260040161141690612d47565b60405180910390fd5b600073ffffffffffffffffffffffffffffffffffffffff168273ffffffffffffffffffffffffffffffffffffffff160361148e576040517f08c379a000000000000000000000000000000000000000000000000000000000815260040161148590612dd9565b60405180910390fd5b61149b8383836001611bf4565b8273ffffffffffffffffffffffffffffffffffffffff166114bb82610c9d565b73ffffffffffffffffffffffffffffffffffffffff1614611511576040517f08c379a000000000000000000000000000000000000000000000000000000000815260040161150890612d47565b60405180910390fd5b6004600082815260200190815260200160002060006101000a81549073ffffffffffffffffffffffffffffffffffffffff02191690556001600360008573ffffffffffffffffffffffffffffffffffffffff1673ffffffffffffffffffffffffffffffffffffffff168152602001908152602001600020600082825403925050819055506001600360008473ffffffffffffffffffffffffffffffffffffffff1673ffffffffffffffffffffffffffffffffffffffff16815260200190815260200160002060008282540192505081905550816002600083815260200190815260200160002060006101000a81548173ffffffffffffffffffffffffffffffffffffffff021916908373ffffffffffffffffffffffffffffffffffffffff160217905550808273ffffffffffffffffffffffffffffffffffffffff168473ffffffffffffffffffffffffffffffffffffffff167fddf252ad1be2c89b69c2b068fc378daa952ba7f163c4a11628f55a4df523b3ef60405160405180910390a461169d8383836001611bfa565b505050565b6001816000016000828254019250508190555050565b600081600001549050919050565b6116e0828260405180602001604052806000815250611c00565b5050565b6116ed82611bb3565b61172c576040517f08c379a000000000000000000000000000000000000000000000000000000000815260040161172390612e6b565b60405180910390fd5b8060066000848152602001908152602001600020908161174c9190613037565b507ff8e1a15aba9398e019f0b49df1a4fde98ee17ae345cb5f6b5e2c27f5033e8ce78260405161177c9190612174565b60405180910390a15050565b60006002600083815260200190815260200160002060009054906101000a900473ffffffffffffffffffffffffffffffffffffffff169050919050565b6117cd611253565b73ffffffffffffffffffffffffffffffffffffffff166117eb610e7c565b73ffffffffffffffffffffffffffffffffffffffff1614611841576040517f08c379a000000000000000000000000000000000000000000000000000000000815260040161183890613155565b60405180910390fd5b565b6000600760009054906101000a900473ffffffffffffffffffffffffffffffffffffffff16905081600760006101000a81548173ffffffffffffffffffffffffffffffffffffffff021916908373ffffffffffffffffffffffffffffffffffffffff1602179055508173ffffffffffffffffffffffffffffffffffffffff168173ffffffffffffffffffffffffffffffffffffffff167f8be0079c531659141344cd1fd0a4f28419497f9722a3daafe3b4186f6b6457e060405160405180910390a35050565b8173ffffffffffffffffffffffffffffffffffffffff168373ffffffffffffffffffffffffffffffffffffffff1603611977576040517f08c379a000000000000000000000000000000000000000000000000000000000815260040161196e906131c1565b60405180910390fd5b80600560008573ffffffffffffffffffffffffffffffffffffffff1673ffffffffffffffffffffffffffffffffffffffff16815260200190815260200160002060008473ffffffffffffffffffffffffffffffffffffffff1673ffffffffffffffffffffffffffffffffffffffff16815260200190815260200160002060006101000a81548160ff0219169083151502179055508173ffffffffffffffffffffffffffffffffffffffff168373ffffffffffffffffffffffffffffffffffffffff167f17307eab39ab6107e8899845ad3d59bd9653f200f220920489ca2b5937696c3183604051611a689190612140565b60405180910390a3505050565b611a808484846113a9565b611a8c84848484611c5b565b611acb576040517f08c379a0000000000000000000000000000000000000000000000000000000008152600401611ac290613253565b60405180910390fd5b50505050565b60007f80ac58cd000000000000000000000000000000000000000000000000000000007bffffffffffffffffffffffffffffffffffffffffffffffffffffffff1916827bffffffffffffffffffffffffffffffffffffffffffffffffffffffff19161480611b9c57507f5b5e139f000000000000000000000000000000000000000000000000000000007bffffffffffffffffffffffffffffffffffffffffffffffffffffffff1916827bffffffffffffffffffffffffffffffffffffffffffffffffffffffff1916145b80611bac5750611bab82611de2565b5b9050919050565b60008073ffffffffffffffffffffffffffffffffffffffff16611bd583611788565b73ffffffffffffffffffffffffffffffffffffffff1614159050919050565b50505050565b50505050565b611c0a8383611e4c565b611c176000848484611c5b565b611c56576040517f08c379a0000000000000000000000000000000000000000000000000000000008152600401611c4d90613253565b60405180910390fd5b505050565b6000611c7c8473ffffffffffffffffffffffffffffffffffffffff16612069565b15611dd5578373ffffffffffffffffffffffffffffffffffffffff1663150b7a02611ca5611253565b8786866040518563ffffffff1660e01b8152600401611cc794939291906132c8565b6020604051808303816000875af1925050508015611d0357506040513d601f19601f82011682018060405250810190611d009190613329565b60015b611d85573d8060008114611d33576040519150601f19603f3d011682016040523d82523d6000602084013e611d38565b606091505b506000815103611d7d576040517f08c379a0000000000000000000000000000000000000000000000000000000008152600401611d7490613253565b60405180910390fd5b805181602001fd5b63150b7a0260e01b7bffffffffffffffffffffffffffffffffffffffffffffffffffffffff1916817bffffffffffffffffffffffffffffffffffffffffffffffffffffffff191614915050611dda565b600190505b949350505050565b60007f01ffc9a7000000000000000000000000000000000000000000000000000000007bffffffffffffffffffffffffffffffffffffffffffffffffffffffff1916827bffffffffffffffffffffffffffffffffffffffffffffffffffffffff1916149050919050565b600073ffffffffffffffffffffffffffffffffffffffff168273ffffffffffffffffffffffffffffffffffffffff1603611ebb576040517f08c379a0000000000000000000000000000000000000000000000000000000008152600401611eb2906133a2565b60405180910390fd5b611ec481611bb3565b15611f04576040517f08c379a0000000000000000000000000000000000000000000000000000000008152600401611efb9061340e565b60405180910390fd5b611f12600083836001611bf4565b611f1b81611bb3565b15611f5b576040517f08c379a0000000000000000000000000000000000000000000000000000000008152600401611f529061340e565b60405180910390fd5b6001600360008473ffffffffffffffffffffffffffffffffffffffff1673ffffffffffffffffffffffffffffffffffffffff16815260200190815260200160002060008282540192505081905550816002600083815260200190815260200160002060006101000a81548173ffffffffffffffffffffffffffffffffffffffff021916908373ffffffffffffffffffffffffffffffffffffffff160217905550808273ffffffffffffffffffffffffffffffffffffffff16600073ffffffffffffffffffffffffffffffffffffffff167fddf252ad1be2c89b69c2b068fc378daa952ba7f163c4a11628f55a4df523b3ef60405160405180910390a4612065600083836001611bfa565b5050565b6000808273ffffffffffffffffffffffffffffffffffffffff163b119050919050565b6000604051905090565b600080fd5b600080fd5b60007fffffffff0000000000000000000000000000000000000000000000000000000082169050919050565b6120d5816120a0565b81146120e057600080fd5b50565b6000813590506120f2816120cc565b92915050565b60006020828403121561210e5761210d612096565b5b600061211c848285016120e3565b91505092915050565b60008115159050919050565b61213a81612125565b82525050565b60006020820190506121556000830184612131565b92915050565b6000819050919050565b61216e8161215b565b82525050565b60006020820190506121896000830184612165565b92915050565b600081519050919050565b600082825260208201905092915050565b60005b838110156121c95780820151818401526020810190506121ae565b60008484015250505050565b6000601f19601f8301169050919050565b60006121f18261218f565b6121fb818561219a565b935061220b8185602086016121ab565b612214816121d5565b840191505092915050565b6000602082019050818103600083015261223981846121e6565b905092915050565b61224a8161215b565b811461225557600080fd5b50565b60008135905061226781612241565b92915050565b60006020828403121561228357612282612096565b5b600061229184828501612258565b91505092915050565b600073ffffffffffffffffffffffffffffffffffffffff82169050919050565b60006122c58261229a565b9050919050565b6122d5816122ba565b82525050565b60006020820190506122f060008301846122cc565b92915050565b6122ff816122ba565b811461230a57600080fd5b50565b60008135905061231c816122f6565b92915050565b6000806040838503121561233957612338612096565b5b60006123478582860161230d565b925050602061235885828601612258565b9150509250929050565b60008060006060848603121561237b5761237a612096565b5b60006123898682870161230d565b935050602061239a8682870161230d565b92505060406123ab86828701612258565b9150509250925092565b6000602082840312156123cb576123ca612096565b5b60006123d98482850161230d565b91505092915050565b6123eb81612125565b81146123f657600080fd5b50565b600081359050612408816123e2565b92915050565b6000806040838503121561242557612424612096565b5b60006124338582860161230d565b9250506020612444858286016123f9565b9150509250929050565b600080fd5b600080fd5b7f4e487b7100000000000000000000000000000000000000000000000000000000600052604160045260246000fd5b612490826121d5565b810181811067ffffffffffffffff821117156124af576124ae612458565b5b80604052505050565b60006124c261208c565b90506124ce8282612487565b919050565b600067ffffffffffffffff8211156124ee576124ed612458565b5b6124f7826121d5565b9050602081019050919050565b82818337600083830152505050565b6000612526612521846124d3565b6124b8565b90508281526020810184848401111561254257612541612453565b5b61254d848285612504565b509392505050565b600082601f83011261256a5761256961244e565b5b813561257a848260208601612513565b91505092915050565b6000806000806080858703121561259d5761259c612096565b5b60006125ab8782880161230d565b94505060206125bc8782880161230d565b93505060406125cd87828801612258565b925050606085013567ffffffffffffffff8111156125ee576125ed61209b565b5b6125fa87828801612555565b91505092959194509250565b6000806040838503121561261d5761261c612096565b5b600061262b8582860161230d565b925050602061263c8582860161230d565b9150509250929050565b7f4e487b7100000000000000000000000000000000000000000000000000000000600052602260045260246000fd5b6000600282049050600182168061268d57607f821691505b6020821081036126a05761269f612646565b5b50919050565b7f4552433732313a20617070726f76616c20746f2063757272656e74206f776e6560008201527f7200000000000000000000000000000000000000000000000000000000000000602082015250565b600061270260218361219a565b915061270d826126a6565b604082019050919050565b60006020820190508181036000830152612731816126f5565b9050919050565b7f4552433732313a20617070726f76652063616c6c6572206973206e6f7420746f60008201527f6b656e206f776e6572206f7220617070726f76656420666f7220616c6c000000602082015250565b6000612794603d8361219a565b915061279f82612738565b604082019050919050565b600060208201905081810360008301526127c381612787565b9050919050565b7f4552433732313a2063616c6c6572206973206e6f7420746f6b656e206f776e6560008201527f72206f7220617070726f76656400000000000000000000000000000000000000602082015250565b6000612826602d8361219a565b9150612831826127ca565b604082019050919050565b6000602082019050818103600083015261285581612819565b9050919050565b7f4f6e6c79206172746973742063616e2063616c6c20746869732066756e63746960008201527f6f6e000000000000000000000000000000000000000000000000000000000000602082015250565b60006128b860228361219a565b91506128c38261285c565b604082019050919050565b600060208201905081810360008301526128e7816128ab565b9050919050565b7f4f6e6c7920746865206172746973742063616e20776974686472617700000000600082015250565b6000612924601c8361219a565b915061292f826128ee565b602082019050919050565b6000602082019050818103600083015261295381612917565b9050919050565b7f5175616e74697479206d7573742062652067726561746572207468616e203000600082015250565b6000612990601f8361219a565b915061299b8261295a565b602082019050919050565b600060208201905081810360008301526129bf81612983565b9050919050565b7f4e487b7100000000000000000000000000000000000000000000000000000000600052601160045260246000fd5b6000612a008261215b565b9150612a0b8361215b565b9250828202612a198161215b565b91508282048414831517612a3057612a2f6129c6565b5b5092915050565b7f496e73756666696369656e74204554482073656e740000000000000000000000600082015250565b6000612a6d60158361219a565b9150612a7882612a37565b602082019050919050565b60006020820190508181036000830152612a9c81612a60565b9050919050565b600081519050612ab281612241565b92915050565b600060208284031215612ace57612acd612096565b5b6000612adc84828501612aa3565b91505092915050565b7f4e487b7100000000000000000000000000000000000000000000000000000000600052601260045260246000fd5b6000612b1f8261215b565b9150612b2a8361215b565b925082612b3a57612b39612ae5565b5b828204905092915050565b7f4552433732313a20696e76616c696420746f6b656e2049440000000000000000600082015250565b6000612b7b60188361219a565b9150612b8682612b45565b602082019050919050565b60006020820190508181036000830152612baa81612b6e565b9050919050565b7f4552433732313a2061646472657373207a65726f206973206e6f74206120766160008201527f6c6964206f776e65720000000000000000000000000000000000000000000000602082015250565b6000612c0d60298361219a565b9150612c1882612bb1565b604082019050919050565b60006020820190508181036000830152612c3c81612c00565b9050919050565b7f4f776e61626c653a206e6577206f776e657220697320746865207a65726f206160008201527f6464726573730000000000000000000000000000000000000000000000000000602082015250565b6000612c9f60268361219a565b9150612caa82612c43565b604082019050919050565b60006020820190508181036000830152612cce81612c92565b9050919050565b7f4552433732313a207472616e736665722066726f6d20696e636f72726563742060008201527f6f776e6572000000000000000000000000000000000000000000000000000000602082015250565b6000612d3160258361219a565b9150612d3c82612cd5565b604082019050919050565b60006020820190508181036000830152612d6081612d24565b9050919050565b7f4552433732313a207472616e7366657220746f20746865207a65726f2061646460008201527f7265737300000000000000000000000000000000000000000000000000000000602082015250565b6000612dc360248361219a565b9150612dce82612d67565b604082019050919050565b60006020820190508181036000830152612df281612db6565b9050919050565b7f45524337323155524953746f726167653a2055524920736574206f66206e6f6e60008201527f6578697374656e7420746f6b656e000000000000000000000000000000000000602082015250565b6000612e55602e8361219a565b9150612e6082612df9565b604082019050919050565b60006020820190508181036000830152612e8481612e48565b9050919050565b60008190508160005260206000209050919050565b60006020601f8301049050919050565b600082821b905092915050565b600060088302612eed7fffffffffffffffffffffffffffffffffffffffffffffffffffffffffffffffff82612eb0565b612ef78683612eb0565b95508019841693508086168417925050509392505050565b6000819050919050565b6000612f34612f2f612f2a8461215b565b612f0f565b61215b565b9050919050565b6000819050919050565b612f4e83612f19565b612f62612f5a82612f3b565b848454612ebd565b825550505050565b600090565b612f77612f6a565b612f82818484612f45565b505050565b5b81811015612fa657612f9b600082612f6f565b600181019050612f88565b5050565b601f821115612feb57612fbc81612e8b565b612fc584612ea0565b81016020851015612fd4578190505b612fe8612fe085612ea0565b830182612f87565b50505b505050565b600082821c905092915050565b600061300e60001984600802612ff0565b1980831691505092915050565b60006130278383612ffd565b9150826002028217905092915050565b6130408261218f565b67ffffffffffffffff81111561305957613058612458565b5b6130638254612675565b61306e828285612faa565b600060209050601f8311600181146130a1576000841561308f578287015190505b613099858261301b565b865550613101565b601f1984166130af86612e8b565b60005b828110156130d7578489015182556001820191506020850194506020810190506130b2565b868310156130f457848901516130f0601f891682612ffd565b8355505b6001600288020188555050505b505050505050565b7f4f776e61626c653a2063616c6c6572206973206e6f7420746865206f776e6572600082015250565b600061313f60208361219a565b915061314a82613109565b602082019050919050565b6000602082019050818103600083015261316e81613132565b9050919050565b7f4552433732313a20617070726f766520746f2063616c6c657200000000000000600082015250565b60006131ab60198361219a565b91506131b682613175565b602082019050919050565b600060208201905081810360008301526131da8161319e565b9050919050565b7f4552433732313a207472616e7366657220746f206e6f6e20455243373231526560008201527f63656976657220696d706c656d656e7465720000000000000000000000000000602082015250565b600061323d60328361219a565b9150613248826131e1565b604082019050919050565b6000602082019050818103600083015261326c81613230565b9050919050565b600081519050919050565b600082825260208201905092915050565b600061329a82613273565b6132a4818561327e565b93506132b48185602086016121ab565b6132bd816121d5565b840191505092915050565b60006080820190506132dd60008301876122cc565b6132ea60208301866122cc565b6132f76040830185612165565b8181036060830152613309818461328f565b905095945050505050565b600081519050613323816120cc565b92915050565b60006020828403121561333f5761333e612096565b5b600061334d84828501613314565b91505092915050565b7f4552433732313a206d696e7420746f20746865207a65726f2061646472657373600082015250565b600061338c60208361219a565b915061339782613356565b602082019050919050565b600060208201905081810360008301526133bb8161337f565b9050919050565b7f4552433732313a20746f6b656e20616c7265616479206d696e74656400000000600082015250565b60006133f8601c8361219a565b9150613403826133c2565b602082019050919050565b60006020820190508181036000830152613427816133eb565b905091905056fea2646970667358221220e1272d16dcdbda15784bb5baae9eb0737c492c373df3c3d5f05460f206652d0264736f6c63430008180033a264697066735822122081c341814268d26a120d779cfafff37cb08a34f48e13cb55673292173120555164736f6c63430008180033",
  "linkReferences": {},
  "deployedLinkReferences": {}
}