{
  "_format": "hh-sol-artifact-1",
  "contractName": "FeeManager",
  "sourceName": "contracts/FeeManager.sol",
  "abi": [
    {
      "inputs": [
        {
          "internalType": "uint256",
          "name": "_initialFeePercentage",
          "type": "uint256"
        }
      ],
      "stateMutability": "nonpayable",
      "type": "constructor"
    },
    {
      "inputs": [],
      "name": "getPlatformFeePercentage",
      "outputs": [
        {
          "internalType": "uint256",
          "name": "",
          "type": "uint256"
        }
      ],
      "stateMutability": "view",
      "type": "function"
    },
    {
      "inputs": [
        {
          "internalType": "uint256",
          "name": "_newPlatformFeePercent",
          "type": "uint256"
        }
      ],
      "name": "updatePlatformFee",
      "outputs": [],
      "stateMutability": "nonpayable",
      "type": "function"
    }
  ],
  "bytecode": "0x608060405234801561001057600080fd5b50604051610354380380610354833981810160405281019061003291906100bb565b8060008190555033600160006101000a81548173ffffffffffffffffffffffffffffffffffffffff021916908373ffffffffffffffffffffffffffffffffffffffff160217905550506100e8565b600080fd5b6000819050919050565b61009881610085565b81146100a357600080fd5b50565b6000815190506100b58161008f565b92915050565b6000602082840312156100d1576100d0610080565b5b60006100df848285016100a6565b91505092915050565b61025d806100f76000396000f3fe608060405234801561001057600080fd5b50600436106100365760003560e01c80637a3a27ea1461003b578063aa0b598814610059575b600080fd5b610043610075565b6040516100509190610131565b60405180910390f35b610073600480360381019061006e919061017d565b61007e565b005b60008054905090565b600160009054906101000a900473ffffffffffffffffffffffffffffffffffffffff1673ffffffffffffffffffffffffffffffffffffffff163373ffffffffffffffffffffffffffffffffffffffff161461010e576040517f08c379a000000000000000000000000000000000000000000000000000000000815260040161010590610207565b60405180910390fd5b8060008190555050565b6000819050919050565b61012b81610118565b82525050565b60006020820190506101466000830184610122565b92915050565b600080fd5b61015a81610118565b811461016557600080fd5b50565b60008135905061017781610151565b92915050565b6000602082840312156101935761019261014c565b5b60006101a184828501610168565b91505092915050565b600082825260208201905092915050565b7f43616c6c6572206973206e6f7420746865206f776e6572000000000000000000600082015250565b60006101f16017836101aa565b91506101fc826101bb565b602082019050919050565b60006020820190508181036000830152610220816101e4565b905091905056fea26469706673582212207f12f46eba130d911a596fc6e9e5c549a12aa05e9fb779afd70136055c6e823164736f6c63430008180033",
  "linkReferences": {},
  "deployedLinkReferences": {}
}