{
  "_format": "hh-sol-artifact-1",
  "contractName": "D_Beats_Artist",
  "sourceName": "contracts/ArtistNFT.sol",
  "abi": [
    {
      "inputs": [],
      "stateMutability": "nonpayable",
      "type": "constructor"
    },
    {
      "anonymous": false,
      "inputs": [
        {
          "indexed": true,
          "internalType": "address",
          "name": "owner",
          "type": "address"
        },
        {
          "indexed": true,
          "internalType": "address",
          "name": "approved",
          "type": "address"
        },
        {
          "indexed": true,
          "internalType": "uint256",
          "name": "tokenId",
          "type": "uint256"
        }
      ],
      "name": "Approval",
      "type": "event"
    },
    {
      "anonymous": false,
      "inputs": [
        {
          "indexed": true,
          "internalType": "address",
          "name": "owner",
          "type": "address"
        },
        {
          "indexed": true,
          "internalType": "address",
          "name": "operator",
          "type": "address"
        },
        {
          "indexed": false,
          "internalType": "bool",
          "name": "approved",
          "type": "bool"
        }
      ],
      "name": "ApprovalForAll",
      "type": "event"
    },
    {
      "anonymous": false,
      "inputs": [
        {
          "indexed": true,
          "internalType": "address",
          "name": "to",
          "type": "address"
        },
        {
          "indexed": true,
          "internalType": "uint256",
          "name": "tokenId",
          "type": "uint256"
        }
      ],
      "name": "Attest",
      "type": "event"
    },
    {
      "anonymous": false,
      "inputs": [
        {
          "indexed": true,
          "internalType": "address",
          "name": "previousOwner",
          "type": "address"
        },
        {
          "indexed": true,
          "internalType": "address",
          "name": "newOwner",
          "type": "address"
        }
      ],
      "name": "OwnershipTransferred",
      "type": "event"
    },
    {
      "anonymous": false,
      "inputs": [
        {
          "indexed": true,
          "internalType": "address",
          "name": "to",
          "type": "address"
        },
        {
          "indexed": true,
          "internalType": "uint256",
          "name": "tokenId",
          "type": "uint256"
        }
      ],
      "name": "Revoke",
      "type": "event"
    },
    {
      "anonymous": false,
      "inputs": [
        {
          "indexed": true,
          "internalType": "address",
          "name": "from",
          "type": "address"
        },
        {
          "indexed": true,
          "internalType": "address",
          "name": "to",
          "type": "address"
        },
        {
          "indexed": true,
          "internalType": "uint256",
          "name": "tokenId",
          "type": "uint256"
        }
      ],
      "name": "Transfer",
      "type": "event"
    },
    {
      "inputs": [
        {
          "internalType": "address",
          "name": "to",
          "type": "address"
        },
        {
          "internalType": "uint256",
          "name": "tokenId",
          "type": "uint256"
        }
      ],
      "name": "approve",
      "outputs": [],
      "stateMutability": "nonpayable",
      "type": "function"
    },
    {
      "inputs": [
        {
          "internalType": "address",
          "name": "owner",
          "type": "address"
        }
      ],
      "name": "balanceOf",
      "outputs": [
        {
          "internalType": "uint256",
          "name": "",
          "type": "uint256"
        }
      ],
      "stateMutability": "view",
      "type": "function"
    },
    {
      "inputs": [
        {
          "internalType": "uint256",
          "name": "tokenId",
          "type": "uint256"
        }
      ],
      "name": "burn",
      "outputs": [],
      "stateMutability": "nonpayable",
      "type": "function"
    },
    {
      "inputs": [
        {
          "internalType": "uint256",
          "name": "tokenId",
          "type": "uint256"
        }
      ],
      "name": "getApproved",
      "outputs": [
        {
          "internalType": "address",
          "name": "",
          "type": "address"
        }
      ],
      "stateMutability": "view",
      "type": "function"
    },
    {
      "inputs": [
        {
          "internalType": "address",
          "name": "owner",
          "type": "address"
        },
        {
          "internalType": "address",
          "name": "operator",
          "type": "address"
        }
      ],
      "name": "isApprovedForAll",
      "outputs": [
        {
          "internalType": "bool",
          "name": "",
          "type": "bool"
        }
      ],
      "stateMutability": "view",
      "type": "function"
    },
    {
      "inputs": [],
      "name": "name",
      "outputs": [
        {
          "internalType": "string",
          "name": "",
          "type": "string"
        }
      ],
      "stateMutability": "view",
      "type": "function"
    },
    {
      "inputs": [],
      "name": "owner",
      "outputs": [
        {
          "internalType": "address",
          "name": "",
          "type": "address"
        }
      ],
      "stateMutability": "view",
      "type": "function"
    },
    {
      "inputs": [
        {
          "internalType": "uint256",
          "name": "tokenId",
          "type": "uint256"
        }
      ],
      "name": "ownerOf",
      "outputs": [
        {
          "internalType": "address",
          "name": "",
          "type": "address"
        }
      ],
      "stateMutability": "view",
      "type": "function"
    },
    {
      "inputs": [],
      "name": "renounceOwnership",
      "outputs": [],
      "stateMutability": "nonpayable",
      "type": "function"
    },
    {
      "inputs": [
        {
          "internalType": "uint256",
          "name": "tokenId",
          "type": "uint256"
        }
      ],
      "name": "revoke",
      "outputs": [],
      "stateMutability": "nonpayable",
      "type": "function"
    },
    {
      "inputs": [
        {
          "internalType": "address",
          "name": "to",
          "type": "address"
        },
        {
          "internalType": "string",
          "name": "uri",
          "type": "string"
        }
      ],
      "name": "safeMint",
      "outputs": [],
      "stateMutability": "nonpayable",
      "type": "function"
    },
    {
      "inputs": [
        {
          "internalType": "address",
          "name": "from",
          "type": "address"
        },
        {
          "internalType": "address",
          "name": "to",
          "type": "address"
        },
        {
          "internalType": "uint256",
          "name": "tokenId",
          "type": "uint256"
        }
      ],
      "name": "safeTransferFrom",
      "outputs": [],
      "stateMutability": "nonpayable",
      "type": "function"
    },
    {
      "inputs": [
        {
          "internalType": "address",
          "name": "from",
          "type": "address"
        },
        {
          "internalType": "address",
          "name": "to",
          "type": "address"
        },
        {
          "internalType": "uint256",
          "name": "tokenId",
          "type": "uint256"
        },
        {
          "internalType": "bytes",
          "name": "data",
          "type": "bytes"
        }
      ],
      "name": "safeTransferFrom",
      "outputs": [],
      "stateMutability": "nonpayable",
      "type": "function"
    },
    {
      "inputs": [
        {
          "internalType": "address",
          "name": "operator",
          "type": "address"
        },
        {
          "internalType": "bool",
          "name": "approved",
          "type": "bool"
        }
      ],
      "name": "setApprovalForAll",
      "outputs": [],
      "stateMutability": "nonpayable",
      "type": "function"
    },
    {
      "inputs": [
        {
          "internalType": "bytes4",
          "name": "interfaceId",
          "type": "bytes4"
        }
      ],
      "name": "supportsInterface",
      "outputs": [
        {
          "internalType": "bool",
          "name": "",
          "type": "bool"
        }
      ],
      "stateMutability": "view",
      "type": "function"
    },
    {
      "inputs": [],
      "name": "symbol",
      "outputs": [
        {
          "internalType": "string",
          "name": "",
          "type": "string"
        }
      ],
      "stateMutability": "view",
      "type": "function"
    },
    {
      "inputs": [
        {
          "internalType": "uint256",
          "name": "tokenId",
          "type": "uint256"
        }
      ],
      "name": "tokenURI",
      "outputs": [
        {
          "internalType": "string",
          "name": "",
          "type": "string"
        }
      ],
      "stateMutability": "view",
      "type": "function"
    },
    {
      "inputs": [
        {
          "internalType": "address",
          "name": "from",
          "type": "address"
        },
        {
          "internalType": "address",
          "name": "to",
          "type": "address"
        },
        {
          "internalType": "uint256",
          "name": "tokenId",
          "type": "uint256"
        }
      ],
      "name": "transferFrom",
      "outputs": [],
      "stateMutability": "nonpayable",
      "type": "function"
    },
    {
      "inputs": [
        {
          "internalType": "address",
          "name": "newOwner",
          "type": "address"
        }
      ],
      "name": "transferOwnership",
      "outputs": [],
      "stateMutability": "nonpayable",
      "type": "function"
    }
  ],
  "bytecode": "0x60806040523480156200001157600080fd5b506040518060400160405280600e81526020017f442d42656174732d4172746973740000000000000000000000000000000000008152506040518060400160405280600381526020017f444241000000000000000000000000000000000000000000000000000000000081525081600090816200008f919062000412565b508060019081620000a1919062000412565b505050620000c4620000b8620000ca60201b60201c565b620000d260201b60201c565b620004f9565b600033905090565b6000600760009054906101000a900473ffffffffffffffffffffffffffffffffffffffff16905081600760006101000a81548173ffffffffffffffffffffffffffffffffffffffff021916908373ffffffffffffffffffffffffffffffffffffffff1602179055508173ffffffffffffffffffffffffffffffffffffffff168173ffffffffffffffffffffffffffffffffffffffff167f8be0079c531659141344cd1fd0a4f28419497f9722a3daafe3b4186f6b6457e060405160405180910390a35050565b600081519050919050565b7f4e487b7100000000000000000000000000000000000000000000000000000000600052604160045260246000fd5b7f4e487b7100000000000000000000000000000000000000000000000000000000600052602260045260246000fd5b600060028204905060018216806200021a57607f821691505b60208210810362000230576200022f620001d2565b5b50919050565b60008190508160005260206000209050919050565b60006020601f8301049050919050565b600082821b905092915050565b6000600883026200029a7fffffffffffffffffffffffffffffffffffffffffffffffffffffffffffffffff826200025b565b620002a686836200025b565b95508019841693508086168417925050509392505050565b6000819050919050565b6000819050919050565b6000620002f3620002ed620002e784620002be565b620002c8565b620002be565b9050919050565b6000819050919050565b6200030f83620002d2565b620003276200031e82620002fa565b84845462000268565b825550505050565b600090565b6200033e6200032f565b6200034b81848462000304565b505050565b5b8181101562000373576200036760008262000334565b60018101905062000351565b5050565b601f821115620003c2576200038c8162000236565b62000397846200024b565b81016020851015620003a7578190505b620003bf620003b6856200024b565b83018262000350565b50505b505050565b600082821c905092915050565b6000620003e760001984600802620003c7565b1980831691505092915050565b6000620004028383620003d4565b9150826002028217905092915050565b6200041d8262000198565b67ffffffffffffffff811115620004395762000438620001a3565b5b62000445825462000201565b6200045282828562000377565b600060209050601f8311600181146200048a576000841562000475578287015190505b620004818582620003f4565b865550620004f1565b601f1984166200049a8662000236565b60005b82811015620004c4578489015182556001820191506020850194506020810190506200049d565b86831015620004e45784890151620004e0601f891682620003d4565b8355505b6001600288020188555050505b505050505050565b61336f80620005096000396000f3fe608060405234801561001057600080fd5b50600436106101215760003560e01c806370a08231116100ad578063b88d4fde11610071578063b88d4fde146102f2578063c87b56dd1461030e578063d204c45e1461033e578063e985e9c51461035a578063f2fde38b1461038a57610121565b806370a0823114610260578063715018a6146102905780638da5cb5b1461029a57806395d89b41146102b8578063a22cb465146102d657610121565b806320c5429b116100f457806320c5429b146101c057806323b872dd146101dc57806342842e0e146101f857806342966c68146102145780636352211e1461023057610121565b806301ffc9a71461012657806306fdde0314610156578063081812fc14610174578063095ea7b3146101a4575b600080fd5b610140600480360381019061013b9190611ef2565b6103a6565b60405161014d9190611f3a565b60405180910390f35b61015e610488565b60405161016b9190611fe5565b60405180910390f35b61018e6004803603810190610189919061203d565b61051a565b60405161019b91906120ab565b60405180910390f35b6101be60048036038101906101b991906120f2565b610560565b005b6101da60048036038101906101d5919061203d565b610677565b005b6101f660048036038101906101f19190612132565b61068b565b005b610212600480360381019061020d9190612132565b6106eb565b005b61022e6004803603810190610229919061203d565b61070b565b005b61024a6004803603810190610245919061203d565b61078d565b60405161025791906120ab565b60405180910390f35b61027a60048036038101906102759190612185565b61083e565b60405161028791906121c1565b60405180910390f35b6102986108f5565b005b6102a2610909565b6040516102af91906120ab565b60405180910390f35b6102c0610933565b6040516102cd9190611fe5565b60405180910390f35b6102f060048036038101906102eb9190612208565b6109c5565b005b61030c6004803603810190610307919061237d565b6109db565b005b6103286004803603810190610323919061203d565b610a3d565b6040516103359190611fe5565b60405180910390f35b610358600480360381019061035391906124a1565b610a4f565b005b610374600480360381019061036f91906124fd565b610a88565b6040516103819190611f3a565b60405180910390f35b6103a4600480360381019061039f9190612185565b610b1c565b005b60007f80ac58cd000000000000000000000000000000000000000000000000000000007bffffffffffffffffffffffffffffffffffffffffffffffffffffffff1916827bffffffffffffffffffffffffffffffffffffffffffffffffffffffff1916148061047157507f5b5e139f000000000000000000000000000000000000000000000000000000007bffffffffffffffffffffffffffffffffffffffffffffffffffffffff1916827bffffffffffffffffffffffffffffffffffffffffffffffffffffffff1916145b80610481575061048082610b9f565b5b9050919050565b6060600080546104979061256c565b80601f01602080910402602001604051908101604052809291908181526020018280546104c39061256c565b80156105105780601f106104e557610100808354040283529160200191610510565b820191906000526020600020905b8154815290600101906020018083116104f357829003601f168201915b5050505050905090565b600061052582610c09565b6004600083815260200190815260200160002060009054906101000a900473ffffffffffffffffffffffffffffffffffffffff169050919050565b600061056b8261078d565b90508073ffffffffffffffffffffffffffffffffffffffff168373ffffffffffffffffffffffffffffffffffffffff16036105db576040517f08c379a00000000000000000000000000000000000000000000000000000000081526004016105d29061260f565b60405180910390fd5b8073ffffffffffffffffffffffffffffffffffffffff166105fa610c54565b73ffffffffffffffffffffffffffffffffffffffff161480610629575061062881610623610c54565b610a88565b5b610668576040517f08c379a000000000000000000000000000000000000000000000000000000000815260040161065f906126a1565b60405180910390fd5b6106728383610c5c565b505050565b61067f610d15565b61068881610d93565b50565b61069c610696610c54565b82610d9f565b6106db576040517f08c379a00000000000000000000000000000000000000000000000000000000081526004016106d290612733565b60405180910390fd5b6106e6838383610e34565b505050565b610706838383604051806020016040528060008152506109db565b505050565b3373ffffffffffffffffffffffffffffffffffffffff1661072b8261078d565b73ffffffffffffffffffffffffffffffffffffffff1614610781576040517f08c379a0000000000000000000000000000000000000000000000000000000008152600401610778906127c5565b60405180910390fd5b61078a81610d93565b50565b6000806002600084815260200190815260200160002060009054906101000a900473ffffffffffffffffffffffffffffffffffffffff169050600073ffffffffffffffffffffffffffffffffffffffff168173ffffffffffffffffffffffffffffffffffffffff1603610835576040517f08c379a000000000000000000000000000000000000000000000000000000000815260040161082c90612831565b60405180910390fd5b80915050919050565b60008073ffffffffffffffffffffffffffffffffffffffff168273ffffffffffffffffffffffffffffffffffffffff16036108ae576040517f08c379a00000000000000000000000000000000000000000000000000000000081526004016108a5906128c3565b60405180910390fd5b600360008373ffffffffffffffffffffffffffffffffffffffff1673ffffffffffffffffffffffffffffffffffffffff168152602001908152602001600020549050919050565b6108fd610d15565b610907600061109a565b565b6000600760009054906101000a900473ffffffffffffffffffffffffffffffffffffffff16905090565b6060600180546109429061256c565b80601f016020809104026020016040519081016040528092919081815260200182805461096e9061256c565b80156109bb5780601f10610990576101008083540402835291602001916109bb565b820191906000526020600020905b81548152906001019060200180831161099e57829003601f168201915b5050505050905090565b6109d76109d0610c54565b8383611160565b5050565b6109ec6109e6610c54565b83610d9f565b610a2b576040517f08c379a0000000000000000000000000000000000000000000000000000000008152600401610a2290612733565b60405180910390fd5b610a37848484846112cc565b50505050565b6060610a4882611328565b9050919050565b610a57610d15565b6000610a63600861143a565b9050610a6f6008611448565b610a79838261145e565b610a83818361147c565b505050565b6000600560008473ffffffffffffffffffffffffffffffffffffffff1673ffffffffffffffffffffffffffffffffffffffff16815260200190815260200160002060008373ffffffffffffffffffffffffffffffffffffffff1673ffffffffffffffffffffffffffffffffffffffff16815260200190815260200160002060009054906101000a900460ff16905092915050565b610b24610d15565b600073ffffffffffffffffffffffffffffffffffffffff168173ffffffffffffffffffffffffffffffffffffffff1603610b93576040517f08c379a0000000000000000000000000000000000000000000000000000000008152600401610b8a90612955565b60405180910390fd5b610b9c8161109a565b50565b60007f01ffc9a7000000000000000000000000000000000000000000000000000000007bffffffffffffffffffffffffffffffffffffffffffffffffffffffff1916827bffffffffffffffffffffffffffffffffffffffffffffffffffffffff1916149050919050565b610c12816114e9565b610c51576040517f08c379a0000000000000000000000000000000000000000000000000000000008152600401610c4890612831565b60405180910390fd5b50565b600033905090565b816004600083815260200190815260200160002060006101000a81548173ffffffffffffffffffffffffffffffffffffffff021916908373ffffffffffffffffffffffffffffffffffffffff160217905550808273ffffffffffffffffffffffffffffffffffffffff16610ccf8361078d565b73ffffffffffffffffffffffffffffffffffffffff167f8c5be1e5ebec7d5bd14f71427d1e84f3dd0314c0f7b2291e5b200ac8c7c3b92560405160405180910390a45050565b610d1d610c54565b73ffffffffffffffffffffffffffffffffffffffff16610d3b610909565b73ffffffffffffffffffffffffffffffffffffffff1614610d91576040517f08c379a0000000000000000000000000000000000000000000000000000000008152600401610d88906129c1565b60405180910390fd5b565b610d9c81611555565b50565b600080610dab8361078d565b90508073ffffffffffffffffffffffffffffffffffffffff168473ffffffffffffffffffffffffffffffffffffffff161480610ded5750610dec8185610a88565b5b80610e2b57508373ffffffffffffffffffffffffffffffffffffffff16610e138461051a565b73ffffffffffffffffffffffffffffffffffffffff16145b91505092915050565b8273ffffffffffffffffffffffffffffffffffffffff16610e548261078d565b73ffffffffffffffffffffffffffffffffffffffff1614610eaa576040517f08c379a0000000000000000000000000000000000000000000000000000000008152600401610ea190612a53565b60405180910390fd5b600073ffffffffffffffffffffffffffffffffffffffff168273ffffffffffffffffffffffffffffffffffffffff1603610f19576040517f08c379a0000000000000000000000000000000000000000000000000000000008152600401610f1090612ae5565b60405180910390fd5b610f248383836115a8565b610f2f600082610c5c565b6001600360008573ffffffffffffffffffffffffffffffffffffffff1673ffffffffffffffffffffffffffffffffffffffff1681526020019081526020016000206000828254610f7f9190612b34565b925050819055506001600360008473ffffffffffffffffffffffffffffffffffffffff1673ffffffffffffffffffffffffffffffffffffffff1681526020019081526020016000206000828254610fd69190612b68565b92505081905550816002600083815260200190815260200160002060006101000a81548173ffffffffffffffffffffffffffffffffffffffff021916908373ffffffffffffffffffffffffffffffffffffffff160217905550808273ffffffffffffffffffffffffffffffffffffffff168473ffffffffffffffffffffffffffffffffffffffff167fddf252ad1be2c89b69c2b068fc378daa952ba7f163c4a11628f55a4df523b3ef60405160405180910390a4611095838383611653565b505050565b6000600760009054906101000a900473ffffffffffffffffffffffffffffffffffffffff16905081600760006101000a81548173ffffffffffffffffffffffffffffffffffffffff021916908373ffffffffffffffffffffffffffffffffffffffff1602179055508173ffffffffffffffffffffffffffffffffffffffff168173ffffffffffffffffffffffffffffffffffffffff167f8be0079c531659141344cd1fd0a4f28419497f9722a3daafe3b4186f6b6457e060405160405180910390a35050565b8173ffffffffffffffffffffffffffffffffffffffff168373ffffffffffffffffffffffffffffffffffffffff16036111ce576040517f08c379a00000000000000000000000000000000000000000000000000000000081526004016111c590612be8565b60405180910390fd5b80600560008573ffffffffffffffffffffffffffffffffffffffff1673ffffffffffffffffffffffffffffffffffffffff16815260200190815260200160002060008473ffffffffffffffffffffffffffffffffffffffff1673ffffffffffffffffffffffffffffffffffffffff16815260200190815260200160002060006101000a81548160ff0219169083151502179055508173ffffffffffffffffffffffffffffffffffffffff168373ffffffffffffffffffffffffffffffffffffffff167f17307eab39ab6107e8899845ad3d59bd9653f200f220920489ca2b5937696c31836040516112bf9190611f3a565b60405180910390a3505050565b6112d7848484610e34565b6112e38484848461174f565b611322576040517f08c379a000000000000000000000000000000000000000000000000000000000815260040161131990612c7a565b60405180910390fd5b50505050565b606061133382610c09565b60006006600084815260200190815260200160002080546113539061256c565b80601f016020809104026020016040519081016040528092919081815260200182805461137f9061256c565b80156113cc5780601f106113a1576101008083540402835291602001916113cc565b820191906000526020600020905b8154815290600101906020018083116113af57829003601f168201915b5050505050905060006113dd6118d6565b905060008151036113f2578192505050611435565b60008251111561142757808260405160200161140f929190612cd6565b60405160208183030381529060405292505050611435565b611430846118ed565b925050505b919050565b600081600001549050919050565b6001816000016000828254019250508190555050565b611478828260405180602001604052806000815250611955565b5050565b611485826114e9565b6114c4576040517f08c379a00000000000000000000000000000000000000000000000000000000081526004016114bb90612d6c565b60405180910390fd5b806006600084815260200190815260200160002090816114e49190612f38565b505050565b60008073ffffffffffffffffffffffffffffffffffffffff166002600084815260200190815260200160002060009054906101000a900473ffffffffffffffffffffffffffffffffffffffff1673ffffffffffffffffffffffffffffffffffffffff1614159050919050565b61155e816119b0565b600060066000838152602001908152602001600020805461157e9061256c565b9050146115a5576006600082815260200190815260200160002060006115a49190611e29565b5b50565b600073ffffffffffffffffffffffffffffffffffffffff168373ffffffffffffffffffffffffffffffffffffffff16148061160f5750600073ffffffffffffffffffffffffffffffffffffffff168273ffffffffffffffffffffffffffffffffffffffff16145b61164e576040517f08c379a000000000000000000000000000000000000000000000000000000000815260040161164590613056565b60405180910390fd5b505050565b600073ffffffffffffffffffffffffffffffffffffffff168373ffffffffffffffffffffffffffffffffffffffff16036116d057808273ffffffffffffffffffffffffffffffffffffffff167fe9274a84b19e9428826de6bae8c48329354f8f0e73f771b97cae2d9dccd45a2760405160405180910390a361174a565b600073ffffffffffffffffffffffffffffffffffffffff168273ffffffffffffffffffffffffffffffffffffffff160361174957808273ffffffffffffffffffffffffffffffffffffffff167fec9ab91322523c899ede7830ec9bfc992b5981cdcc27b91162fb23de5791117b60405160405180910390a35b5b505050565b60006117708473ffffffffffffffffffffffffffffffffffffffff16611acd565b156118c9578373ffffffffffffffffffffffffffffffffffffffff1663150b7a02611799610c54565b8786866040518563ffffffff1660e01b81526004016117bb94939291906130cb565b6020604051808303816000875af19250505080156117f757506040513d601f19601f820116820180604052508101906117f4919061312c565b60015b611879573d8060008114611827576040519150601f19603f3d011682016040523d82523d6000602084013e61182c565b606091505b506000815103611871576040517f08c379a000000000000000000000000000000000000000000000000000000000815260040161186890612c7a565b60405180910390fd5b805181602001fd5b63150b7a0260e01b7bffffffffffffffffffffffffffffffffffffffffffffffffffffffff1916817bffffffffffffffffffffffffffffffffffffffffffffffffffffffff1916149150506118ce565b600190505b949350505050565b606060405180602001604052806000815250905090565b60606118f882610c09565b60006119026118d6565b90506000815111611922576040518060200160405280600081525061194d565b8061192c84611af0565b60405160200161193d929190612cd6565b6040516020818303038152906040525b915050919050565b61195f8383611c50565b61196c600084848461174f565b6119ab576040517f08c379a00000000000000000000000000000000000000000000000000000000081526004016119a290612c7a565b60405180910390fd5b505050565b60006119bb8261078d565b90506119c9816000846115a8565b6119d4600083610c5c565b6001600360008373ffffffffffffffffffffffffffffffffffffffff1673ffffffffffffffffffffffffffffffffffffffff1681526020019081526020016000206000828254611a249190612b34565b925050819055506002600083815260200190815260200160002060006101000a81549073ffffffffffffffffffffffffffffffffffffffff021916905581600073ffffffffffffffffffffffffffffffffffffffff168273ffffffffffffffffffffffffffffffffffffffff167fddf252ad1be2c89b69c2b068fc378daa952ba7f163c4a11628f55a4df523b3ef60405160405180910390a4611ac981600084611653565b5050565b6000808273ffffffffffffffffffffffffffffffffffffffff163b119050919050565b606060008203611b37576040518060400160405280600181526020017f30000000000000000000000000000000000000000000000000000000000000008152509050611c4b565b600082905060005b60008214611b69578080611b5290613159565b915050600a82611b6291906131d0565b9150611b3f565b60008167ffffffffffffffff811115611b8557611b84612252565b5b6040519080825280601f01601f191660200182016040528015611bb75781602001600182028036833780820191505090505b5090505b60008514611c4457600182611bd09190612b34565b9150600a85611bdf9190613201565b6030611beb9190612b68565b60f81b818381518110611c0157611c00613232565b5b60200101907effffffffffffffffffffffffffffffffffffffffffffffffffffffffffffff1916908160001a905350600a85611c3d91906131d0565b9450611bbb565b8093505050505b919050565b600073ffffffffffffffffffffffffffffffffffffffff168273ffffffffffffffffffffffffffffffffffffffff1603611cbf576040517f08c379a0000000000000000000000000000000000000000000000000000000008152600401611cb6906132ad565b60405180910390fd5b611cc8816114e9565b15611d08576040517f08c379a0000000000000000000000000000000000000000000000000000000008152600401611cff90613319565b60405180910390fd5b611d14600083836115a8565b6001600360008473ffffffffffffffffffffffffffffffffffffffff1673ffffffffffffffffffffffffffffffffffffffff1681526020019081526020016000206000828254611d649190612b68565b92505081905550816002600083815260200190815260200160002060006101000a81548173ffffffffffffffffffffffffffffffffffffffff021916908373ffffffffffffffffffffffffffffffffffffffff160217905550808273ffffffffffffffffffffffffffffffffffffffff16600073ffffffffffffffffffffffffffffffffffffffff167fddf252ad1be2c89b69c2b068fc378daa952ba7f163c4a11628f55a4df523b3ef60405160405180910390a4611e2560008383611653565b5050565b508054611e359061256c565b6000825580601f10611e475750611e66565b601f016020900490600052602060002090810190611e659190611e69565b5b50565b5b80821115611e82576000816000905550600101611e6a565b5090565b6000604051905090565b600080fd5b600080fd5b60007fffffffff0000000000000000000000000000000000000000000000000000000082169050919050565b611ecf81611e9a565b8114611eda57600080fd5b50565b600081359050611eec81611ec6565b92915050565b600060208284031215611f0857611f07611e90565b5b6000611f1684828501611edd565b91505092915050565b60008115159050919050565b611f3481611f1f565b82525050565b6000602082019050611f4f6000830184611f2b565b92915050565b600081519050919050565b600082825260208201905092915050565b60005b83811015611f8f578082015181840152602081019050611f74565b60008484015250505050565b6000601f19601f8301169050919050565b6000611fb782611f55565b611fc18185611f60565b9350611fd1818560208601611f71565b611fda81611f9b565b840191505092915050565b60006020820190508181036000830152611fff8184611fac565b905092915050565b6000819050919050565b61201a81612007565b811461202557600080fd5b50565b60008135905061203781612011565b92915050565b60006020828403121561205357612052611e90565b5b600061206184828501612028565b91505092915050565b600073ffffffffffffffffffffffffffffffffffffffff82169050919050565b60006120958261206a565b9050919050565b6120a58161208a565b82525050565b60006020820190506120c0600083018461209c565b92915050565b6120cf8161208a565b81146120da57600080fd5b50565b6000813590506120ec816120c6565b92915050565b6000806040838503121561210957612108611e90565b5b6000612117858286016120dd565b925050602061212885828601612028565b9150509250929050565b60008060006060848603121561214b5761214a611e90565b5b6000612159868287016120dd565b935050602061216a868287016120dd565b925050604061217b86828701612028565b9150509250925092565b60006020828403121561219b5761219a611e90565b5b60006121a9848285016120dd565b91505092915050565b6121bb81612007565b82525050565b60006020820190506121d660008301846121b2565b92915050565b6121e581611f1f565b81146121f057600080fd5b50565b600081359050612202816121dc565b92915050565b6000806040838503121561221f5761221e611e90565b5b600061222d858286016120dd565b925050602061223e858286016121f3565b9150509250929050565b600080fd5b600080fd5b7f4e487b7100000000000000000000000000000000000000000000000000000000600052604160045260246000fd5b61228a82611f9b565b810181811067ffffffffffffffff821117156122a9576122a8612252565b5b80604052505050565b60006122bc611e86565b90506122c88282612281565b919050565b600067ffffffffffffffff8211156122e8576122e7612252565b5b6122f182611f9b565b9050602081019050919050565b82818337600083830152505050565b600061232061231b846122cd565b6122b2565b90508281526020810184848401111561233c5761233b61224d565b5b6123478482856122fe565b509392505050565b600082601f83011261236457612363612248565b5b813561237484826020860161230d565b91505092915050565b6000806000806080858703121561239757612396611e90565b5b60006123a5878288016120dd565b94505060206123b6878288016120dd565b93505060406123c787828801612028565b925050606085013567ffffffffffffffff8111156123e8576123e7611e95565b5b6123f48782880161234f565b91505092959194509250565b600067ffffffffffffffff82111561241b5761241a612252565b5b61242482611f9b565b9050602081019050919050565b600061244461243f84612400565b6122b2565b9050828152602081018484840111156124605761245f61224d565b5b61246b8482856122fe565b509392505050565b600082601f83011261248857612487612248565b5b8135612498848260208601612431565b91505092915050565b600080604083850312156124b8576124b7611e90565b5b60006124c6858286016120dd565b925050602083013567ffffffffffffffff8111156124e7576124e6611e95565b5b6124f385828601612473565b9150509250929050565b6000806040838503121561251457612513611e90565b5b6000612522858286016120dd565b9250506020612533858286016120dd565b9150509250929050565b7f4e487b7100000000000000000000000000000000000000000000000000000000600052602260045260246000fd5b6000600282049050600182168061258457607f821691505b6020821081036125975761259661253d565b5b50919050565b7f4552433732313a20617070726f76616c20746f2063757272656e74206f776e6560008201527f7200000000000000000000000000000000000000000000000000000000000000602082015250565b60006125f9602183611f60565b91506126048261259d565b604082019050919050565b60006020820190508181036000830152612628816125ec565b9050919050565b7f4552433732313a20617070726f76652063616c6c6572206973206e6f7420746f60008201527f6b656e206f776e6572206e6f7220617070726f76656420666f7220616c6c0000602082015250565b600061268b603e83611f60565b91506126968261262f565b604082019050919050565b600060208201905081810360008301526126ba8161267e565b9050919050565b7f4552433732313a2063616c6c6572206973206e6f7420746f6b656e206f776e6560008201527f72206e6f7220617070726f766564000000000000000000000000000000000000602082015250565b600061271d602e83611f60565b9150612728826126c1565b604082019050919050565b6000602082019050818103600083015261274c81612710565b9050919050565b7f4f6e6c79206f776e6572206f662074686520746f6b656e2063616e206275726e60008201527f2069740000000000000000000000000000000000000000000000000000000000602082015250565b60006127af602383611f60565b91506127ba82612753565b604082019050919050565b600060208201905081810360008301526127de816127a2565b9050919050565b7f4552433732313a20696e76616c696420746f6b656e2049440000000000000000600082015250565b600061281b601883611f60565b9150612826826127e5565b602082019050919050565b6000602082019050818103600083015261284a8161280e565b9050919050565b7f4552433732313a2061646472657373207a65726f206973206e6f74206120766160008201527f6c6964206f776e65720000000000000000000000000000000000000000000000602082015250565b60006128ad602983611f60565b91506128b882612851565b604082019050919050565b600060208201905081810360008301526128dc816128a0565b9050919050565b7f4f776e61626c653a206e6577206f776e657220697320746865207a65726f206160008201527f6464726573730000000000000000000000000000000000000000000000000000602082015250565b600061293f602683611f60565b915061294a826128e3565b604082019050919050565b6000602082019050818103600083015261296e81612932565b9050919050565b7f4f776e61626c653a2063616c6c6572206973206e6f7420746865206f776e6572600082015250565b60006129ab602083611f60565b91506129b682612975565b602082019050919050565b600060208201905081810360008301526129da8161299e565b9050919050565b7f4552433732313a207472616e736665722066726f6d20696e636f72726563742060008201527f6f776e6572000000000000000000000000000000000000000000000000000000602082015250565b6000612a3d602583611f60565b9150612a48826129e1565b604082019050919050565b60006020820190508181036000830152612a6c81612a30565b9050919050565b7f4552433732313a207472616e7366657220746f20746865207a65726f2061646460008201527f7265737300000000000000000000000000000000000000000000000000000000602082015250565b6000612acf602483611f60565b9150612ada82612a73565b604082019050919050565b60006020820190508181036000830152612afe81612ac2565b9050919050565b7f4e487b7100000000000000000000000000000000000000000000000000000000600052601160045260246000fd5b6000612b3f82612007565b9150612b4a83612007565b9250828203905081811115612b6257612b61612b05565b5b92915050565b6000612b7382612007565b9150612b7e83612007565b9250828201905080821115612b9657612b95612b05565b5b92915050565b7f4552433732313a20617070726f766520746f2063616c6c657200000000000000600082015250565b6000612bd2601983611f60565b9150612bdd82612b9c565b602082019050919050565b60006020820190508181036000830152612c0181612bc5565b9050919050565b7f4552433732313a207472616e7366657220746f206e6f6e20455243373231526560008201527f63656976657220696d706c656d656e7465720000000000000000000000000000602082015250565b6000612c64603283611f60565b9150612c6f82612c08565b604082019050919050565b60006020820190508181036000830152612c9381612c57565b9050919050565b600081905092915050565b6000612cb082611f55565b612cba8185612c9a565b9350612cca818560208601611f71565b80840191505092915050565b6000612ce28285612ca5565b9150612cee8284612ca5565b91508190509392505050565b7f45524337323155524953746f726167653a2055524920736574206f66206e6f6e60008201527f6578697374656e7420746f6b656e000000000000000000000000000000000000602082015250565b6000612d56602e83611f60565b9150612d6182612cfa565b604082019050919050565b60006020820190508181036000830152612d8581612d49565b9050919050565b60008190508160005260206000209050919050565b60006020601f8301049050919050565b600082821b905092915050565b600060088302612dee7fffffffffffffffffffffffffffffffffffffffffffffffffffffffffffffffff82612db1565b612df88683612db1565b95508019841693508086168417925050509392505050565b6000819050919050565b6000612e35612e30612e2b84612007565b612e10565b612007565b9050919050565b6000819050919050565b612e4f83612e1a565b612e63612e5b82612e3c565b848454612dbe565b825550505050565b600090565b612e78612e6b565b612e83818484612e46565b505050565b5b81811015612ea757612e9c600082612e70565b600181019050612e89565b5050565b601f821115612eec57612ebd81612d8c565b612ec684612da1565b81016020851015612ed5578190505b612ee9612ee185612da1565b830182612e88565b50505b505050565b600082821c905092915050565b6000612f0f60001984600802612ef1565b1980831691505092915050565b6000612f288383612efe565b9150826002028217905092915050565b612f4182611f55565b67ffffffffffffffff811115612f5a57612f59612252565b5b612f64825461256c565b612f6f828285612eab565b600060209050601f831160018114612fa25760008415612f90578287015190505b612f9a8582612f1c565b865550613002565b601f198416612fb086612d8c565b60005b82811015612fd857848901518255600182019150602085019450602081019050612fb3565b86831015612ff55784890151612ff1601f891682612efe565b8355505b6001600288020188555050505b505050505050565b7f4e6f7420616c6c6f77656420746f207472616e7366657220746f6b656e000000600082015250565b6000613040601d83611f60565b915061304b8261300a565b602082019050919050565b6000602082019050818103600083015261306f81613033565b9050919050565b600081519050919050565b600082825260208201905092915050565b600061309d82613076565b6130a78185613081565b93506130b7818560208601611f71565b6130c081611f9b565b840191505092915050565b60006080820190506130e0600083018761209c565b6130ed602083018661209c565b6130fa60408301856121b2565b818103606083015261310c8184613092565b905095945050505050565b60008151905061312681611ec6565b92915050565b60006020828403121561314257613141611e90565b5b600061315084828501613117565b91505092915050565b600061316482612007565b91507fffffffffffffffffffffffffffffffffffffffffffffffffffffffffffffffff820361319657613195612b05565b5b600182019050919050565b7f4e487b7100000000000000000000000000000000000000000000000000000000600052601260045260246000fd5b60006131db82612007565b91506131e683612007565b9250826131f6576131f56131a1565b5b828204905092915050565b600061320c82612007565b915061321783612007565b925082613227576132266131a1565b5b828206905092915050565b7f4e487b7100000000000000000000000000000000000000000000000000000000600052603260045260246000fd5b7f4552433732313a206d696e7420746f20746865207a65726f2061646472657373600082015250565b6000613297602083611f60565b91506132a282613261565b602082019050919050565b600060208201905081810360008301526132c68161328a565b9050919050565b7f4552433732313a20746f6b656e20616c7265616479206d696e74656400000000600082015250565b6000613303601c83611f60565b915061330e826132cd565b602082019050919050565b60006020820190508181036000830152613332816132f6565b905091905056fea2646970667358221220366c573ac820e035f0c7b9929250def408b9a81bc1abfaf007c8020c26287fb264736f6c63430008180033",
  "linkReferences": {},
  "deployedLinkReferences": {}
}