{
  "_format": "hh-sol-artifact-1",
  "contractName": "DBeatsNFT",
  "sourceName": "contracts/DBeatsNFT.sol",
  "abi": [
    {
      "inputs": [
        {
          "internalType": "address",
          "name": "initialOwner",
          "type": "address"
        },
        {
          "internalType": "address",
          "name": "artistAddress",
          "type": "address"
        },
        {
          "internalType": "string",
          "name": "_newTokenURI",
          "type": "string"
        },
        {
          "internalType": "uint256",
          "name": "_mintAmount",
          "type": "uint256"
        },
        {
          "internalType": "string",
          "name": "_name",
          "type": "string"
        },
        {
          "internalType": "string",
          "name": "_symbol",
          "type": "string"
        }
      ],
      "stateMutability": "nonpayable",
      "type": "constructor"
    },
    {
      "anonymous": false,
      "inputs": [
        {
          "indexed": true,
          "internalType": "address",
          "name": "owner",
          "type": "address"
        },
        {
          "indexed": true,
          "internalType": "address",
          "name": "approved",
          "type": "address"
        },
        {
          "indexed": true,
          "internalType": "uint256",
          "name": "tokenId",
          "type": "uint256"
        }
      ],
      "name": "Approval",
      "type": "event"
    },
    {
      "anonymous": false,
      "inputs": [
        {
          "indexed": true,
          "internalType": "address",
          "name": "owner",
          "type": "address"
        },
        {
          "indexed": true,
          "internalType": "address",
          "name": "operator",
          "type": "address"
        },
        {
          "indexed": false,
          "internalType": "bool",
          "name": "approved",
          "type": "bool"
        }
      ],
      "name": "ApprovalForAll",
      "type": "event"
    },
    {
      "anonymous": false,
      "inputs": [
        {
          "indexed": true,
          "internalType": "address",
          "name": "previousOwner",
          "type": "address"
        },
        {
          "indexed": true,
          "internalType": "address",
          "name": "newOwner",
          "type": "address"
        }
      ],
      "name": "OwnershipTransferred",
      "type": "event"
    },
    {
      "anonymous": false,
      "inputs": [
        {
          "indexed": true,
          "internalType": "address",
          "name": "from",
          "type": "address"
        },
        {
          "indexed": true,
          "internalType": "address",
          "name": "to",
          "type": "address"
        },
        {
          "indexed": true,
          "internalType": "uint256",
          "name": "tokenId",
          "type": "uint256"
        }
      ],
      "name": "Transfer",
      "type": "event"
    },
    {
      "inputs": [],
      "name": "_uri",
      "outputs": [
        {
          "internalType": "string",
          "name": "",
          "type": "string"
        }
      ],
      "stateMutability": "view",
      "type": "function"
    },
    {
      "inputs": [
        {
          "internalType": "address",
          "name": "to",
          "type": "address"
        },
        {
          "internalType": "uint256",
          "name": "tokenId",
          "type": "uint256"
        }
      ],
      "name": "approve",
      "outputs": [],
      "stateMutability": "nonpayable",
      "type": "function"
    },
    {
      "inputs": [
        {
          "internalType": "address",
          "name": "owner",
          "type": "address"
        }
      ],
      "name": "balanceOf",
      "outputs": [
        {
          "internalType": "uint256",
          "name": "",
          "type": "uint256"
        }
      ],
      "stateMutability": "view",
      "type": "function"
    },
    {
      "inputs": [
        {
          "internalType": "uint256",
          "name": "tokenId",
          "type": "uint256"
        }
      ],
      "name": "getApproved",
      "outputs": [
        {
          "internalType": "address",
          "name": "",
          "type": "address"
        }
      ],
      "stateMutability": "view",
      "type": "function"
    },
    {
      "inputs": [
        {
          "internalType": "address",
          "name": "owner",
          "type": "address"
        },
        {
          "internalType": "address",
          "name": "operator",
          "type": "address"
        }
      ],
      "name": "isApprovedForAll",
      "outputs": [
        {
          "internalType": "bool",
          "name": "",
          "type": "bool"
        }
      ],
      "stateMutability": "view",
      "type": "function"
    },
    {
      "inputs": [
        {
          "internalType": "address",
          "name": "to",
          "type": "address"
        },
        {
          "internalType": "uint256",
          "name": "quantity",
          "type": "uint256"
        }
      ],
      "name": "mint",
      "outputs": [],
      "stateMutability": "nonpayable",
      "type": "function"
    },
    {
      "inputs": [],
      "name": "name",
      "outputs": [
        {
          "internalType": "string",
          "name": "",
          "type": "string"
        }
      ],
      "stateMutability": "view",
      "type": "function"
    },
    {
      "inputs": [],
      "name": "owner",
      "outputs": [
        {
          "internalType": "address",
          "name": "",
          "type": "address"
        }
      ],
      "stateMutability": "view",
      "type": "function"
    },
    {
      "inputs": [
        {
          "internalType": "uint256",
          "name": "tokenId",
          "type": "uint256"
        }
      ],
      "name": "ownerOf",
      "outputs": [
        {
          "internalType": "address",
          "name": "",
          "type": "address"
        }
      ],
      "stateMutability": "view",
      "type": "function"
    },
    {
      "inputs": [],
      "name": "renounceOwnership",
      "outputs": [],
      "stateMutability": "nonpayable",
      "type": "function"
    },
    {
      "inputs": [
        {
          "internalType": "address",
          "name": "from",
          "type": "address"
        },
        {
          "internalType": "address",
          "name": "to",
          "type": "address"
        },
        {
          "internalType": "uint256",
          "name": "tokenId",
          "type": "uint256"
        }
      ],
      "name": "safeTransferFrom",
      "outputs": [],
      "stateMutability": "nonpayable",
      "type": "function"
    },
    {
      "inputs": [
        {
          "internalType": "address",
          "name": "from",
          "type": "address"
        },
        {
          "internalType": "address",
          "name": "to",
          "type": "address"
        },
        {
          "internalType": "uint256",
          "name": "tokenId",
          "type": "uint256"
        },
        {
          "internalType": "bytes",
          "name": "data",
          "type": "bytes"
        }
      ],
      "name": "safeTransferFrom",
      "outputs": [],
      "stateMutability": "nonpayable",
      "type": "function"
    },
    {
      "inputs": [
        {
          "internalType": "address",
          "name": "operator",
          "type": "address"
        },
        {
          "internalType": "bool",
          "name": "approved",
          "type": "bool"
        }
      ],
      "name": "setApprovalForAll",
      "outputs": [],
      "stateMutability": "nonpayable",
      "type": "function"
    },
    {
      "inputs": [
        {
          "internalType": "bytes4",
          "name": "interfaceId",
          "type": "bytes4"
        }
      ],
      "name": "supportsInterface",
      "outputs": [
        {
          "internalType": "bool",
          "name": "",
          "type": "bool"
        }
      ],
      "stateMutability": "view",
      "type": "function"
    },
    {
      "inputs": [],
      "name": "symbol",
      "outputs": [
        {
          "internalType": "string",
          "name": "",
          "type": "string"
        }
      ],
      "stateMutability": "view",
      "type": "function"
    },
    {
      "inputs": [
        {
          "internalType": "uint256",
          "name": "tokenId",
          "type": "uint256"
        }
      ],
      "name": "tokenURI",
      "outputs": [
        {
          "internalType": "string",
          "name": "",
          "type": "string"
        }
      ],
      "stateMutability": "view",
      "type": "function"
    },
    {
      "inputs": [
        {
          "internalType": "address",
          "name": "from",
          "type": "address"
        },
        {
          "internalType": "address",
          "name": "to",
          "type": "address"
        },
        {
          "internalType": "uint256",
          "name": "tokenId",
          "type": "uint256"
        }
      ],
      "name": "transferFrom",
      "outputs": [],
      "stateMutability": "nonpayable",
      "type": "function"
    },
    {
      "inputs": [
        {
          "internalType": "address",
          "name": "newOwner",
          "type": "address"
        }
      ],
      "name": "transferOwnership",
      "outputs": [],
      "stateMutability": "nonpayable",
      "type": "function"
    }
  ],
  "bytecode": "0x608060405260006009553480156200001657600080fd5b506040516200402f3803806200402f83398181016040528101906200003c919062000b69565b818181600090816200004f919062000ea3565b50806001908162000061919062000ea3565b50505062000084620000786200012060201b60201c565b6200012860201b60201c565b83600a908162000095919062000ea3565b5082600b8190555084600c60006101000a81548173ffffffffffffffffffffffffffffffffffffffff021916908373ffffffffffffffffffffffffffffffffffffffff16021790555062000114600c60009054906101000a900473ffffffffffffffffffffffffffffffffffffffff16600b54620001ee60201b60201c565b505050505050620014ac565b600033905090565b6000600760009054906101000a900473ffffffffffffffffffffffffffffffffffffffff16905081600760006101000a81548173ffffffffffffffffffffffffffffffffffffffff021916908373ffffffffffffffffffffffffffffffffffffffff1602179055508173ffffffffffffffffffffffffffffffffffffffff168173ffffffffffffffffffffffffffffffffffffffff167f8be0079c531659141344cd1fd0a4f28419497f9722a3daafe3b4186f6b6457e060405160405180910390a35050565b620001fe6200033760201b60201c565b6000811162000244576040517f08c379a00000000000000000000000000000000000000000000000000000000081526004016200023b9062000feb565b60405180910390fd5b60005b8181101562000332576200026483600954620003c860201b60201c565b6200030a600954600a80546200027a9062000c9c565b80601f0160208091040260200160405190810160405280929190818152602001828054620002a89062000c9c565b8015620002f95780601f10620002cd57610100808354040283529160200191620002f9565b820191906000526020600020905b815481529060010190602001808311620002db57829003601f168201915b5050505050620003ee60201b60201c565b600960008154809291906200031f906200103c565b9190505550808060010191505062000247565b505050565b620003476200012060201b60201c565b73ffffffffffffffffffffffffffffffffffffffff166200036d6200046860201b60201c565b73ffffffffffffffffffffffffffffffffffffffff1614620003c6576040517f08c379a0000000000000000000000000000000000000000000000000000000008152600401620003bd90620010d9565b60405180910390fd5b565b620003ea8282604051806020016040528060008152506200049260201b60201c565b5050565b620003ff826200050060201b60201c565b62000441576040517f08c379a0000000000000000000000000000000000000000000000000000000008152600401620004389062001171565b60405180910390fd5b8060066000848152602001908152602001600020908162000463919062000ea3565b505050565b6000600760009054906101000a900473ffffffffffffffffffffffffffffffffffffffff16905090565b620004a483836200056c60201b60201c565b620004b960008484846200076560201b60201c565b620004fb576040517f08c379a0000000000000000000000000000000000000000000000000000000008152600401620004f29062001209565b60405180910390fd5b505050565b60008073ffffffffffffffffffffffffffffffffffffffff166002600084815260200190815260200160002060009054906101000a900473ffffffffffffffffffffffffffffffffffffffff1673ffffffffffffffffffffffffffffffffffffffff1614159050919050565b600073ffffffffffffffffffffffffffffffffffffffff168273ffffffffffffffffffffffffffffffffffffffff1603620005de576040517f08c379a0000000000000000000000000000000000000000000000000000000008152600401620005d5906200127b565b60405180910390fd5b620005ef816200050060201b60201c565b1562000632576040517f08c379a00000000000000000000000000000000000000000000000000000000081526004016200062990620012ed565b60405180910390fd5b62000646600083836200090960201b60201c565b6001600360008473ffffffffffffffffffffffffffffffffffffffff1673ffffffffffffffffffffffffffffffffffffffff16815260200190815260200160002060008282546200069891906200130f565b92505081905550816002600083815260200190815260200160002060006101000a81548173ffffffffffffffffffffffffffffffffffffffff021916908373ffffffffffffffffffffffffffffffffffffffff160217905550808273ffffffffffffffffffffffffffffffffffffffff16600073ffffffffffffffffffffffffffffffffffffffff167fddf252ad1be2c89b69c2b068fc378daa952ba7f163c4a11628f55a4df523b3ef60405160405180910390a462000761600083836200090e60201b60201c565b5050565b60006200078e8473ffffffffffffffffffffffffffffffffffffffff166200091360201b60201c565b15620008fc578373ffffffffffffffffffffffffffffffffffffffff1663150b7a02620007c06200012060201b60201c565b8786866040518563ffffffff1660e01b8152600401620007e49493929190620013c9565b6020604051808303816000875af19250505080156200082357506040513d601f19601f820116820180604052508101906200082091906200147a565b60015b620008ab573d806000811462000856576040519150601f19603f3d011682016040523d82523d6000602084013e6200085b565b606091505b506000815103620008a3576040517f08c379a00000000000000000000000000000000000000000000000000000000081526004016200089a9062001209565b60405180910390fd5b805181602001fd5b63150b7a0260e01b7bffffffffffffffffffffffffffffffffffffffffffffffffffffffff1916817bffffffffffffffffffffffffffffffffffffffffffffffffffffffff19161491505062000901565b600190505b949350505050565b505050565b505050565b6000808273ffffffffffffffffffffffffffffffffffffffff163b119050919050565b6000604051905090565b600080fd5b600080fd5b600073ffffffffffffffffffffffffffffffffffffffff82169050919050565b600062000977826200094a565b9050919050565b62000989816200096a565b81146200099557600080fd5b50565b600081519050620009a9816200097e565b92915050565b600080fd5b600080fd5b6000601f19601f8301169050919050565b7f4e487b7100000000000000000000000000000000000000000000000000000000600052604160045260246000fd5b62000a0482620009b9565b810181811067ffffffffffffffff8211171562000a265762000a25620009ca565b5b80604052505050565b600062000a3b62000936565b905062000a498282620009f9565b919050565b600067ffffffffffffffff82111562000a6c5762000a6b620009ca565b5b62000a7782620009b9565b9050602081019050919050565b60005b8381101562000aa457808201518184015260208101905062000a87565b60008484015250505050565b600062000ac762000ac18462000a4e565b62000a2f565b90508281526020810184848401111562000ae65762000ae5620009b4565b5b62000af384828562000a84565b509392505050565b600082601f83011262000b135762000b12620009af565b5b815162000b2584826020860162000ab0565b91505092915050565b6000819050919050565b62000b438162000b2e565b811462000b4f57600080fd5b50565b60008151905062000b638162000b38565b92915050565b60008060008060008060c0878903121562000b895762000b8862000940565b5b600062000b9989828a0162000998565b965050602062000bac89828a0162000998565b955050604087015167ffffffffffffffff81111562000bd05762000bcf62000945565b5b62000bde89828a0162000afb565b945050606062000bf189828a0162000b52565b935050608087015167ffffffffffffffff81111562000c155762000c1462000945565b5b62000c2389828a0162000afb565b92505060a087015167ffffffffffffffff81111562000c475762000c4662000945565b5b62000c5589828a0162000afb565b9150509295509295509295565b600081519050919050565b7f4e487b7100000000000000000000000000000000000000000000000000000000600052602260045260246000fd5b6000600282049050600182168062000cb557607f821691505b60208210810362000ccb5762000cca62000c6d565b5b50919050565b60008190508160005260206000209050919050565b60006020601f8301049050919050565b600082821b905092915050565b60006008830262000d357fffffffffffffffffffffffffffffffffffffffffffffffffffffffffffffffff8262000cf6565b62000d41868362000cf6565b95508019841693508086168417925050509392505050565b6000819050919050565b600062000d8462000d7e62000d788462000b2e565b62000d59565b62000b2e565b9050919050565b6000819050919050565b62000da08362000d63565b62000db862000daf8262000d8b565b84845462000d03565b825550505050565b600090565b62000dcf62000dc0565b62000ddc81848462000d95565b505050565b5b8181101562000e045762000df860008262000dc5565b60018101905062000de2565b5050565b601f82111562000e535762000e1d8162000cd1565b62000e288462000ce6565b8101602085101562000e38578190505b62000e5062000e478562000ce6565b83018262000de1565b50505b505050565b600082821c905092915050565b600062000e786000198460080262000e58565b1980831691505092915050565b600062000e93838362000e65565b9150826002028217905092915050565b62000eae8262000c62565b67ffffffffffffffff81111562000eca5762000ec9620009ca565b5b62000ed6825462000c9c565b62000ee382828562000e08565b600060209050601f83116001811462000f1b576000841562000f06578287015190505b62000f12858262000e85565b86555062000f82565b601f19841662000f2b8662000cd1565b60005b8281101562000f555784890151825560018201915060208501945060208101905062000f2e565b8683101562000f75578489015162000f71601f89168262000e65565b8355505b6001600288020188555050505b505050505050565b600082825260208201905092915050565b7f5175616e74697479206d7573742062652067726561746572207468616e203000600082015250565b600062000fd3601f8362000f8a565b915062000fe08262000f9b565b602082019050919050565b60006020820190508181036000830152620010068162000fc4565b9050919050565b7f4e487b7100000000000000000000000000000000000000000000000000000000600052601160045260246000fd5b6000620010498262000b2e565b91507fffffffffffffffffffffffffffffffffffffffffffffffffffffffffffffffff82036200107e576200107d6200100d565b5b600182019050919050565b7f4f776e61626c653a2063616c6c6572206973206e6f7420746865206f776e6572600082015250565b6000620010c160208362000f8a565b9150620010ce8262001089565b602082019050919050565b60006020820190508181036000830152620010f481620010b2565b9050919050565b7f45524337323155524953746f726167653a2055524920736574206f66206e6f6e60008201527f6578697374656e7420746f6b656e000000000000000000000000000000000000602082015250565b600062001159602e8362000f8a565b91506200116682620010fb565b604082019050919050565b600060208201905081810360008301526200118c816200114a565b9050919050565b7f4552433732313a207472616e7366657220746f206e6f6e20455243373231526560008201527f63656976657220696d706c656d656e7465720000000000000000000000000000602082015250565b6000620011f160328362000f8a565b9150620011fe8262001193565b604082019050919050565b600060208201905081810360008301526200122481620011e2565b9050919050565b7f4552433732313a206d696e7420746f20746865207a65726f2061646472657373600082015250565b60006200126360208362000f8a565b915062001270826200122b565b602082019050919050565b60006020820190508181036000830152620012968162001254565b9050919050565b7f4552433732313a20746f6b656e20616c7265616479206d696e74656400000000600082015250565b6000620012d5601c8362000f8a565b9150620012e2826200129d565b602082019050919050565b600060208201905081810360008301526200130881620012c6565b9050919050565b60006200131c8262000b2e565b9150620013298362000b2e565b92508282019050808211156200134457620013436200100d565b5b92915050565b62001355816200096a565b82525050565b620013668162000b2e565b82525050565b600081519050919050565b600082825260208201905092915050565b600062001395826200136c565b620013a1818562001377565b9350620013b381856020860162000a84565b620013be81620009b9565b840191505092915050565b6000608082019050620013e060008301876200134a565b620013ef60208301866200134a565b620013fe60408301856200135b565b818103606083015262001412818462001388565b905095945050505050565b60007fffffffff0000000000000000000000000000000000000000000000000000000082169050919050565b62001454816200141d565b81146200146057600080fd5b50565b600081519050620014748162001449565b92915050565b60006020828403121562001493576200149262000940565b5b6000620014a38482850162001463565b91505092915050565b612b7380620014bc6000396000f3fe608060405234801561001057600080fd5b50600436106101165760003560e01c806370a08231116100a2578063a22cb46511610071578063a22cb465146102cd578063b88d4fde146102e9578063c87b56dd14610305578063e985e9c514610335578063f2fde38b1461036557610116565b806370a0823114610257578063715018a6146102875780638da5cb5b1461029157806395d89b41146102af57610116565b80630dccc9ad116100e95780630dccc9ad146101b557806323b872dd146101d357806340c10f19146101ef57806342842e0e1461020b5780636352211e1461022757610116565b806301ffc9a71461011b57806306fdde031461014b578063081812fc14610169578063095ea7b314610199575b600080fd5b610135600480360381019061013091906119a5565b610381565b60405161014291906119ed565b60405180910390f35b610153610463565b6040516101609190611a98565b60405180910390f35b610183600480360381019061017e9190611af0565b6104f5565b6040516101909190611b5e565b60405180910390f35b6101b360048036038101906101ae9190611ba5565b61053b565b005b6101bd610652565b6040516101ca9190611a98565b60405180910390f35b6101ed60048036038101906101e89190611be5565b6106e0565b005b61020960048036038101906102049190611ba5565b610740565b005b61022560048036038101906102209190611be5565b610862565b005b610241600480360381019061023c9190611af0565b610882565b60405161024e9190611b5e565b60405180910390f35b610271600480360381019061026c9190611c38565b610933565b60405161027e9190611c74565b60405180910390f35b61028f6109ea565b005b6102996109fe565b6040516102a69190611b5e565b60405180910390f35b6102b7610a28565b6040516102c49190611a98565b60405180910390f35b6102e760048036038101906102e29190611cbb565b610aba565b005b61030360048036038101906102fe9190611e30565b610ad0565b005b61031f600480360381019061031a9190611af0565b610b32565b60405161032c9190611a98565b60405180910390f35b61034f600480360381019061034a9190611eb3565b610bc6565b60405161035c91906119ed565b60405180910390f35b61037f600480360381019061037a9190611c38565b610c5a565b005b60007f80ac58cd000000000000000000000000000000000000000000000000000000007bffffffffffffffffffffffffffffffffffffffffffffffffffffffff1916827bffffffffffffffffffffffffffffffffffffffffffffffffffffffff1916148061044c57507f5b5e139f000000000000000000000000000000000000000000000000000000007bffffffffffffffffffffffffffffffffffffffffffffffffffffffff1916827bffffffffffffffffffffffffffffffffffffffffffffffffffffffff1916145b8061045c575061045b82610cdd565b5b9050919050565b60606000805461047290611f22565b80601f016020809104026020016040519081016040528092919081815260200182805461049e90611f22565b80156104eb5780601f106104c0576101008083540402835291602001916104eb565b820191906000526020600020905b8154815290600101906020018083116104ce57829003601f168201915b5050505050905090565b600061050082610d47565b6004600083815260200190815260200160002060009054906101000a900473ffffffffffffffffffffffffffffffffffffffff169050919050565b600061054682610882565b90508073ffffffffffffffffffffffffffffffffffffffff168373ffffffffffffffffffffffffffffffffffffffff16036105b6576040517f08c379a00000000000000000000000000000000000000000000000000000000081526004016105ad90611fc5565b60405180910390fd5b8073ffffffffffffffffffffffffffffffffffffffff166105d5610d92565b73ffffffffffffffffffffffffffffffffffffffff1614806106045750610603816105fe610d92565b610bc6565b5b610643576040517f08c379a000000000000000000000000000000000000000000000000000000000815260040161063a90612057565b60405180910390fd5b61064d8383610d9a565b505050565b600a805461065f90611f22565b80601f016020809104026020016040519081016040528092919081815260200182805461068b90611f22565b80156106d85780601f106106ad576101008083540402835291602001916106d8565b820191906000526020600020905b8154815290600101906020018083116106bb57829003601f168201915b505050505081565b6106f16106eb610d92565b82610e53565b610730576040517f08c379a0000000000000000000000000000000000000000000000000000000008152600401610727906120e9565b60405180910390fd5b61073b838383610ee8565b505050565b61074861114e565b6000811161078b576040517f08c379a000000000000000000000000000000000000000000000000000000000815260040161078290612155565b60405180910390fd5b60005b8181101561085d576107a2836009546111cc565b610838600954600a80546107b590611f22565b80601f01602080910402602001604051908101604052809291908181526020018280546107e190611f22565b801561082e5780601f106108035761010080835404028352916020019161082e565b820191906000526020600020905b81548152906001019060200180831161081157829003601f168201915b50505050506111ea565b6009600081548092919061084b906121a4565b9190505550808060010191505061078e565b505050565b61087d83838360405180602001604052806000815250610ad0565b505050565b6000806002600084815260200190815260200160002060009054906101000a900473ffffffffffffffffffffffffffffffffffffffff169050600073ffffffffffffffffffffffffffffffffffffffff168173ffffffffffffffffffffffffffffffffffffffff160361092a576040517f08c379a000000000000000000000000000000000000000000000000000000000815260040161092190612238565b60405180910390fd5b80915050919050565b60008073ffffffffffffffffffffffffffffffffffffffff168273ffffffffffffffffffffffffffffffffffffffff16036109a3576040517f08c379a000000000000000000000000000000000000000000000000000000000815260040161099a906122ca565b60405180910390fd5b600360008373ffffffffffffffffffffffffffffffffffffffff1673ffffffffffffffffffffffffffffffffffffffff168152602001908152602001600020549050919050565b6109f261114e565b6109fc6000611257565b565b6000600760009054906101000a900473ffffffffffffffffffffffffffffffffffffffff16905090565b606060018054610a3790611f22565b80601f0160208091040260200160405190810160405280929190818152602001828054610a6390611f22565b8015610ab05780601f10610a8557610100808354040283529160200191610ab0565b820191906000526020600020905b815481529060010190602001808311610a9357829003601f168201915b5050505050905090565b610acc610ac5610d92565b838361131d565b5050565b610ae1610adb610d92565b83610e53565b610b20576040517f08c379a0000000000000000000000000000000000000000000000000000000008152600401610b17906120e9565b60405180910390fd5b610b2c84848484611489565b50505050565b6060600a8054610b4190611f22565b80601f0160208091040260200160405190810160405280929190818152602001828054610b6d90611f22565b8015610bba5780601f10610b8f57610100808354040283529160200191610bba565b820191906000526020600020905b815481529060010190602001808311610b9d57829003601f168201915b50505050509050919050565b6000600560008473ffffffffffffffffffffffffffffffffffffffff1673ffffffffffffffffffffffffffffffffffffffff16815260200190815260200160002060008373ffffffffffffffffffffffffffffffffffffffff1673ffffffffffffffffffffffffffffffffffffffff16815260200190815260200160002060009054906101000a900460ff16905092915050565b610c6261114e565b600073ffffffffffffffffffffffffffffffffffffffff168173ffffffffffffffffffffffffffffffffffffffff1603610cd1576040517f08c379a0000000000000000000000000000000000000000000000000000000008152600401610cc89061235c565b60405180910390fd5b610cda81611257565b50565b60007f01ffc9a7000000000000000000000000000000000000000000000000000000007bffffffffffffffffffffffffffffffffffffffffffffffffffffffff1916827bffffffffffffffffffffffffffffffffffffffffffffffffffffffff1916149050919050565b610d50816114e5565b610d8f576040517f08c379a0000000000000000000000000000000000000000000000000000000008152600401610d8690612238565b60405180910390fd5b50565b600033905090565b816004600083815260200190815260200160002060006101000a81548173ffffffffffffffffffffffffffffffffffffffff021916908373ffffffffffffffffffffffffffffffffffffffff160217905550808273ffffffffffffffffffffffffffffffffffffffff16610e0d83610882565b73ffffffffffffffffffffffffffffffffffffffff167f8c5be1e5ebec7d5bd14f71427d1e84f3dd0314c0f7b2291e5b200ac8c7c3b92560405160405180910390a45050565b600080610e5f83610882565b90508073ffffffffffffffffffffffffffffffffffffffff168473ffffffffffffffffffffffffffffffffffffffff161480610ea15750610ea08185610bc6565b5b80610edf57508373ffffffffffffffffffffffffffffffffffffffff16610ec7846104f5565b73ffffffffffffffffffffffffffffffffffffffff16145b91505092915050565b8273ffffffffffffffffffffffffffffffffffffffff16610f0882610882565b73ffffffffffffffffffffffffffffffffffffffff1614610f5e576040517f08c379a0000000000000000000000000000000000000000000000000000000008152600401610f55906123ee565b60405180910390fd5b600073ffffffffffffffffffffffffffffffffffffffff168273ffffffffffffffffffffffffffffffffffffffff1603610fcd576040517f08c379a0000000000000000000000000000000000000000000000000000000008152600401610fc490612480565b60405180910390fd5b610fd8838383611551565b610fe3600082610d9a565b6001600360008573ffffffffffffffffffffffffffffffffffffffff1673ffffffffffffffffffffffffffffffffffffffff168152602001908152602001600020600082825461103391906124a0565b925050819055506001600360008473ffffffffffffffffffffffffffffffffffffffff1673ffffffffffffffffffffffffffffffffffffffff168152602001908152602001600020600082825461108a91906124d4565b92505081905550816002600083815260200190815260200160002060006101000a81548173ffffffffffffffffffffffffffffffffffffffff021916908373ffffffffffffffffffffffffffffffffffffffff160217905550808273ffffffffffffffffffffffffffffffffffffffff168473ffffffffffffffffffffffffffffffffffffffff167fddf252ad1be2c89b69c2b068fc378daa952ba7f163c4a11628f55a4df523b3ef60405160405180910390a4611149838383611556565b505050565b611156610d92565b73ffffffffffffffffffffffffffffffffffffffff166111746109fe565b73ffffffffffffffffffffffffffffffffffffffff16146111ca576040517f08c379a00000000000000000000000000000000000000000000000000000000081526004016111c190612554565b60405180910390fd5b565b6111e682826040518060200160405280600081525061155b565b5050565b6111f3826114e5565b611232576040517f08c379a0000000000000000000000000000000000000000000000000000000008152600401611229906125e6565b60405180910390fd5b8060066000848152602001908152602001600020908161125291906127b2565b505050565b6000600760009054906101000a900473ffffffffffffffffffffffffffffffffffffffff16905081600760006101000a81548173ffffffffffffffffffffffffffffffffffffffff021916908373ffffffffffffffffffffffffffffffffffffffff1602179055508173ffffffffffffffffffffffffffffffffffffffff168173ffffffffffffffffffffffffffffffffffffffff167f8be0079c531659141344cd1fd0a4f28419497f9722a3daafe3b4186f6b6457e060405160405180910390a35050565b8173ffffffffffffffffffffffffffffffffffffffff168373ffffffffffffffffffffffffffffffffffffffff160361138b576040517f08c379a0000000000000000000000000000000000000000000000000000000008152600401611382906128d0565b60405180910390fd5b80600560008573ffffffffffffffffffffffffffffffffffffffff1673ffffffffffffffffffffffffffffffffffffffff16815260200190815260200160002060008473ffffffffffffffffffffffffffffffffffffffff1673ffffffffffffffffffffffffffffffffffffffff16815260200190815260200160002060006101000a81548160ff0219169083151502179055508173ffffffffffffffffffffffffffffffffffffffff168373ffffffffffffffffffffffffffffffffffffffff167f17307eab39ab6107e8899845ad3d59bd9653f200f220920489ca2b5937696c318360405161147c91906119ed565b60405180910390a3505050565b611494848484610ee8565b6114a0848484846115b6565b6114df576040517f08c379a00000000000000000000000000000000000000000000000000000000081526004016114d690612962565b60405180910390fd5b50505050565b60008073ffffffffffffffffffffffffffffffffffffffff166002600084815260200190815260200160002060009054906101000a900473ffffffffffffffffffffffffffffffffffffffff1673ffffffffffffffffffffffffffffffffffffffff1614159050919050565b505050565b505050565b611565838361173d565b61157260008484846115b6565b6115b1576040517f08c379a00000000000000000000000000000000000000000000000000000000081526004016115a890612962565b60405180910390fd5b505050565b60006115d78473ffffffffffffffffffffffffffffffffffffffff16611916565b15611730578373ffffffffffffffffffffffffffffffffffffffff1663150b7a02611600610d92565b8786866040518563ffffffff1660e01b815260040161162294939291906129d7565b6020604051808303816000875af192505050801561165e57506040513d601f19601f8201168201806040525081019061165b9190612a38565b60015b6116e0573d806000811461168e576040519150601f19603f3d011682016040523d82523d6000602084013e611693565b606091505b5060008151036116d8576040517f08c379a00000000000000000000000000000000000000000000000000000000081526004016116cf90612962565b60405180910390fd5b805181602001fd5b63150b7a0260e01b7bffffffffffffffffffffffffffffffffffffffffffffffffffffffff1916817bffffffffffffffffffffffffffffffffffffffffffffffffffffffff191614915050611735565b600190505b949350505050565b600073ffffffffffffffffffffffffffffffffffffffff168273ffffffffffffffffffffffffffffffffffffffff16036117ac576040517f08c379a00000000000000000000000000000000000000000000000000000000081526004016117a390612ab1565b60405180910390fd5b6117b5816114e5565b156117f5576040517f08c379a00000000000000000000000000000000000000000000000000000000081526004016117ec90612b1d565b60405180910390fd5b61180160008383611551565b6001600360008473ffffffffffffffffffffffffffffffffffffffff1673ffffffffffffffffffffffffffffffffffffffff168152602001908152602001600020600082825461185191906124d4565b92505081905550816002600083815260200190815260200160002060006101000a81548173ffffffffffffffffffffffffffffffffffffffff021916908373ffffffffffffffffffffffffffffffffffffffff160217905550808273ffffffffffffffffffffffffffffffffffffffff16600073ffffffffffffffffffffffffffffffffffffffff167fddf252ad1be2c89b69c2b068fc378daa952ba7f163c4a11628f55a4df523b3ef60405160405180910390a461191260008383611556565b5050565b6000808273ffffffffffffffffffffffffffffffffffffffff163b119050919050565b6000604051905090565b600080fd5b600080fd5b60007fffffffff0000000000000000000000000000000000000000000000000000000082169050919050565b6119828161194d565b811461198d57600080fd5b50565b60008135905061199f81611979565b92915050565b6000602082840312156119bb576119ba611943565b5b60006119c984828501611990565b91505092915050565b60008115159050919050565b6119e7816119d2565b82525050565b6000602082019050611a0260008301846119de565b92915050565b600081519050919050565b600082825260208201905092915050565b60005b83811015611a42578082015181840152602081019050611a27565b60008484015250505050565b6000601f19601f8301169050919050565b6000611a6a82611a08565b611a748185611a13565b9350611a84818560208601611a24565b611a8d81611a4e565b840191505092915050565b60006020820190508181036000830152611ab28184611a5f565b905092915050565b6000819050919050565b611acd81611aba565b8114611ad857600080fd5b50565b600081359050611aea81611ac4565b92915050565b600060208284031215611b0657611b05611943565b5b6000611b1484828501611adb565b91505092915050565b600073ffffffffffffffffffffffffffffffffffffffff82169050919050565b6000611b4882611b1d565b9050919050565b611b5881611b3d565b82525050565b6000602082019050611b736000830184611b4f565b92915050565b611b8281611b3d565b8114611b8d57600080fd5b50565b600081359050611b9f81611b79565b92915050565b60008060408385031215611bbc57611bbb611943565b5b6000611bca85828601611b90565b9250506020611bdb85828601611adb565b9150509250929050565b600080600060608486031215611bfe57611bfd611943565b5b6000611c0c86828701611b90565b9350506020611c1d86828701611b90565b9250506040611c2e86828701611adb565b9150509250925092565b600060208284031215611c4e57611c4d611943565b5b6000611c5c84828501611b90565b91505092915050565b611c6e81611aba565b82525050565b6000602082019050611c896000830184611c65565b92915050565b611c98816119d2565b8114611ca357600080fd5b50565b600081359050611cb581611c8f565b92915050565b60008060408385031215611cd257611cd1611943565b5b6000611ce085828601611b90565b9250506020611cf185828601611ca6565b9150509250929050565b600080fd5b600080fd5b7f4e487b7100000000000000000000000000000000000000000000000000000000600052604160045260246000fd5b611d3d82611a4e565b810181811067ffffffffffffffff82111715611d5c57611d5b611d05565b5b80604052505050565b6000611d6f611939565b9050611d7b8282611d34565b919050565b600067ffffffffffffffff821115611d9b57611d9a611d05565b5b611da482611a4e565b9050602081019050919050565b82818337600083830152505050565b6000611dd3611dce84611d80565b611d65565b905082815260208101848484011115611def57611dee611d00565b5b611dfa848285611db1565b509392505050565b600082601f830112611e1757611e16611cfb565b5b8135611e27848260208601611dc0565b91505092915050565b60008060008060808587031215611e4a57611e49611943565b5b6000611e5887828801611b90565b9450506020611e6987828801611b90565b9350506040611e7a87828801611adb565b925050606085013567ffffffffffffffff811115611e9b57611e9a611948565b5b611ea787828801611e02565b91505092959194509250565b60008060408385031215611eca57611ec9611943565b5b6000611ed885828601611b90565b9250506020611ee985828601611b90565b9150509250929050565b7f4e487b7100000000000000000000000000000000000000000000000000000000600052602260045260246000fd5b60006002820490506001821680611f3a57607f821691505b602082108103611f4d57611f4c611ef3565b5b50919050565b7f4552433732313a20617070726f76616c20746f2063757272656e74206f776e6560008201527f7200000000000000000000000000000000000000000000000000000000000000602082015250565b6000611faf602183611a13565b9150611fba82611f53565b604082019050919050565b60006020820190508181036000830152611fde81611fa2565b9050919050565b7f4552433732313a20617070726f76652063616c6c6572206973206e6f7420746f60008201527f6b656e206f776e6572206e6f7220617070726f76656420666f7220616c6c0000602082015250565b6000612041603e83611a13565b915061204c82611fe5565b604082019050919050565b6000602082019050818103600083015261207081612034565b9050919050565b7f4552433732313a2063616c6c6572206973206e6f7420746f6b656e206f776e6560008201527f72206e6f7220617070726f766564000000000000000000000000000000000000602082015250565b60006120d3602e83611a13565b91506120de82612077565b604082019050919050565b60006020820190508181036000830152612102816120c6565b9050919050565b7f5175616e74697479206d7573742062652067726561746572207468616e203000600082015250565b600061213f601f83611a13565b915061214a82612109565b602082019050919050565b6000602082019050818103600083015261216e81612132565b9050919050565b7f4e487b7100000000000000000000000000000000000000000000000000000000600052601160045260246000fd5b60006121af82611aba565b91507fffffffffffffffffffffffffffffffffffffffffffffffffffffffffffffffff82036121e1576121e0612175565b5b600182019050919050565b7f4552433732313a20696e76616c696420746f6b656e2049440000000000000000600082015250565b6000612222601883611a13565b915061222d826121ec565b602082019050919050565b6000602082019050818103600083015261225181612215565b9050919050565b7f4552433732313a2061646472657373207a65726f206973206e6f74206120766160008201527f6c6964206f776e65720000000000000000000000000000000000000000000000602082015250565b60006122b4602983611a13565b91506122bf82612258565b604082019050919050565b600060208201905081810360008301526122e3816122a7565b9050919050565b7f4f776e61626c653a206e6577206f776e657220697320746865207a65726f206160008201527f6464726573730000000000000000000000000000000000000000000000000000602082015250565b6000612346602683611a13565b9150612351826122ea565b604082019050919050565b6000602082019050818103600083015261237581612339565b9050919050565b7f4552433732313a207472616e736665722066726f6d20696e636f72726563742060008201527f6f776e6572000000000000000000000000000000000000000000000000000000602082015250565b60006123d8602583611a13565b91506123e38261237c565b604082019050919050565b60006020820190508181036000830152612407816123cb565b9050919050565b7f4552433732313a207472616e7366657220746f20746865207a65726f2061646460008201527f7265737300000000000000000000000000000000000000000000000000000000602082015250565b600061246a602483611a13565b91506124758261240e565b604082019050919050565b600060208201905081810360008301526124998161245d565b9050919050565b60006124ab82611aba565b91506124b683611aba565b92508282039050818111156124ce576124cd612175565b5b92915050565b60006124df82611aba565b91506124ea83611aba565b925082820190508082111561250257612501612175565b5b92915050565b7f4f776e61626c653a2063616c6c6572206973206e6f7420746865206f776e6572600082015250565b600061253e602083611a13565b915061254982612508565b602082019050919050565b6000602082019050818103600083015261256d81612531565b9050919050565b7f45524337323155524953746f726167653a2055524920736574206f66206e6f6e60008201527f6578697374656e7420746f6b656e000000000000000000000000000000000000602082015250565b60006125d0602e83611a13565b91506125db82612574565b604082019050919050565b600060208201905081810360008301526125ff816125c3565b9050919050565b60008190508160005260206000209050919050565b60006020601f8301049050919050565b600082821b905092915050565b6000600883026126687fffffffffffffffffffffffffffffffffffffffffffffffffffffffffffffffff8261262b565b612672868361262b565b95508019841693508086168417925050509392505050565b6000819050919050565b60006126af6126aa6126a584611aba565b61268a565b611aba565b9050919050565b6000819050919050565b6126c983612694565b6126dd6126d5826126b6565b848454612638565b825550505050565b600090565b6126f26126e5565b6126fd8184846126c0565b505050565b5b81811015612721576127166000826126ea565b600181019050612703565b5050565b601f8211156127665761273781612606565b6127408461261b565b8101602085101561274f578190505b61276361275b8561261b565b830182612702565b50505b505050565b600082821c905092915050565b60006127896000198460080261276b565b1980831691505092915050565b60006127a28383612778565b9150826002028217905092915050565b6127bb82611a08565b67ffffffffffffffff8111156127d4576127d3611d05565b5b6127de8254611f22565b6127e9828285612725565b600060209050601f83116001811461281c576000841561280a578287015190505b6128148582612796565b86555061287c565b601f19841661282a86612606565b60005b828110156128525784890151825560018201915060208501945060208101905061282d565b8683101561286f578489015161286b601f891682612778565b8355505b6001600288020188555050505b505050505050565b7f4552433732313a20617070726f766520746f2063616c6c657200000000000000600082015250565b60006128ba601983611a13565b91506128c582612884565b602082019050919050565b600060208201905081810360008301526128e9816128ad565b9050919050565b7f4552433732313a207472616e7366657220746f206e6f6e20455243373231526560008201527f63656976657220696d706c656d656e7465720000000000000000000000000000602082015250565b600061294c603283611a13565b9150612957826128f0565b604082019050919050565b6000602082019050818103600083015261297b8161293f565b9050919050565b600081519050919050565b600082825260208201905092915050565b60006129a982612982565b6129b3818561298d565b93506129c3818560208601611a24565b6129cc81611a4e565b840191505092915050565b60006080820190506129ec6000830187611b4f565b6129f96020830186611b4f565b612a066040830185611c65565b8181036060830152612a18818461299e565b905095945050505050565b600081519050612a3281611979565b92915050565b600060208284031215612a4e57612a4d611943565b5b6000612a5c84828501612a23565b91505092915050565b7f4552433732313a206d696e7420746f20746865207a65726f2061646472657373600082015250565b6000612a9b602083611a13565b9150612aa682612a65565b602082019050919050565b60006020820190508181036000830152612aca81612a8e565b9050919050565b7f4552433732313a20746f6b656e20616c7265616479206d696e74656400000000600082015250565b6000612b07601c83611a13565b9150612b1282612ad1565b602082019050919050565b60006020820190508181036000830152612b3681612afa565b905091905056fea2646970667358221220de49c9778f1bba507f4ad50ac5d64594591fc0c0869f4b7ec84631bd17126afb64736f6c63430008180033",
  "linkReferences": {},
  "deployedLinkReferences": {}
}