{
  "_format": "hh-sol-artifact-1",
  "contractName": "DBeatsNFT",
  "sourceName": "contracts/DBeatsNFT.sol",
  "abi": [
    {
      "inputs": [
        {
          "internalType": "address",
          "name": "adminAddress",
          "type": "address"
        },
        {
          "internalType": "uint256",
          "name": "royaltyFeePercentage",
          "type": "uint256"
        },
        {
          "internalType": "address",
          "name": "artistAddress",
          "type": "address"
        },
        {
          "internalType": "string",
          "name": "_newTokenURI",
          "type": "string"
        },
        {
          "internalType": "string",
          "name": "_name",
          "type": "string"
        },
        {
          "internalType": "string",
          "name": "_symbol",
          "type": "string"
        },
        {
          "internalType": "uint256",
          "name": "mintPrice",
          "type": "uint256"
        },
        {
          "internalType": "uint256",
          "name": "platformFeePercentage",
          "type": "uint256"
        },
        {
          "internalType": "address",
          "name": "platformWalletAddress",
          "type": "address"
        }
      ],
      "stateMutability": "nonpayable",
      "type": "constructor"
    },
    {
      "anonymous": false,
      "inputs": [
        {
          "indexed": true,
          "internalType": "address",
          "name": "owner",
          "type": "address"
        },
        {
          "indexed": true,
          "internalType": "address",
          "name": "approved",
          "type": "address"
        },
        {
          "indexed": true,
          "internalType": "uint256",
          "name": "tokenId",
          "type": "uint256"
        }
      ],
      "name": "Approval",
      "type": "event"
    },
    {
      "anonymous": false,
      "inputs": [
        {
          "indexed": true,
          "internalType": "address",
          "name": "owner",
          "type": "address"
        },
        {
          "indexed": true,
          "internalType": "address",
          "name": "operator",
          "type": "address"
        },
        {
          "indexed": false,
          "internalType": "bool",
          "name": "approved",
          "type": "bool"
        }
      ],
      "name": "ApprovalForAll",
      "type": "event"
    },
    {
      "anonymous": false,
      "inputs": [
        {
          "indexed": true,
          "internalType": "address",
          "name": "to",
          "type": "address"
        },
        {
          "indexed": true,
          "internalType": "uint256",
          "name": "tokenId",
          "type": "uint256"
        },
        {
          "indexed": false,
          "internalType": "string",
          "name": "uri",
          "type": "string"
        }
      ],
      "name": "Minted",
      "type": "event"
    },
    {
      "anonymous": false,
      "inputs": [
        {
          "indexed": true,
          "internalType": "address",
          "name": "previousOwner",
          "type": "address"
        },
        {
          "indexed": true,
          "internalType": "address",
          "name": "newOwner",
          "type": "address"
        }
      ],
      "name": "OwnershipTransferred",
      "type": "event"
    },
    {
      "anonymous": false,
      "inputs": [
        {
          "indexed": true,
          "internalType": "address",
          "name": "artist",
          "type": "address"
        },
        {
          "indexed": true,
          "internalType": "address",
          "name": "buyer",
          "type": "address"
        },
        {
          "indexed": false,
          "internalType": "uint256",
          "name": "amount",
          "type": "uint256"
        }
      ],
      "name": "RoyaltyPaid",
      "type": "event"
    },
    {
      "anonymous": false,
      "inputs": [
        {
          "indexed": true,
          "internalType": "address",
          "name": "from",
          "type": "address"
        },
        {
          "indexed": true,
          "internalType": "address",
          "name": "to",
          "type": "address"
        },
        {
          "indexed": true,
          "internalType": "uint256",
          "name": "tokenId",
          "type": "uint256"
        }
      ],
      "name": "Transfer",
      "type": "event"
    },
    {
      "inputs": [],
      "name": "_adminAddress",
      "outputs": [
        {
          "internalType": "address",
          "name": "",
          "type": "address"
        }
      ],
      "stateMutability": "view",
      "type": "function"
    },
    {
      "inputs": [],
      "name": "_artistAddress",
      "outputs": [
        {
          "internalType": "address",
          "name": "",
          "type": "address"
        }
      ],
      "stateMutability": "view",
      "type": "function"
    },
    {
      "inputs": [],
      "name": "_mintPrice",
      "outputs": [
        {
          "internalType": "uint256",
          "name": "",
          "type": "uint256"
        }
      ],
      "stateMutability": "view",
      "type": "function"
    },
    {
      "inputs": [],
      "name": "_royaltyFeePercentage",
      "outputs": [
        {
          "internalType": "uint256",
          "name": "",
          "type": "uint256"
        }
      ],
      "stateMutability": "view",
      "type": "function"
    },
    {
      "inputs": [],
      "name": "_uri",
      "outputs": [
        {
          "internalType": "string",
          "name": "",
          "type": "string"
        }
      ],
      "stateMutability": "view",
      "type": "function"
    },
    {
      "inputs": [
        {
          "internalType": "address",
          "name": "to",
          "type": "address"
        },
        {
          "internalType": "uint256",
          "name": "tokenId",
          "type": "uint256"
        }
      ],
      "name": "approve",
      "outputs": [],
      "stateMutability": "nonpayable",
      "type": "function"
    },
    {
      "inputs": [
        {
          "internalType": "address",
          "name": "owner",
          "type": "address"
        }
      ],
      "name": "balanceOf",
      "outputs": [
        {
          "internalType": "uint256",
          "name": "",
          "type": "uint256"
        }
      ],
      "stateMutability": "view",
      "type": "function"
    },
    {
      "inputs": [
        {
          "internalType": "uint256",
          "name": "tokenId",
          "type": "uint256"
        }
      ],
      "name": "getApproved",
      "outputs": [
        {
          "internalType": "address",
          "name": "",
          "type": "address"
        }
      ],
      "stateMutability": "view",
      "type": "function"
    },
    {
      "inputs": [
        {
          "internalType": "address",
          "name": "owner",
          "type": "address"
        },
        {
          "internalType": "address",
          "name": "operator",
          "type": "address"
        }
      ],
      "name": "isApprovedForAll",
      "outputs": [
        {
          "internalType": "bool",
          "name": "",
          "type": "bool"
        }
      ],
      "stateMutability": "view",
      "type": "function"
    },
    {
      "inputs": [
        {
          "internalType": "address",
          "name": "to",
          "type": "address"
        },
        {
          "internalType": "uint256",
          "name": "quantity",
          "type": "uint256"
        }
      ],
      "name": "mint",
      "outputs": [],
      "stateMutability": "payable",
      "type": "function"
    },
    {
      "inputs": [],
      "name": "name",
      "outputs": [
        {
          "internalType": "string",
          "name": "",
          "type": "string"
        }
      ],
      "stateMutability": "view",
      "type": "function"
    },
    {
      "inputs": [],
      "name": "owner",
      "outputs": [
        {
          "internalType": "address",
          "name": "",
          "type": "address"
        }
      ],
      "stateMutability": "view",
      "type": "function"
    },
    {
      "inputs": [
        {
          "internalType": "uint256",
          "name": "tokenId",
          "type": "uint256"
        }
      ],
      "name": "ownerOf",
      "outputs": [
        {
          "internalType": "address",
          "name": "",
          "type": "address"
        }
      ],
      "stateMutability": "view",
      "type": "function"
    },
    {
      "inputs": [],
      "name": "renounceOwnership",
      "outputs": [],
      "stateMutability": "nonpayable",
      "type": "function"
    },
    {
      "inputs": [
        {
          "internalType": "address",
          "name": "from",
          "type": "address"
        },
        {
          "internalType": "address",
          "name": "to",
          "type": "address"
        },
        {
          "internalType": "uint256",
          "name": "tokenId",
          "type": "uint256"
        }
      ],
      "name": "safeTransferFrom",
      "outputs": [],
      "stateMutability": "nonpayable",
      "type": "function"
    },
    {
      "inputs": [
        {
          "internalType": "address",
          "name": "from",
          "type": "address"
        },
        {
          "internalType": "address",
          "name": "to",
          "type": "address"
        },
        {
          "internalType": "uint256",
          "name": "tokenId",
          "type": "uint256"
        },
        {
          "internalType": "bytes",
          "name": "data",
          "type": "bytes"
        }
      ],
      "name": "safeTransferFrom",
      "outputs": [],
      "stateMutability": "nonpayable",
      "type": "function"
    },
    {
      "inputs": [
        {
          "internalType": "address",
          "name": "operator",
          "type": "address"
        },
        {
          "internalType": "bool",
          "name": "approved",
          "type": "bool"
        }
      ],
      "name": "setApprovalForAll",
      "outputs": [],
      "stateMutability": "nonpayable",
      "type": "function"
    },
    {
      "inputs": [
        {
          "internalType": "bytes4",
          "name": "interfaceId",
          "type": "bytes4"
        }
      ],
      "name": "supportsInterface",
      "outputs": [
        {
          "internalType": "bool",
          "name": "",
          "type": "bool"
        }
      ],
      "stateMutability": "view",
      "type": "function"
    },
    {
      "inputs": [],
      "name": "symbol",
      "outputs": [
        {
          "internalType": "string",
          "name": "",
          "type": "string"
        }
      ],
      "stateMutability": "view",
      "type": "function"
    },
    {
      "inputs": [
        {
          "internalType": "uint256",
          "name": "tokenId",
          "type": "uint256"
        }
      ],
      "name": "tokenURI",
      "outputs": [
        {
          "internalType": "string",
          "name": "",
          "type": "string"
        }
      ],
      "stateMutability": "view",
      "type": "function"
    },
    {
      "inputs": [
        {
          "internalType": "address",
          "name": "from",
          "type": "address"
        },
        {
          "internalType": "address",
          "name": "to",
          "type": "address"
        },
        {
          "internalType": "uint256",
          "name": "tokenId",
          "type": "uint256"
        }
      ],
      "name": "transferFrom",
      "outputs": [],
      "stateMutability": "nonpayable",
      "type": "function"
    },
    {
      "inputs": [
        {
          "internalType": "address",
          "name": "newOwner",
          "type": "address"
        }
      ],
      "name": "transferOwnership",
      "outputs": [],
      "stateMutability": "nonpayable",
      "type": "function"
    },
    {
      "inputs": [
        {
          "internalType": "uint256",
          "name": "_newPlatformFeePercent",
          "type": "uint256"
        }
      ],
      "name": "updatePlatformFee",
      "outputs": [],
      "stateMutability": "nonpayable",
      "type": "function"
    },
    {
      "inputs": [],
      "name": "withdraw",
      "outputs": [],
      "stateMutability": "nonpayable",
      "type": "function"
    }
  ],
  "bytecode": "0x608060405260006008553480156200001657600080fd5b5060405162003bda38038062003bda83398181016040528101906200003c91906200047e565b848481600090816200004f9190620007fb565b508060019081620000619190620007fb565b50505062000084620000786200017d60201b60201c565b6200018560201b60201c565b85600c9081620000959190620007fb565b5088600e60006101000a81548173ffffffffffffffffffffffffffffffffffffffff021916908373ffffffffffffffffffffffffffffffffffffffff16021790555086600d60006101000a81548173ffffffffffffffffffffffffffffffffffffffff021916908373ffffffffffffffffffffffffffffffffffffffff1602179055508260098190555081600a8190555080600f60006101000a81548173ffffffffffffffffffffffffffffffffffffffff021916908373ffffffffffffffffffffffffffffffffffffffff16021790555087600b81905550505050505050505050620008e2565b600033905090565b6000600760009054906101000a900473ffffffffffffffffffffffffffffffffffffffff16905081600760006101000a81548173ffffffffffffffffffffffffffffffffffffffff021916908373ffffffffffffffffffffffffffffffffffffffff1602179055508173ffffffffffffffffffffffffffffffffffffffff168173ffffffffffffffffffffffffffffffffffffffff167f8be0079c531659141344cd1fd0a4f28419497f9722a3daafe3b4186f6b6457e060405160405180910390a35050565b6000604051905090565b600080fd5b600080fd5b600073ffffffffffffffffffffffffffffffffffffffff82169050919050565b60006200028c826200025f565b9050919050565b6200029e816200027f565b8114620002aa57600080fd5b50565b600081519050620002be8162000293565b92915050565b6000819050919050565b620002d981620002c4565b8114620002e557600080fd5b50565b600081519050620002f981620002ce565b92915050565b600080fd5b600080fd5b6000601f19601f8301169050919050565b7f4e487b7100000000000000000000000000000000000000000000000000000000600052604160045260246000fd5b620003548262000309565b810181811067ffffffffffffffff821117156200037657620003756200031a565b5b80604052505050565b60006200038b6200024b565b905062000399828262000349565b919050565b600067ffffffffffffffff821115620003bc57620003bb6200031a565b5b620003c78262000309565b9050602081019050919050565b60005b83811015620003f4578082015181840152602081019050620003d7565b60008484015250505050565b60006200041762000411846200039e565b6200037f565b90508281526020810184848401111562000436576200043562000304565b5b62000443848285620003d4565b509392505050565b600082601f830112620004635762000462620002ff565b5b81516200047584826020860162000400565b91505092915050565b60008060008060008060008060006101208a8c031215620004a457620004a362000255565b5b6000620004b48c828d01620002ad565b9950506020620004c78c828d01620002e8565b9850506040620004da8c828d01620002ad565b97505060608a015167ffffffffffffffff811115620004fe57620004fd6200025a565b5b6200050c8c828d016200044b565b96505060808a015167ffffffffffffffff81111562000530576200052f6200025a565b5b6200053e8c828d016200044b565b95505060a08a015167ffffffffffffffff8111156200056257620005616200025a565b5b620005708c828d016200044b565b94505060c0620005838c828d01620002e8565b93505060e0620005968c828d01620002e8565b925050610100620005aa8c828d01620002ad565b9150509295985092959850929598565b600081519050919050565b7f4e487b7100000000000000000000000000000000000000000000000000000000600052602260045260246000fd5b600060028204905060018216806200060d57607f821691505b602082108103620006235762000622620005c5565b5b50919050565b60008190508160005260206000209050919050565b60006020601f8301049050919050565b600082821b905092915050565b6000600883026200068d7fffffffffffffffffffffffffffffffffffffffffffffffffffffffffffffffff826200064e565b6200069986836200064e565b95508019841693508086168417925050509392505050565b6000819050919050565b6000620006dc620006d6620006d084620002c4565b620006b1565b620002c4565b9050919050565b6000819050919050565b620006f883620006bb565b620007106200070782620006e3565b8484546200065b565b825550505050565b600090565b6200072762000718565b62000734818484620006ed565b505050565b5b818110156200075c57620007506000826200071d565b6001810190506200073a565b5050565b601f821115620007ab57620007758162000629565b62000780846200063e565b8101602085101562000790578190505b620007a86200079f856200063e565b83018262000739565b50505b505050565b600082821c905092915050565b6000620007d060001984600802620007b0565b1980831691505092915050565b6000620007eb8383620007bd565b9150826002028217905092915050565b6200080682620005ba565b67ffffffffffffffff8111156200082257620008216200031a565b5b6200082e8254620005f4565b6200083b82828562000760565b600060209050601f8311600181146200087357600084156200085e578287015190505b6200086a8582620007dd565b865550620008da565b601f198416620008838662000629565b60005b82811015620008ad5784890151825560018201915060208501945060208101905062000886565b86831015620008cd5784890151620008c9601f891682620007bd565b8355505b6001600288020188555050505b505050505050565b6132e880620008f26000396000f3fe60806040526004361061014b5760003560e01c806370a08231116100b6578063aa0b59881161006f578063aa0b59881461045f578063b88d4fde14610488578063c87b56dd146104b1578063d6da2ccf146104ee578063e985e9c514610519578063f2fde38b146105565761014b565b806370a0823114610361578063715018a61461039e5780638da5cb5b146103b557806393dd6446146103e057806395d89b411461040b578063a22cb465146104365761014b565b806323b872dd1161010857806323b872dd146102745780633ccfd60b1461029d57806340c10f19146102b457806342842e0e146102d05780635c1cb691146102f95780636352211e146103245761014b565b806301ffc9a7146101505780630387da421461018d57806306fdde03146101b8578063081812fc146101e3578063095ea7b3146102205780630dccc9ad14610249575b600080fd5b34801561015c57600080fd5b5061017760048036038101906101729190611fa0565b61057f565b6040516101849190611fe8565b60405180910390f35b34801561019957600080fd5b506101a2610661565b6040516101af919061201c565b60405180910390f35b3480156101c457600080fd5b506101cd610667565b6040516101da91906120c7565b60405180910390f35b3480156101ef57600080fd5b5061020a60048036038101906102059190612115565b6106f9565b6040516102179190612183565b60405180910390f35b34801561022c57600080fd5b50610247600480360381019061024291906121ca565b61073f565b005b34801561025557600080fd5b5061025e610856565b60405161026b91906120c7565b60405180910390f35b34801561028057600080fd5b5061029b6004803603810190610296919061220a565b6108e4565b005b3480156102a957600080fd5b506102b2610944565b005b6102ce60048036038101906102c991906121ca565b610a1d565b005b3480156102dc57600080fd5b506102f760048036038101906102f2919061220a565b610c6a565b005b34801561030557600080fd5b5061030e610c8a565b60405161031b9190612183565b60405180910390f35b34801561033057600080fd5b5061034b60048036038101906103469190612115565b610cb0565b6040516103589190612183565b60405180910390f35b34801561036d57600080fd5b506103886004803603810190610383919061225d565b610d61565b604051610395919061201c565b60405180910390f35b3480156103aa57600080fd5b506103b3610e18565b005b3480156103c157600080fd5b506103ca610e2c565b6040516103d79190612183565b60405180910390f35b3480156103ec57600080fd5b506103f5610e56565b6040516104029190612183565b60405180910390f35b34801561041757600080fd5b50610420610e7c565b60405161042d91906120c7565b60405180910390f35b34801561044257600080fd5b5061045d600480360381019061045891906122b6565b610f0e565b005b34801561046b57600080fd5b5061048660048036038101906104819190612115565b610f24565b005b34801561049457600080fd5b506104af60048036038101906104aa919061242b565b610f36565b005b3480156104bd57600080fd5b506104d860048036038101906104d39190612115565b610f98565b6040516104e591906120c7565b60405180910390f35b3480156104fa57600080fd5b5061050361102c565b604051610510919061201c565b60405180910390f35b34801561052557600080fd5b50610540600480360381019061053b91906124ae565b611032565b60405161054d9190611fe8565b60405180910390f35b34801561056257600080fd5b5061057d6004803603810190610578919061225d565b6110c6565b005b60007f80ac58cd000000000000000000000000000000000000000000000000000000007bffffffffffffffffffffffffffffffffffffffffffffffffffffffff1916827bffffffffffffffffffffffffffffffffffffffffffffffffffffffff1916148061064a57507f5b5e139f000000000000000000000000000000000000000000000000000000007bffffffffffffffffffffffffffffffffffffffffffffffffffffffff1916827bffffffffffffffffffffffffffffffffffffffffffffffffffffffff1916145b8061065a575061065982611149565b5b9050919050565b60095481565b6060600080546106769061251d565b80601f01602080910402602001604051908101604052809291908181526020018280546106a29061251d565b80156106ef5780601f106106c4576101008083540402835291602001916106ef565b820191906000526020600020905b8154815290600101906020018083116106d257829003601f168201915b5050505050905090565b6000610704826111b3565b6004600083815260200190815260200160002060009054906101000a900473ffffffffffffffffffffffffffffffffffffffff169050919050565b600061074a82610cb0565b90508073ffffffffffffffffffffffffffffffffffffffff168373ffffffffffffffffffffffffffffffffffffffff16036107ba576040517f08c379a00000000000000000000000000000000000000000000000000000000081526004016107b1906125c0565b60405180910390fd5b8073ffffffffffffffffffffffffffffffffffffffff166107d96111fe565b73ffffffffffffffffffffffffffffffffffffffff1614806108085750610807816108026111fe565b611032565b5b610847576040517f08c379a000000000000000000000000000000000000000000000000000000000815260040161083e90612652565b60405180910390fd5b6108518383611206565b505050565b600c80546108639061251d565b80601f016020809104026020016040519081016040528092919081815260200182805461088f9061251d565b80156108dc5780601f106108b1576101008083540402835291602001916108dc565b820191906000526020600020905b8154815290600101906020018083116108bf57829003601f168201915b505050505081565b6108f56108ef6111fe565b826112bf565b610934576040517f08c379a000000000000000000000000000000000000000000000000000000000815260040161092b906126e4565b60405180910390fd5b61093f838383611354565b505050565b600d60009054906101000a900473ffffffffffffffffffffffffffffffffffffffff1673ffffffffffffffffffffffffffffffffffffffff163373ffffffffffffffffffffffffffffffffffffffff16146109d4576040517f08c379a00000000000000000000000000000000000000000000000000000000081526004016109cb90612750565b60405180910390fd5b3373ffffffffffffffffffffffffffffffffffffffff166108fc479081150290604051600060405180830381858888f19350505050158015610a1a573d6000803e3d6000fd5b50565b60008111610a60576040517f08c379a0000000000000000000000000000000000000000000000000000000008152600401610a57906127bc565b60405180910390fd5b60095481610a6e919061280b565b341015610ab0576040517f08c379a0000000000000000000000000000000000000000000000000000000008152600401610aa790612899565b60405180910390fd5b60006064600a5434610ac2919061280b565b610acc91906128e8565b9050600f60009054906101000a900473ffffffffffffffffffffffffffffffffffffffff1673ffffffffffffffffffffffffffffffffffffffff166108fc829081150290604051600060405180830381858888f19350505050158015610b36573d6000803e3d6000fd5b5060005b82811015610c6457610b4e846008546115ba565b6008548473ffffffffffffffffffffffffffffffffffffffff167fe7cd4ce7f2a465edc730269a1305e8a48bad821e8fb7e152ec413829c01a53c4610b94600854610f98565b604051610ba191906120c7565b60405180910390a3610c3f600854600c8054610bbc9061251d565b80601f0160208091040260200160405190810160405280929190818152602001828054610be89061251d565b8015610c355780601f10610c0a57610100808354040283529160200191610c35565b820191906000526020600020905b815481529060010190602001808311610c1857829003601f168201915b50505050506115d8565b60086000815480929190610c5290612919565b91905055508080600101915050610b3a565b50505050565b610c8583838360405180602001604052806000815250610f36565b505050565b600e60009054906101000a900473ffffffffffffffffffffffffffffffffffffffff1681565b6000806002600084815260200190815260200160002060009054906101000a900473ffffffffffffffffffffffffffffffffffffffff169050600073ffffffffffffffffffffffffffffffffffffffff168173ffffffffffffffffffffffffffffffffffffffff1603610d58576040517f08c379a0000000000000000000000000000000000000000000000000000000008152600401610d4f906129ad565b60405180910390fd5b80915050919050565b60008073ffffffffffffffffffffffffffffffffffffffff168273ffffffffffffffffffffffffffffffffffffffff1603610dd1576040517f08c379a0000000000000000000000000000000000000000000000000000000008152600401610dc890612a3f565b60405180910390fd5b600360008373ffffffffffffffffffffffffffffffffffffffff1673ffffffffffffffffffffffffffffffffffffffff168152602001908152602001600020549050919050565b610e20611645565b610e2a60006116c3565b565b6000600760009054906101000a900473ffffffffffffffffffffffffffffffffffffffff16905090565b600d60009054906101000a900473ffffffffffffffffffffffffffffffffffffffff1681565b606060018054610e8b9061251d565b80601f0160208091040260200160405190810160405280929190818152602001828054610eb79061251d565b8015610f045780601f10610ed957610100808354040283529160200191610f04565b820191906000526020600020905b815481529060010190602001808311610ee757829003601f168201915b5050505050905090565b610f20610f196111fe565b8383611789565b5050565b610f2c611645565b80600a8190555050565b610f47610f416111fe565b836112bf565b610f86576040517f08c379a0000000000000000000000000000000000000000000000000000000008152600401610f7d906126e4565b60405180910390fd5b610f92848484846118f5565b50505050565b6060600c8054610fa79061251d565b80601f0160208091040260200160405190810160405280929190818152602001828054610fd39061251d565b80156110205780601f10610ff557610100808354040283529160200191611020565b820191906000526020600020905b81548152906001019060200180831161100357829003601f168201915b50505050509050919050565b600b5481565b6000600560008473ffffffffffffffffffffffffffffffffffffffff1673ffffffffffffffffffffffffffffffffffffffff16815260200190815260200160002060008373ffffffffffffffffffffffffffffffffffffffff1673ffffffffffffffffffffffffffffffffffffffff16815260200190815260200160002060009054906101000a900460ff16905092915050565b6110ce611645565b600073ffffffffffffffffffffffffffffffffffffffff168173ffffffffffffffffffffffffffffffffffffffff160361113d576040517f08c379a000000000000000000000000000000000000000000000000000000000815260040161113490612ad1565b60405180910390fd5b611146816116c3565b50565b60007f01ffc9a7000000000000000000000000000000000000000000000000000000007bffffffffffffffffffffffffffffffffffffffffffffffffffffffff1916827bffffffffffffffffffffffffffffffffffffffffffffffffffffffff1916149050919050565b6111bc81611951565b6111fb576040517f08c379a00000000000000000000000000000000000000000000000000000000081526004016111f2906129ad565b60405180910390fd5b50565b600033905090565b816004600083815260200190815260200160002060006101000a81548173ffffffffffffffffffffffffffffffffffffffff021916908373ffffffffffffffffffffffffffffffffffffffff160217905550808273ffffffffffffffffffffffffffffffffffffffff1661127983610cb0565b73ffffffffffffffffffffffffffffffffffffffff167f8c5be1e5ebec7d5bd14f71427d1e84f3dd0314c0f7b2291e5b200ac8c7c3b92560405160405180910390a45050565b6000806112cb83610cb0565b90508073ffffffffffffffffffffffffffffffffffffffff168473ffffffffffffffffffffffffffffffffffffffff16148061130d575061130c8185611032565b5b8061134b57508373ffffffffffffffffffffffffffffffffffffffff16611333846106f9565b73ffffffffffffffffffffffffffffffffffffffff16145b91505092915050565b8273ffffffffffffffffffffffffffffffffffffffff1661137482610cb0565b73ffffffffffffffffffffffffffffffffffffffff16146113ca576040517f08c379a00000000000000000000000000000000000000000000000000000000081526004016113c190612b63565b60405180910390fd5b600073ffffffffffffffffffffffffffffffffffffffff168273ffffffffffffffffffffffffffffffffffffffff1603611439576040517f08c379a000000000000000000000000000000000000000000000000000000000815260040161143090612bf5565b60405180910390fd5b6114448383836119bd565b61144f600082611206565b6001600360008573ffffffffffffffffffffffffffffffffffffffff1673ffffffffffffffffffffffffffffffffffffffff168152602001908152602001600020600082825461149f9190612c15565b925050819055506001600360008473ffffffffffffffffffffffffffffffffffffffff1673ffffffffffffffffffffffffffffffffffffffff16815260200190815260200160002060008282546114f69190612c49565b92505081905550816002600083815260200190815260200160002060006101000a81548173ffffffffffffffffffffffffffffffffffffffff021916908373ffffffffffffffffffffffffffffffffffffffff160217905550808273ffffffffffffffffffffffffffffffffffffffff168473ffffffffffffffffffffffffffffffffffffffff167fddf252ad1be2c89b69c2b068fc378daa952ba7f163c4a11628f55a4df523b3ef60405160405180910390a46115b5838383611b4c565b505050565b6115d4828260405180602001604052806000815250611b51565b5050565b6115e182611951565b611620576040517f08c379a000000000000000000000000000000000000000000000000000000000815260040161161790612cef565b60405180910390fd5b806006600084815260200190815260200160002090816116409190612ebb565b505050565b61164d6111fe565b73ffffffffffffffffffffffffffffffffffffffff1661166b610e2c565b73ffffffffffffffffffffffffffffffffffffffff16146116c1576040517f08c379a00000000000000000000000000000000000000000000000000000000081526004016116b890612fd9565b60405180910390fd5b565b6000600760009054906101000a900473ffffffffffffffffffffffffffffffffffffffff16905081600760006101000a81548173ffffffffffffffffffffffffffffffffffffffff021916908373ffffffffffffffffffffffffffffffffffffffff1602179055508173ffffffffffffffffffffffffffffffffffffffff168173ffffffffffffffffffffffffffffffffffffffff167f8be0079c531659141344cd1fd0a4f28419497f9722a3daafe3b4186f6b6457e060405160405180910390a35050565b8173ffffffffffffffffffffffffffffffffffffffff168373ffffffffffffffffffffffffffffffffffffffff16036117f7576040517f08c379a00000000000000000000000000000000000000000000000000000000081526004016117ee90613045565b60405180910390fd5b80600560008573ffffffffffffffffffffffffffffffffffffffff1673ffffffffffffffffffffffffffffffffffffffff16815260200190815260200160002060008473ffffffffffffffffffffffffffffffffffffffff1673ffffffffffffffffffffffffffffffffffffffff16815260200190815260200160002060006101000a81548160ff0219169083151502179055508173ffffffffffffffffffffffffffffffffffffffff168373ffffffffffffffffffffffffffffffffffffffff167f17307eab39ab6107e8899845ad3d59bd9653f200f220920489ca2b5937696c31836040516118e89190611fe8565b60405180910390a3505050565b611900848484611354565b61190c84848484611bac565b61194b576040517f08c379a0000000000000000000000000000000000000000000000000000000008152600401611942906130d7565b60405180910390fd5b50505050565b60008073ffffffffffffffffffffffffffffffffffffffff166002600084815260200190815260200160002060009054906101000a900473ffffffffffffffffffffffffffffffffffffffff1673ffffffffffffffffffffffffffffffffffffffff1614159050919050565b600073ffffffffffffffffffffffffffffffffffffffff168373ffffffffffffffffffffffffffffffffffffffff1614158015611a275750600073ffffffffffffffffffffffffffffffffffffffff168273ffffffffffffffffffffffffffffffffffffffff1614155b15611b3c5760006064600b5434611a3e919061280b565b611a4891906128e8565b9050600d60009054906101000a900473ffffffffffffffffffffffffffffffffffffffff1673ffffffffffffffffffffffffffffffffffffffff166108fc829081150290604051600060405180830381858888f19350505050158015611ab2573d6000803e3d6000fd5b508273ffffffffffffffffffffffffffffffffffffffff16600d60009054906101000a900473ffffffffffffffffffffffffffffffffffffffff1673ffffffffffffffffffffffffffffffffffffffff167fbdf0502df1b76d58521b2a929580ca100c2121e0ae38717b260d9cfa44c23b3283604051611b32919061201c565b60405180910390a3505b611b47838383611d33565b505050565b505050565b611b5b8383611d38565b611b686000848484611bac565b611ba7576040517f08c379a0000000000000000000000000000000000000000000000000000000008152600401611b9e906130d7565b60405180910390fd5b505050565b6000611bcd8473ffffffffffffffffffffffffffffffffffffffff16611f11565b15611d26578373ffffffffffffffffffffffffffffffffffffffff1663150b7a02611bf66111fe565b8786866040518563ffffffff1660e01b8152600401611c18949392919061314c565b6020604051808303816000875af1925050508015611c5457506040513d601f19601f82011682018060405250810190611c5191906131ad565b60015b611cd6573d8060008114611c84576040519150601f19603f3d011682016040523d82523d6000602084013e611c89565b606091505b506000815103611cce576040517f08c379a0000000000000000000000000000000000000000000000000000000008152600401611cc5906130d7565b60405180910390fd5b805181602001fd5b63150b7a0260e01b7bffffffffffffffffffffffffffffffffffffffffffffffffffffffff1916817bffffffffffffffffffffffffffffffffffffffffffffffffffffffff191614915050611d2b565b600190505b949350505050565b505050565b600073ffffffffffffffffffffffffffffffffffffffff168273ffffffffffffffffffffffffffffffffffffffff1603611da7576040517f08c379a0000000000000000000000000000000000000000000000000000000008152600401611d9e90613226565b60405180910390fd5b611db081611951565b15611df0576040517f08c379a0000000000000000000000000000000000000000000000000000000008152600401611de790613292565b60405180910390fd5b611dfc600083836119bd565b6001600360008473ffffffffffffffffffffffffffffffffffffffff1673ffffffffffffffffffffffffffffffffffffffff1681526020019081526020016000206000828254611e4c9190612c49565b92505081905550816002600083815260200190815260200160002060006101000a81548173ffffffffffffffffffffffffffffffffffffffff021916908373ffffffffffffffffffffffffffffffffffffffff160217905550808273ffffffffffffffffffffffffffffffffffffffff16600073ffffffffffffffffffffffffffffffffffffffff167fddf252ad1be2c89b69c2b068fc378daa952ba7f163c4a11628f55a4df523b3ef60405160405180910390a4611f0d60008383611b4c565b5050565b6000808273ffffffffffffffffffffffffffffffffffffffff163b119050919050565b6000604051905090565b600080fd5b600080fd5b60007fffffffff0000000000000000000000000000000000000000000000000000000082169050919050565b611f7d81611f48565b8114611f8857600080fd5b50565b600081359050611f9a81611f74565b92915050565b600060208284031215611fb657611fb5611f3e565b5b6000611fc484828501611f8b565b91505092915050565b60008115159050919050565b611fe281611fcd565b82525050565b6000602082019050611ffd6000830184611fd9565b92915050565b6000819050919050565b61201681612003565b82525050565b6000602082019050612031600083018461200d565b92915050565b600081519050919050565b600082825260208201905092915050565b60005b83811015612071578082015181840152602081019050612056565b60008484015250505050565b6000601f19601f8301169050919050565b600061209982612037565b6120a38185612042565b93506120b3818560208601612053565b6120bc8161207d565b840191505092915050565b600060208201905081810360008301526120e1818461208e565b905092915050565b6120f281612003565b81146120fd57600080fd5b50565b60008135905061210f816120e9565b92915050565b60006020828403121561212b5761212a611f3e565b5b600061213984828501612100565b91505092915050565b600073ffffffffffffffffffffffffffffffffffffffff82169050919050565b600061216d82612142565b9050919050565b61217d81612162565b82525050565b60006020820190506121986000830184612174565b92915050565b6121a781612162565b81146121b257600080fd5b50565b6000813590506121c48161219e565b92915050565b600080604083850312156121e1576121e0611f3e565b5b60006121ef858286016121b5565b925050602061220085828601612100565b9150509250929050565b60008060006060848603121561222357612222611f3e565b5b6000612231868287016121b5565b9350506020612242868287016121b5565b925050604061225386828701612100565b9150509250925092565b60006020828403121561227357612272611f3e565b5b6000612281848285016121b5565b91505092915050565b61229381611fcd565b811461229e57600080fd5b50565b6000813590506122b08161228a565b92915050565b600080604083850312156122cd576122cc611f3e565b5b60006122db858286016121b5565b92505060206122ec858286016122a1565b9150509250929050565b600080fd5b600080fd5b7f4e487b7100000000000000000000000000000000000000000000000000000000600052604160045260246000fd5b6123388261207d565b810181811067ffffffffffffffff8211171561235757612356612300565b5b80604052505050565b600061236a611f34565b9050612376828261232f565b919050565b600067ffffffffffffffff82111561239657612395612300565b5b61239f8261207d565b9050602081019050919050565b82818337600083830152505050565b60006123ce6123c98461237b565b612360565b9050828152602081018484840111156123ea576123e96122fb565b5b6123f58482856123ac565b509392505050565b600082601f830112612412576124116122f6565b5b81356124228482602086016123bb565b91505092915050565b6000806000806080858703121561244557612444611f3e565b5b6000612453878288016121b5565b9450506020612464878288016121b5565b935050604061247587828801612100565b925050606085013567ffffffffffffffff81111561249657612495611f43565b5b6124a2878288016123fd565b91505092959194509250565b600080604083850312156124c5576124c4611f3e565b5b60006124d3858286016121b5565b92505060206124e4858286016121b5565b9150509250929050565b7f4e487b7100000000000000000000000000000000000000000000000000000000600052602260045260246000fd5b6000600282049050600182168061253557607f821691505b602082108103612548576125476124ee565b5b50919050565b7f4552433732313a20617070726f76616c20746f2063757272656e74206f776e6560008201527f7200000000000000000000000000000000000000000000000000000000000000602082015250565b60006125aa602183612042565b91506125b58261254e565b604082019050919050565b600060208201905081810360008301526125d98161259d565b9050919050565b7f4552433732313a20617070726f76652063616c6c6572206973206e6f7420746f60008201527f6b656e206f776e6572206e6f7220617070726f76656420666f7220616c6c0000602082015250565b600061263c603e83612042565b9150612647826125e0565b604082019050919050565b6000602082019050818103600083015261266b8161262f565b9050919050565b7f4552433732313a2063616c6c6572206973206e6f7420746f6b656e206f776e6560008201527f72206e6f7220617070726f766564000000000000000000000000000000000000602082015250565b60006126ce602e83612042565b91506126d982612672565b604082019050919050565b600060208201905081810360008301526126fd816126c1565b9050919050565b7f4f6e6c7920746865206172746973742063616e20776974686472617700000000600082015250565b600061273a601c83612042565b915061274582612704565b602082019050919050565b600060208201905081810360008301526127698161272d565b9050919050565b7f5175616e74697479206d7573742062652067726561746572207468616e203000600082015250565b60006127a6601f83612042565b91506127b182612770565b602082019050919050565b600060208201905081810360008301526127d581612799565b9050919050565b7f4e487b7100000000000000000000000000000000000000000000000000000000600052601160045260246000fd5b600061281682612003565b915061282183612003565b925082820261282f81612003565b91508282048414831517612846576128456127dc565b5b5092915050565b7f496e73756666696369656e74204554482073656e740000000000000000000000600082015250565b6000612883601583612042565b915061288e8261284d565b602082019050919050565b600060208201905081810360008301526128b281612876565b9050919050565b7f4e487b7100000000000000000000000000000000000000000000000000000000600052601260045260246000fd5b60006128f382612003565b91506128fe83612003565b92508261290e5761290d6128b9565b5b828204905092915050565b600061292482612003565b91507fffffffffffffffffffffffffffffffffffffffffffffffffffffffffffffffff8203612956576129556127dc565b5b600182019050919050565b7f4552433732313a20696e76616c696420746f6b656e2049440000000000000000600082015250565b6000612997601883612042565b91506129a282612961565b602082019050919050565b600060208201905081810360008301526129c68161298a565b9050919050565b7f4552433732313a2061646472657373207a65726f206973206e6f74206120766160008201527f6c6964206f776e65720000000000000000000000000000000000000000000000602082015250565b6000612a29602983612042565b9150612a34826129cd565b604082019050919050565b60006020820190508181036000830152612a5881612a1c565b9050919050565b7f4f776e61626c653a206e6577206f776e657220697320746865207a65726f206160008201527f6464726573730000000000000000000000000000000000000000000000000000602082015250565b6000612abb602683612042565b9150612ac682612a5f565b604082019050919050565b60006020820190508181036000830152612aea81612aae565b9050919050565b7f4552433732313a207472616e736665722066726f6d20696e636f72726563742060008201527f6f776e6572000000000000000000000000000000000000000000000000000000602082015250565b6000612b4d602583612042565b9150612b5882612af1565b604082019050919050565b60006020820190508181036000830152612b7c81612b40565b9050919050565b7f4552433732313a207472616e7366657220746f20746865207a65726f2061646460008201527f7265737300000000000000000000000000000000000000000000000000000000602082015250565b6000612bdf602483612042565b9150612bea82612b83565b604082019050919050565b60006020820190508181036000830152612c0e81612bd2565b9050919050565b6000612c2082612003565b9150612c2b83612003565b9250828203905081811115612c4357612c426127dc565b5b92915050565b6000612c5482612003565b9150612c5f83612003565b9250828201905080821115612c7757612c766127dc565b5b92915050565b7f45524337323155524953746f726167653a2055524920736574206f66206e6f6e60008201527f6578697374656e7420746f6b656e000000000000000000000000000000000000602082015250565b6000612cd9602e83612042565b9150612ce482612c7d565b604082019050919050565b60006020820190508181036000830152612d0881612ccc565b9050919050565b60008190508160005260206000209050919050565b60006020601f8301049050919050565b600082821b905092915050565b600060088302612d717fffffffffffffffffffffffffffffffffffffffffffffffffffffffffffffffff82612d34565b612d7b8683612d34565b95508019841693508086168417925050509392505050565b6000819050919050565b6000612db8612db3612dae84612003565b612d93565b612003565b9050919050565b6000819050919050565b612dd283612d9d565b612de6612dde82612dbf565b848454612d41565b825550505050565b600090565b612dfb612dee565b612e06818484612dc9565b505050565b5b81811015612e2a57612e1f600082612df3565b600181019050612e0c565b5050565b601f821115612e6f57612e4081612d0f565b612e4984612d24565b81016020851015612e58578190505b612e6c612e6485612d24565b830182612e0b565b50505b505050565b600082821c905092915050565b6000612e9260001984600802612e74565b1980831691505092915050565b6000612eab8383612e81565b9150826002028217905092915050565b612ec482612037565b67ffffffffffffffff811115612edd57612edc612300565b5b612ee7825461251d565b612ef2828285612e2e565b600060209050601f831160018114612f255760008415612f13578287015190505b612f1d8582612e9f565b865550612f85565b601f198416612f3386612d0f565b60005b82811015612f5b57848901518255600182019150602085019450602081019050612f36565b86831015612f785784890151612f74601f891682612e81565b8355505b6001600288020188555050505b505050505050565b7f4f776e61626c653a2063616c6c6572206973206e6f7420746865206f776e6572600082015250565b6000612fc3602083612042565b9150612fce82612f8d565b602082019050919050565b60006020820190508181036000830152612ff281612fb6565b9050919050565b7f4552433732313a20617070726f766520746f2063616c6c657200000000000000600082015250565b600061302f601983612042565b915061303a82612ff9565b602082019050919050565b6000602082019050818103600083015261305e81613022565b9050919050565b7f4552433732313a207472616e7366657220746f206e6f6e20455243373231526560008201527f63656976657220696d706c656d656e7465720000000000000000000000000000602082015250565b60006130c1603283612042565b91506130cc82613065565b604082019050919050565b600060208201905081810360008301526130f0816130b4565b9050919050565b600081519050919050565b600082825260208201905092915050565b600061311e826130f7565b6131288185613102565b9350613138818560208601612053565b6131418161207d565b840191505092915050565b60006080820190506131616000830187612174565b61316e6020830186612174565b61317b604083018561200d565b818103606083015261318d8184613113565b905095945050505050565b6000815190506131a781611f74565b92915050565b6000602082840312156131c3576131c2611f3e565b5b60006131d184828501613198565b91505092915050565b7f4552433732313a206d696e7420746f20746865207a65726f2061646472657373600082015250565b6000613210602083612042565b915061321b826131da565b602082019050919050565b6000602082019050818103600083015261323f81613203565b9050919050565b7f4552433732313a20746f6b656e20616c7265616479206d696e74656400000000600082015250565b600061327c601c83612042565b915061328782613246565b602082019050919050565b600060208201905081810360008301526132ab8161326f565b905091905056fea2646970667358221220274018a93af8760cf7314ea36f1d35fafc0f726c2844511bfbc06f43f66aea7764736f6c63430008180033",
  "linkReferences": {},
  "deployedLinkReferences": {}
}