{
  "_format": "hh-sol-artifact-1",
  "contractName": "DBeatsNFT",
  "sourceName": "contracts/DBeatsNFT.sol",
  "abi": [
    {
      "inputs": [
        {
          "internalType": "uint256",
          "name": "royaltyFeePercentage",
          "type": "uint256"
        },
        {
          "internalType": "address",
          "name": "artistAddress",
          "type": "address"
        },
        {
          "internalType": "string",
          "name": "_newTokenURI",
          "type": "string"
        },
        {
          "internalType": "string",
          "name": "_name",
          "type": "string"
        },
        {
          "internalType": "string",
          "name": "_symbol",
          "type": "string"
        },
        {
          "internalType": "uint256",
          "name": "mintPrice",
          "type": "uint256"
        },
        {
          "internalType": "uint256",
          "name": "platformFeePercentage",
          "type": "uint256"
        },
        {
          "internalType": "address",
          "name": "platformWalletAddress",
          "type": "address"
        },
        {
          "internalType": "string",
          "name": "genre",
          "type": "string"
        }
      ],
      "stateMutability": "nonpayable",
      "type": "constructor"
    },
    {
      "anonymous": false,
      "inputs": [
        {
          "indexed": true,
          "internalType": "address",
          "name": "owner",
          "type": "address"
        },
        {
          "indexed": true,
          "internalType": "address",
          "name": "approved",
          "type": "address"
        },
        {
          "indexed": true,
          "internalType": "uint256",
          "name": "tokenId",
          "type": "uint256"
        }
      ],
      "name": "Approval",
      "type": "event"
    },
    {
      "anonymous": false,
      "inputs": [
        {
          "indexed": true,
          "internalType": "address",
          "name": "owner",
          "type": "address"
        },
        {
          "indexed": true,
          "internalType": "address",
          "name": "operator",
          "type": "address"
        },
        {
          "indexed": false,
          "internalType": "bool",
          "name": "approved",
          "type": "bool"
        }
      ],
      "name": "ApprovalForAll",
      "type": "event"
    },
    {
      "anonymous": false,
      "inputs": [
        {
          "indexed": true,
          "internalType": "address",
          "name": "to",
          "type": "address"
        },
        {
          "indexed": true,
          "internalType": "uint256",
          "name": "tokenId",
          "type": "uint256"
        },
        {
          "indexed": false,
          "internalType": "string",
          "name": "uri",
          "type": "string"
        }
      ],
      "name": "Minted",
      "type": "event"
    },
    {
      "anonymous": false,
      "inputs": [
        {
          "indexed": true,
          "internalType": "address",
          "name": "previousOwner",
          "type": "address"
        },
        {
          "indexed": true,
          "internalType": "address",
          "name": "newOwner",
          "type": "address"
        }
      ],
      "name": "OwnershipTransferred",
      "type": "event"
    },
    {
      "anonymous": false,
      "inputs": [
        {
          "indexed": true,
          "internalType": "address",
          "name": "artist",
          "type": "address"
        },
        {
          "indexed": true,
          "internalType": "address",
          "name": "buyer",
          "type": "address"
        },
        {
          "indexed": false,
          "internalType": "uint256",
          "name": "amount",
          "type": "uint256"
        }
      ],
      "name": "RoyaltyPaid",
      "type": "event"
    },
    {
      "anonymous": false,
      "inputs": [
        {
          "indexed": true,
          "internalType": "address",
          "name": "from",
          "type": "address"
        },
        {
          "indexed": true,
          "internalType": "address",
          "name": "to",
          "type": "address"
        },
        {
          "indexed": true,
          "internalType": "uint256",
          "name": "tokenId",
          "type": "uint256"
        }
      ],
      "name": "Transfer",
      "type": "event"
    },
    {
      "inputs": [],
      "name": "_artistAddress",
      "outputs": [
        {
          "internalType": "address",
          "name": "",
          "type": "address"
        }
      ],
      "stateMutability": "view",
      "type": "function"
    },
    {
      "inputs": [],
      "name": "_genre",
      "outputs": [
        {
          "internalType": "string",
          "name": "",
          "type": "string"
        }
      ],
      "stateMutability": "view",
      "type": "function"
    },
    {
      "inputs": [],
      "name": "_mintPrice",
      "outputs": [
        {
          "internalType": "uint256",
          "name": "",
          "type": "uint256"
        }
      ],
      "stateMutability": "view",
      "type": "function"
    },
    {
      "inputs": [],
      "name": "_platformWalletAddress",
      "outputs": [
        {
          "internalType": "address",
          "name": "",
          "type": "address"
        }
      ],
      "stateMutability": "view",
      "type": "function"
    },
    {
      "inputs": [],
      "name": "_royaltyFeePercentage",
      "outputs": [
        {
          "internalType": "uint256",
          "name": "",
          "type": "uint256"
        }
      ],
      "stateMutability": "view",
      "type": "function"
    },
    {
      "inputs": [],
      "name": "_uri",
      "outputs": [
        {
          "internalType": "string",
          "name": "",
          "type": "string"
        }
      ],
      "stateMutability": "view",
      "type": "function"
    },
    {
      "inputs": [
        {
          "internalType": "address",
          "name": "to",
          "type": "address"
        },
        {
          "internalType": "uint256",
          "name": "tokenId",
          "type": "uint256"
        }
      ],
      "name": "approve",
      "outputs": [],
      "stateMutability": "nonpayable",
      "type": "function"
    },
    {
      "inputs": [
        {
          "internalType": "address",
          "name": "owner",
          "type": "address"
        }
      ],
      "name": "balanceOf",
      "outputs": [
        {
          "internalType": "uint256",
          "name": "",
          "type": "uint256"
        }
      ],
      "stateMutability": "view",
      "type": "function"
    },
    {
      "inputs": [
        {
          "internalType": "uint256",
          "name": "tokenId",
          "type": "uint256"
        }
      ],
      "name": "getApproved",
      "outputs": [
        {
          "internalType": "address",
          "name": "",
          "type": "address"
        }
      ],
      "stateMutability": "view",
      "type": "function"
    },
    {
      "inputs": [
        {
          "internalType": "address",
          "name": "owner",
          "type": "address"
        },
        {
          "internalType": "address",
          "name": "operator",
          "type": "address"
        }
      ],
      "name": "isApprovedForAll",
      "outputs": [
        {
          "internalType": "bool",
          "name": "",
          "type": "bool"
        }
      ],
      "stateMutability": "view",
      "type": "function"
    },
    {
      "inputs": [
        {
          "internalType": "address",
          "name": "to",
          "type": "address"
        },
        {
          "internalType": "uint256",
          "name": "quantity",
          "type": "uint256"
        }
      ],
      "name": "mint",
      "outputs": [],
      "stateMutability": "payable",
      "type": "function"
    },
    {
      "inputs": [],
      "name": "name",
      "outputs": [
        {
          "internalType": "string",
          "name": "",
          "type": "string"
        }
      ],
      "stateMutability": "view",
      "type": "function"
    },
    {
      "inputs": [],
      "name": "owner",
      "outputs": [
        {
          "internalType": "address",
          "name": "",
          "type": "address"
        }
      ],
      "stateMutability": "view",
      "type": "function"
    },
    {
      "inputs": [
        {
          "internalType": "uint256",
          "name": "tokenId",
          "type": "uint256"
        }
      ],
      "name": "ownerOf",
      "outputs": [
        {
          "internalType": "address",
          "name": "",
          "type": "address"
        }
      ],
      "stateMutability": "view",
      "type": "function"
    },
    {
      "inputs": [],
      "name": "renounceOwnership",
      "outputs": [],
      "stateMutability": "nonpayable",
      "type": "function"
    },
    {
      "inputs": [
        {
          "internalType": "address",
          "name": "from",
          "type": "address"
        },
        {
          "internalType": "address",
          "name": "to",
          "type": "address"
        },
        {
          "internalType": "uint256",
          "name": "tokenId",
          "type": "uint256"
        }
      ],
      "name": "safeTransferFrom",
      "outputs": [],
      "stateMutability": "nonpayable",
      "type": "function"
    },
    {
      "inputs": [
        {
          "internalType": "address",
          "name": "from",
          "type": "address"
        },
        {
          "internalType": "address",
          "name": "to",
          "type": "address"
        },
        {
          "internalType": "uint256",
          "name": "tokenId",
          "type": "uint256"
        },
        {
          "internalType": "bytes",
          "name": "data",
          "type": "bytes"
        }
      ],
      "name": "safeTransferFrom",
      "outputs": [],
      "stateMutability": "nonpayable",
      "type": "function"
    },
    {
      "inputs": [
        {
          "internalType": "address",
          "name": "operator",
          "type": "address"
        },
        {
          "internalType": "bool",
          "name": "approved",
          "type": "bool"
        }
      ],
      "name": "setApprovalForAll",
      "outputs": [],
      "stateMutability": "nonpayable",
      "type": "function"
    },
    {
      "inputs": [
        {
          "internalType": "bytes4",
          "name": "interfaceId",
          "type": "bytes4"
        }
      ],
      "name": "supportsInterface",
      "outputs": [
        {
          "internalType": "bool",
          "name": "",
          "type": "bool"
        }
      ],
      "stateMutability": "view",
      "type": "function"
    },
    {
      "inputs": [],
      "name": "symbol",
      "outputs": [
        {
          "internalType": "string",
          "name": "",
          "type": "string"
        }
      ],
      "stateMutability": "view",
      "type": "function"
    },
    {
      "inputs": [
        {
          "internalType": "uint256",
          "name": "tokenId",
          "type": "uint256"
        }
      ],
      "name": "tokenURI",
      "outputs": [
        {
          "internalType": "string",
          "name": "",
          "type": "string"
        }
      ],
      "stateMutability": "view",
      "type": "function"
    },
    {
      "inputs": [
        {
          "internalType": "address",
          "name": "from",
          "type": "address"
        },
        {
          "internalType": "address",
          "name": "to",
          "type": "address"
        },
        {
          "internalType": "uint256",
          "name": "tokenId",
          "type": "uint256"
        }
      ],
      "name": "transferFrom",
      "outputs": [],
      "stateMutability": "nonpayable",
      "type": "function"
    },
    {
      "inputs": [
        {
          "internalType": "address",
          "name": "newOwner",
          "type": "address"
        }
      ],
      "name": "transferOwnership",
      "outputs": [],
      "stateMutability": "nonpayable",
      "type": "function"
    },
    {
      "inputs": [
        {
          "internalType": "uint256",
          "name": "_newPlatformFeePercent",
          "type": "uint256"
        }
      ],
      "name": "updatePlatformFee",
      "outputs": [],
      "stateMutability": "nonpayable",
      "type": "function"
    },
    {
      "inputs": [],
      "name": "withdraw",
      "outputs": [],
      "stateMutability": "nonpayable",
      "type": "function"
    }
  ],
  "bytecode": "0x60806040523480156200001157600080fd5b5060405162003eaa38038062003eaa83398181016040528101906200003791906200044a565b858581600090816200004a9190620007e6565b5080600190816200005c9190620007e6565b5050506200007f620000736200014960201b60201c565b6200015160201b60201c565b86600c9081620000909190620007e6565b5087600d60006101000a81548173ffffffffffffffffffffffffffffffffffffffff021916908373ffffffffffffffffffffffffffffffffffffffff1602179055508360098190555082600a8190555081600e60006101000a81548173ffffffffffffffffffffffffffffffffffffffff021916908373ffffffffffffffffffffffffffffffffffffffff16021790555088600b8190555080600f9081620001399190620007e6565b50505050505050505050620008cd565b600033905090565b6000600760009054906101000a900473ffffffffffffffffffffffffffffffffffffffff16905081600760006101000a81548173ffffffffffffffffffffffffffffffffffffffff021916908373ffffffffffffffffffffffffffffffffffffffff1602179055508173ffffffffffffffffffffffffffffffffffffffff168173ffffffffffffffffffffffffffffffffffffffff167f8be0079c531659141344cd1fd0a4f28419497f9722a3daafe3b4186f6b6457e060405160405180910390a35050565b6000604051905090565b600080fd5b600080fd5b6000819050919050565b62000240816200022b565b81146200024c57600080fd5b50565b600081519050620002608162000235565b92915050565b600073ffffffffffffffffffffffffffffffffffffffff82169050919050565b6000620002938262000266565b9050919050565b620002a58162000286565b8114620002b157600080fd5b50565b600081519050620002c5816200029a565b92915050565b600080fd5b600080fd5b6000601f19601f8301169050919050565b7f4e487b7100000000000000000000000000000000000000000000000000000000600052604160045260246000fd5b6200032082620002d5565b810181811067ffffffffffffffff82111715620003425762000341620002e6565b5b80604052505050565b60006200035762000217565b905062000365828262000315565b919050565b600067ffffffffffffffff821115620003885762000387620002e6565b5b6200039382620002d5565b9050602081019050919050565b60005b83811015620003c0578082015181840152602081019050620003a3565b60008484015250505050565b6000620003e3620003dd846200036a565b6200034b565b905082815260208101848484011115620004025762000401620002d0565b5b6200040f848285620003a0565b509392505050565b600082601f8301126200042f576200042e620002cb565b5b815162000441848260208601620003cc565b91505092915050565b60008060008060008060008060006101208a8c03121562000470576200046f62000221565b5b6000620004808c828d016200024f565b9950506020620004938c828d01620002b4565b98505060408a015167ffffffffffffffff811115620004b757620004b662000226565b5b620004c58c828d0162000417565b97505060608a015167ffffffffffffffff811115620004e957620004e862000226565b5b620004f78c828d0162000417565b96505060808a015167ffffffffffffffff8111156200051b576200051a62000226565b5b620005298c828d0162000417565b95505060a06200053c8c828d016200024f565b94505060c06200054f8c828d016200024f565b93505060e0620005628c828d01620002b4565b9250506101008a015167ffffffffffffffff81111562000587576200058662000226565b5b620005958c828d0162000417565b9150509295985092959850929598565b600081519050919050565b7f4e487b7100000000000000000000000000000000000000000000000000000000600052602260045260246000fd5b60006002820490506001821680620005f857607f821691505b6020821081036200060e576200060d620005b0565b5b50919050565b60008190508160005260206000209050919050565b60006020601f8301049050919050565b600082821b905092915050565b600060088302620006787fffffffffffffffffffffffffffffffffffffffffffffffffffffffffffffffff8262000639565b62000684868362000639565b95508019841693508086168417925050509392505050565b6000819050919050565b6000620006c7620006c1620006bb846200022b565b6200069c565b6200022b565b9050919050565b6000819050919050565b620006e383620006a6565b620006fb620006f282620006ce565b84845462000646565b825550505050565b600090565b6200071262000703565b6200071f818484620006d8565b505050565b5b8181101562000747576200073b60008262000708565b60018101905062000725565b5050565b601f8211156200079657620007608162000614565b6200076b8462000629565b810160208510156200077b578190505b620007936200078a8562000629565b83018262000724565b50505b505050565b600082821c905092915050565b6000620007bb600019846008026200079b565b1980831691505092915050565b6000620007d68383620007a8565b9150826002028217905092915050565b620007f182620005a5565b67ffffffffffffffff8111156200080d576200080c620002e6565b5b620008198254620005df565b620008268282856200074b565b600060209050601f8311600181146200085e576000841562000849578287015190505b620008558582620007c8565b865550620008c5565b601f1984166200086e8662000614565b60005b82811015620008985784890151825560018201915060208501945060208101905062000871565b86831015620008b85784890151620008b4601f891682620007a8565b8355505b6001600288020188555050505b505050505050565b6135cd80620008dd6000396000f3fe6080604052600436106101665760003560e01c8063715018a6116100d1578063aa0b59881161008a578063c87b56dd11610064578063c87b56dd146104f7578063d6da2ccf14610534578063e985e9c51461055f578063f2fde38b1461059c57610166565b8063aa0b59881461047a578063b88d4fde146104a3578063bb244e40146104cc57610166565b8063715018a61461038e5780638d2fe3e1146103a55780638da5cb5b146103d057806393dd6446146103fb57806395d89b4114610426578063a22cb4651461045157610166565b806323b872dd1161012357806323b872dd1461028f5780633ccfd60b146102b857806340c10f19146102cf57806342842e0e146102eb5780636352211e1461031457806370a082311461035157610166565b806301ffc9a71461016b5780630387da42146101a857806306fdde03146101d3578063081812fc146101fe578063095ea7b31461023b5780630dccc9ad14610264575b600080fd5b34801561017757600080fd5b50610192600480360381019061018d91906121a9565b6105c5565b60405161019f91906121f1565b60405180910390f35b3480156101b457600080fd5b506101bd6106a7565b6040516101ca9190612225565b60405180910390f35b3480156101df57600080fd5b506101e86106ad565b6040516101f591906122d0565b60405180910390f35b34801561020a57600080fd5b506102256004803603810190610220919061231e565b61073f565b604051610232919061238c565b60405180910390f35b34801561024757600080fd5b50610262600480360381019061025d91906123d3565b610785565b005b34801561027057600080fd5b5061027961089c565b60405161028691906122d0565b60405180910390f35b34801561029b57600080fd5b506102b660048036038101906102b19190612413565b61092a565b005b3480156102c457600080fd5b506102cd61098a565b005b6102e960048036038101906102e491906123d3565b610af3565b005b3480156102f757600080fd5b50610312600480360381019061030d9190612413565b610d39565b005b34801561032057600080fd5b5061033b6004803603810190610336919061231e565b610d59565b604051610348919061238c565b60405180910390f35b34801561035d57600080fd5b5061037860048036038101906103739190612466565b610e0a565b6040516103859190612225565b60405180910390f35b34801561039a57600080fd5b506103a3610ec1565b005b3480156103b157600080fd5b506103ba610ed5565b6040516103c791906122d0565b60405180910390f35b3480156103dc57600080fd5b506103e5610f63565b6040516103f2919061238c565b60405180910390f35b34801561040757600080fd5b50610410610f8d565b60405161041d919061238c565b60405180910390f35b34801561043257600080fd5b5061043b610fb3565b60405161044891906122d0565b60405180910390f35b34801561045d57600080fd5b50610478600480360381019061047391906124bf565b611045565b005b34801561048657600080fd5b506104a1600480360381019061049c919061231e565b61105b565b005b3480156104af57600080fd5b506104ca60048036038101906104c59190612634565b6110f5565b005b3480156104d857600080fd5b506104e1611157565b6040516104ee919061238c565b60405180910390f35b34801561050357600080fd5b5061051e6004803603810190610519919061231e565b61117d565b60405161052b91906122d0565b60405180910390f35b34801561054057600080fd5b50610549611211565b6040516105569190612225565b60405180910390f35b34801561056b57600080fd5b50610586600480360381019061058191906126b7565b611217565b60405161059391906121f1565b60405180910390f35b3480156105a857600080fd5b506105c360048036038101906105be9190612466565b6112ab565b005b60007f80ac58cd000000000000000000000000000000000000000000000000000000007bffffffffffffffffffffffffffffffffffffffffffffffffffffffff1916827bffffffffffffffffffffffffffffffffffffffffffffffffffffffff1916148061069057507f5b5e139f000000000000000000000000000000000000000000000000000000007bffffffffffffffffffffffffffffffffffffffffffffffffffffffff1916827bffffffffffffffffffffffffffffffffffffffffffffffffffffffff1916145b806106a0575061069f8261132e565b5b9050919050565b60095481565b6060600080546106bc90612726565b80601f01602080910402602001604051908101604052809291908181526020018280546106e890612726565b80156107355780601f1061070a57610100808354040283529160200191610735565b820191906000526020600020905b81548152906001019060200180831161071857829003601f168201915b5050505050905090565b600061074a82611398565b6004600083815260200190815260200160002060009054906101000a900473ffffffffffffffffffffffffffffffffffffffff169050919050565b600061079082610d59565b90508073ffffffffffffffffffffffffffffffffffffffff168373ffffffffffffffffffffffffffffffffffffffff1603610800576040517f08c379a00000000000000000000000000000000000000000000000000000000081526004016107f7906127c9565b60405180910390fd5b8073ffffffffffffffffffffffffffffffffffffffff1661081f6113e3565b73ffffffffffffffffffffffffffffffffffffffff16148061084e575061084d816108486113e3565b611217565b5b61088d576040517f08c379a00000000000000000000000000000000000000000000000000000000081526004016108849061285b565b60405180910390fd5b61089783836113eb565b505050565b600c80546108a990612726565b80601f01602080910402602001604051908101604052809291908181526020018280546108d590612726565b80156109225780601f106108f757610100808354040283529160200191610922565b820191906000526020600020905b81548152906001019060200180831161090557829003601f168201915b505050505081565b61093b6109356113e3565b826114a4565b61097a576040517f08c379a0000000000000000000000000000000000000000000000000000000008152600401610971906128ed565b60405180910390fd5b610985838383611539565b505050565b600d60009054906101000a900473ffffffffffffffffffffffffffffffffffffffff1673ffffffffffffffffffffffffffffffffffffffff163373ffffffffffffffffffffffffffffffffffffffff1614610a1a576040517f08c379a0000000000000000000000000000000000000000000000000000000008152600401610a119061297f565b60405180910390fd5b600d60009054906101000a900473ffffffffffffffffffffffffffffffffffffffff1673ffffffffffffffffffffffffffffffffffffffff163373ffffffffffffffffffffffffffffffffffffffff1614610aaa576040517f08c379a0000000000000000000000000000000000000000000000000000000008152600401610aa1906129eb565b60405180910390fd5b3373ffffffffffffffffffffffffffffffffffffffff166108fc479081150290604051600060405180830381858888f19350505050158015610af0573d6000803e3d6000fd5b50565b60008111610b36576040517f08c379a0000000000000000000000000000000000000000000000000000000008152600401610b2d90612a57565b60405180910390fd5b60095481610b449190612aa6565b341015610b86576040517f08c379a0000000000000000000000000000000000000000000000000000000008152600401610b7d90612b34565b60405180910390fd5b60006064600a5434610b989190612aa6565b610ba29190612b83565b9050600e60009054906101000a900473ffffffffffffffffffffffffffffffffffffffff1673ffffffffffffffffffffffffffffffffffffffff166108fc829081150290604051600060405180830381858888f19350505050158015610c0c573d6000803e3d6000fd5b5060005b82811015610d3357610c22600861179f565b6000610c2e60086117b5565b9050610c3a85826117c3565b808573ffffffffffffffffffffffffffffffffffffffff167fe7cd4ce7f2a465edc730269a1305e8a48bad821e8fb7e152ec413829c01a53c4610c7c8461117d565b604051610c8991906122d0565b60405180910390a3610d2581600c8054610ca290612726565b80601f0160208091040260200160405190810160405280929190818152602001828054610cce90612726565b8015610d1b5780601f10610cf057610100808354040283529160200191610d1b565b820191906000526020600020905b815481529060010190602001808311610cfe57829003601f168201915b50505050506117e1565b508080600101915050610c10565b50505050565b610d54838383604051806020016040528060008152506110f5565b505050565b6000806002600084815260200190815260200160002060009054906101000a900473ffffffffffffffffffffffffffffffffffffffff169050600073ffffffffffffffffffffffffffffffffffffffff168173ffffffffffffffffffffffffffffffffffffffff1603610e01576040517f08c379a0000000000000000000000000000000000000000000000000000000008152600401610df890612c00565b60405180910390fd5b80915050919050565b60008073ffffffffffffffffffffffffffffffffffffffff168273ffffffffffffffffffffffffffffffffffffffff1603610e7a576040517f08c379a0000000000000000000000000000000000000000000000000000000008152600401610e7190612c92565b60405180910390fd5b600360008373ffffffffffffffffffffffffffffffffffffffff1673ffffffffffffffffffffffffffffffffffffffff168152602001908152602001600020549050919050565b610ec961184e565b610ed360006118cc565b565b600f8054610ee290612726565b80601f0160208091040260200160405190810160405280929190818152602001828054610f0e90612726565b8015610f5b5780601f10610f3057610100808354040283529160200191610f5b565b820191906000526020600020905b815481529060010190602001808311610f3e57829003601f168201915b505050505081565b6000600760009054906101000a900473ffffffffffffffffffffffffffffffffffffffff16905090565b600d60009054906101000a900473ffffffffffffffffffffffffffffffffffffffff1681565b606060018054610fc290612726565b80601f0160208091040260200160405190810160405280929190818152602001828054610fee90612726565b801561103b5780601f106110105761010080835404028352916020019161103b565b820191906000526020600020905b81548152906001019060200180831161101e57829003601f168201915b5050505050905090565b6110576110506113e3565b8383611992565b5050565b600e60009054906101000a900473ffffffffffffffffffffffffffffffffffffffff1673ffffffffffffffffffffffffffffffffffffffff163373ffffffffffffffffffffffffffffffffffffffff16146110eb576040517f08c379a00000000000000000000000000000000000000000000000000000000081526004016110e290612d24565b60405180910390fd5b80600a8190555050565b6111066111006113e3565b836114a4565b611145576040517f08c379a000000000000000000000000000000000000000000000000000000000815260040161113c906128ed565b60405180910390fd5b61115184848484611afe565b50505050565b600e60009054906101000a900473ffffffffffffffffffffffffffffffffffffffff1681565b6060600c805461118c90612726565b80601f01602080910402602001604051908101604052809291908181526020018280546111b890612726565b80156112055780601f106111da57610100808354040283529160200191611205565b820191906000526020600020905b8154815290600101906020018083116111e857829003601f168201915b50505050509050919050565b600b5481565b6000600560008473ffffffffffffffffffffffffffffffffffffffff1673ffffffffffffffffffffffffffffffffffffffff16815260200190815260200160002060008373ffffffffffffffffffffffffffffffffffffffff1673ffffffffffffffffffffffffffffffffffffffff16815260200190815260200160002060009054906101000a900460ff16905092915050565b6112b361184e565b600073ffffffffffffffffffffffffffffffffffffffff168173ffffffffffffffffffffffffffffffffffffffff1603611322576040517f08c379a000000000000000000000000000000000000000000000000000000000815260040161131990612db6565b60405180910390fd5b61132b816118cc565b50565b60007f01ffc9a7000000000000000000000000000000000000000000000000000000007bffffffffffffffffffffffffffffffffffffffffffffffffffffffff1916827bffffffffffffffffffffffffffffffffffffffffffffffffffffffff1916149050919050565b6113a181611b5a565b6113e0576040517f08c379a00000000000000000000000000000000000000000000000000000000081526004016113d790612c00565b60405180910390fd5b50565b600033905090565b816004600083815260200190815260200160002060006101000a81548173ffffffffffffffffffffffffffffffffffffffff021916908373ffffffffffffffffffffffffffffffffffffffff160217905550808273ffffffffffffffffffffffffffffffffffffffff1661145e83610d59565b73ffffffffffffffffffffffffffffffffffffffff167f8c5be1e5ebec7d5bd14f71427d1e84f3dd0314c0f7b2291e5b200ac8c7c3b92560405160405180910390a45050565b6000806114b083610d59565b90508073ffffffffffffffffffffffffffffffffffffffff168473ffffffffffffffffffffffffffffffffffffffff1614806114f257506114f18185611217565b5b8061153057508373ffffffffffffffffffffffffffffffffffffffff166115188461073f565b73ffffffffffffffffffffffffffffffffffffffff16145b91505092915050565b8273ffffffffffffffffffffffffffffffffffffffff1661155982610d59565b73ffffffffffffffffffffffffffffffffffffffff16146115af576040517f08c379a00000000000000000000000000000000000000000000000000000000081526004016115a690612e48565b60405180910390fd5b600073ffffffffffffffffffffffffffffffffffffffff168273ffffffffffffffffffffffffffffffffffffffff160361161e576040517f08c379a000000000000000000000000000000000000000000000000000000000815260040161161590612eda565b60405180910390fd5b611629838383611bc6565b6116346000826113eb565b6001600360008573ffffffffffffffffffffffffffffffffffffffff1673ffffffffffffffffffffffffffffffffffffffff16815260200190815260200160002060008282546116849190612efa565b925050819055506001600360008473ffffffffffffffffffffffffffffffffffffffff1673ffffffffffffffffffffffffffffffffffffffff16815260200190815260200160002060008282546116db9190612f2e565b92505081905550816002600083815260200190815260200160002060006101000a81548173ffffffffffffffffffffffffffffffffffffffff021916908373ffffffffffffffffffffffffffffffffffffffff160217905550808273ffffffffffffffffffffffffffffffffffffffff168473ffffffffffffffffffffffffffffffffffffffff167fddf252ad1be2c89b69c2b068fc378daa952ba7f163c4a11628f55a4df523b3ef60405160405180910390a461179a838383611d55565b505050565b6001816000016000828254019250508190555050565b600081600001549050919050565b6117dd828260405180602001604052806000815250611d5a565b5050565b6117ea82611b5a565b611829576040517f08c379a000000000000000000000000000000000000000000000000000000000815260040161182090612fd4565b60405180910390fd5b8060066000848152602001908152602001600020908161184991906131a0565b505050565b6118566113e3565b73ffffffffffffffffffffffffffffffffffffffff16611874610f63565b73ffffffffffffffffffffffffffffffffffffffff16146118ca576040517f08c379a00000000000000000000000000000000000000000000000000000000081526004016118c1906132be565b60405180910390fd5b565b6000600760009054906101000a900473ffffffffffffffffffffffffffffffffffffffff16905081600760006101000a81548173ffffffffffffffffffffffffffffffffffffffff021916908373ffffffffffffffffffffffffffffffffffffffff1602179055508173ffffffffffffffffffffffffffffffffffffffff168173ffffffffffffffffffffffffffffffffffffffff167f8be0079c531659141344cd1fd0a4f28419497f9722a3daafe3b4186f6b6457e060405160405180910390a35050565b8173ffffffffffffffffffffffffffffffffffffffff168373ffffffffffffffffffffffffffffffffffffffff1603611a00576040517f08c379a00000000000000000000000000000000000000000000000000000000081526004016119f79061332a565b60405180910390fd5b80600560008573ffffffffffffffffffffffffffffffffffffffff1673ffffffffffffffffffffffffffffffffffffffff16815260200190815260200160002060008473ffffffffffffffffffffffffffffffffffffffff1673ffffffffffffffffffffffffffffffffffffffff16815260200190815260200160002060006101000a81548160ff0219169083151502179055508173ffffffffffffffffffffffffffffffffffffffff168373ffffffffffffffffffffffffffffffffffffffff167f17307eab39ab6107e8899845ad3d59bd9653f200f220920489ca2b5937696c3183604051611af191906121f1565b60405180910390a3505050565b611b09848484611539565b611b1584848484611db5565b611b54576040517f08c379a0000000000000000000000000000000000000000000000000000000008152600401611b4b906133bc565b60405180910390fd5b50505050565b60008073ffffffffffffffffffffffffffffffffffffffff166002600084815260200190815260200160002060009054906101000a900473ffffffffffffffffffffffffffffffffffffffff1673ffffffffffffffffffffffffffffffffffffffff1614159050919050565b600073ffffffffffffffffffffffffffffffffffffffff168373ffffffffffffffffffffffffffffffffffffffff1614158015611c305750600073ffffffffffffffffffffffffffffffffffffffff168273ffffffffffffffffffffffffffffffffffffffff1614155b15611d455760006064600b5434611c479190612aa6565b611c519190612b83565b9050600d60009054906101000a900473ffffffffffffffffffffffffffffffffffffffff1673ffffffffffffffffffffffffffffffffffffffff166108fc829081150290604051600060405180830381858888f19350505050158015611cbb573d6000803e3d6000fd5b508273ffffffffffffffffffffffffffffffffffffffff16600d60009054906101000a900473ffffffffffffffffffffffffffffffffffffffff1673ffffffffffffffffffffffffffffffffffffffff167fbdf0502df1b76d58521b2a929580ca100c2121e0ae38717b260d9cfa44c23b3283604051611d3b9190612225565b60405180910390a3505b611d50838383611f3c565b505050565b505050565b611d648383611f41565b611d716000848484611db5565b611db0576040517f08c379a0000000000000000000000000000000000000000000000000000000008152600401611da7906133bc565b60405180910390fd5b505050565b6000611dd68473ffffffffffffffffffffffffffffffffffffffff1661211a565b15611f2f578373ffffffffffffffffffffffffffffffffffffffff1663150b7a02611dff6113e3565b8786866040518563ffffffff1660e01b8152600401611e219493929190613431565b6020604051808303816000875af1925050508015611e5d57506040513d601f19601f82011682018060405250810190611e5a9190613492565b60015b611edf573d8060008114611e8d576040519150601f19603f3d011682016040523d82523d6000602084013e611e92565b606091505b506000815103611ed7576040517f08c379a0000000000000000000000000000000000000000000000000000000008152600401611ece906133bc565b60405180910390fd5b805181602001fd5b63150b7a0260e01b7bffffffffffffffffffffffffffffffffffffffffffffffffffffffff1916817bffffffffffffffffffffffffffffffffffffffffffffffffffffffff191614915050611f34565b600190505b949350505050565b505050565b600073ffffffffffffffffffffffffffffffffffffffff168273ffffffffffffffffffffffffffffffffffffffff1603611fb0576040517f08c379a0000000000000000000000000000000000000000000000000000000008152600401611fa79061350b565b60405180910390fd5b611fb981611b5a565b15611ff9576040517f08c379a0000000000000000000000000000000000000000000000000000000008152600401611ff090613577565b60405180910390fd5b61200560008383611bc6565b6001600360008473ffffffffffffffffffffffffffffffffffffffff1673ffffffffffffffffffffffffffffffffffffffff16815260200190815260200160002060008282546120559190612f2e565b92505081905550816002600083815260200190815260200160002060006101000a81548173ffffffffffffffffffffffffffffffffffffffff021916908373ffffffffffffffffffffffffffffffffffffffff160217905550808273ffffffffffffffffffffffffffffffffffffffff16600073ffffffffffffffffffffffffffffffffffffffff167fddf252ad1be2c89b69c2b068fc378daa952ba7f163c4a11628f55a4df523b3ef60405160405180910390a461211660008383611d55565b5050565b6000808273ffffffffffffffffffffffffffffffffffffffff163b119050919050565b6000604051905090565b600080fd5b600080fd5b60007fffffffff0000000000000000000000000000000000000000000000000000000082169050919050565b61218681612151565b811461219157600080fd5b50565b6000813590506121a38161217d565b92915050565b6000602082840312156121bf576121be612147565b5b60006121cd84828501612194565b91505092915050565b60008115159050919050565b6121eb816121d6565b82525050565b600060208201905061220660008301846121e2565b92915050565b6000819050919050565b61221f8161220c565b82525050565b600060208201905061223a6000830184612216565b92915050565b600081519050919050565b600082825260208201905092915050565b60005b8381101561227a57808201518184015260208101905061225f565b60008484015250505050565b6000601f19601f8301169050919050565b60006122a282612240565b6122ac818561224b565b93506122bc81856020860161225c565b6122c581612286565b840191505092915050565b600060208201905081810360008301526122ea8184612297565b905092915050565b6122fb8161220c565b811461230657600080fd5b50565b600081359050612318816122f2565b92915050565b60006020828403121561233457612333612147565b5b600061234284828501612309565b91505092915050565b600073ffffffffffffffffffffffffffffffffffffffff82169050919050565b60006123768261234b565b9050919050565b6123868161236b565b82525050565b60006020820190506123a1600083018461237d565b92915050565b6123b08161236b565b81146123bb57600080fd5b50565b6000813590506123cd816123a7565b92915050565b600080604083850312156123ea576123e9612147565b5b60006123f8858286016123be565b925050602061240985828601612309565b9150509250929050565b60008060006060848603121561242c5761242b612147565b5b600061243a868287016123be565b935050602061244b868287016123be565b925050604061245c86828701612309565b9150509250925092565b60006020828403121561247c5761247b612147565b5b600061248a848285016123be565b91505092915050565b61249c816121d6565b81146124a757600080fd5b50565b6000813590506124b981612493565b92915050565b600080604083850312156124d6576124d5612147565b5b60006124e4858286016123be565b92505060206124f5858286016124aa565b9150509250929050565b600080fd5b600080fd5b7f4e487b7100000000000000000000000000000000000000000000000000000000600052604160045260246000fd5b61254182612286565b810181811067ffffffffffffffff821117156125605761255f612509565b5b80604052505050565b600061257361213d565b905061257f8282612538565b919050565b600067ffffffffffffffff82111561259f5761259e612509565b5b6125a882612286565b9050602081019050919050565b82818337600083830152505050565b60006125d76125d284612584565b612569565b9050828152602081018484840111156125f3576125f2612504565b5b6125fe8482856125b5565b509392505050565b600082601f83011261261b5761261a6124ff565b5b813561262b8482602086016125c4565b91505092915050565b6000806000806080858703121561264e5761264d612147565b5b600061265c878288016123be565b945050602061266d878288016123be565b935050604061267e87828801612309565b925050606085013567ffffffffffffffff81111561269f5761269e61214c565b5b6126ab87828801612606565b91505092959194509250565b600080604083850312156126ce576126cd612147565b5b60006126dc858286016123be565b92505060206126ed858286016123be565b9150509250929050565b7f4e487b7100000000000000000000000000000000000000000000000000000000600052602260045260246000fd5b6000600282049050600182168061273e57607f821691505b602082108103612751576127506126f7565b5b50919050565b7f4552433732313a20617070726f76616c20746f2063757272656e74206f776e6560008201527f7200000000000000000000000000000000000000000000000000000000000000602082015250565b60006127b360218361224b565b91506127be82612757565b604082019050919050565b600060208201905081810360008301526127e2816127a6565b9050919050565b7f4552433732313a20617070726f76652063616c6c6572206973206e6f7420746f60008201527f6b656e206f776e6572206e6f7220617070726f76656420666f7220616c6c0000602082015250565b6000612845603e8361224b565b9150612850826127e9565b604082019050919050565b6000602082019050818103600083015261287481612838565b9050919050565b7f4552433732313a2063616c6c6572206973206e6f7420746f6b656e206f776e6560008201527f72206e6f7220617070726f766564000000000000000000000000000000000000602082015250565b60006128d7602e8361224b565b91506128e28261287b565b604082019050919050565b60006020820190508181036000830152612906816128ca565b9050919050565b7f4f6e6c79206172746973742063616e2063616c6c20746869732066756e63746960008201527f6f6e000000000000000000000000000000000000000000000000000000000000602082015250565b600061296960228361224b565b91506129748261290d565b604082019050919050565b600060208201905081810360008301526129988161295c565b9050919050565b7f4f6e6c7920746865206172746973742063616e20776974686472617700000000600082015250565b60006129d5601c8361224b565b91506129e08261299f565b602082019050919050565b60006020820190508181036000830152612a04816129c8565b9050919050565b7f5175616e74697479206d7573742062652067726561746572207468616e203000600082015250565b6000612a41601f8361224b565b9150612a4c82612a0b565b602082019050919050565b60006020820190508181036000830152612a7081612a34565b9050919050565b7f4e487b7100000000000000000000000000000000000000000000000000000000600052601160045260246000fd5b6000612ab18261220c565b9150612abc8361220c565b9250828202612aca8161220c565b91508282048414831517612ae157612ae0612a77565b5b5092915050565b7f496e73756666696369656e74204554482073656e740000000000000000000000600082015250565b6000612b1e60158361224b565b9150612b2982612ae8565b602082019050919050565b60006020820190508181036000830152612b4d81612b11565b9050919050565b7f4e487b7100000000000000000000000000000000000000000000000000000000600052601260045260246000fd5b6000612b8e8261220c565b9150612b998361220c565b925082612ba957612ba8612b54565b5b828204905092915050565b7f4552433732313a20696e76616c696420746f6b656e2049440000000000000000600082015250565b6000612bea60188361224b565b9150612bf582612bb4565b602082019050919050565b60006020820190508181036000830152612c1981612bdd565b9050919050565b7f4552433732313a2061646472657373207a65726f206973206e6f74206120766160008201527f6c6964206f776e65720000000000000000000000000000000000000000000000602082015250565b6000612c7c60298361224b565b9150612c8782612c20565b604082019050919050565b60006020820190508181036000830152612cab81612c6f565b9050919050565b7f4f6e6c7920706c6174666f726d2061646d696e2077616c6c65742063616e206360008201527f616c6c20746869732066756e6374696f6e000000000000000000000000000000602082015250565b6000612d0e60318361224b565b9150612d1982612cb2565b604082019050919050565b60006020820190508181036000830152612d3d81612d01565b9050919050565b7f4f776e61626c653a206e6577206f776e657220697320746865207a65726f206160008201527f6464726573730000000000000000000000000000000000000000000000000000602082015250565b6000612da060268361224b565b9150612dab82612d44565b604082019050919050565b60006020820190508181036000830152612dcf81612d93565b9050919050565b7f4552433732313a207472616e736665722066726f6d20696e636f72726563742060008201527f6f776e6572000000000000000000000000000000000000000000000000000000602082015250565b6000612e3260258361224b565b9150612e3d82612dd6565b604082019050919050565b60006020820190508181036000830152612e6181612e25565b9050919050565b7f4552433732313a207472616e7366657220746f20746865207a65726f2061646460008201527f7265737300000000000000000000000000000000000000000000000000000000602082015250565b6000612ec460248361224b565b9150612ecf82612e68565b604082019050919050565b60006020820190508181036000830152612ef381612eb7565b9050919050565b6000612f058261220c565b9150612f108361220c565b9250828203905081811115612f2857612f27612a77565b5b92915050565b6000612f398261220c565b9150612f448361220c565b9250828201905080821115612f5c57612f5b612a77565b5b92915050565b7f45524337323155524953746f726167653a2055524920736574206f66206e6f6e60008201527f6578697374656e7420746f6b656e000000000000000000000000000000000000602082015250565b6000612fbe602e8361224b565b9150612fc982612f62565b604082019050919050565b60006020820190508181036000830152612fed81612fb1565b9050919050565b60008190508160005260206000209050919050565b60006020601f8301049050919050565b600082821b905092915050565b6000600883026130567fffffffffffffffffffffffffffffffffffffffffffffffffffffffffffffffff82613019565b6130608683613019565b95508019841693508086168417925050509392505050565b6000819050919050565b600061309d6130986130938461220c565b613078565b61220c565b9050919050565b6000819050919050565b6130b783613082565b6130cb6130c3826130a4565b848454613026565b825550505050565b600090565b6130e06130d3565b6130eb8184846130ae565b505050565b5b8181101561310f576131046000826130d8565b6001810190506130f1565b5050565b601f8211156131545761312581612ff4565b61312e84613009565b8101602085101561313d578190505b61315161314985613009565b8301826130f0565b50505b505050565b600082821c905092915050565b600061317760001984600802613159565b1980831691505092915050565b60006131908383613166565b9150826002028217905092915050565b6131a982612240565b67ffffffffffffffff8111156131c2576131c1612509565b5b6131cc8254612726565b6131d7828285613113565b600060209050601f83116001811461320a57600084156131f8578287015190505b6132028582613184565b86555061326a565b601f19841661321886612ff4565b60005b828110156132405784890151825560018201915060208501945060208101905061321b565b8683101561325d5784890151613259601f891682613166565b8355505b6001600288020188555050505b505050505050565b7f4f776e61626c653a2063616c6c6572206973206e6f7420746865206f776e6572600082015250565b60006132a860208361224b565b91506132b382613272565b602082019050919050565b600060208201905081810360008301526132d78161329b565b9050919050565b7f4552433732313a20617070726f766520746f2063616c6c657200000000000000600082015250565b600061331460198361224b565b915061331f826132de565b602082019050919050565b6000602082019050818103600083015261334381613307565b9050919050565b7f4552433732313a207472616e7366657220746f206e6f6e20455243373231526560008201527f63656976657220696d706c656d656e7465720000000000000000000000000000602082015250565b60006133a660328361224b565b91506133b18261334a565b604082019050919050565b600060208201905081810360008301526133d581613399565b9050919050565b600081519050919050565b600082825260208201905092915050565b6000613403826133dc565b61340d81856133e7565b935061341d81856020860161225c565b61342681612286565b840191505092915050565b6000608082019050613446600083018761237d565b613453602083018661237d565b6134606040830185612216565b818103606083015261347281846133f8565b905095945050505050565b60008151905061348c8161217d565b92915050565b6000602082840312156134a8576134a7612147565b5b60006134b68482850161347d565b91505092915050565b7f4552433732313a206d696e7420746f20746865207a65726f2061646472657373600082015250565b60006134f560208361224b565b9150613500826134bf565b602082019050919050565b60006020820190508181036000830152613524816134e8565b9050919050565b7f4552433732313a20746f6b656e20616c7265616479206d696e74656400000000600082015250565b6000613561601c8361224b565b915061356c8261352b565b602082019050919050565b6000602082019050818103600083015261359081613554565b905091905056fea2646970667358221220ad070b37851df11eb4238afcc036a0b04fbaa21e9cb43cc36130250cb16efc4064736f6c63430008180033",
  "linkReferences": {},
  "deployedLinkReferences": {}
}