{
  "_format": "hh-sol-artifact-1",
  "contractName": "DBeatsFactory",
  "sourceName": "contracts/Factory.sol",
  "abi": [
    {
      "inputs": [
        {
          "internalType": "address",
          "name": "_platformWalletAddress",
          "type": "address"
        }
      ],
      "stateMutability": "nonpayable",
      "type": "constructor"
    },
    {
      "anonymous": false,
      "inputs": [
        {
          "indexed": true,
          "internalType": "address",
          "name": "nftAddress",
          "type": "address"
        },
        {
          "indexed": false,
          "internalType": "uint256",
          "name": "_royaltyFeePercentage",
          "type": "uint256"
        },
        {
          "indexed": false,
          "internalType": "address",
          "name": "_artistAddress",
          "type": "address"
        },
        {
          "indexed": false,
          "internalType": "string",
          "name": "_newTokenURI",
          "type": "string"
        },
        {
          "indexed": false,
          "internalType": "string",
          "name": "name",
          "type": "string"
        },
        {
          "indexed": false,
          "internalType": "string",
          "name": "symbol",
          "type": "string"
        },
        {
          "indexed": false,
          "internalType": "uint256",
          "name": "mintPrice",
          "type": "uint256"
        },
        {
          "indexed": false,
          "internalType": "string",
          "name": "genre",
          "type": "string"
        }
      ],
      "name": "NewNFT",
      "type": "event"
    },
    {
      "anonymous": false,
      "inputs": [
        {
          "indexed": true,
          "internalType": "address",
          "name": "previousOwner",
          "type": "address"
        },
        {
          "indexed": true,
          "internalType": "address",
          "name": "newOwner",
          "type": "address"
        }
      ],
      "name": "OwnershipTransferred",
      "type": "event"
    },
    {
      "anonymous": false,
      "inputs": [
        {
          "indexed": true,
          "internalType": "bytes32",
          "name": "role",
          "type": "bytes32"
        },
        {
          "indexed": true,
          "internalType": "bytes32",
          "name": "previousAdminRole",
          "type": "bytes32"
        },
        {
          "indexed": true,
          "internalType": "bytes32",
          "name": "newAdminRole",
          "type": "bytes32"
        }
      ],
      "name": "RoleAdminChanged",
      "type": "event"
    },
    {
      "anonymous": false,
      "inputs": [
        {
          "indexed": true,
          "internalType": "bytes32",
          "name": "role",
          "type": "bytes32"
        },
        {
          "indexed": true,
          "internalType": "address",
          "name": "account",
          "type": "address"
        },
        {
          "indexed": true,
          "internalType": "address",
          "name": "sender",
          "type": "address"
        }
      ],
      "name": "RoleGranted",
      "type": "event"
    },
    {
      "anonymous": false,
      "inputs": [
        {
          "indexed": true,
          "internalType": "bytes32",
          "name": "role",
          "type": "bytes32"
        },
        {
          "indexed": true,
          "internalType": "address",
          "name": "account",
          "type": "address"
        },
        {
          "indexed": true,
          "internalType": "address",
          "name": "sender",
          "type": "address"
        }
      ],
      "name": "RoleRevoked",
      "type": "event"
    },
    {
      "inputs": [],
      "name": "ADMIN_ROLE",
      "outputs": [
        {
          "internalType": "bytes32",
          "name": "",
          "type": "bytes32"
        }
      ],
      "stateMutability": "view",
      "type": "function"
    },
    {
      "inputs": [],
      "name": "DEFAULT_ADMIN_ROLE",
      "outputs": [
        {
          "internalType": "bytes32",
          "name": "",
          "type": "bytes32"
        }
      ],
      "stateMutability": "view",
      "type": "function"
    },
    {
      "inputs": [
        {
          "internalType": "bytes32",
          "name": "role",
          "type": "bytes32"
        },
        {
          "internalType": "address",
          "name": "account",
          "type": "address"
        }
      ],
      "name": "addUserToRole",
      "outputs": [],
      "stateMutability": "nonpayable",
      "type": "function"
    },
    {
      "inputs": [
        {
          "internalType": "address",
          "name": "_artistAddress",
          "type": "address"
        },
        {
          "internalType": "string",
          "name": "_newTokenURI",
          "type": "string"
        },
        {
          "internalType": "string",
          "name": "name",
          "type": "string"
        },
        {
          "internalType": "string",
          "name": "symbol",
          "type": "string"
        },
        {
          "internalType": "uint256",
          "name": "mintPrice",
          "type": "uint256"
        },
        {
          "internalType": "uint256",
          "name": "_platformFeePercentage",
          "type": "uint256"
        },
        {
          "internalType": "uint256",
          "name": "_royaltyFeePercentage",
          "type": "uint256"
        },
        {
          "internalType": "string",
          "name": "_genre",
          "type": "string"
        }
      ],
      "name": "createNFT",
      "outputs": [],
      "stateMutability": "nonpayable",
      "type": "function"
    },
    {
      "inputs": [
        {
          "internalType": "address",
          "name": "creator",
          "type": "address"
        }
      ],
      "name": "getNFTDataByCreator",
      "outputs": [
        {
          "components": [
            {
              "internalType": "address",
              "name": "nftAddress",
              "type": "address"
            },
            {
              "internalType": "uint256",
              "name": "royaltyFeePercentage",
              "type": "uint256"
            },
            {
              "internalType": "address",
              "name": "artistAddress",
              "type": "address"
            },
            {
              "internalType": "string",
              "name": "tokenURI",
              "type": "string"
            },
            {
              "internalType": "string",
              "name": "name",
              "type": "string"
            },
            {
              "internalType": "string",
              "name": "symbol",
              "type": "string"
            },
            {
              "internalType": "uint256",
              "name": "mintPrice",
              "type": "uint256"
            },
            {
              "internalType": "string",
              "name": "genre",
              "type": "string"
            }
          ],
          "internalType": "struct DBeatsFactory.NFTData[]",
          "name": "",
          "type": "tuple[]"
        }
      ],
      "stateMutability": "view",
      "type": "function"
    },
    {
      "inputs": [
        {
          "internalType": "address",
          "name": "creator",
          "type": "address"
        }
      ],
      "name": "getNFTsByCreator",
      "outputs": [
        {
          "internalType": "address[]",
          "name": "",
          "type": "address[]"
        }
      ],
      "stateMutability": "view",
      "type": "function"
    },
    {
      "inputs": [
        {
          "internalType": "bytes32",
          "name": "role",
          "type": "bytes32"
        }
      ],
      "name": "getRoleAdmin",
      "outputs": [
        {
          "internalType": "bytes32",
          "name": "",
          "type": "bytes32"
        }
      ],
      "stateMutability": "view",
      "type": "function"
    },
    {
      "inputs": [],
      "name": "getTokenCount",
      "outputs": [
        {
          "internalType": "uint256",
          "name": "",
          "type": "uint256"
        }
      ],
      "stateMutability": "view",
      "type": "function"
    },
    {
      "inputs": [
        {
          "internalType": "bytes32",
          "name": "role",
          "type": "bytes32"
        },
        {
          "internalType": "address",
          "name": "account",
          "type": "address"
        }
      ],
      "name": "grantRole",
      "outputs": [],
      "stateMutability": "nonpayable",
      "type": "function"
    },
    {
      "inputs": [
        {
          "internalType": "bytes32",
          "name": "role",
          "type": "bytes32"
        },
        {
          "internalType": "address",
          "name": "account",
          "type": "address"
        }
      ],
      "name": "hasRole",
      "outputs": [
        {
          "internalType": "bool",
          "name": "",
          "type": "bool"
        }
      ],
      "stateMutability": "view",
      "type": "function"
    },
    {
      "inputs": [
        {
          "internalType": "address",
          "name": "",
          "type": "address"
        },
        {
          "internalType": "uint256",
          "name": "",
          "type": "uint256"
        }
      ],
      "name": "nftDataByCreator",
      "outputs": [
        {
          "internalType": "address",
          "name": "nftAddress",
          "type": "address"
        },
        {
          "internalType": "uint256",
          "name": "royaltyFeePercentage",
          "type": "uint256"
        },
        {
          "internalType": "address",
          "name": "artistAddress",
          "type": "address"
        },
        {
          "internalType": "string",
          "name": "tokenURI",
          "type": "string"
        },
        {
          "internalType": "string",
          "name": "name",
          "type": "string"
        },
        {
          "internalType": "string",
          "name": "symbol",
          "type": "string"
        },
        {
          "internalType": "uint256",
          "name": "mintPrice",
          "type": "uint256"
        },
        {
          "internalType": "string",
          "name": "genre",
          "type": "string"
        }
      ],
      "stateMutability": "view",
      "type": "function"
    },
    {
      "inputs": [
        {
          "internalType": "address",
          "name": "",
          "type": "address"
        },
        {
          "internalType": "uint256",
          "name": "",
          "type": "uint256"
        }
      ],
      "name": "nftsByCreator",
      "outputs": [
        {
          "internalType": "address",
          "name": "",
          "type": "address"
        }
      ],
      "stateMutability": "view",
      "type": "function"
    },
    {
      "inputs": [],
      "name": "owner",
      "outputs": [
        {
          "internalType": "address",
          "name": "",
          "type": "address"
        }
      ],
      "stateMutability": "view",
      "type": "function"
    },
    {
      "inputs": [],
      "name": "platformWalletAddress",
      "outputs": [
        {
          "internalType": "address",
          "name": "",
          "type": "address"
        }
      ],
      "stateMutability": "view",
      "type": "function"
    },
    {
      "inputs": [],
      "name": "renounceOwnership",
      "outputs": [],
      "stateMutability": "nonpayable",
      "type": "function"
    },
    {
      "inputs": [
        {
          "internalType": "bytes32",
          "name": "role",
          "type": "bytes32"
        },
        {
          "internalType": "address",
          "name": "account",
          "type": "address"
        }
      ],
      "name": "renounceRole",
      "outputs": [],
      "stateMutability": "nonpayable",
      "type": "function"
    },
    {
      "inputs": [
        {
          "internalType": "bytes32",
          "name": "role",
          "type": "bytes32"
        },
        {
          "internalType": "address",
          "name": "account",
          "type": "address"
        }
      ],
      "name": "revokeRole",
      "outputs": [],
      "stateMutability": "nonpayable",
      "type": "function"
    },
    {
      "inputs": [
        {
          "internalType": "bytes4",
          "name": "interfaceId",
          "type": "bytes4"
        }
      ],
      "name": "supportsInterface",
      "outputs": [
        {
          "internalType": "bool",
          "name": "",
          "type": "bool"
        }
      ],
      "stateMutability": "view",
      "type": "function"
    },
    {
      "inputs": [
        {
          "internalType": "address",
          "name": "newOwner",
          "type": "address"
        }
      ],
      "name": "transferOwnership",
      "outputs": [],
      "stateMutability": "nonpayable",
      "type": "function"
    }
  ],
  "bytecode": "0x60806040523480156200001157600080fd5b5060405162006faf38038062006faf833981810160405281019062000037919062000346565b620000576200004b620000b460201b60201c565b620000bc60201b60201c565b6200006c6000801b336200018060201b60201c565b80600360006101000a81548173ffffffffffffffffffffffffffffffffffffffff021916908373ffffffffffffffffffffffffffffffffffffffff1602179055505062000378565b600033905090565b60008060009054906101000a900473ffffffffffffffffffffffffffffffffffffffff169050816000806101000a81548173ffffffffffffffffffffffffffffffffffffffff021916908373ffffffffffffffffffffffffffffffffffffffff1602179055508173ffffffffffffffffffffffffffffffffffffffff168173ffffffffffffffffffffffffffffffffffffffff167f8be0079c531659141344cd1fd0a4f28419497f9722a3daafe3b4186f6b6457e060405160405180910390a35050565b6200019282826200027160201b60201c565b6200026d57600180600084815260200190815260200160002060000160008373ffffffffffffffffffffffffffffffffffffffff1673ffffffffffffffffffffffffffffffffffffffff16815260200190815260200160002060006101000a81548160ff02191690831515021790555062000212620000b460201b60201c565b73ffffffffffffffffffffffffffffffffffffffff168173ffffffffffffffffffffffffffffffffffffffff16837f2f8788117e7eff1d82e926ec794901d17c78024a50270940304540a733656f0d60405160405180910390a45b5050565b60006001600084815260200190815260200160002060000160008373ffffffffffffffffffffffffffffffffffffffff1673ffffffffffffffffffffffffffffffffffffffff16815260200190815260200160002060009054906101000a900460ff16905092915050565b600080fd5b600073ffffffffffffffffffffffffffffffffffffffff82169050919050565b60006200030e82620002e1565b9050919050565b620003208162000301565b81146200032c57600080fd5b50565b600081519050620003408162000315565b92915050565b6000602082840312156200035f576200035e620002dc565b5b60006200036f848285016200032f565b91505092915050565b616c2780620003886000396000f3fe60806040523480156200001157600080fd5b50600436106200013c5760003560e01c8063818d7f7b11620000bd578063c263bdaa116200007b578063c263bdaa146200034f578063d547741f1462000385578063d8721b4e14620003a5578063f2fde38b14620003e2578063ffa038211462000402576200013c565b8063818d7f7b14620002935780638da5cb5b14620002b357806391d1485414620002d55780639f2a6374146200030b578063a217fddf146200032d576200013c565b806336568abe116200010b57806336568abe14620002035780634ae041381462000223578063715018a6146200024357806375b238fc146200024f57806378a895671462000271576200013c565b806301ffc9a71462000141578063248a9ca314620001775780632cec638614620001ad5780632f2ff15d14620001e3575b600080fd5b6200015f600480360381019062000159919062001a3b565b62000438565b6040516200016e919062001a8a565b60405180910390f35b6200019560048036038101906200018f919062001ae2565b620004b5565b604051620001a4919062001b25565b60405180910390f35b620001cb6004803603810190620001c5919062001ba7565b620004d5565b604051620001da919062001e44565b60405180910390f35b620002016004803603810190620001fb919062001e68565b6200089e565b005b6200022160048036038101906200021b919062001e68565b620008c5565b005b6200024160048036038101906200023b919062002031565b6200094f565b005b6200024d62000d17565b005b6200025962000d2f565b60405162000268919062001b25565b60405180910390f35b6200027b62000d53565b6040516200028a919062002187565b60405180910390f35b620002b16004803603810190620002ab919062001e68565b62000d66565b005b620002bd62000d80565b604051620002cc9190620021b5565b60405180910390f35b620002f36004803603810190620002ed919062001e68565b62000da9565b60405162000302919062001a8a565b60405180910390f35b6200031562000e14565b604051620003249190620021b5565b60405180910390f35b6200033762000e3a565b60405162000346919062001b25565b60405180910390f35b6200036d6004803603810190620003679190620021d2565b62000e41565b6040516200037c9190620021b5565b60405180910390f35b620003a360048036038101906200039d919062001e68565b62000e90565b005b620003c36004803603810190620003bd9190620021d2565b62000eb7565b604051620003d99897969594939291906200226b565b60405180910390f35b620004006004803603810190620003fa919062001ba7565b6200119d565b005b6200042060048036038101906200041a919062001ba7565b62001227565b6040516200042f9190620023d2565b60405180910390f35b60007f7965db0b000000000000000000000000000000000000000000000000000000007bffffffffffffffffffffffffffffffffffffffffffffffffffffffff1916827bffffffffffffffffffffffffffffffffffffffffffffffffffffffff19161480620004ae5750620004ad82620012f6565b5b9050919050565b600060016000838152602001908152602001600020600101549050919050565b6060600560008373ffffffffffffffffffffffffffffffffffffffff1673ffffffffffffffffffffffffffffffffffffffff168152602001908152602001600020805480602002602001604051908101604052809291908181526020016000905b82821015620008935783829060005260206000209060080201604051806101000160405290816000820160009054906101000a900473ffffffffffffffffffffffffffffffffffffffff1673ffffffffffffffffffffffffffffffffffffffff1673ffffffffffffffffffffffffffffffffffffffff168152602001600182015481526020016002820160009054906101000a900473ffffffffffffffffffffffffffffffffffffffff1673ffffffffffffffffffffffffffffffffffffffff1673ffffffffffffffffffffffffffffffffffffffff168152602001600382018054620006239062002425565b80601f0160208091040260200160405190810160405280929190818152602001828054620006519062002425565b8015620006a25780601f106200067657610100808354040283529160200191620006a2565b820191906000526020600020905b8154815290600101906020018083116200068457829003601f168201915b50505050508152602001600482018054620006bd9062002425565b80601f0160208091040260200160405190810160405280929190818152602001828054620006eb9062002425565b80156200073c5780601f1062000710576101008083540402835291602001916200073c565b820191906000526020600020905b8154815290600101906020018083116200071e57829003601f168201915b50505050508152602001600582018054620007579062002425565b80601f0160208091040260200160405190810160405280929190818152602001828054620007859062002425565b8015620007d65780601f10620007aa57610100808354040283529160200191620007d6565b820191906000526020600020905b815481529060010190602001808311620007b857829003601f168201915b5050505050815260200160068201548152602001600782018054620007fb9062002425565b80601f0160208091040260200160405190810160405280929190818152602001828054620008299062002425565b80156200087a5780601f106200084e576101008083540402835291602001916200087a565b820191906000526020600020905b8154815290600101906020018083116200085c57829003601f168201915b5050505050815250508152602001906001019062000536565b505050509050919050565b620008a982620004b5565b620008b48162001360565b620008c0838362001378565b505050565b620008cf6200145d565b73ffffffffffffffffffffffffffffffffffffffff168173ffffffffffffffffffffffffffffffffffffffff16146200093f576040517f08c379a00000000000000000000000000000000000000000000000000000000081526004016200093690620024d0565b60405180910390fd5b6200094b828262001465565b5050565b6200097b7fa49807205ce4d355092ef5a8a18f56e8913cf4a201fbe287825b095693c217753362000da9565b620009bd576040517f08c379a0000000000000000000000000000000000000000000000000000000008152600401620009b49062002542565b60405180910390fd5b620009c960026200154c565b600082898989898989600360009054906101000a900473ffffffffffffffffffffffffffffffffffffffff168960405162000a0490620019bc565b62000a189998979695949392919062002564565b604051809103906000f08015801562000a35573d6000803e3d6000fd5b5090508073ffffffffffffffffffffffffffffffffffffffff167fffdd2934d2da6acc43088b0bd28d6b773890fa691e3270c7d324b69be8314b59848b8b8b8b8b8960405162000a8c97969594939291906200261f565b60405180910390a2600460008a73ffffffffffffffffffffffffffffffffffffffff1673ffffffffffffffffffffffffffffffffffffffff168152602001908152602001600020819080600181540180825580915050600190039060005260206000200160009091909190916101000a81548173ffffffffffffffffffffffffffffffffffffffff021916908373ffffffffffffffffffffffffffffffffffffffff16021790555060006040518061010001604052808373ffffffffffffffffffffffffffffffffffffffff1681526020018581526020018b73ffffffffffffffffffffffffffffffffffffffff1681526020018a8152602001898152602001888152602001878152602001848152509050600560008b73ffffffffffffffffffffffffffffffffffffffff1673ffffffffffffffffffffffffffffffffffffffff16815260200190815260200160002081908060018154018082558091505060019003906000526020600020906008020160009091909190915060008201518160000160006101000a81548173ffffffffffffffffffffffffffffffffffffffff021916908373ffffffffffffffffffffffffffffffffffffffff1602179055506020820151816001015560408201518160020160006101000a81548173ffffffffffffffffffffffffffffffffffffffff021916908373ffffffffffffffffffffffffffffffffffffffff160217905550606082015181600301908162000cb691906200288a565b50608082015181600401908162000cce91906200288a565b5060a082015181600501908162000ce691906200288a565b5060c0820151816006015560e082015181600701908162000d0891906200288a565b50505050505050505050505050565b62000d2162001562565b62000d2d6000620015e7565b565b7fa49807205ce4d355092ef5a8a18f56e8913cf4a201fbe287825b095693c2177581565b600062000d616002620016ab565b905090565b62000d7062001562565b62000d7c82826200089e565b5050565b60008060009054906101000a900473ffffffffffffffffffffffffffffffffffffffff16905090565b60006001600084815260200190815260200160002060000160008373ffffffffffffffffffffffffffffffffffffffff1673ffffffffffffffffffffffffffffffffffffffff16815260200190815260200160002060009054906101000a900460ff16905092915050565b600360009054906101000a900473ffffffffffffffffffffffffffffffffffffffff1681565b6000801b81565b6004602052816000526040600020818154811062000e5e57600080fd5b906000526020600020016000915091509054906101000a900473ffffffffffffffffffffffffffffffffffffffff1681565b62000e9b82620004b5565b62000ea68162001360565b62000eb2838362001465565b505050565b6005602052816000526040600020818154811062000ed457600080fd5b9060005260206000209060080201600091509150508060000160009054906101000a900473ffffffffffffffffffffffffffffffffffffffff16908060010154908060020160009054906101000a900473ffffffffffffffffffffffffffffffffffffffff169080600301805462000f4c9062002425565b80601f016020809104026020016040519081016040528092919081815260200182805462000f7a9062002425565b801562000fcb5780601f1062000f9f5761010080835404028352916020019162000fcb565b820191906000526020600020905b81548152906001019060200180831162000fad57829003601f168201915b50505050509080600401805462000fe29062002425565b80601f0160208091040260200160405190810160405280929190818152602001828054620010109062002425565b8015620010615780601f10620010355761010080835404028352916020019162001061565b820191906000526020600020905b8154815290600101906020018083116200104357829003601f168201915b505050505090806005018054620010789062002425565b80601f0160208091040260200160405190810160405280929190818152602001828054620010a69062002425565b8015620010f75780601f10620010cb57610100808354040283529160200191620010f7565b820191906000526020600020905b815481529060010190602001808311620010d957829003601f168201915b505050505090806006015490806007018054620011149062002425565b80601f0160208091040260200160405190810160405280929190818152602001828054620011429062002425565b8015620011935780601f10620011675761010080835404028352916020019162001193565b820191906000526020600020905b8154815290600101906020018083116200117557829003601f168201915b5050505050905088565b620011a762001562565b600073ffffffffffffffffffffffffffffffffffffffff168173ffffffffffffffffffffffffffffffffffffffff160362001219576040517f08c379a00000000000000000000000000000000000000000000000000000000081526004016200121090620029e7565b60405180910390fd5b6200122481620015e7565b50565b6060600460008373ffffffffffffffffffffffffffffffffffffffff1673ffffffffffffffffffffffffffffffffffffffff168152602001908152602001600020805480602002602001604051908101604052809291908181526020018280548015620012ea57602002820191906000526020600020905b8160009054906101000a900473ffffffffffffffffffffffffffffffffffffffff1673ffffffffffffffffffffffffffffffffffffffff16815260200190600101908083116200129f575b50505050509050919050565b60007f01ffc9a7000000000000000000000000000000000000000000000000000000007bffffffffffffffffffffffffffffffffffffffffffffffffffffffff1916827bffffffffffffffffffffffffffffffffffffffffffffffffffffffff1916149050919050565b62001375816200136f6200145d565b620016b9565b50565b62001384828262000da9565b6200145957600180600084815260200190815260200160002060000160008373ffffffffffffffffffffffffffffffffffffffff1673ffffffffffffffffffffffffffffffffffffffff16815260200190815260200160002060006101000a81548160ff021916908315150217905550620013fe6200145d565b73ffffffffffffffffffffffffffffffffffffffff168173ffffffffffffffffffffffffffffffffffffffff16837f2f8788117e7eff1d82e926ec794901d17c78024a50270940304540a733656f0d60405160405180910390a45b5050565b600033905090565b62001471828262000da9565b15620015485760006001600084815260200190815260200160002060000160008373ffffffffffffffffffffffffffffffffffffffff1673ffffffffffffffffffffffffffffffffffffffff16815260200190815260200160002060006101000a81548160ff021916908315150217905550620014ed6200145d565b73ffffffffffffffffffffffffffffffffffffffff168173ffffffffffffffffffffffffffffffffffffffff16837ff6391f5c32d9c69d2a47ea670b442974b53935d1edc7fd64eb21e047a839171b60405160405180910390a45b5050565b6001816000016000828254019250508190555050565b6200156c6200145d565b73ffffffffffffffffffffffffffffffffffffffff166200158c62000d80565b73ffffffffffffffffffffffffffffffffffffffff1614620015e5576040517f08c379a0000000000000000000000000000000000000000000000000000000008152600401620015dc9062002a59565b60405180910390fd5b565b60008060009054906101000a900473ffffffffffffffffffffffffffffffffffffffff169050816000806101000a81548173ffffffffffffffffffffffffffffffffffffffff021916908373ffffffffffffffffffffffffffffffffffffffff1602179055508173ffffffffffffffffffffffffffffffffffffffff168173ffffffffffffffffffffffffffffffffffffffff167f8be0079c531659141344cd1fd0a4f28419497f9722a3daafe3b4186f6b6457e060405160405180910390a35050565b600081600001549050919050565b620016c5828262000da9565b6200175d57620016ed8173ffffffffffffffffffffffffffffffffffffffff16601462001761565b620016fd8360001c602062001761565b6040516020016200171092919062002b5d565b6040516020818303038152906040526040517f08c379a000000000000000000000000000000000000000000000000000000000815260040162001754919062002b9f565b60405180910390fd5b5050565b60606000600283600262001776919062002bf2565b62001782919062002c3d565b67ffffffffffffffff8111156200179e576200179d62001eb9565b5b6040519080825280601f01601f191660200182016040528015620017d15781602001600182028036833780820191505090505b5090507f3000000000000000000000000000000000000000000000000000000000000000816000815181106200180c576200180b62002c78565b5b60200101907effffffffffffffffffffffffffffffffffffffffffffffffffffffffffffff1916908160001a9053507f78000000000000000000000000000000000000000000000000000000000000008160018151811062001873576200187262002c78565b5b60200101907effffffffffffffffffffffffffffffffffffffffffffffffffffffffffffff1916908160001a90535060006001846002620018b5919062002bf2565b620018c1919062002c3d565b90505b60018111156200196b577f3031323334353637383961626364656600000000000000000000000000000000600f86166010811062001907576200190662002c78565b5b1a60f81b82828151811062001921576200192062002c78565b5b60200101907effffffffffffffffffffffffffffffffffffffffffffffffffffffffffffff1916908160001a905350600485901c945080620019639062002ca7565b9050620018c4565b5060008414620019b2576040517f08c379a0000000000000000000000000000000000000000000000000000000008152600401620019a99062002d25565b60405180910390fd5b8091505092915050565b613eaa8062002d4883390190565b6000604051905090565b600080fd5b600080fd5b60007fffffffff0000000000000000000000000000000000000000000000000000000082169050919050565b62001a1581620019de565b811462001a2157600080fd5b50565b60008135905062001a358162001a0a565b92915050565b60006020828403121562001a545762001a53620019d4565b5b600062001a648482850162001a24565b91505092915050565b60008115159050919050565b62001a848162001a6d565b82525050565b600060208201905062001aa1600083018462001a79565b92915050565b6000819050919050565b62001abc8162001aa7565b811462001ac857600080fd5b50565b60008135905062001adc8162001ab1565b92915050565b60006020828403121562001afb5762001afa620019d4565b5b600062001b0b8482850162001acb565b91505092915050565b62001b1f8162001aa7565b82525050565b600060208201905062001b3c600083018462001b14565b92915050565b600073ffffffffffffffffffffffffffffffffffffffff82169050919050565b600062001b6f8262001b42565b9050919050565b62001b818162001b62565b811462001b8d57600080fd5b50565b60008135905062001ba18162001b76565b92915050565b60006020828403121562001bc05762001bbf620019d4565b5b600062001bd08482850162001b90565b91505092915050565b600081519050919050565b600082825260208201905092915050565b6000819050602082019050919050565b62001c108162001b62565b82525050565b6000819050919050565b62001c2b8162001c16565b82525050565b600081519050919050565b600082825260208201905092915050565b60005b8381101562001c6d57808201518184015260208101905062001c50565b60008484015250505050565b6000601f19601f8301169050919050565b600062001c978262001c31565b62001ca3818562001c3c565b935062001cb581856020860162001c4d565b62001cc08162001c79565b840191505092915050565b60006101008301600083015162001ce6600086018262001c05565b50602083015162001cfb602086018262001c20565b50604083015162001d10604086018262001c05565b506060830151848203606086015262001d2a828262001c8a565b9150506080830151848203608086015262001d46828262001c8a565b91505060a083015184820360a086015262001d62828262001c8a565b91505060c083015162001d7960c086018262001c20565b5060e083015184820360e086015262001d93828262001c8a565b9150508091505092915050565b600062001dae838362001ccb565b905092915050565b6000602082019050919050565b600062001dd08262001bd9565b62001ddc818562001be4565b93508360208202850162001df08562001bf5565b8060005b8581101562001e32578484038952815162001e10858262001da0565b945062001e1d8362001db6565b925060208a0199505060018101905062001df4565b50829750879550505050505092915050565b6000602082019050818103600083015262001e60818462001dc3565b905092915050565b6000806040838503121562001e825762001e81620019d4565b5b600062001e928582860162001acb565b925050602062001ea58582860162001b90565b9150509250929050565b600080fd5b600080fd5b7f4e487b7100000000000000000000000000000000000000000000000000000000600052604160045260246000fd5b62001ef38262001c79565b810181811067ffffffffffffffff8211171562001f155762001f1462001eb9565b5b80604052505050565b600062001f2a620019ca565b905062001f38828262001ee8565b919050565b600067ffffffffffffffff82111562001f5b5762001f5a62001eb9565b5b62001f668262001c79565b9050602081019050919050565b82818337600083830152505050565b600062001f9962001f938462001f3d565b62001f1e565b90508281526020810184848401111562001fb85762001fb762001eb4565b5b62001fc584828562001f73565b509392505050565b600082601f83011262001fe55762001fe462001eaf565b5b813562001ff784826020860162001f82565b91505092915050565b6200200b8162001c16565b81146200201757600080fd5b50565b6000813590506200202b8162002000565b92915050565b600080600080600080600080610100898b031215620020555762002054620019d4565b5b6000620020658b828c0162001b90565b985050602089013567ffffffffffffffff811115620020895762002088620019d9565b5b620020978b828c0162001fcd565b975050604089013567ffffffffffffffff811115620020bb57620020ba620019d9565b5b620020c98b828c0162001fcd565b965050606089013567ffffffffffffffff811115620020ed57620020ec620019d9565b5b620020fb8b828c0162001fcd565b95505060806200210e8b828c016200201a565b94505060a0620021218b828c016200201a565b93505060c0620021348b828c016200201a565b92505060e089013567ffffffffffffffff811115620021585762002157620019d9565b5b620021668b828c0162001fcd565b9150509295985092959890939650565b620021818162001c16565b82525050565b60006020820190506200219e600083018462002176565b92915050565b620021af8162001b62565b82525050565b6000602082019050620021cc6000830184620021a4565b92915050565b60008060408385031215620021ec57620021eb620019d4565b5b6000620021fc8582860162001b90565b92505060206200220f858286016200201a565b9150509250929050565b600082825260208201905092915050565b6000620022378262001c31565b62002243818562002219565b93506200225581856020860162001c4d565b620022608162001c79565b840191505092915050565b60006101008201905062002283600083018b620021a4565b62002292602083018a62002176565b620022a16040830189620021a4565b8181036060830152620022b581886200222a565b90508181036080830152620022cb81876200222a565b905081810360a0830152620022e181866200222a565b9050620022f260c083018562002176565b81810360e08301526200230681846200222a565b90509998505050505050505050565b600081519050919050565b600082825260208201905092915050565b6000819050602082019050919050565b60006200234f838362001c05565b60208301905092915050565b6000602082019050919050565b6000620023758262002315565b62002381818562002320565b93506200238e8362002331565b8060005b83811015620023c5578151620023a9888262002341565b9750620023b6836200235b565b92505060018101905062002392565b5085935050505092915050565b60006020820190508181036000830152620023ee818462002368565b905092915050565b7f4e487b7100000000000000000000000000000000000000000000000000000000600052602260045260246000fd5b600060028204905060018216806200243e57607f821691505b602082108103620024545762002453620023f6565b5b50919050565b7f416363657373436f6e74726f6c3a2063616e206f6e6c792072656e6f756e636560008201527f20726f6c657320666f722073656c660000000000000000000000000000000000602082015250565b6000620024b8602f8362002219565b9150620024c5826200245a565b604082019050919050565b60006020820190508181036000830152620024eb81620024a9565b9050919050565b7f43616c6c6572206973206e6f7420616e2061646d696e00000000000000000000600082015250565b60006200252a60168362002219565b91506200253782620024f2565b602082019050919050565b600060208201905081810360008301526200255d816200251b565b9050919050565b6000610120820190506200257c600083018c62002176565b6200258b602083018b620021a4565b81810360408301526200259f818a6200222a565b90508181036060830152620025b581896200222a565b90508181036080830152620025cb81886200222a565b9050620025dc60a083018762002176565b620025eb60c083018662002176565b620025fa60e0830185620021a4565b8181036101008301526200260f81846200222a565b90509a9950505050505050505050565b600060e08201905062002636600083018a62002176565b620026456020830189620021a4565b81810360408301526200265981886200222a565b905081810360608301526200266f81876200222a565b905081810360808301526200268581866200222a565b90506200269660a083018562002176565b81810360c0830152620026aa81846200222a565b905098975050505050505050565b60008190508160005260206000209050919050565b60006020601f8301049050919050565b600082821b905092915050565b6000600883026200271c7fffffffffffffffffffffffffffffffffffffffffffffffffffffffffffffffff82620026dd565b620027288683620026dd565b95508019841693508086168417925050509392505050565b6000819050919050565b60006200276b620027656200275f8462001c16565b62002740565b62001c16565b9050919050565b6000819050919050565b62002787836200274a565b6200279f620027968262002772565b848454620026ea565b825550505050565b600090565b620027b6620027a7565b620027c38184846200277c565b505050565b5b81811015620027eb57620027df600082620027ac565b600181019050620027c9565b5050565b601f8211156200283a576200280481620026b8565b6200280f84620026cd565b810160208510156200281f578190505b620028376200282e85620026cd565b830182620027c8565b50505b505050565b600082821c905092915050565b60006200285f600019846008026200283f565b1980831691505092915050565b60006200287a83836200284c565b9150826002028217905092915050565b620028958262001c31565b67ffffffffffffffff811115620028b157620028b062001eb9565b5b620028bd825462002425565b620028ca828285620027ef565b600060209050601f831160018114620029025760008415620028ed578287015190505b620028f985826200286c565b86555062002969565b601f1984166200291286620026b8565b60005b828110156200293c5784890151825560018201915060208501945060208101905062002915565b868310156200295c578489015162002958601f8916826200284c565b8355505b6001600288020188555050505b505050505050565b7f4f776e61626c653a206e6577206f776e657220697320746865207a65726f206160008201527f6464726573730000000000000000000000000000000000000000000000000000602082015250565b6000620029cf60268362002219565b9150620029dc8262002971565b604082019050919050565b6000602082019050818103600083015262002a0281620029c0565b9050919050565b7f4f776e61626c653a2063616c6c6572206973206e6f7420746865206f776e6572600082015250565b600062002a4160208362002219565b915062002a4e8262002a09565b602082019050919050565b6000602082019050818103600083015262002a748162002a32565b9050919050565b600081905092915050565b7f416363657373436f6e74726f6c3a206163636f756e7420000000000000000000600082015250565b600062002abe60178362002a7b565b915062002acb8262002a86565b601782019050919050565b600062002ae38262001c31565b62002aef818562002a7b565b935062002b0181856020860162001c4d565b80840191505092915050565b7f206973206d697373696e6720726f6c6520000000000000000000000000000000600082015250565b600062002b4560118362002a7b565b915062002b528262002b0d565b601182019050919050565b600062002b6a8262002aaf565b915062002b78828562002ad6565b915062002b858262002b36565b915062002b93828462002ad6565b91508190509392505050565b6000602082019050818103600083015262002bbb81846200222a565b905092915050565b7f4e487b7100000000000000000000000000000000000000000000000000000000600052601160045260246000fd5b600062002bff8262001c16565b915062002c0c8362001c16565b925082820262002c1c8162001c16565b9150828204841483151762002c365762002c3562002bc3565b5b5092915050565b600062002c4a8262001c16565b915062002c578362001c16565b925082820190508082111562002c725762002c7162002bc3565b5b92915050565b7f4e487b7100000000000000000000000000000000000000000000000000000000600052603260045260246000fd5b600062002cb48262001c16565b91506000820362002cca5762002cc962002bc3565b5b600182039050919050565b7f537472696e67733a20686578206c656e67746820696e73756666696369656e74600082015250565b600062002d0d60208362002219565b915062002d1a8262002cd5565b602082019050919050565b6000602082019050818103600083015262002d408162002cfe565b905091905056fe60806040523480156200001157600080fd5b5060405162003eaa38038062003eaa83398181016040528101906200003791906200044a565b858581600090816200004a9190620007e6565b5080600190816200005c9190620007e6565b5050506200007f620000736200014960201b60201c565b6200015160201b60201c565b86600c9081620000909190620007e6565b5087600d60006101000a81548173ffffffffffffffffffffffffffffffffffffffff021916908373ffffffffffffffffffffffffffffffffffffffff1602179055508360098190555082600a8190555081600e60006101000a81548173ffffffffffffffffffffffffffffffffffffffff021916908373ffffffffffffffffffffffffffffffffffffffff16021790555088600b8190555080600f9081620001399190620007e6565b50505050505050505050620008cd565b600033905090565b6000600760009054906101000a900473ffffffffffffffffffffffffffffffffffffffff16905081600760006101000a81548173ffffffffffffffffffffffffffffffffffffffff021916908373ffffffffffffffffffffffffffffffffffffffff1602179055508173ffffffffffffffffffffffffffffffffffffffff168173ffffffffffffffffffffffffffffffffffffffff167f8be0079c531659141344cd1fd0a4f28419497f9722a3daafe3b4186f6b6457e060405160405180910390a35050565b6000604051905090565b600080fd5b600080fd5b6000819050919050565b62000240816200022b565b81146200024c57600080fd5b50565b600081519050620002608162000235565b92915050565b600073ffffffffffffffffffffffffffffffffffffffff82169050919050565b6000620002938262000266565b9050919050565b620002a58162000286565b8114620002b157600080fd5b50565b600081519050620002c5816200029a565b92915050565b600080fd5b600080fd5b6000601f19601f8301169050919050565b7f4e487b7100000000000000000000000000000000000000000000000000000000600052604160045260246000fd5b6200032082620002d5565b810181811067ffffffffffffffff82111715620003425762000341620002e6565b5b80604052505050565b60006200035762000217565b905062000365828262000315565b919050565b600067ffffffffffffffff821115620003885762000387620002e6565b5b6200039382620002d5565b9050602081019050919050565b60005b83811015620003c0578082015181840152602081019050620003a3565b60008484015250505050565b6000620003e3620003dd846200036a565b6200034b565b905082815260208101848484011115620004025762000401620002d0565b5b6200040f848285620003a0565b509392505050565b600082601f8301126200042f576200042e620002cb565b5b815162000441848260208601620003cc565b91505092915050565b60008060008060008060008060006101208a8c03121562000470576200046f62000221565b5b6000620004808c828d016200024f565b9950506020620004938c828d01620002b4565b98505060408a015167ffffffffffffffff811115620004b757620004b662000226565b5b620004c58c828d0162000417565b97505060608a015167ffffffffffffffff811115620004e957620004e862000226565b5b620004f78c828d0162000417565b96505060808a015167ffffffffffffffff8111156200051b576200051a62000226565b5b620005298c828d0162000417565b95505060a06200053c8c828d016200024f565b94505060c06200054f8c828d016200024f565b93505060e0620005628c828d01620002b4565b9250506101008a015167ffffffffffffffff81111562000587576200058662000226565b5b620005958c828d0162000417565b9150509295985092959850929598565b600081519050919050565b7f4e487b7100000000000000000000000000000000000000000000000000000000600052602260045260246000fd5b60006002820490506001821680620005f857607f821691505b6020821081036200060e576200060d620005b0565b5b50919050565b60008190508160005260206000209050919050565b60006020601f8301049050919050565b600082821b905092915050565b600060088302620006787fffffffffffffffffffffffffffffffffffffffffffffffffffffffffffffffff8262000639565b62000684868362000639565b95508019841693508086168417925050509392505050565b6000819050919050565b6000620006c7620006c1620006bb846200022b565b6200069c565b6200022b565b9050919050565b6000819050919050565b620006e383620006a6565b620006fb620006f282620006ce565b84845462000646565b825550505050565b600090565b6200071262000703565b6200071f818484620006d8565b505050565b5b8181101562000747576200073b60008262000708565b60018101905062000725565b5050565b601f8211156200079657620007608162000614565b6200076b8462000629565b810160208510156200077b578190505b620007936200078a8562000629565b83018262000724565b50505b505050565b600082821c905092915050565b6000620007bb600019846008026200079b565b1980831691505092915050565b6000620007d68383620007a8565b9150826002028217905092915050565b620007f182620005a5565b67ffffffffffffffff8111156200080d576200080c620002e6565b5b620008198254620005df565b620008268282856200074b565b600060209050601f8311600181146200085e576000841562000849578287015190505b620008558582620007c8565b865550620008c5565b601f1984166200086e8662000614565b60005b82811015620008985784890151825560018201915060208501945060208101905062000871565b86831015620008b85784890151620008b4601f891682620007a8565b8355505b6001600288020188555050505b505050505050565b6135cd80620008dd6000396000f3fe6080604052600436106101665760003560e01c8063715018a6116100d1578063aa0b59881161008a578063c87b56dd11610064578063c87b56dd146104f7578063d6da2ccf14610534578063e985e9c51461055f578063f2fde38b1461059c57610166565b8063aa0b59881461047a578063b88d4fde146104a3578063bb244e40146104cc57610166565b8063715018a61461038e5780638d2fe3e1146103a55780638da5cb5b146103d057806393dd6446146103fb57806395d89b4114610426578063a22cb4651461045157610166565b806323b872dd1161012357806323b872dd1461028f5780633ccfd60b146102b857806340c10f19146102cf57806342842e0e146102eb5780636352211e1461031457806370a082311461035157610166565b806301ffc9a71461016b5780630387da42146101a857806306fdde03146101d3578063081812fc146101fe578063095ea7b31461023b5780630dccc9ad14610264575b600080fd5b34801561017757600080fd5b50610192600480360381019061018d91906121a9565b6105c5565b60405161019f91906121f1565b60405180910390f35b3480156101b457600080fd5b506101bd6106a7565b6040516101ca9190612225565b60405180910390f35b3480156101df57600080fd5b506101e86106ad565b6040516101f591906122d0565b60405180910390f35b34801561020a57600080fd5b506102256004803603810190610220919061231e565b61073f565b604051610232919061238c565b60405180910390f35b34801561024757600080fd5b50610262600480360381019061025d91906123d3565b610785565b005b34801561027057600080fd5b5061027961089c565b60405161028691906122d0565b60405180910390f35b34801561029b57600080fd5b506102b660048036038101906102b19190612413565b61092a565b005b3480156102c457600080fd5b506102cd61098a565b005b6102e960048036038101906102e491906123d3565b610af3565b005b3480156102f757600080fd5b50610312600480360381019061030d9190612413565b610d39565b005b34801561032057600080fd5b5061033b6004803603810190610336919061231e565b610d59565b604051610348919061238c565b60405180910390f35b34801561035d57600080fd5b5061037860048036038101906103739190612466565b610e0a565b6040516103859190612225565b60405180910390f35b34801561039a57600080fd5b506103a3610ec1565b005b3480156103b157600080fd5b506103ba610ed5565b6040516103c791906122d0565b60405180910390f35b3480156103dc57600080fd5b506103e5610f63565b6040516103f2919061238c565b60405180910390f35b34801561040757600080fd5b50610410610f8d565b60405161041d919061238c565b60405180910390f35b34801561043257600080fd5b5061043b610fb3565b60405161044891906122d0565b60405180910390f35b34801561045d57600080fd5b50610478600480360381019061047391906124bf565b611045565b005b34801561048657600080fd5b506104a1600480360381019061049c919061231e565b61105b565b005b3480156104af57600080fd5b506104ca60048036038101906104c59190612634565b6110f5565b005b3480156104d857600080fd5b506104e1611157565b6040516104ee919061238c565b60405180910390f35b34801561050357600080fd5b5061051e6004803603810190610519919061231e565b61117d565b60405161052b91906122d0565b60405180910390f35b34801561054057600080fd5b50610549611211565b6040516105569190612225565b60405180910390f35b34801561056b57600080fd5b50610586600480360381019061058191906126b7565b611217565b60405161059391906121f1565b60405180910390f35b3480156105a857600080fd5b506105c360048036038101906105be9190612466565b6112ab565b005b60007f80ac58cd000000000000000000000000000000000000000000000000000000007bffffffffffffffffffffffffffffffffffffffffffffffffffffffff1916827bffffffffffffffffffffffffffffffffffffffffffffffffffffffff1916148061069057507f5b5e139f000000000000000000000000000000000000000000000000000000007bffffffffffffffffffffffffffffffffffffffffffffffffffffffff1916827bffffffffffffffffffffffffffffffffffffffffffffffffffffffff1916145b806106a0575061069f8261132e565b5b9050919050565b60095481565b6060600080546106bc90612726565b80601f01602080910402602001604051908101604052809291908181526020018280546106e890612726565b80156107355780601f1061070a57610100808354040283529160200191610735565b820191906000526020600020905b81548152906001019060200180831161071857829003601f168201915b5050505050905090565b600061074a82611398565b6004600083815260200190815260200160002060009054906101000a900473ffffffffffffffffffffffffffffffffffffffff169050919050565b600061079082610d59565b90508073ffffffffffffffffffffffffffffffffffffffff168373ffffffffffffffffffffffffffffffffffffffff1603610800576040517f08c379a00000000000000000000000000000000000000000000000000000000081526004016107f7906127c9565b60405180910390fd5b8073ffffffffffffffffffffffffffffffffffffffff1661081f6113e3565b73ffffffffffffffffffffffffffffffffffffffff16148061084e575061084d816108486113e3565b611217565b5b61088d576040517f08c379a00000000000000000000000000000000000000000000000000000000081526004016108849061285b565b60405180910390fd5b61089783836113eb565b505050565b600c80546108a990612726565b80601f01602080910402602001604051908101604052809291908181526020018280546108d590612726565b80156109225780601f106108f757610100808354040283529160200191610922565b820191906000526020600020905b81548152906001019060200180831161090557829003601f168201915b505050505081565b61093b6109356113e3565b826114a4565b61097a576040517f08c379a0000000000000000000000000000000000000000000000000000000008152600401610971906128ed565b60405180910390fd5b610985838383611539565b505050565b600d60009054906101000a900473ffffffffffffffffffffffffffffffffffffffff1673ffffffffffffffffffffffffffffffffffffffff163373ffffffffffffffffffffffffffffffffffffffff1614610a1a576040517f08c379a0000000000000000000000000000000000000000000000000000000008152600401610a119061297f565b60405180910390fd5b600d60009054906101000a900473ffffffffffffffffffffffffffffffffffffffff1673ffffffffffffffffffffffffffffffffffffffff163373ffffffffffffffffffffffffffffffffffffffff1614610aaa576040517f08c379a0000000000000000000000000000000000000000000000000000000008152600401610aa1906129eb565b60405180910390fd5b3373ffffffffffffffffffffffffffffffffffffffff166108fc479081150290604051600060405180830381858888f19350505050158015610af0573d6000803e3d6000fd5b50565b60008111610b36576040517f08c379a0000000000000000000000000000000000000000000000000000000008152600401610b2d90612a57565b60405180910390fd5b60095481610b449190612aa6565b341015610b86576040517f08c379a0000000000000000000000000000000000000000000000000000000008152600401610b7d90612b34565b60405180910390fd5b60006064600a5434610b989190612aa6565b610ba29190612b83565b9050600e60009054906101000a900473ffffffffffffffffffffffffffffffffffffffff1673ffffffffffffffffffffffffffffffffffffffff166108fc829081150290604051600060405180830381858888f19350505050158015610c0c573d6000803e3d6000fd5b5060005b82811015610d3357610c22600861179f565b6000610c2e60086117b5565b9050610c3a85826117c3565b808573ffffffffffffffffffffffffffffffffffffffff167fe7cd4ce7f2a465edc730269a1305e8a48bad821e8fb7e152ec413829c01a53c4610c7c8461117d565b604051610c8991906122d0565b60405180910390a3610d2581600c8054610ca290612726565b80601f0160208091040260200160405190810160405280929190818152602001828054610cce90612726565b8015610d1b5780601f10610cf057610100808354040283529160200191610d1b565b820191906000526020600020905b815481529060010190602001808311610cfe57829003601f168201915b50505050506117e1565b508080600101915050610c10565b50505050565b610d54838383604051806020016040528060008152506110f5565b505050565b6000806002600084815260200190815260200160002060009054906101000a900473ffffffffffffffffffffffffffffffffffffffff169050600073ffffffffffffffffffffffffffffffffffffffff168173ffffffffffffffffffffffffffffffffffffffff1603610e01576040517f08c379a0000000000000000000000000000000000000000000000000000000008152600401610df890612c00565b60405180910390fd5b80915050919050565b60008073ffffffffffffffffffffffffffffffffffffffff168273ffffffffffffffffffffffffffffffffffffffff1603610e7a576040517f08c379a0000000000000000000000000000000000000000000000000000000008152600401610e7190612c92565b60405180910390fd5b600360008373ffffffffffffffffffffffffffffffffffffffff1673ffffffffffffffffffffffffffffffffffffffff168152602001908152602001600020549050919050565b610ec961184e565b610ed360006118cc565b565b600f8054610ee290612726565b80601f0160208091040260200160405190810160405280929190818152602001828054610f0e90612726565b8015610f5b5780601f10610f3057610100808354040283529160200191610f5b565b820191906000526020600020905b815481529060010190602001808311610f3e57829003601f168201915b505050505081565b6000600760009054906101000a900473ffffffffffffffffffffffffffffffffffffffff16905090565b600d60009054906101000a900473ffffffffffffffffffffffffffffffffffffffff1681565b606060018054610fc290612726565b80601f0160208091040260200160405190810160405280929190818152602001828054610fee90612726565b801561103b5780601f106110105761010080835404028352916020019161103b565b820191906000526020600020905b81548152906001019060200180831161101e57829003601f168201915b5050505050905090565b6110576110506113e3565b8383611992565b5050565b600e60009054906101000a900473ffffffffffffffffffffffffffffffffffffffff1673ffffffffffffffffffffffffffffffffffffffff163373ffffffffffffffffffffffffffffffffffffffff16146110eb576040517f08c379a00000000000000000000000000000000000000000000000000000000081526004016110e290612d24565b60405180910390fd5b80600a8190555050565b6111066111006113e3565b836114a4565b611145576040517f08c379a000000000000000000000000000000000000000000000000000000000815260040161113c906128ed565b60405180910390fd5b61115184848484611afe565b50505050565b600e60009054906101000a900473ffffffffffffffffffffffffffffffffffffffff1681565b6060600c805461118c90612726565b80601f01602080910402602001604051908101604052809291908181526020018280546111b890612726565b80156112055780601f106111da57610100808354040283529160200191611205565b820191906000526020600020905b8154815290600101906020018083116111e857829003601f168201915b50505050509050919050565b600b5481565b6000600560008473ffffffffffffffffffffffffffffffffffffffff1673ffffffffffffffffffffffffffffffffffffffff16815260200190815260200160002060008373ffffffffffffffffffffffffffffffffffffffff1673ffffffffffffffffffffffffffffffffffffffff16815260200190815260200160002060009054906101000a900460ff16905092915050565b6112b361184e565b600073ffffffffffffffffffffffffffffffffffffffff168173ffffffffffffffffffffffffffffffffffffffff1603611322576040517f08c379a000000000000000000000000000000000000000000000000000000000815260040161131990612db6565b60405180910390fd5b61132b816118cc565b50565b60007f01ffc9a7000000000000000000000000000000000000000000000000000000007bffffffffffffffffffffffffffffffffffffffffffffffffffffffff1916827bffffffffffffffffffffffffffffffffffffffffffffffffffffffff1916149050919050565b6113a181611b5a565b6113e0576040517f08c379a00000000000000000000000000000000000000000000000000000000081526004016113d790612c00565b60405180910390fd5b50565b600033905090565b816004600083815260200190815260200160002060006101000a81548173ffffffffffffffffffffffffffffffffffffffff021916908373ffffffffffffffffffffffffffffffffffffffff160217905550808273ffffffffffffffffffffffffffffffffffffffff1661145e83610d59565b73ffffffffffffffffffffffffffffffffffffffff167f8c5be1e5ebec7d5bd14f71427d1e84f3dd0314c0f7b2291e5b200ac8c7c3b92560405160405180910390a45050565b6000806114b083610d59565b90508073ffffffffffffffffffffffffffffffffffffffff168473ffffffffffffffffffffffffffffffffffffffff1614806114f257506114f18185611217565b5b8061153057508373ffffffffffffffffffffffffffffffffffffffff166115188461073f565b73ffffffffffffffffffffffffffffffffffffffff16145b91505092915050565b8273ffffffffffffffffffffffffffffffffffffffff1661155982610d59565b73ffffffffffffffffffffffffffffffffffffffff16146115af576040517f08c379a00000000000000000000000000000000000000000000000000000000081526004016115a690612e48565b60405180910390fd5b600073ffffffffffffffffffffffffffffffffffffffff168273ffffffffffffffffffffffffffffffffffffffff160361161e576040517f08c379a000000000000000000000000000000000000000000000000000000000815260040161161590612eda565b60405180910390fd5b611629838383611bc6565b6116346000826113eb565b6001600360008573ffffffffffffffffffffffffffffffffffffffff1673ffffffffffffffffffffffffffffffffffffffff16815260200190815260200160002060008282546116849190612efa565b925050819055506001600360008473ffffffffffffffffffffffffffffffffffffffff1673ffffffffffffffffffffffffffffffffffffffff16815260200190815260200160002060008282546116db9190612f2e565b92505081905550816002600083815260200190815260200160002060006101000a81548173ffffffffffffffffffffffffffffffffffffffff021916908373ffffffffffffffffffffffffffffffffffffffff160217905550808273ffffffffffffffffffffffffffffffffffffffff168473ffffffffffffffffffffffffffffffffffffffff167fddf252ad1be2c89b69c2b068fc378daa952ba7f163c4a11628f55a4df523b3ef60405160405180910390a461179a838383611d55565b505050565b6001816000016000828254019250508190555050565b600081600001549050919050565b6117dd828260405180602001604052806000815250611d5a565b5050565b6117ea82611b5a565b611829576040517f08c379a000000000000000000000000000000000000000000000000000000000815260040161182090612fd4565b60405180910390fd5b8060066000848152602001908152602001600020908161184991906131a0565b505050565b6118566113e3565b73ffffffffffffffffffffffffffffffffffffffff16611874610f63565b73ffffffffffffffffffffffffffffffffffffffff16146118ca576040517f08c379a00000000000000000000000000000000000000000000000000000000081526004016118c1906132be565b60405180910390fd5b565b6000600760009054906101000a900473ffffffffffffffffffffffffffffffffffffffff16905081600760006101000a81548173ffffffffffffffffffffffffffffffffffffffff021916908373ffffffffffffffffffffffffffffffffffffffff1602179055508173ffffffffffffffffffffffffffffffffffffffff168173ffffffffffffffffffffffffffffffffffffffff167f8be0079c531659141344cd1fd0a4f28419497f9722a3daafe3b4186f6b6457e060405160405180910390a35050565b8173ffffffffffffffffffffffffffffffffffffffff168373ffffffffffffffffffffffffffffffffffffffff1603611a00576040517f08c379a00000000000000000000000000000000000000000000000000000000081526004016119f79061332a565b60405180910390fd5b80600560008573ffffffffffffffffffffffffffffffffffffffff1673ffffffffffffffffffffffffffffffffffffffff16815260200190815260200160002060008473ffffffffffffffffffffffffffffffffffffffff1673ffffffffffffffffffffffffffffffffffffffff16815260200190815260200160002060006101000a81548160ff0219169083151502179055508173ffffffffffffffffffffffffffffffffffffffff168373ffffffffffffffffffffffffffffffffffffffff167f17307eab39ab6107e8899845ad3d59bd9653f200f220920489ca2b5937696c3183604051611af191906121f1565b60405180910390a3505050565b611b09848484611539565b611b1584848484611db5565b611b54576040517f08c379a0000000000000000000000000000000000000000000000000000000008152600401611b4b906133bc565b60405180910390fd5b50505050565b60008073ffffffffffffffffffffffffffffffffffffffff166002600084815260200190815260200160002060009054906101000a900473ffffffffffffffffffffffffffffffffffffffff1673ffffffffffffffffffffffffffffffffffffffff1614159050919050565b600073ffffffffffffffffffffffffffffffffffffffff168373ffffffffffffffffffffffffffffffffffffffff1614158015611c305750600073ffffffffffffffffffffffffffffffffffffffff168273ffffffffffffffffffffffffffffffffffffffff1614155b15611d455760006064600b5434611c479190612aa6565b611c519190612b83565b9050600d60009054906101000a900473ffffffffffffffffffffffffffffffffffffffff1673ffffffffffffffffffffffffffffffffffffffff166108fc829081150290604051600060405180830381858888f19350505050158015611cbb573d6000803e3d6000fd5b508273ffffffffffffffffffffffffffffffffffffffff16600d60009054906101000a900473ffffffffffffffffffffffffffffffffffffffff1673ffffffffffffffffffffffffffffffffffffffff167fbdf0502df1b76d58521b2a929580ca100c2121e0ae38717b260d9cfa44c23b3283604051611d3b9190612225565b60405180910390a3505b611d50838383611f3c565b505050565b505050565b611d648383611f41565b611d716000848484611db5565b611db0576040517f08c379a0000000000000000000000000000000000000000000000000000000008152600401611da7906133bc565b60405180910390fd5b505050565b6000611dd68473ffffffffffffffffffffffffffffffffffffffff1661211a565b15611f2f578373ffffffffffffffffffffffffffffffffffffffff1663150b7a02611dff6113e3565b8786866040518563ffffffff1660e01b8152600401611e219493929190613431565b6020604051808303816000875af1925050508015611e5d57506040513d601f19601f82011682018060405250810190611e5a9190613492565b60015b611edf573d8060008114611e8d576040519150601f19603f3d011682016040523d82523d6000602084013e611e92565b606091505b506000815103611ed7576040517f08c379a0000000000000000000000000000000000000000000000000000000008152600401611ece906133bc565b60405180910390fd5b805181602001fd5b63150b7a0260e01b7bffffffffffffffffffffffffffffffffffffffffffffffffffffffff1916817bffffffffffffffffffffffffffffffffffffffffffffffffffffffff191614915050611f34565b600190505b949350505050565b505050565b600073ffffffffffffffffffffffffffffffffffffffff168273ffffffffffffffffffffffffffffffffffffffff1603611fb0576040517f08c379a0000000000000000000000000000000000000000000000000000000008152600401611fa79061350b565b60405180910390fd5b611fb981611b5a565b15611ff9576040517f08c379a0000000000000000000000000000000000000000000000000000000008152600401611ff090613577565b60405180910390fd5b61200560008383611bc6565b6001600360008473ffffffffffffffffffffffffffffffffffffffff1673ffffffffffffffffffffffffffffffffffffffff16815260200190815260200160002060008282546120559190612f2e565b92505081905550816002600083815260200190815260200160002060006101000a81548173ffffffffffffffffffffffffffffffffffffffff021916908373ffffffffffffffffffffffffffffffffffffffff160217905550808273ffffffffffffffffffffffffffffffffffffffff16600073ffffffffffffffffffffffffffffffffffffffff167fddf252ad1be2c89b69c2b068fc378daa952ba7f163c4a11628f55a4df523b3ef60405160405180910390a461211660008383611d55565b5050565b6000808273ffffffffffffffffffffffffffffffffffffffff163b119050919050565b6000604051905090565b600080fd5b600080fd5b60007fffffffff0000000000000000000000000000000000000000000000000000000082169050919050565b61218681612151565b811461219157600080fd5b50565b6000813590506121a38161217d565b92915050565b6000602082840312156121bf576121be612147565b5b60006121cd84828501612194565b91505092915050565b60008115159050919050565b6121eb816121d6565b82525050565b600060208201905061220660008301846121e2565b92915050565b6000819050919050565b61221f8161220c565b82525050565b600060208201905061223a6000830184612216565b92915050565b600081519050919050565b600082825260208201905092915050565b60005b8381101561227a57808201518184015260208101905061225f565b60008484015250505050565b6000601f19601f8301169050919050565b60006122a282612240565b6122ac818561224b565b93506122bc81856020860161225c565b6122c581612286565b840191505092915050565b600060208201905081810360008301526122ea8184612297565b905092915050565b6122fb8161220c565b811461230657600080fd5b50565b600081359050612318816122f2565b92915050565b60006020828403121561233457612333612147565b5b600061234284828501612309565b91505092915050565b600073ffffffffffffffffffffffffffffffffffffffff82169050919050565b60006123768261234b565b9050919050565b6123868161236b565b82525050565b60006020820190506123a1600083018461237d565b92915050565b6123b08161236b565b81146123bb57600080fd5b50565b6000813590506123cd816123a7565b92915050565b600080604083850312156123ea576123e9612147565b5b60006123f8858286016123be565b925050602061240985828601612309565b9150509250929050565b60008060006060848603121561242c5761242b612147565b5b600061243a868287016123be565b935050602061244b868287016123be565b925050604061245c86828701612309565b9150509250925092565b60006020828403121561247c5761247b612147565b5b600061248a848285016123be565b91505092915050565b61249c816121d6565b81146124a757600080fd5b50565b6000813590506124b981612493565b92915050565b600080604083850312156124d6576124d5612147565b5b60006124e4858286016123be565b92505060206124f5858286016124aa565b9150509250929050565b600080fd5b600080fd5b7f4e487b7100000000000000000000000000000000000000000000000000000000600052604160045260246000fd5b61254182612286565b810181811067ffffffffffffffff821117156125605761255f612509565b5b80604052505050565b600061257361213d565b905061257f8282612538565b919050565b600067ffffffffffffffff82111561259f5761259e612509565b5b6125a882612286565b9050602081019050919050565b82818337600083830152505050565b60006125d76125d284612584565b612569565b9050828152602081018484840111156125f3576125f2612504565b5b6125fe8482856125b5565b509392505050565b600082601f83011261261b5761261a6124ff565b5b813561262b8482602086016125c4565b91505092915050565b6000806000806080858703121561264e5761264d612147565b5b600061265c878288016123be565b945050602061266d878288016123be565b935050604061267e87828801612309565b925050606085013567ffffffffffffffff81111561269f5761269e61214c565b5b6126ab87828801612606565b91505092959194509250565b600080604083850312156126ce576126cd612147565b5b60006126dc858286016123be565b92505060206126ed858286016123be565b9150509250929050565b7f4e487b7100000000000000000000000000000000000000000000000000000000600052602260045260246000fd5b6000600282049050600182168061273e57607f821691505b602082108103612751576127506126f7565b5b50919050565b7f4552433732313a20617070726f76616c20746f2063757272656e74206f776e6560008201527f7200000000000000000000000000000000000000000000000000000000000000602082015250565b60006127b360218361224b565b91506127be82612757565b604082019050919050565b600060208201905081810360008301526127e2816127a6565b9050919050565b7f4552433732313a20617070726f76652063616c6c6572206973206e6f7420746f60008201527f6b656e206f776e6572206e6f7220617070726f76656420666f7220616c6c0000602082015250565b6000612845603e8361224b565b9150612850826127e9565b604082019050919050565b6000602082019050818103600083015261287481612838565b9050919050565b7f4552433732313a2063616c6c6572206973206e6f7420746f6b656e206f776e6560008201527f72206e6f7220617070726f766564000000000000000000000000000000000000602082015250565b60006128d7602e8361224b565b91506128e28261287b565b604082019050919050565b60006020820190508181036000830152612906816128ca565b9050919050565b7f4f6e6c79206172746973742063616e2063616c6c20746869732066756e63746960008201527f6f6e000000000000000000000000000000000000000000000000000000000000602082015250565b600061296960228361224b565b91506129748261290d565b604082019050919050565b600060208201905081810360008301526129988161295c565b9050919050565b7f4f6e6c7920746865206172746973742063616e20776974686472617700000000600082015250565b60006129d5601c8361224b565b91506129e08261299f565b602082019050919050565b60006020820190508181036000830152612a04816129c8565b9050919050565b7f5175616e74697479206d7573742062652067726561746572207468616e203000600082015250565b6000612a41601f8361224b565b9150612a4c82612a0b565b602082019050919050565b60006020820190508181036000830152612a7081612a34565b9050919050565b7f4e487b7100000000000000000000000000000000000000000000000000000000600052601160045260246000fd5b6000612ab18261220c565b9150612abc8361220c565b9250828202612aca8161220c565b91508282048414831517612ae157612ae0612a77565b5b5092915050565b7f496e73756666696369656e74204554482073656e740000000000000000000000600082015250565b6000612b1e60158361224b565b9150612b2982612ae8565b602082019050919050565b60006020820190508181036000830152612b4d81612b11565b9050919050565b7f4e487b7100000000000000000000000000000000000000000000000000000000600052601260045260246000fd5b6000612b8e8261220c565b9150612b998361220c565b925082612ba957612ba8612b54565b5b828204905092915050565b7f4552433732313a20696e76616c696420746f6b656e2049440000000000000000600082015250565b6000612bea60188361224b565b9150612bf582612bb4565b602082019050919050565b60006020820190508181036000830152612c1981612bdd565b9050919050565b7f4552433732313a2061646472657373207a65726f206973206e6f74206120766160008201527f6c6964206f776e65720000000000000000000000000000000000000000000000602082015250565b6000612c7c60298361224b565b9150612c8782612c20565b604082019050919050565b60006020820190508181036000830152612cab81612c6f565b9050919050565b7f4f6e6c7920706c6174666f726d2061646d696e2077616c6c65742063616e206360008201527f616c6c20746869732066756e6374696f6e000000000000000000000000000000602082015250565b6000612d0e60318361224b565b9150612d1982612cb2565b604082019050919050565b60006020820190508181036000830152612d3d81612d01565b9050919050565b7f4f776e61626c653a206e6577206f776e657220697320746865207a65726f206160008201527f6464726573730000000000000000000000000000000000000000000000000000602082015250565b6000612da060268361224b565b9150612dab82612d44565b604082019050919050565b60006020820190508181036000830152612dcf81612d93565b9050919050565b7f4552433732313a207472616e736665722066726f6d20696e636f72726563742060008201527f6f776e6572000000000000000000000000000000000000000000000000000000602082015250565b6000612e3260258361224b565b9150612e3d82612dd6565b604082019050919050565b60006020820190508181036000830152612e6181612e25565b9050919050565b7f4552433732313a207472616e7366657220746f20746865207a65726f2061646460008201527f7265737300000000000000000000000000000000000000000000000000000000602082015250565b6000612ec460248361224b565b9150612ecf82612e68565b604082019050919050565b60006020820190508181036000830152612ef381612eb7565b9050919050565b6000612f058261220c565b9150612f108361220c565b9250828203905081811115612f2857612f27612a77565b5b92915050565b6000612f398261220c565b9150612f448361220c565b9250828201905080821115612f5c57612f5b612a77565b5b92915050565b7f45524337323155524953746f726167653a2055524920736574206f66206e6f6e60008201527f6578697374656e7420746f6b656e000000000000000000000000000000000000602082015250565b6000612fbe602e8361224b565b9150612fc982612f62565b604082019050919050565b60006020820190508181036000830152612fed81612fb1565b9050919050565b60008190508160005260206000209050919050565b60006020601f8301049050919050565b600082821b905092915050565b6000600883026130567fffffffffffffffffffffffffffffffffffffffffffffffffffffffffffffffff82613019565b6130608683613019565b95508019841693508086168417925050509392505050565b6000819050919050565b600061309d6130986130938461220c565b613078565b61220c565b9050919050565b6000819050919050565b6130b783613082565b6130cb6130c3826130a4565b848454613026565b825550505050565b600090565b6130e06130d3565b6130eb8184846130ae565b505050565b5b8181101561310f576131046000826130d8565b6001810190506130f1565b5050565b601f8211156131545761312581612ff4565b61312e84613009565b8101602085101561313d578190505b61315161314985613009565b8301826130f0565b50505b505050565b600082821c905092915050565b600061317760001984600802613159565b1980831691505092915050565b60006131908383613166565b9150826002028217905092915050565b6131a982612240565b67ffffffffffffffff8111156131c2576131c1612509565b5b6131cc8254612726565b6131d7828285613113565b600060209050601f83116001811461320a57600084156131f8578287015190505b6132028582613184565b86555061326a565b601f19841661321886612ff4565b60005b828110156132405784890151825560018201915060208501945060208101905061321b565b8683101561325d5784890151613259601f891682613166565b8355505b6001600288020188555050505b505050505050565b7f4f776e61626c653a2063616c6c6572206973206e6f7420746865206f776e6572600082015250565b60006132a860208361224b565b91506132b382613272565b602082019050919050565b600060208201905081810360008301526132d78161329b565b9050919050565b7f4552433732313a20617070726f766520746f2063616c6c657200000000000000600082015250565b600061331460198361224b565b915061331f826132de565b602082019050919050565b6000602082019050818103600083015261334381613307565b9050919050565b7f4552433732313a207472616e7366657220746f206e6f6e20455243373231526560008201527f63656976657220696d706c656d656e7465720000000000000000000000000000602082015250565b60006133a660328361224b565b91506133b18261334a565b604082019050919050565b600060208201905081810360008301526133d581613399565b9050919050565b600081519050919050565b600082825260208201905092915050565b6000613403826133dc565b61340d81856133e7565b935061341d81856020860161225c565b61342681612286565b840191505092915050565b6000608082019050613446600083018761237d565b613453602083018661237d565b6134606040830185612216565b818103606083015261347281846133f8565b905095945050505050565b60008151905061348c8161217d565b92915050565b6000602082840312156134a8576134a7612147565b5b60006134b68482850161347d565b91505092915050565b7f4552433732313a206d696e7420746f20746865207a65726f2061646472657373600082015250565b60006134f560208361224b565b9150613500826134bf565b602082019050919050565b60006020820190508181036000830152613524816134e8565b9050919050565b7f4552433732313a20746f6b656e20616c7265616479206d696e74656400000000600082015250565b6000613561601c8361224b565b915061356c8261352b565b602082019050919050565b6000602082019050818103600083015261359081613554565b905091905056fea2646970667358221220ad070b37851df11eb4238afcc036a0b04fbaa21e9cb43cc36130250cb16efc4064736f6c63430008180033a2646970667358221220bbd44e2a330c4788bbcc5b55fb93a452024df0a35ca3d130b8a37148295ce3bb64736f6c63430008180033",
  "linkReferences": {},
  "deployedLinkReferences": {}
}