{
  "_format": "hh-sol-artifact-1",
  "contractName": "DBeatsFactory",
  "sourceName": "contracts/Factory.sol",
  "abi": [
    {
      "inputs": [
        {
          "internalType": "address",
          "name": "_platformWalletAddress",
          "type": "address"
        }
      ],
      "stateMutability": "nonpayable",
      "type": "constructor"
    },
    {
      "anonymous": false,
      "inputs": [
        {
          "indexed": true,
          "internalType": "address",
          "name": "nftAddress",
          "type": "address"
        },
        {
          "indexed": false,
          "internalType": "uint256",
          "name": "_royaltyFeePercentage",
          "type": "uint256"
        },
        {
          "indexed": false,
          "internalType": "address",
          "name": "_artistAddress",
          "type": "address"
        },
        {
          "indexed": false,
          "internalType": "string",
          "name": "_newTokenURI",
          "type": "string"
        },
        {
          "indexed": false,
          "internalType": "string",
          "name": "name",
          "type": "string"
        },
        {
          "indexed": false,
          "internalType": "string",
          "name": "symbol",
          "type": "string"
        },
        {
          "indexed": false,
          "internalType": "uint256",
          "name": "mintPrice",
          "type": "uint256"
        }
      ],
      "name": "NewNFT",
      "type": "event"
    },
    {
      "anonymous": false,
      "inputs": [
        {
          "indexed": true,
          "internalType": "address",
          "name": "previousOwner",
          "type": "address"
        },
        {
          "indexed": true,
          "internalType": "address",
          "name": "newOwner",
          "type": "address"
        }
      ],
      "name": "OwnershipTransferred",
      "type": "event"
    },
    {
      "anonymous": false,
      "inputs": [
        {
          "indexed": true,
          "internalType": "bytes32",
          "name": "role",
          "type": "bytes32"
        },
        {
          "indexed": true,
          "internalType": "bytes32",
          "name": "previousAdminRole",
          "type": "bytes32"
        },
        {
          "indexed": true,
          "internalType": "bytes32",
          "name": "newAdminRole",
          "type": "bytes32"
        }
      ],
      "name": "RoleAdminChanged",
      "type": "event"
    },
    {
      "anonymous": false,
      "inputs": [
        {
          "indexed": true,
          "internalType": "bytes32",
          "name": "role",
          "type": "bytes32"
        },
        {
          "indexed": true,
          "internalType": "address",
          "name": "account",
          "type": "address"
        },
        {
          "indexed": true,
          "internalType": "address",
          "name": "sender",
          "type": "address"
        }
      ],
      "name": "RoleGranted",
      "type": "event"
    },
    {
      "anonymous": false,
      "inputs": [
        {
          "indexed": true,
          "internalType": "bytes32",
          "name": "role",
          "type": "bytes32"
        },
        {
          "indexed": true,
          "internalType": "address",
          "name": "account",
          "type": "address"
        },
        {
          "indexed": true,
          "internalType": "address",
          "name": "sender",
          "type": "address"
        }
      ],
      "name": "RoleRevoked",
      "type": "event"
    },
    {
      "inputs": [],
      "name": "ADMIN_ROLE",
      "outputs": [
        {
          "internalType": "bytes32",
          "name": "",
          "type": "bytes32"
        }
      ],
      "stateMutability": "view",
      "type": "function"
    },
    {
      "inputs": [],
      "name": "DEFAULT_ADMIN_ROLE",
      "outputs": [
        {
          "internalType": "bytes32",
          "name": "",
          "type": "bytes32"
        }
      ],
      "stateMutability": "view",
      "type": "function"
    },
    {
      "inputs": [
        {
          "internalType": "bytes32",
          "name": "role",
          "type": "bytes32"
        },
        {
          "internalType": "address",
          "name": "account",
          "type": "address"
        }
      ],
      "name": "addUserToRole",
      "outputs": [],
      "stateMutability": "nonpayable",
      "type": "function"
    },
    {
      "inputs": [
        {
          "internalType": "address",
          "name": "_artistAddress",
          "type": "address"
        },
        {
          "internalType": "string",
          "name": "_newTokenURI",
          "type": "string"
        },
        {
          "internalType": "string",
          "name": "name",
          "type": "string"
        },
        {
          "internalType": "string",
          "name": "symbol",
          "type": "string"
        },
        {
          "internalType": "uint256",
          "name": "mintPrice",
          "type": "uint256"
        },
        {
          "internalType": "uint256",
          "name": "_platformFeePercentage",
          "type": "uint256"
        },
        {
          "internalType": "uint256",
          "name": "_royaltyFeePercentage",
          "type": "uint256"
        }
      ],
      "name": "createNFT",
      "outputs": [],
      "stateMutability": "nonpayable",
      "type": "function"
    },
    {
      "inputs": [
        {
          "internalType": "address",
          "name": "creator",
          "type": "address"
        }
      ],
      "name": "getNFTsByCreator",
      "outputs": [
        {
          "internalType": "address[]",
          "name": "",
          "type": "address[]"
        }
      ],
      "stateMutability": "view",
      "type": "function"
    },
    {
      "inputs": [
        {
          "internalType": "bytes32",
          "name": "role",
          "type": "bytes32"
        }
      ],
      "name": "getRoleAdmin",
      "outputs": [
        {
          "internalType": "bytes32",
          "name": "",
          "type": "bytes32"
        }
      ],
      "stateMutability": "view",
      "type": "function"
    },
    {
      "inputs": [],
      "name": "getTokenCount",
      "outputs": [
        {
          "internalType": "uint256",
          "name": "",
          "type": "uint256"
        }
      ],
      "stateMutability": "view",
      "type": "function"
    },
    {
      "inputs": [
        {
          "internalType": "bytes32",
          "name": "role",
          "type": "bytes32"
        },
        {
          "internalType": "address",
          "name": "account",
          "type": "address"
        }
      ],
      "name": "grantRole",
      "outputs": [],
      "stateMutability": "nonpayable",
      "type": "function"
    },
    {
      "inputs": [
        {
          "internalType": "bytes32",
          "name": "role",
          "type": "bytes32"
        },
        {
          "internalType": "address",
          "name": "account",
          "type": "address"
        }
      ],
      "name": "hasRole",
      "outputs": [
        {
          "internalType": "bool",
          "name": "",
          "type": "bool"
        }
      ],
      "stateMutability": "view",
      "type": "function"
    },
    {
      "inputs": [
        {
          "internalType": "address",
          "name": "",
          "type": "address"
        },
        {
          "internalType": "uint256",
          "name": "",
          "type": "uint256"
        }
      ],
      "name": "nftsByCreator",
      "outputs": [
        {
          "internalType": "address",
          "name": "",
          "type": "address"
        }
      ],
      "stateMutability": "view",
      "type": "function"
    },
    {
      "inputs": [],
      "name": "owner",
      "outputs": [
        {
          "internalType": "address",
          "name": "",
          "type": "address"
        }
      ],
      "stateMutability": "view",
      "type": "function"
    },
    {
      "inputs": [],
      "name": "platformWalletAddress",
      "outputs": [
        {
          "internalType": "address",
          "name": "",
          "type": "address"
        }
      ],
      "stateMutability": "view",
      "type": "function"
    },
    {
      "inputs": [],
      "name": "renounceOwnership",
      "outputs": [],
      "stateMutability": "nonpayable",
      "type": "function"
    },
    {
      "inputs": [
        {
          "internalType": "bytes32",
          "name": "role",
          "type": "bytes32"
        },
        {
          "internalType": "address",
          "name": "account",
          "type": "address"
        }
      ],
      "name": "renounceRole",
      "outputs": [],
      "stateMutability": "nonpayable",
      "type": "function"
    },
    {
      "inputs": [
        {
          "internalType": "bytes32",
          "name": "role",
          "type": "bytes32"
        },
        {
          "internalType": "address",
          "name": "account",
          "type": "address"
        }
      ],
      "name": "revokeRole",
      "outputs": [],
      "stateMutability": "nonpayable",
      "type": "function"
    },
    {
      "inputs": [
        {
          "internalType": "bytes4",
          "name": "interfaceId",
          "type": "bytes4"
        }
      ],
      "name": "supportsInterface",
      "outputs": [
        {
          "internalType": "bool",
          "name": "",
          "type": "bool"
        }
      ],
      "stateMutability": "view",
      "type": "function"
    },
    {
      "inputs": [
        {
          "internalType": "address",
          "name": "newOwner",
          "type": "address"
        }
      ],
      "name": "transferOwnership",
      "outputs": [],
      "stateMutability": "nonpayable",
      "type": "function"
    }
  ],
  "bytecode": "0x60806040523480156200001157600080fd5b5060405162005f2538038062005f25833981810160405281019062000037919062000346565b620000576200004b620000b460201b60201c565b620000bc60201b60201c565b6200006c6000801b336200018060201b60201c565b80600360006101000a81548173ffffffffffffffffffffffffffffffffffffffff021916908373ffffffffffffffffffffffffffffffffffffffff1602179055505062000378565b600033905090565b60008060009054906101000a900473ffffffffffffffffffffffffffffffffffffffff169050816000806101000a81548173ffffffffffffffffffffffffffffffffffffffff021916908373ffffffffffffffffffffffffffffffffffffffff1602179055508173ffffffffffffffffffffffffffffffffffffffff168173ffffffffffffffffffffffffffffffffffffffff167f8be0079c531659141344cd1fd0a4f28419497f9722a3daafe3b4186f6b6457e060405160405180910390a35050565b6200019282826200027160201b60201c565b6200026d57600180600084815260200190815260200160002060000160008373ffffffffffffffffffffffffffffffffffffffff1673ffffffffffffffffffffffffffffffffffffffff16815260200190815260200160002060006101000a81548160ff02191690831515021790555062000212620000b460201b60201c565b73ffffffffffffffffffffffffffffffffffffffff168173ffffffffffffffffffffffffffffffffffffffff16837f2f8788117e7eff1d82e926ec794901d17c78024a50270940304540a733656f0d60405160405180910390a45b5050565b60006001600084815260200190815260200160002060000160008373ffffffffffffffffffffffffffffffffffffffff1673ffffffffffffffffffffffffffffffffffffffff16815260200190815260200160002060009054906101000a900460ff16905092915050565b600080fd5b600073ffffffffffffffffffffffffffffffffffffffff82169050919050565b60006200030e82620002e1565b9050919050565b620003208162000301565b81146200032c57600080fd5b50565b600081519050620003408162000315565b92915050565b6000602082840312156200035f576200035e620002dc565b5b60006200036f848285016200032f565b91505092915050565b615b9d80620003886000396000f3fe60806040523480156200001157600080fd5b5060043610620001245760003560e01c8063818d7f7b11620000b1578063a217fddf116200007b578063a217fddf14620002df578063c263bdaa1462000301578063d547741f1462000337578063f2fde38b1462000357578063ffa0382114620003775762000124565b8063818d7f7b14620002455780638da5cb5b146200026557806391d1485414620002875780639f2a637414620002bd5762000124565b80635b4975f111620000f35780635b4975f114620001d5578063715018a614620001f557806375b238fc146200020157806378a8956714620002235762000124565b806301ffc9a71462000129578063248a9ca3146200015f5780632f2ff15d146200019557806336568abe14620001b5575b600080fd5b62000147600480360381019062000141919062001124565b620003ad565b60405162000156919062001173565b60405180910390f35b6200017d6004803603810190620001779190620011cb565b6200042a565b6040516200018c91906200120e565b60405180910390f35b620001b36004803603810190620001ad919062001290565b6200044a565b005b620001d36004803603810190620001cd919062001290565b62000471565b005b620001f36004803603810190620001ed919062001474565b620004fb565b005b620001ff620006e6565b005b6200020b620006fe565b6040516200021a91906200120e565b60405180910390f35b6200022d62000722565b6040516200023c919062001595565b60405180910390f35b6200026360048036038101906200025d919062001290565b62000735565b005b6200026f6200074f565b6040516200027e9190620015c3565b60405180910390f35b620002a560048036038101906200029f919062001290565b62000778565b604051620002b4919062001173565b60405180910390f35b620002c7620007e3565b604051620002d69190620015c3565b60405180910390f35b620002e962000809565b604051620002f891906200120e565b60405180910390f35b6200031f6004803603810190620003199190620015e0565b62000810565b6040516200032e9190620015c3565b60405180910390f35b6200035560048036038101906200034f919062001290565b6200085f565b005b6200037560048036038101906200036f919062001627565b62000886565b005b6200039560048036038101906200038f919062001627565b62000910565b604051620003a4919062001727565b60405180910390f35b60007f7965db0b000000000000000000000000000000000000000000000000000000007bffffffffffffffffffffffffffffffffffffffffffffffffffffffff1916827bffffffffffffffffffffffffffffffffffffffffffffffffffffffff191614806200042357506200042282620009df565b5b9050919050565b600060016000838152602001908152602001600020600101549050919050565b62000455826200042a565b620004608162000a49565b6200046c838362000a61565b505050565b6200047b62000b46565b73ffffffffffffffffffffffffffffffffffffffff168173ffffffffffffffffffffffffffffffffffffffff1614620004eb576040517f08c379a0000000000000000000000000000000000000000000000000000000008152600401620004e290620017d2565b60405180910390fd5b620004f7828262000b4e565b5050565b620005277fa49807205ce4d355092ef5a8a18f56e8913cf4a201fbe287825b095693c217753362000778565b62000569576040517f08c379a0000000000000000000000000000000000000000000000000000000008152600401620005609062001844565b60405180910390fd5b62000575600262000c35565b600081888888888888600360009054906101000a900473ffffffffffffffffffffffffffffffffffffffff16604051620005af90620010a5565b620005c2989796959493929190620018de565b604051809103906000f080158015620005df573d6000803e3d6000fd5b5090508073ffffffffffffffffffffffffffffffffffffffff167fda9269f5e62f5e060d3e6ba7f7405114c7fe7bb1bac48e4924024b1fd5b61e2d838a8a8a8a8a604051620006349695949392919062001981565b60405180910390a2600460008973ffffffffffffffffffffffffffffffffffffffff1673ffffffffffffffffffffffffffffffffffffffff168152602001908152602001600020819080600181540180825580915050600190039060005260206000200160009091909190916101000a81548173ffffffffffffffffffffffffffffffffffffffff021916908373ffffffffffffffffffffffffffffffffffffffff1602179055505050505050505050565b620006f062000c4b565b620006fc600062000cd0565b565b7fa49807205ce4d355092ef5a8a18f56e8913cf4a201fbe287825b095693c2177581565b600062000730600262000d94565b905090565b6200073f62000c4b565b6200074b82826200044a565b5050565b60008060009054906101000a900473ffffffffffffffffffffffffffffffffffffffff16905090565b60006001600084815260200190815260200160002060000160008373ffffffffffffffffffffffffffffffffffffffff1673ffffffffffffffffffffffffffffffffffffffff16815260200190815260200160002060009054906101000a900460ff16905092915050565b600360009054906101000a900473ffffffffffffffffffffffffffffffffffffffff1681565b6000801b81565b600460205281600052604060002081815481106200082d57600080fd5b906000526020600020016000915091509054906101000a900473ffffffffffffffffffffffffffffffffffffffff1681565b6200086a826200042a565b620008758162000a49565b62000881838362000b4e565b505050565b6200089062000c4b565b600073ffffffffffffffffffffffffffffffffffffffff168173ffffffffffffffffffffffffffffffffffffffff160362000902576040517f08c379a0000000000000000000000000000000000000000000000000000000008152600401620008f99062001a79565b60405180910390fd5b6200090d8162000cd0565b50565b6060600460008373ffffffffffffffffffffffffffffffffffffffff1673ffffffffffffffffffffffffffffffffffffffff168152602001908152602001600020805480602002602001604051908101604052809291908181526020018280548015620009d357602002820191906000526020600020905b8160009054906101000a900473ffffffffffffffffffffffffffffffffffffffff1673ffffffffffffffffffffffffffffffffffffffff168152602001906001019080831162000988575b50505050509050919050565b60007f01ffc9a7000000000000000000000000000000000000000000000000000000007bffffffffffffffffffffffffffffffffffffffffffffffffffffffff1916827bffffffffffffffffffffffffffffffffffffffffffffffffffffffff1916149050919050565b62000a5e8162000a5862000b46565b62000da2565b50565b62000a6d828262000778565b62000b4257600180600084815260200190815260200160002060000160008373ffffffffffffffffffffffffffffffffffffffff1673ffffffffffffffffffffffffffffffffffffffff16815260200190815260200160002060006101000a81548160ff02191690831515021790555062000ae762000b46565b73ffffffffffffffffffffffffffffffffffffffff168173ffffffffffffffffffffffffffffffffffffffff16837f2f8788117e7eff1d82e926ec794901d17c78024a50270940304540a733656f0d60405160405180910390a45b5050565b600033905090565b62000b5a828262000778565b1562000c315760006001600084815260200190815260200160002060000160008373ffffffffffffffffffffffffffffffffffffffff1673ffffffffffffffffffffffffffffffffffffffff16815260200190815260200160002060006101000a81548160ff02191690831515021790555062000bd662000b46565b73ffffffffffffffffffffffffffffffffffffffff168173ffffffffffffffffffffffffffffffffffffffff16837ff6391f5c32d9c69d2a47ea670b442974b53935d1edc7fd64eb21e047a839171b60405160405180910390a45b5050565b6001816000016000828254019250508190555050565b62000c5562000b46565b73ffffffffffffffffffffffffffffffffffffffff1662000c756200074f565b73ffffffffffffffffffffffffffffffffffffffff161462000cce576040517f08c379a000000000000000000000000000000000000000000000000000000000815260040162000cc59062001aeb565b60405180910390fd5b565b60008060009054906101000a900473ffffffffffffffffffffffffffffffffffffffff169050816000806101000a81548173ffffffffffffffffffffffffffffffffffffffff021916908373ffffffffffffffffffffffffffffffffffffffff1602179055508173ffffffffffffffffffffffffffffffffffffffff168173ffffffffffffffffffffffffffffffffffffffff167f8be0079c531659141344cd1fd0a4f28419497f9722a3daafe3b4186f6b6457e060405160405180910390a35050565b600081600001549050919050565b62000dae828262000778565b62000e465762000dd68173ffffffffffffffffffffffffffffffffffffffff16601462000e4a565b62000de68360001c602062000e4a565b60405160200162000df992919062001bef565b6040516020818303038152906040526040517f08c379a000000000000000000000000000000000000000000000000000000000815260040162000e3d919062001c31565b60405180910390fd5b5050565b60606000600283600262000e5f919062001c84565b62000e6b919062001ccf565b67ffffffffffffffff81111562000e875762000e86620012f2565b5b6040519080825280601f01601f19166020018201604052801562000eba5781602001600182028036833780820191505090505b5090507f30000000000000000000000000000000000000000000000000000000000000008160008151811062000ef55762000ef462001d0a565b5b60200101907effffffffffffffffffffffffffffffffffffffffffffffffffffffffffffff1916908160001a9053507f78000000000000000000000000000000000000000000000000000000000000008160018151811062000f5c5762000f5b62001d0a565b5b60200101907effffffffffffffffffffffffffffffffffffffffffffffffffffffffffffff1916908160001a9053506000600184600262000f9e919062001c84565b62000faa919062001ccf565b90505b600181111562001054577f3031323334353637383961626364656600000000000000000000000000000000600f86166010811062000ff05762000fef62001d0a565b5b1a60f81b8282815181106200100a576200100962001d0a565b5b60200101907effffffffffffffffffffffffffffffffffffffffffffffffffffffffffffff1916908160001a905350600485901c9450806200104c9062001d39565b905062000fad565b50600084146200109b576040517f08c379a0000000000000000000000000000000000000000000000000000000008152600401620010929062001db7565b60405180910390fd5b8091505092915050565b613d8e8062001dda83390190565b6000604051905090565b600080fd5b600080fd5b60007fffffffff0000000000000000000000000000000000000000000000000000000082169050919050565b620010fe81620010c7565b81146200110a57600080fd5b50565b6000813590506200111e81620010f3565b92915050565b6000602082840312156200113d576200113c620010bd565b5b60006200114d848285016200110d565b91505092915050565b60008115159050919050565b6200116d8162001156565b82525050565b60006020820190506200118a600083018462001162565b92915050565b6000819050919050565b620011a58162001190565b8114620011b157600080fd5b50565b600081359050620011c5816200119a565b92915050565b600060208284031215620011e457620011e3620010bd565b5b6000620011f484828501620011b4565b91505092915050565b620012088162001190565b82525050565b6000602082019050620012256000830184620011fd565b92915050565b600073ffffffffffffffffffffffffffffffffffffffff82169050919050565b600062001258826200122b565b9050919050565b6200126a816200124b565b81146200127657600080fd5b50565b6000813590506200128a816200125f565b92915050565b60008060408385031215620012aa57620012a9620010bd565b5b6000620012ba85828601620011b4565b9250506020620012cd8582860162001279565b9150509250929050565b600080fd5b600080fd5b6000601f19601f8301169050919050565b7f4e487b7100000000000000000000000000000000000000000000000000000000600052604160045260246000fd5b6200132c82620012e1565b810181811067ffffffffffffffff821117156200134e576200134d620012f2565b5b80604052505050565b600062001363620010b3565b905062001371828262001321565b919050565b600067ffffffffffffffff821115620013945762001393620012f2565b5b6200139f82620012e1565b9050602081019050919050565b82818337600083830152505050565b6000620013d2620013cc8462001376565b62001357565b905082815260208101848484011115620013f157620013f0620012dc565b5b620013fe848285620013ac565b509392505050565b600082601f8301126200141e576200141d620012d7565b5b813562001430848260208601620013bb565b91505092915050565b6000819050919050565b6200144e8162001439565b81146200145a57600080fd5b50565b6000813590506200146e8162001443565b92915050565b600080600080600080600060e0888a031215620014965762001495620010bd565b5b6000620014a68a828b0162001279565b975050602088013567ffffffffffffffff811115620014ca57620014c9620010c2565b5b620014d88a828b0162001406565b965050604088013567ffffffffffffffff811115620014fc57620014fb620010c2565b5b6200150a8a828b0162001406565b955050606088013567ffffffffffffffff8111156200152e576200152d620010c2565b5b6200153c8a828b0162001406565b94505060806200154f8a828b016200145d565b93505060a0620015628a828b016200145d565b92505060c0620015758a828b016200145d565b91505092959891949750929550565b6200158f8162001439565b82525050565b6000602082019050620015ac600083018462001584565b92915050565b620015bd816200124b565b82525050565b6000602082019050620015da6000830184620015b2565b92915050565b60008060408385031215620015fa57620015f9620010bd565b5b60006200160a8582860162001279565b92505060206200161d858286016200145d565b9150509250929050565b60006020828403121562001640576200163f620010bd565b5b6000620016508482850162001279565b91505092915050565b600081519050919050565b600082825260208201905092915050565b6000819050602082019050919050565b62001690816200124b565b82525050565b6000620016a4838362001685565b60208301905092915050565b6000602082019050919050565b6000620016ca8262001659565b620016d6818562001664565b9350620016e38362001675565b8060005b838110156200171a578151620016fe888262001696565b97506200170b83620016b0565b925050600181019050620016e7565b5085935050505092915050565b60006020820190508181036000830152620017438184620016bd565b905092915050565b600082825260208201905092915050565b7f416363657373436f6e74726f6c3a2063616e206f6e6c792072656e6f756e636560008201527f20726f6c657320666f722073656c660000000000000000000000000000000000602082015250565b6000620017ba602f836200174b565b9150620017c7826200175c565b604082019050919050565b60006020820190508181036000830152620017ed81620017ab565b9050919050565b7f43616c6c6572206973206e6f7420616e2061646d696e00000000000000000000600082015250565b60006200182c6016836200174b565b91506200183982620017f4565b602082019050919050565b600060208201905081810360008301526200185f816200181d565b9050919050565b600081519050919050565b60005b838110156200189157808201518184015260208101905062001874565b60008484015250505050565b6000620018aa8262001866565b620018b681856200174b565b9350620018c881856020860162001871565b620018d381620012e1565b840191505092915050565b600061010082019050620018f6600083018b62001584565b62001905602083018a620015b2565b81810360408301526200191981896200189d565b905081810360608301526200192f81886200189d565b905081810360808301526200194581876200189d565b90506200195660a083018662001584565b6200196560c083018562001584565b6200197460e0830184620015b2565b9998505050505050505050565b600060c08201905062001998600083018962001584565b620019a76020830188620015b2565b8181036040830152620019bb81876200189d565b90508181036060830152620019d181866200189d565b90508181036080830152620019e781856200189d565b9050620019f860a083018462001584565b979650505050505050565b7f4f776e61626c653a206e6577206f776e657220697320746865207a65726f206160008201527f6464726573730000000000000000000000000000000000000000000000000000602082015250565b600062001a616026836200174b565b915062001a6e8262001a03565b604082019050919050565b6000602082019050818103600083015262001a948162001a52565b9050919050565b7f4f776e61626c653a2063616c6c6572206973206e6f7420746865206f776e6572600082015250565b600062001ad36020836200174b565b915062001ae08262001a9b565b602082019050919050565b6000602082019050818103600083015262001b068162001ac4565b9050919050565b600081905092915050565b7f416363657373436f6e74726f6c3a206163636f756e7420000000000000000000600082015250565b600062001b5060178362001b0d565b915062001b5d8262001b18565b601782019050919050565b600062001b758262001866565b62001b81818562001b0d565b935062001b9381856020860162001871565b80840191505092915050565b7f206973206d697373696e6720726f6c6520000000000000000000000000000000600082015250565b600062001bd760118362001b0d565b915062001be48262001b9f565b601182019050919050565b600062001bfc8262001b41565b915062001c0a828562001b68565b915062001c178262001bc8565b915062001c25828462001b68565b91508190509392505050565b6000602082019050818103600083015262001c4d81846200189d565b905092915050565b7f4e487b7100000000000000000000000000000000000000000000000000000000600052601160045260246000fd5b600062001c918262001439565b915062001c9e8362001439565b925082820262001cae8162001439565b9150828204841483151762001cc85762001cc762001c55565b5b5092915050565b600062001cdc8262001439565b915062001ce98362001439565b925082820190508082111562001d045762001d0362001c55565b5b92915050565b7f4e487b7100000000000000000000000000000000000000000000000000000000600052603260045260246000fd5b600062001d468262001439565b91506000820362001d5c5762001d5b62001c55565b5b600182039050919050565b7f537472696e67733a20686578206c656e67746820696e73756666696369656e74600082015250565b600062001d9f6020836200174b565b915062001dac8262001d67565b602082019050919050565b6000602082019050818103600083015262001dd28162001d90565b905091905056fe60806040523480156200001157600080fd5b5060405162003d8e38038062003d8e833981810160405281019062000037919062000437565b848481600090816200004a91906200079e565b5080600190816200005c91906200079e565b5050506200007f620000736200013660201b60201c565b6200013e60201b60201c565b85600c90816200009091906200079e565b5086600d60006101000a81548173ffffffffffffffffffffffffffffffffffffffff021916908373ffffffffffffffffffffffffffffffffffffffff1602179055508260098190555081600a8190555080600e60006101000a81548173ffffffffffffffffffffffffffffffffffffffff021916908373ffffffffffffffffffffffffffffffffffffffff16021790555087600b81905550505050505050505062000885565b600033905090565b6000600760009054906101000a900473ffffffffffffffffffffffffffffffffffffffff16905081600760006101000a81548173ffffffffffffffffffffffffffffffffffffffff021916908373ffffffffffffffffffffffffffffffffffffffff1602179055508173ffffffffffffffffffffffffffffffffffffffff168173ffffffffffffffffffffffffffffffffffffffff167f8be0079c531659141344cd1fd0a4f28419497f9722a3daafe3b4186f6b6457e060405160405180910390a35050565b6000604051905090565b600080fd5b600080fd5b6000819050919050565b6200022d8162000218565b81146200023957600080fd5b50565b6000815190506200024d8162000222565b92915050565b600073ffffffffffffffffffffffffffffffffffffffff82169050919050565b6000620002808262000253565b9050919050565b620002928162000273565b81146200029e57600080fd5b50565b600081519050620002b28162000287565b92915050565b600080fd5b600080fd5b6000601f19601f8301169050919050565b7f4e487b7100000000000000000000000000000000000000000000000000000000600052604160045260246000fd5b6200030d82620002c2565b810181811067ffffffffffffffff821117156200032f576200032e620002d3565b5b80604052505050565b60006200034462000204565b905062000352828262000302565b919050565b600067ffffffffffffffff821115620003755762000374620002d3565b5b6200038082620002c2565b9050602081019050919050565b60005b83811015620003ad57808201518184015260208101905062000390565b60008484015250505050565b6000620003d0620003ca8462000357565b62000338565b905082815260208101848484011115620003ef57620003ee620002bd565b5b620003fc8482856200038d565b509392505050565b600082601f8301126200041c576200041b620002b8565b5b81516200042e848260208601620003b9565b91505092915050565b600080600080600080600080610100898b0312156200045b576200045a6200020e565b5b60006200046b8b828c016200023c565b98505060206200047e8b828c01620002a1565b975050604089015167ffffffffffffffff811115620004a257620004a162000213565b5b620004b08b828c0162000404565b965050606089015167ffffffffffffffff811115620004d457620004d362000213565b5b620004e28b828c0162000404565b955050608089015167ffffffffffffffff81111562000506576200050562000213565b5b620005148b828c0162000404565b94505060a0620005278b828c016200023c565b93505060c06200053a8b828c016200023c565b92505060e06200054d8b828c01620002a1565b9150509295985092959890939650565b600081519050919050565b7f4e487b7100000000000000000000000000000000000000000000000000000000600052602260045260246000fd5b60006002820490506001821680620005b057607f821691505b602082108103620005c657620005c562000568565b5b50919050565b60008190508160005260206000209050919050565b60006020601f8301049050919050565b600082821b905092915050565b600060088302620006307fffffffffffffffffffffffffffffffffffffffffffffffffffffffffffffffff82620005f1565b6200063c8683620005f1565b95508019841693508086168417925050509392505050565b6000819050919050565b60006200067f62000679620006738462000218565b62000654565b62000218565b9050919050565b6000819050919050565b6200069b836200065e565b620006b3620006aa8262000686565b848454620005fe565b825550505050565b600090565b620006ca620006bb565b620006d781848462000690565b505050565b5b81811015620006ff57620006f3600082620006c0565b600181019050620006dd565b5050565b601f8211156200074e576200071881620005cc565b6200072384620005e1565b8101602085101562000733578190505b6200074b6200074285620005e1565b830182620006dc565b50505b505050565b600082821c905092915050565b6000620007736000198460080262000753565b1980831691505092915050565b60006200078e838362000760565b9150826002028217905092915050565b620007a9826200055d565b67ffffffffffffffff811115620007c557620007c4620002d3565b5b620007d1825462000597565b620007de82828562000703565b600060209050601f83116001811462000816576000841562000801578287015190505b6200080d858262000780565b8655506200087d565b601f1984166200082686620005cc565b60005b82811015620008505784890151825560018201915060208501945060208101905062000829565b868310156200087057848901516200086c601f89168262000760565b8355505b6001600288020188555050505b505050505050565b6134f980620008956000396000f3fe60806040526004361061014b5760003560e01c8063715018a6116100b6578063b88d4fde1161006f578063b88d4fde1461045d578063bb244e4014610486578063c87b56dd146104b1578063d6da2ccf146104ee578063e985e9c514610519578063f2fde38b146105565761014b565b8063715018a6146103735780638da5cb5b1461038a57806393dd6446146103b557806395d89b41146103e0578063a22cb4651461040b578063aa0b5988146104345761014b565b806323b872dd1161010857806323b872dd146102745780633ccfd60b1461029d57806340c10f19146102b457806342842e0e146102d05780636352211e146102f957806370a08231146103365761014b565b806301ffc9a7146101505780630387da421461018d57806306fdde03146101b8578063081812fc146101e3578063095ea7b3146102205780630dccc9ad14610249575b600080fd5b34801561015c57600080fd5b50610177600480360381019061017291906120d5565b61057f565b604051610184919061211d565b60405180910390f35b34801561019957600080fd5b506101a2610661565b6040516101af9190612151565b60405180910390f35b3480156101c457600080fd5b506101cd610667565b6040516101da91906121fc565b60405180910390f35b3480156101ef57600080fd5b5061020a6004803603810190610205919061224a565b6106f9565b60405161021791906122b8565b60405180910390f35b34801561022c57600080fd5b50610247600480360381019061024291906122ff565b61073f565b005b34801561025557600080fd5b5061025e610856565b60405161026b91906121fc565b60405180910390f35b34801561028057600080fd5b5061029b6004803603810190610296919061233f565b6108e4565b005b3480156102a957600080fd5b506102b2610944565b005b6102ce60048036038101906102c991906122ff565b610aad565b005b3480156102dc57600080fd5b506102f760048036038101906102f2919061233f565b610cf3565b005b34801561030557600080fd5b50610320600480360381019061031b919061224a565b610d13565b60405161032d91906122b8565b60405180910390f35b34801561034257600080fd5b5061035d60048036038101906103589190612392565b610dc4565b60405161036a9190612151565b60405180910390f35b34801561037f57600080fd5b50610388610e7b565b005b34801561039657600080fd5b5061039f610e8f565b6040516103ac91906122b8565b60405180910390f35b3480156103c157600080fd5b506103ca610eb9565b6040516103d791906122b8565b60405180910390f35b3480156103ec57600080fd5b506103f5610edf565b60405161040291906121fc565b60405180910390f35b34801561041757600080fd5b50610432600480360381019061042d91906123eb565b610f71565b005b34801561044057600080fd5b5061045b6004803603810190610456919061224a565b610f87565b005b34801561046957600080fd5b50610484600480360381019061047f9190612560565b611021565b005b34801561049257600080fd5b5061049b611083565b6040516104a891906122b8565b60405180910390f35b3480156104bd57600080fd5b506104d860048036038101906104d3919061224a565b6110a9565b6040516104e591906121fc565b60405180910390f35b3480156104fa57600080fd5b5061050361113d565b6040516105109190612151565b60405180910390f35b34801561052557600080fd5b50610540600480360381019061053b91906125e3565b611143565b60405161054d919061211d565b60405180910390f35b34801561056257600080fd5b5061057d60048036038101906105789190612392565b6111d7565b005b60007f80ac58cd000000000000000000000000000000000000000000000000000000007bffffffffffffffffffffffffffffffffffffffffffffffffffffffff1916827bffffffffffffffffffffffffffffffffffffffffffffffffffffffff1916148061064a57507f5b5e139f000000000000000000000000000000000000000000000000000000007bffffffffffffffffffffffffffffffffffffffffffffffffffffffff1916827bffffffffffffffffffffffffffffffffffffffffffffffffffffffff1916145b8061065a57506106598261125a565b5b9050919050565b60095481565b60606000805461067690612652565b80601f01602080910402602001604051908101604052809291908181526020018280546106a290612652565b80156106ef5780601f106106c4576101008083540402835291602001916106ef565b820191906000526020600020905b8154815290600101906020018083116106d257829003601f168201915b5050505050905090565b6000610704826112c4565b6004600083815260200190815260200160002060009054906101000a900473ffffffffffffffffffffffffffffffffffffffff169050919050565b600061074a82610d13565b90508073ffffffffffffffffffffffffffffffffffffffff168373ffffffffffffffffffffffffffffffffffffffff16036107ba576040517f08c379a00000000000000000000000000000000000000000000000000000000081526004016107b1906126f5565b60405180910390fd5b8073ffffffffffffffffffffffffffffffffffffffff166107d961130f565b73ffffffffffffffffffffffffffffffffffffffff16148061080857506108078161080261130f565b611143565b5b610847576040517f08c379a000000000000000000000000000000000000000000000000000000000815260040161083e90612787565b60405180910390fd5b6108518383611317565b505050565b600c805461086390612652565b80601f016020809104026020016040519081016040528092919081815260200182805461088f90612652565b80156108dc5780601f106108b1576101008083540402835291602001916108dc565b820191906000526020600020905b8154815290600101906020018083116108bf57829003601f168201915b505050505081565b6108f56108ef61130f565b826113d0565b610934576040517f08c379a000000000000000000000000000000000000000000000000000000000815260040161092b90612819565b60405180910390fd5b61093f838383611465565b505050565b600d60009054906101000a900473ffffffffffffffffffffffffffffffffffffffff1673ffffffffffffffffffffffffffffffffffffffff163373ffffffffffffffffffffffffffffffffffffffff16146109d4576040517f08c379a00000000000000000000000000000000000000000000000000000000081526004016109cb906128ab565b60405180910390fd5b600d60009054906101000a900473ffffffffffffffffffffffffffffffffffffffff1673ffffffffffffffffffffffffffffffffffffffff163373ffffffffffffffffffffffffffffffffffffffff1614610a64576040517f08c379a0000000000000000000000000000000000000000000000000000000008152600401610a5b90612917565b60405180910390fd5b3373ffffffffffffffffffffffffffffffffffffffff166108fc479081150290604051600060405180830381858888f19350505050158015610aaa573d6000803e3d6000fd5b50565b60008111610af0576040517f08c379a0000000000000000000000000000000000000000000000000000000008152600401610ae790612983565b60405180910390fd5b60095481610afe91906129d2565b341015610b40576040517f08c379a0000000000000000000000000000000000000000000000000000000008152600401610b3790612a60565b60405180910390fd5b60006064600a5434610b5291906129d2565b610b5c9190612aaf565b9050600e60009054906101000a900473ffffffffffffffffffffffffffffffffffffffff1673ffffffffffffffffffffffffffffffffffffffff166108fc829081150290604051600060405180830381858888f19350505050158015610bc6573d6000803e3d6000fd5b5060005b82811015610ced57610bdc60086116cb565b6000610be860086116e1565b9050610bf485826116ef565b808573ffffffffffffffffffffffffffffffffffffffff167fe7cd4ce7f2a465edc730269a1305e8a48bad821e8fb7e152ec413829c01a53c4610c36846110a9565b604051610c4391906121fc565b60405180910390a3610cdf81600c8054610c5c90612652565b80601f0160208091040260200160405190810160405280929190818152602001828054610c8890612652565b8015610cd55780601f10610caa57610100808354040283529160200191610cd5565b820191906000526020600020905b815481529060010190602001808311610cb857829003601f168201915b505050505061170d565b508080600101915050610bca565b50505050565b610d0e83838360405180602001604052806000815250611021565b505050565b6000806002600084815260200190815260200160002060009054906101000a900473ffffffffffffffffffffffffffffffffffffffff169050600073ffffffffffffffffffffffffffffffffffffffff168173ffffffffffffffffffffffffffffffffffffffff1603610dbb576040517f08c379a0000000000000000000000000000000000000000000000000000000008152600401610db290612b2c565b60405180910390fd5b80915050919050565b60008073ffffffffffffffffffffffffffffffffffffffff168273ffffffffffffffffffffffffffffffffffffffff1603610e34576040517f08c379a0000000000000000000000000000000000000000000000000000000008152600401610e2b90612bbe565b60405180910390fd5b600360008373ffffffffffffffffffffffffffffffffffffffff1673ffffffffffffffffffffffffffffffffffffffff168152602001908152602001600020549050919050565b610e8361177a565b610e8d60006117f8565b565b6000600760009054906101000a900473ffffffffffffffffffffffffffffffffffffffff16905090565b600d60009054906101000a900473ffffffffffffffffffffffffffffffffffffffff1681565b606060018054610eee90612652565b80601f0160208091040260200160405190810160405280929190818152602001828054610f1a90612652565b8015610f675780601f10610f3c57610100808354040283529160200191610f67565b820191906000526020600020905b815481529060010190602001808311610f4a57829003601f168201915b5050505050905090565b610f83610f7c61130f565b83836118be565b5050565b600e60009054906101000a900473ffffffffffffffffffffffffffffffffffffffff1673ffffffffffffffffffffffffffffffffffffffff163373ffffffffffffffffffffffffffffffffffffffff1614611017576040517f08c379a000000000000000000000000000000000000000000000000000000000815260040161100e90612c50565b60405180910390fd5b80600a8190555050565b61103261102c61130f565b836113d0565b611071576040517f08c379a000000000000000000000000000000000000000000000000000000000815260040161106890612819565b60405180910390fd5b61107d84848484611a2a565b50505050565b600e60009054906101000a900473ffffffffffffffffffffffffffffffffffffffff1681565b6060600c80546110b890612652565b80601f01602080910402602001604051908101604052809291908181526020018280546110e490612652565b80156111315780601f1061110657610100808354040283529160200191611131565b820191906000526020600020905b81548152906001019060200180831161111457829003601f168201915b50505050509050919050565b600b5481565b6000600560008473ffffffffffffffffffffffffffffffffffffffff1673ffffffffffffffffffffffffffffffffffffffff16815260200190815260200160002060008373ffffffffffffffffffffffffffffffffffffffff1673ffffffffffffffffffffffffffffffffffffffff16815260200190815260200160002060009054906101000a900460ff16905092915050565b6111df61177a565b600073ffffffffffffffffffffffffffffffffffffffff168173ffffffffffffffffffffffffffffffffffffffff160361124e576040517f08c379a000000000000000000000000000000000000000000000000000000000815260040161124590612ce2565b60405180910390fd5b611257816117f8565b50565b60007f01ffc9a7000000000000000000000000000000000000000000000000000000007bffffffffffffffffffffffffffffffffffffffffffffffffffffffff1916827bffffffffffffffffffffffffffffffffffffffffffffffffffffffff1916149050919050565b6112cd81611a86565b61130c576040517f08c379a000000000000000000000000000000000000000000000000000000000815260040161130390612b2c565b60405180910390fd5b50565b600033905090565b816004600083815260200190815260200160002060006101000a81548173ffffffffffffffffffffffffffffffffffffffff021916908373ffffffffffffffffffffffffffffffffffffffff160217905550808273ffffffffffffffffffffffffffffffffffffffff1661138a83610d13565b73ffffffffffffffffffffffffffffffffffffffff167f8c5be1e5ebec7d5bd14f71427d1e84f3dd0314c0f7b2291e5b200ac8c7c3b92560405160405180910390a45050565b6000806113dc83610d13565b90508073ffffffffffffffffffffffffffffffffffffffff168473ffffffffffffffffffffffffffffffffffffffff16148061141e575061141d8185611143565b5b8061145c57508373ffffffffffffffffffffffffffffffffffffffff16611444846106f9565b73ffffffffffffffffffffffffffffffffffffffff16145b91505092915050565b8273ffffffffffffffffffffffffffffffffffffffff1661148582610d13565b73ffffffffffffffffffffffffffffffffffffffff16146114db576040517f08c379a00000000000000000000000000000000000000000000000000000000081526004016114d290612d74565b60405180910390fd5b600073ffffffffffffffffffffffffffffffffffffffff168273ffffffffffffffffffffffffffffffffffffffff160361154a576040517f08c379a000000000000000000000000000000000000000000000000000000000815260040161154190612e06565b60405180910390fd5b611555838383611af2565b611560600082611317565b6001600360008573ffffffffffffffffffffffffffffffffffffffff1673ffffffffffffffffffffffffffffffffffffffff16815260200190815260200160002060008282546115b09190612e26565b925050819055506001600360008473ffffffffffffffffffffffffffffffffffffffff1673ffffffffffffffffffffffffffffffffffffffff16815260200190815260200160002060008282546116079190612e5a565b92505081905550816002600083815260200190815260200160002060006101000a81548173ffffffffffffffffffffffffffffffffffffffff021916908373ffffffffffffffffffffffffffffffffffffffff160217905550808273ffffffffffffffffffffffffffffffffffffffff168473ffffffffffffffffffffffffffffffffffffffff167fddf252ad1be2c89b69c2b068fc378daa952ba7f163c4a11628f55a4df523b3ef60405160405180910390a46116c6838383611c81565b505050565b6001816000016000828254019250508190555050565b600081600001549050919050565b611709828260405180602001604052806000815250611c86565b5050565b61171682611a86565b611755576040517f08c379a000000000000000000000000000000000000000000000000000000000815260040161174c90612f00565b60405180910390fd5b8060066000848152602001908152602001600020908161177591906130cc565b505050565b61178261130f565b73ffffffffffffffffffffffffffffffffffffffff166117a0610e8f565b73ffffffffffffffffffffffffffffffffffffffff16146117f6576040517f08c379a00000000000000000000000000000000000000000000000000000000081526004016117ed906131ea565b60405180910390fd5b565b6000600760009054906101000a900473ffffffffffffffffffffffffffffffffffffffff16905081600760006101000a81548173ffffffffffffffffffffffffffffffffffffffff021916908373ffffffffffffffffffffffffffffffffffffffff1602179055508173ffffffffffffffffffffffffffffffffffffffff168173ffffffffffffffffffffffffffffffffffffffff167f8be0079c531659141344cd1fd0a4f28419497f9722a3daafe3b4186f6b6457e060405160405180910390a35050565b8173ffffffffffffffffffffffffffffffffffffffff168373ffffffffffffffffffffffffffffffffffffffff160361192c576040517f08c379a000000000000000000000000000000000000000000000000000000000815260040161192390613256565b60405180910390fd5b80600560008573ffffffffffffffffffffffffffffffffffffffff1673ffffffffffffffffffffffffffffffffffffffff16815260200190815260200160002060008473ffffffffffffffffffffffffffffffffffffffff1673ffffffffffffffffffffffffffffffffffffffff16815260200190815260200160002060006101000a81548160ff0219169083151502179055508173ffffffffffffffffffffffffffffffffffffffff168373ffffffffffffffffffffffffffffffffffffffff167f17307eab39ab6107e8899845ad3d59bd9653f200f220920489ca2b5937696c3183604051611a1d919061211d565b60405180910390a3505050565b611a35848484611465565b611a4184848484611ce1565b611a80576040517f08c379a0000000000000000000000000000000000000000000000000000000008152600401611a77906132e8565b60405180910390fd5b50505050565b60008073ffffffffffffffffffffffffffffffffffffffff166002600084815260200190815260200160002060009054906101000a900473ffffffffffffffffffffffffffffffffffffffff1673ffffffffffffffffffffffffffffffffffffffff1614159050919050565b600073ffffffffffffffffffffffffffffffffffffffff168373ffffffffffffffffffffffffffffffffffffffff1614158015611b5c5750600073ffffffffffffffffffffffffffffffffffffffff168273ffffffffffffffffffffffffffffffffffffffff1614155b15611c715760006064600b5434611b7391906129d2565b611b7d9190612aaf565b9050600d60009054906101000a900473ffffffffffffffffffffffffffffffffffffffff1673ffffffffffffffffffffffffffffffffffffffff166108fc829081150290604051600060405180830381858888f19350505050158015611be7573d6000803e3d6000fd5b508273ffffffffffffffffffffffffffffffffffffffff16600d60009054906101000a900473ffffffffffffffffffffffffffffffffffffffff1673ffffffffffffffffffffffffffffffffffffffff167fbdf0502df1b76d58521b2a929580ca100c2121e0ae38717b260d9cfa44c23b3283604051611c679190612151565b60405180910390a3505b611c7c838383611e68565b505050565b505050565b611c908383611e6d565b611c9d6000848484611ce1565b611cdc576040517f08c379a0000000000000000000000000000000000000000000000000000000008152600401611cd3906132e8565b60405180910390fd5b505050565b6000611d028473ffffffffffffffffffffffffffffffffffffffff16612046565b15611e5b578373ffffffffffffffffffffffffffffffffffffffff1663150b7a02611d2b61130f565b8786866040518563ffffffff1660e01b8152600401611d4d949392919061335d565b6020604051808303816000875af1925050508015611d8957506040513d601f19601f82011682018060405250810190611d8691906133be565b60015b611e0b573d8060008114611db9576040519150601f19603f3d011682016040523d82523d6000602084013e611dbe565b606091505b506000815103611e03576040517f08c379a0000000000000000000000000000000000000000000000000000000008152600401611dfa906132e8565b60405180910390fd5b805181602001fd5b63150b7a0260e01b7bffffffffffffffffffffffffffffffffffffffffffffffffffffffff1916817bffffffffffffffffffffffffffffffffffffffffffffffffffffffff191614915050611e60565b600190505b949350505050565b505050565b600073ffffffffffffffffffffffffffffffffffffffff168273ffffffffffffffffffffffffffffffffffffffff1603611edc576040517f08c379a0000000000000000000000000000000000000000000000000000000008152600401611ed390613437565b60405180910390fd5b611ee581611a86565b15611f25576040517f08c379a0000000000000000000000000000000000000000000000000000000008152600401611f1c906134a3565b60405180910390fd5b611f3160008383611af2565b6001600360008473ffffffffffffffffffffffffffffffffffffffff1673ffffffffffffffffffffffffffffffffffffffff1681526020019081526020016000206000828254611f819190612e5a565b92505081905550816002600083815260200190815260200160002060006101000a81548173ffffffffffffffffffffffffffffffffffffffff021916908373ffffffffffffffffffffffffffffffffffffffff160217905550808273ffffffffffffffffffffffffffffffffffffffff16600073ffffffffffffffffffffffffffffffffffffffff167fddf252ad1be2c89b69c2b068fc378daa952ba7f163c4a11628f55a4df523b3ef60405160405180910390a461204260008383611c81565b5050565b6000808273ffffffffffffffffffffffffffffffffffffffff163b119050919050565b6000604051905090565b600080fd5b600080fd5b60007fffffffff0000000000000000000000000000000000000000000000000000000082169050919050565b6120b28161207d565b81146120bd57600080fd5b50565b6000813590506120cf816120a9565b92915050565b6000602082840312156120eb576120ea612073565b5b60006120f9848285016120c0565b91505092915050565b60008115159050919050565b61211781612102565b82525050565b6000602082019050612132600083018461210e565b92915050565b6000819050919050565b61214b81612138565b82525050565b60006020820190506121666000830184612142565b92915050565b600081519050919050565b600082825260208201905092915050565b60005b838110156121a657808201518184015260208101905061218b565b60008484015250505050565b6000601f19601f8301169050919050565b60006121ce8261216c565b6121d88185612177565b93506121e8818560208601612188565b6121f1816121b2565b840191505092915050565b6000602082019050818103600083015261221681846121c3565b905092915050565b61222781612138565b811461223257600080fd5b50565b6000813590506122448161221e565b92915050565b6000602082840312156122605761225f612073565b5b600061226e84828501612235565b91505092915050565b600073ffffffffffffffffffffffffffffffffffffffff82169050919050565b60006122a282612277565b9050919050565b6122b281612297565b82525050565b60006020820190506122cd60008301846122a9565b92915050565b6122dc81612297565b81146122e757600080fd5b50565b6000813590506122f9816122d3565b92915050565b6000806040838503121561231657612315612073565b5b6000612324858286016122ea565b925050602061233585828601612235565b9150509250929050565b60008060006060848603121561235857612357612073565b5b6000612366868287016122ea565b9350506020612377868287016122ea565b925050604061238886828701612235565b9150509250925092565b6000602082840312156123a8576123a7612073565b5b60006123b6848285016122ea565b91505092915050565b6123c881612102565b81146123d357600080fd5b50565b6000813590506123e5816123bf565b92915050565b6000806040838503121561240257612401612073565b5b6000612410858286016122ea565b9250506020612421858286016123d6565b9150509250929050565b600080fd5b600080fd5b7f4e487b7100000000000000000000000000000000000000000000000000000000600052604160045260246000fd5b61246d826121b2565b810181811067ffffffffffffffff8211171561248c5761248b612435565b5b80604052505050565b600061249f612069565b90506124ab8282612464565b919050565b600067ffffffffffffffff8211156124cb576124ca612435565b5b6124d4826121b2565b9050602081019050919050565b82818337600083830152505050565b60006125036124fe846124b0565b612495565b90508281526020810184848401111561251f5761251e612430565b5b61252a8482856124e1565b509392505050565b600082601f8301126125475761254661242b565b5b81356125578482602086016124f0565b91505092915050565b6000806000806080858703121561257a57612579612073565b5b6000612588878288016122ea565b9450506020612599878288016122ea565b93505060406125aa87828801612235565b925050606085013567ffffffffffffffff8111156125cb576125ca612078565b5b6125d787828801612532565b91505092959194509250565b600080604083850312156125fa576125f9612073565b5b6000612608858286016122ea565b9250506020612619858286016122ea565b9150509250929050565b7f4e487b7100000000000000000000000000000000000000000000000000000000600052602260045260246000fd5b6000600282049050600182168061266a57607f821691505b60208210810361267d5761267c612623565b5b50919050565b7f4552433732313a20617070726f76616c20746f2063757272656e74206f776e6560008201527f7200000000000000000000000000000000000000000000000000000000000000602082015250565b60006126df602183612177565b91506126ea82612683565b604082019050919050565b6000602082019050818103600083015261270e816126d2565b9050919050565b7f4552433732313a20617070726f76652063616c6c6572206973206e6f7420746f60008201527f6b656e206f776e6572206e6f7220617070726f76656420666f7220616c6c0000602082015250565b6000612771603e83612177565b915061277c82612715565b604082019050919050565b600060208201905081810360008301526127a081612764565b9050919050565b7f4552433732313a2063616c6c6572206973206e6f7420746f6b656e206f776e6560008201527f72206e6f7220617070726f766564000000000000000000000000000000000000602082015250565b6000612803602e83612177565b915061280e826127a7565b604082019050919050565b60006020820190508181036000830152612832816127f6565b9050919050565b7f4f6e6c79206172746973742063616e2063616c6c20746869732066756e63746960008201527f6f6e000000000000000000000000000000000000000000000000000000000000602082015250565b6000612895602283612177565b91506128a082612839565b604082019050919050565b600060208201905081810360008301526128c481612888565b9050919050565b7f4f6e6c7920746865206172746973742063616e20776974686472617700000000600082015250565b6000612901601c83612177565b915061290c826128cb565b602082019050919050565b60006020820190508181036000830152612930816128f4565b9050919050565b7f5175616e74697479206d7573742062652067726561746572207468616e203000600082015250565b600061296d601f83612177565b915061297882612937565b602082019050919050565b6000602082019050818103600083015261299c81612960565b9050919050565b7f4e487b7100000000000000000000000000000000000000000000000000000000600052601160045260246000fd5b60006129dd82612138565b91506129e883612138565b92508282026129f681612138565b91508282048414831517612a0d57612a0c6129a3565b5b5092915050565b7f496e73756666696369656e74204554482073656e740000000000000000000000600082015250565b6000612a4a601583612177565b9150612a5582612a14565b602082019050919050565b60006020820190508181036000830152612a7981612a3d565b9050919050565b7f4e487b7100000000000000000000000000000000000000000000000000000000600052601260045260246000fd5b6000612aba82612138565b9150612ac583612138565b925082612ad557612ad4612a80565b5b828204905092915050565b7f4552433732313a20696e76616c696420746f6b656e2049440000000000000000600082015250565b6000612b16601883612177565b9150612b2182612ae0565b602082019050919050565b60006020820190508181036000830152612b4581612b09565b9050919050565b7f4552433732313a2061646472657373207a65726f206973206e6f74206120766160008201527f6c6964206f776e65720000000000000000000000000000000000000000000000602082015250565b6000612ba8602983612177565b9150612bb382612b4c565b604082019050919050565b60006020820190508181036000830152612bd781612b9b565b9050919050565b7f4f6e6c7920706c6174666f726d2061646d696e2077616c6c65742063616e206360008201527f616c6c20746869732066756e6374696f6e000000000000000000000000000000602082015250565b6000612c3a603183612177565b9150612c4582612bde565b604082019050919050565b60006020820190508181036000830152612c6981612c2d565b9050919050565b7f4f776e61626c653a206e6577206f776e657220697320746865207a65726f206160008201527f6464726573730000000000000000000000000000000000000000000000000000602082015250565b6000612ccc602683612177565b9150612cd782612c70565b604082019050919050565b60006020820190508181036000830152612cfb81612cbf565b9050919050565b7f4552433732313a207472616e736665722066726f6d20696e636f72726563742060008201527f6f776e6572000000000000000000000000000000000000000000000000000000602082015250565b6000612d5e602583612177565b9150612d6982612d02565b604082019050919050565b60006020820190508181036000830152612d8d81612d51565b9050919050565b7f4552433732313a207472616e7366657220746f20746865207a65726f2061646460008201527f7265737300000000000000000000000000000000000000000000000000000000602082015250565b6000612df0602483612177565b9150612dfb82612d94565b604082019050919050565b60006020820190508181036000830152612e1f81612de3565b9050919050565b6000612e3182612138565b9150612e3c83612138565b9250828203905081811115612e5457612e536129a3565b5b92915050565b6000612e6582612138565b9150612e7083612138565b9250828201905080821115612e8857612e876129a3565b5b92915050565b7f45524337323155524953746f726167653a2055524920736574206f66206e6f6e60008201527f6578697374656e7420746f6b656e000000000000000000000000000000000000602082015250565b6000612eea602e83612177565b9150612ef582612e8e565b604082019050919050565b60006020820190508181036000830152612f1981612edd565b9050919050565b60008190508160005260206000209050919050565b60006020601f8301049050919050565b600082821b905092915050565b600060088302612f827fffffffffffffffffffffffffffffffffffffffffffffffffffffffffffffffff82612f45565b612f8c8683612f45565b95508019841693508086168417925050509392505050565b6000819050919050565b6000612fc9612fc4612fbf84612138565b612fa4565b612138565b9050919050565b6000819050919050565b612fe383612fae565b612ff7612fef82612fd0565b848454612f52565b825550505050565b600090565b61300c612fff565b613017818484612fda565b505050565b5b8181101561303b57613030600082613004565b60018101905061301d565b5050565b601f8211156130805761305181612f20565b61305a84612f35565b81016020851015613069578190505b61307d61307585612f35565b83018261301c565b50505b505050565b600082821c905092915050565b60006130a360001984600802613085565b1980831691505092915050565b60006130bc8383613092565b9150826002028217905092915050565b6130d58261216c565b67ffffffffffffffff8111156130ee576130ed612435565b5b6130f88254612652565b61310382828561303f565b600060209050601f8311600181146131365760008415613124578287015190505b61312e85826130b0565b865550613196565b601f19841661314486612f20565b60005b8281101561316c57848901518255600182019150602085019450602081019050613147565b868310156131895784890151613185601f891682613092565b8355505b6001600288020188555050505b505050505050565b7f4f776e61626c653a2063616c6c6572206973206e6f7420746865206f776e6572600082015250565b60006131d4602083612177565b91506131df8261319e565b602082019050919050565b60006020820190508181036000830152613203816131c7565b9050919050565b7f4552433732313a20617070726f766520746f2063616c6c657200000000000000600082015250565b6000613240601983612177565b915061324b8261320a565b602082019050919050565b6000602082019050818103600083015261326f81613233565b9050919050565b7f4552433732313a207472616e7366657220746f206e6f6e20455243373231526560008201527f63656976657220696d706c656d656e7465720000000000000000000000000000602082015250565b60006132d2603283612177565b91506132dd82613276565b604082019050919050565b60006020820190508181036000830152613301816132c5565b9050919050565b600081519050919050565b600082825260208201905092915050565b600061332f82613308565b6133398185613313565b9350613349818560208601612188565b613352816121b2565b840191505092915050565b600060808201905061337260008301876122a9565b61337f60208301866122a9565b61338c6040830185612142565b818103606083015261339e8184613324565b905095945050505050565b6000815190506133b8816120a9565b92915050565b6000602082840312156133d4576133d3612073565b5b60006133e2848285016133a9565b91505092915050565b7f4552433732313a206d696e7420746f20746865207a65726f2061646472657373600082015250565b6000613421602083612177565b915061342c826133eb565b602082019050919050565b6000602082019050818103600083015261345081613414565b9050919050565b7f4552433732313a20746f6b656e20616c7265616479206d696e74656400000000600082015250565b600061348d601c83612177565b915061349882613457565b602082019050919050565b600060208201905081810360008301526134bc81613480565b905091905056fea26469706673582212205a8f41ecbe1700e732a2bec233a055d9588588b86a6df84a7068045b2d39fce864736f6c63430008180033a26469706673582212202a989672d02e9f23b68ddf4dc1fde3700871f064247b5f60b6045540b1c20f3d64736f6c63430008180033",
  "linkReferences": {},
  "deployedLinkReferences": {}
}