{
  "_format": "hh-sol-artifact-1",
  "contractName": "DBeatsFactory",
  "sourceName": "contracts/Factory.sol",
  "abi": [
    {
      "inputs": [],
      "stateMutability": "nonpayable",
      "type": "constructor"
    },
    {
      "anonymous": false,
      "inputs": [
        {
          "indexed": true,
          "internalType": "address",
          "name": "nftAddress",
          "type": "address"
        },
        {
          "indexed": false,
          "internalType": "address",
          "name": "_initialOwner",
          "type": "address"
        },
        {
          "indexed": false,
          "internalType": "address",
          "name": "_artistAddress",
          "type": "address"
        },
        {
          "indexed": false,
          "internalType": "string",
          "name": "_newTokenURI",
          "type": "string"
        },
        {
          "indexed": false,
          "internalType": "string",
          "name": "name",
          "type": "string"
        },
        {
          "indexed": false,
          "internalType": "string",
          "name": "symbol",
          "type": "string"
        },
        {
          "indexed": false,
          "internalType": "uint256",
          "name": "mintPrice",
          "type": "uint256"
        }
      ],
      "name": "NewNFT",
      "type": "event"
    },
    {
      "anonymous": false,
      "inputs": [
        {
          "indexed": true,
          "internalType": "address",
          "name": "previousOwner",
          "type": "address"
        },
        {
          "indexed": true,
          "internalType": "address",
          "name": "newOwner",
          "type": "address"
        }
      ],
      "name": "OwnershipTransferred",
      "type": "event"
    },
    {
      "anonymous": false,
      "inputs": [
        {
          "indexed": true,
          "internalType": "bytes32",
          "name": "role",
          "type": "bytes32"
        },
        {
          "indexed": true,
          "internalType": "bytes32",
          "name": "previousAdminRole",
          "type": "bytes32"
        },
        {
          "indexed": true,
          "internalType": "bytes32",
          "name": "newAdminRole",
          "type": "bytes32"
        }
      ],
      "name": "RoleAdminChanged",
      "type": "event"
    },
    {
      "anonymous": false,
      "inputs": [
        {
          "indexed": true,
          "internalType": "bytes32",
          "name": "role",
          "type": "bytes32"
        },
        {
          "indexed": true,
          "internalType": "address",
          "name": "account",
          "type": "address"
        },
        {
          "indexed": true,
          "internalType": "address",
          "name": "sender",
          "type": "address"
        }
      ],
      "name": "RoleGranted",
      "type": "event"
    },
    {
      "anonymous": false,
      "inputs": [
        {
          "indexed": true,
          "internalType": "bytes32",
          "name": "role",
          "type": "bytes32"
        },
        {
          "indexed": true,
          "internalType": "address",
          "name": "account",
          "type": "address"
        },
        {
          "indexed": true,
          "internalType": "address",
          "name": "sender",
          "type": "address"
        }
      ],
      "name": "RoleRevoked",
      "type": "event"
    },
    {
      "inputs": [],
      "name": "ADMIN_ROLE",
      "outputs": [
        {
          "internalType": "bytes32",
          "name": "",
          "type": "bytes32"
        }
      ],
      "stateMutability": "view",
      "type": "function"
    },
    {
      "inputs": [],
      "name": "DEFAULT_ADMIN_ROLE",
      "outputs": [
        {
          "internalType": "bytes32",
          "name": "",
          "type": "bytes32"
        }
      ],
      "stateMutability": "view",
      "type": "function"
    },
    {
      "inputs": [
        {
          "internalType": "bytes32",
          "name": "role",
          "type": "bytes32"
        },
        {
          "internalType": "address",
          "name": "account",
          "type": "address"
        }
      ],
      "name": "addUserToRole",
      "outputs": [],
      "stateMutability": "nonpayable",
      "type": "function"
    },
    {
      "inputs": [
        {
          "internalType": "address",
          "name": "_initialOwner",
          "type": "address"
        },
        {
          "internalType": "address",
          "name": "_artistAddress",
          "type": "address"
        },
        {
          "internalType": "string",
          "name": "_newTokenURI",
          "type": "string"
        },
        {
          "internalType": "string",
          "name": "name",
          "type": "string"
        },
        {
          "internalType": "string",
          "name": "symbol",
          "type": "string"
        },
        {
          "internalType": "uint256",
          "name": "mintPrice",
          "type": "uint256"
        }
      ],
      "name": "createNFT",
      "outputs": [],
      "stateMutability": "nonpayable",
      "type": "function"
    },
    {
      "inputs": [
        {
          "internalType": "address",
          "name": "creator",
          "type": "address"
        }
      ],
      "name": "getNFTsByCreator",
      "outputs": [
        {
          "internalType": "address[]",
          "name": "",
          "type": "address[]"
        }
      ],
      "stateMutability": "view",
      "type": "function"
    },
    {
      "inputs": [
        {
          "internalType": "bytes32",
          "name": "role",
          "type": "bytes32"
        }
      ],
      "name": "getRoleAdmin",
      "outputs": [
        {
          "internalType": "bytes32",
          "name": "",
          "type": "bytes32"
        }
      ],
      "stateMutability": "view",
      "type": "function"
    },
    {
      "inputs": [
        {
          "internalType": "bytes32",
          "name": "role",
          "type": "bytes32"
        },
        {
          "internalType": "address",
          "name": "account",
          "type": "address"
        }
      ],
      "name": "grantRole",
      "outputs": [],
      "stateMutability": "nonpayable",
      "type": "function"
    },
    {
      "inputs": [
        {
          "internalType": "bytes32",
          "name": "role",
          "type": "bytes32"
        },
        {
          "internalType": "address",
          "name": "account",
          "type": "address"
        }
      ],
      "name": "hasRole",
      "outputs": [
        {
          "internalType": "bool",
          "name": "",
          "type": "bool"
        }
      ],
      "stateMutability": "view",
      "type": "function"
    },
    {
      "inputs": [
        {
          "internalType": "address",
          "name": "",
          "type": "address"
        },
        {
          "internalType": "uint256",
          "name": "",
          "type": "uint256"
        }
      ],
      "name": "nftsByCreator",
      "outputs": [
        {
          "internalType": "address",
          "name": "",
          "type": "address"
        }
      ],
      "stateMutability": "view",
      "type": "function"
    },
    {
      "inputs": [],
      "name": "owner",
      "outputs": [
        {
          "internalType": "address",
          "name": "",
          "type": "address"
        }
      ],
      "stateMutability": "view",
      "type": "function"
    },
    {
      "inputs": [],
      "name": "renounceOwnership",
      "outputs": [],
      "stateMutability": "nonpayable",
      "type": "function"
    },
    {
      "inputs": [
        {
          "internalType": "bytes32",
          "name": "role",
          "type": "bytes32"
        },
        {
          "internalType": "address",
          "name": "account",
          "type": "address"
        }
      ],
      "name": "renounceRole",
      "outputs": [],
      "stateMutability": "nonpayable",
      "type": "function"
    },
    {
      "inputs": [
        {
          "internalType": "bytes32",
          "name": "role",
          "type": "bytes32"
        },
        {
          "internalType": "address",
          "name": "account",
          "type": "address"
        }
      ],
      "name": "revokeRole",
      "outputs": [],
      "stateMutability": "nonpayable",
      "type": "function"
    },
    {
      "inputs": [
        {
          "internalType": "bytes4",
          "name": "interfaceId",
          "type": "bytes4"
        }
      ],
      "name": "supportsInterface",
      "outputs": [
        {
          "internalType": "bool",
          "name": "",
          "type": "bool"
        }
      ],
      "stateMutability": "view",
      "type": "function"
    },
    {
      "inputs": [],
      "name": "tokenCounter",
      "outputs": [
        {
          "internalType": "uint256",
          "name": "",
          "type": "uint256"
        }
      ],
      "stateMutability": "view",
      "type": "function"
    },
    {
      "inputs": [
        {
          "internalType": "address",
          "name": "newOwner",
          "type": "address"
        }
      ],
      "name": "transferOwnership",
      "outputs": [],
      "stateMutability": "nonpayable",
      "type": "function"
    }
  ],
  "bytecode": "0x60806040523480156200001157600080fd5b5062000032620000266200004d60201b60201c565b6200005560201b60201c565b620000476000801b336200011960201b60201c565b62000275565b600033905090565b60008060009054906101000a900473ffffffffffffffffffffffffffffffffffffffff169050816000806101000a81548173ffffffffffffffffffffffffffffffffffffffff021916908373ffffffffffffffffffffffffffffffffffffffff1602179055508173ffffffffffffffffffffffffffffffffffffffff168173ffffffffffffffffffffffffffffffffffffffff167f8be0079c531659141344cd1fd0a4f28419497f9722a3daafe3b4186f6b6457e060405160405180910390a35050565b6200012b82826200020a60201b60201c565b6200020657600180600084815260200190815260200160002060000160008373ffffffffffffffffffffffffffffffffffffffff1673ffffffffffffffffffffffffffffffffffffffff16815260200190815260200160002060006101000a81548160ff021916908315150217905550620001ab6200004d60201b60201c565b73ffffffffffffffffffffffffffffffffffffffff168173ffffffffffffffffffffffffffffffffffffffff16837f2f8788117e7eff1d82e926ec794901d17c78024a50270940304540a733656f0d60405160405180910390a45b5050565b60006001600084815260200190815260200160002060000160008373ffffffffffffffffffffffffffffffffffffffff1673ffffffffffffffffffffffffffffffffffffffff16815260200190815260200160002060009054906101000a900460ff16905092915050565b61527c80620002856000396000f3fe60806040523480156200001157600080fd5b5060043610620001185760003560e01c80638da5cb5b11620000a5578063d082e381116200006f578063d082e38114620002e7578063d547741f1462000309578063f2fde38b1462000329578063ffa0382114620003495762000118565b80638da5cb5b146200023757806391d148541462000259578063a217fddf146200028f578063c263bdaa14620002b15762000118565b806336568abe11620000e757806336568abe14620001c9578063715018a614620001e957806375b238fc14620001f5578063818d7f7b14620002175762000118565b806301ffc9a7146200011d578063248a9ca3146200015357806326465ee814620001895780632f2ff15d14620001a9575b600080fd5b6200013b600480360381019062000135919062001086565b6200037f565b6040516200014a9190620010d5565b60405180910390f35b6200017160048036038101906200016b91906200112d565b620003fc565b60405162000180919062001170565b60405180910390f35b620001a76004803603810190620001a191906200138f565b6200041c565b005b620001c76004803603810190620001c1919062001488565b620005ee565b005b620001e76004803603810190620001e1919062001488565b62000615565b005b620001f36200069f565b005b620001ff620006b7565b6040516200020e919062001170565b60405180910390f35b6200023560048036038101906200022f919062001488565b620006db565b005b62000241620006f5565b604051620002509190620014e0565b60405180910390f35b62000277600480360381019062000271919062001488565b6200071e565b604051620002869190620010d5565b60405180910390f35b6200029962000789565b604051620002a8919062001170565b60405180910390f35b620002cf6004803603810190620002c99190620014fd565b62000790565b604051620002de9190620014e0565b60405180910390f35b620002f1620007df565b60405162000300919062001555565b60405180910390f35b62000327600480360381019062000321919062001488565b620007e5565b005b62000347600480360381019062000341919062001572565b6200080c565b005b62000367600480360381019062000361919062001572565b62000896565b60405162000376919062001672565b60405180910390f35b60007f7965db0b000000000000000000000000000000000000000000000000000000007bffffffffffffffffffffffffffffffffffffffffffffffffffffffff1916827bffffffffffffffffffffffffffffffffffffffffffffffffffffffff19161480620003f55750620003f48262000965565b5b9050919050565b600060016000838152602001908152602001600020600101549050919050565b620004487fa49807205ce4d355092ef5a8a18f56e8913cf4a201fbe287825b095693c21775336200071e565b6200048a576040517f08c379a00000000000000000000000000000000000000000000000000000000081526004016200048190620016f7565b60405180910390fd5b600260008154809291906200049f9062001748565b91905055506000868686868686604051620004ba9062001007565b620004cb969594939291906200180d565b604051809103906000f080158015620004e8573d6000803e3d6000fd5b5090508073ffffffffffffffffffffffffffffffffffffffff167f484c162c098f18dea0c7331e0398ac9c03ae4c18926c1fece5fb1bd1fdbd25c98888888888886040516200053d969594939291906200180d565b60405180910390a2600360008773ffffffffffffffffffffffffffffffffffffffff1673ffffffffffffffffffffffffffffffffffffffff168152602001908152602001600020819080600181540180825580915050600190039060005260206000200160009091909190916101000a81548173ffffffffffffffffffffffffffffffffffffffff021916908373ffffffffffffffffffffffffffffffffffffffff16021790555050505050505050565b620005f982620003fc565b6200060481620009cf565b620006108383620009e7565b505050565b6200061f62000acc565b73ffffffffffffffffffffffffffffffffffffffff168173ffffffffffffffffffffffffffffffffffffffff16146200068f576040517f08c379a0000000000000000000000000000000000000000000000000000000008152600401620006869062001905565b60405180910390fd5b6200069b828262000ad4565b5050565b620006a962000bbb565b620006b5600062000c40565b565b7fa49807205ce4d355092ef5a8a18f56e8913cf4a201fbe287825b095693c2177581565b620006e562000bbb565b620006f18282620005ee565b5050565b60008060009054906101000a900473ffffffffffffffffffffffffffffffffffffffff16905090565b60006001600084815260200190815260200160002060000160008373ffffffffffffffffffffffffffffffffffffffff1673ffffffffffffffffffffffffffffffffffffffff16815260200190815260200160002060009054906101000a900460ff16905092915050565b6000801b81565b60036020528160005260406000208181548110620007ad57600080fd5b906000526020600020016000915091509054906101000a900473ffffffffffffffffffffffffffffffffffffffff1681565b60025481565b620007f082620003fc565b620007fb81620009cf565b62000807838362000ad4565b505050565b6200081662000bbb565b600073ffffffffffffffffffffffffffffffffffffffff168173ffffffffffffffffffffffffffffffffffffffff160362000888576040517f08c379a00000000000000000000000000000000000000000000000000000000081526004016200087f906200199d565b60405180910390fd5b620008938162000c40565b50565b6060600360008373ffffffffffffffffffffffffffffffffffffffff1673ffffffffffffffffffffffffffffffffffffffff1681526020019081526020016000208054806020026020016040519081016040528092919081815260200182805480156200095957602002820191906000526020600020905b8160009054906101000a900473ffffffffffffffffffffffffffffffffffffffff1673ffffffffffffffffffffffffffffffffffffffff16815260200190600101908083116200090e575b50505050509050919050565b60007f01ffc9a7000000000000000000000000000000000000000000000000000000007bffffffffffffffffffffffffffffffffffffffffffffffffffffffff1916827bffffffffffffffffffffffffffffffffffffffffffffffffffffffff1916149050919050565b620009e481620009de62000acc565b62000d04565b50565b620009f382826200071e565b62000ac857600180600084815260200190815260200160002060000160008373ffffffffffffffffffffffffffffffffffffffff1673ffffffffffffffffffffffffffffffffffffffff16815260200190815260200160002060006101000a81548160ff02191690831515021790555062000a6d62000acc565b73ffffffffffffffffffffffffffffffffffffffff168173ffffffffffffffffffffffffffffffffffffffff16837f2f8788117e7eff1d82e926ec794901d17c78024a50270940304540a733656f0d60405160405180910390a45b5050565b600033905090565b62000ae082826200071e565b1562000bb75760006001600084815260200190815260200160002060000160008373ffffffffffffffffffffffffffffffffffffffff1673ffffffffffffffffffffffffffffffffffffffff16815260200190815260200160002060006101000a81548160ff02191690831515021790555062000b5c62000acc565b73ffffffffffffffffffffffffffffffffffffffff168173ffffffffffffffffffffffffffffffffffffffff16837ff6391f5c32d9c69d2a47ea670b442974b53935d1edc7fd64eb21e047a839171b60405160405180910390a45b5050565b62000bc562000acc565b73ffffffffffffffffffffffffffffffffffffffff1662000be5620006f5565b73ffffffffffffffffffffffffffffffffffffffff161462000c3e576040517f08c379a000000000000000000000000000000000000000000000000000000000815260040162000c359062001a0f565b60405180910390fd5b565b60008060009054906101000a900473ffffffffffffffffffffffffffffffffffffffff169050816000806101000a81548173ffffffffffffffffffffffffffffffffffffffff021916908373ffffffffffffffffffffffffffffffffffffffff1602179055508173ffffffffffffffffffffffffffffffffffffffff168173ffffffffffffffffffffffffffffffffffffffff167f8be0079c531659141344cd1fd0a4f28419497f9722a3daafe3b4186f6b6457e060405160405180910390a35050565b62000d1082826200071e565b62000da85762000d388173ffffffffffffffffffffffffffffffffffffffff16601462000dac565b62000d488360001c602062000dac565b60405160200162000d5b92919062001b13565b6040516020818303038152906040526040517f08c379a000000000000000000000000000000000000000000000000000000000815260040162000d9f919062001b55565b60405180910390fd5b5050565b60606000600283600262000dc1919062001b79565b62000dcd919062001bc4565b67ffffffffffffffff81111562000de95762000de86200120d565b5b6040519080825280601f01601f19166020018201604052801562000e1c5781602001600182028036833780820191505090505b5090507f30000000000000000000000000000000000000000000000000000000000000008160008151811062000e575762000e5662001bff565b5b60200101907effffffffffffffffffffffffffffffffffffffffffffffffffffffffffffff1916908160001a9053507f78000000000000000000000000000000000000000000000000000000000000008160018151811062000ebe5762000ebd62001bff565b5b60200101907effffffffffffffffffffffffffffffffffffffffffffffffffffffffffffff1916908160001a9053506000600184600262000f00919062001b79565b62000f0c919062001bc4565b90505b600181111562000fb6577f3031323334353637383961626364656600000000000000000000000000000000600f86166010811062000f525762000f5162001bff565b5b1a60f81b82828151811062000f6c5762000f6b62001bff565b5b60200101907effffffffffffffffffffffffffffffffffffffffffffffffffffffffffffff1916908160001a905350600485901c94508062000fae9062001c2e565b905062000f0f565b506000841462000ffd576040517f08c379a000000000000000000000000000000000000000000000000000000000815260040162000ff49062001cac565b60405180910390fd5b8091505092915050565b6135788062001ccf83390190565b6000604051905090565b600080fd5b600080fd5b60007fffffffff0000000000000000000000000000000000000000000000000000000082169050919050565b620010608162001029565b81146200106c57600080fd5b50565b600081359050620010808162001055565b92915050565b6000602082840312156200109f576200109e6200101f565b5b6000620010af848285016200106f565b91505092915050565b60008115159050919050565b620010cf81620010b8565b82525050565b6000602082019050620010ec6000830184620010c4565b92915050565b6000819050919050565b6200110781620010f2565b81146200111357600080fd5b50565b6000813590506200112781620010fc565b92915050565b6000602082840312156200114657620011456200101f565b5b6000620011568482850162001116565b91505092915050565b6200116a81620010f2565b82525050565b60006020820190506200118760008301846200115f565b92915050565b600073ffffffffffffffffffffffffffffffffffffffff82169050919050565b6000620011ba826200118d565b9050919050565b620011cc81620011ad565b8114620011d857600080fd5b50565b600081359050620011ec81620011c1565b92915050565b600080fd5b600080fd5b6000601f19601f8301169050919050565b7f4e487b7100000000000000000000000000000000000000000000000000000000600052604160045260246000fd5b6200124782620011fc565b810181811067ffffffffffffffff821117156200126957620012686200120d565b5b80604052505050565b60006200127e62001015565b90506200128c82826200123c565b919050565b600067ffffffffffffffff821115620012af57620012ae6200120d565b5b620012ba82620011fc565b9050602081019050919050565b82818337600083830152505050565b6000620012ed620012e78462001291565b62001272565b9050828152602081018484840111156200130c576200130b620011f7565b5b62001319848285620012c7565b509392505050565b600082601f830112620013395762001338620011f2565b5b81356200134b848260208601620012d6565b91505092915050565b6000819050919050565b620013698162001354565b81146200137557600080fd5b50565b60008135905062001389816200135e565b92915050565b60008060008060008060c08789031215620013af57620013ae6200101f565b5b6000620013bf89828a01620011db565b9650506020620013d289828a01620011db565b955050604087013567ffffffffffffffff811115620013f657620013f562001024565b5b6200140489828a0162001321565b945050606087013567ffffffffffffffff81111562001428576200142762001024565b5b6200143689828a0162001321565b935050608087013567ffffffffffffffff8111156200145a576200145962001024565b5b6200146889828a0162001321565b92505060a06200147b89828a0162001378565b9150509295509295509295565b60008060408385031215620014a257620014a16200101f565b5b6000620014b28582860162001116565b9250506020620014c585828601620011db565b9150509250929050565b620014da81620011ad565b82525050565b6000602082019050620014f76000830184620014cf565b92915050565b600080604083850312156200151757620015166200101f565b5b60006200152785828601620011db565b92505060206200153a8582860162001378565b9150509250929050565b6200154f8162001354565b82525050565b60006020820190506200156c600083018462001544565b92915050565b6000602082840312156200158b576200158a6200101f565b5b60006200159b84828501620011db565b91505092915050565b600081519050919050565b600082825260208201905092915050565b6000819050602082019050919050565b620015db81620011ad565b82525050565b6000620015ef8383620015d0565b60208301905092915050565b6000602082019050919050565b60006200161582620015a4565b620016218185620015af565b93506200162e83620015c0565b8060005b8381101562001665578151620016498882620015e1565b97506200165683620015fb565b92505060018101905062001632565b5085935050505092915050565b600060208201905081810360008301526200168e818462001608565b905092915050565b600082825260208201905092915050565b7f43616c6c6572206973206e6f7420616e2061646d696e00000000000000000000600082015250565b6000620016df60168362001696565b9150620016ec82620016a7565b602082019050919050565b600060208201905081810360008301526200171281620016d0565b9050919050565b7f4e487b7100000000000000000000000000000000000000000000000000000000600052601160045260246000fd5b6000620017558262001354565b91507fffffffffffffffffffffffffffffffffffffffffffffffffffffffffffffffff82036200178a576200178962001719565b5b600182019050919050565b600081519050919050565b60005b83811015620017c0578082015181840152602081019050620017a3565b60008484015250505050565b6000620017d98262001795565b620017e5818562001696565b9350620017f7818560208601620017a0565b6200180281620011fc565b840191505092915050565b600060c082019050620018246000830189620014cf565b620018336020830188620014cf565b8181036040830152620018478187620017cc565b905081810360608301526200185d8186620017cc565b90508181036080830152620018738185620017cc565b90506200188460a083018462001544565b979650505050505050565b7f416363657373436f6e74726f6c3a2063616e206f6e6c792072656e6f756e636560008201527f20726f6c657320666f722073656c660000000000000000000000000000000000602082015250565b6000620018ed602f8362001696565b9150620018fa826200188f565b604082019050919050565b600060208201905081810360008301526200192081620018de565b9050919050565b7f4f776e61626c653a206e6577206f776e657220697320746865207a65726f206160008201527f6464726573730000000000000000000000000000000000000000000000000000602082015250565b60006200198560268362001696565b9150620019928262001927565b604082019050919050565b60006020820190508181036000830152620019b88162001976565b9050919050565b7f4f776e61626c653a2063616c6c6572206973206e6f7420746865206f776e6572600082015250565b6000620019f760208362001696565b915062001a0482620019bf565b602082019050919050565b6000602082019050818103600083015262001a2a81620019e8565b9050919050565b600081905092915050565b7f416363657373436f6e74726f6c3a206163636f756e7420000000000000000000600082015250565b600062001a7460178362001a31565b915062001a818262001a3c565b601782019050919050565b600062001a998262001795565b62001aa5818562001a31565b935062001ab7818560208601620017a0565b80840191505092915050565b7f206973206d697373696e6720726f6c6520000000000000000000000000000000600082015250565b600062001afb60118362001a31565b915062001b088262001ac3565b601182019050919050565b600062001b208262001a65565b915062001b2e828562001a8c565b915062001b3b8262001aec565b915062001b49828462001a8c565b91508190509392505050565b6000602082019050818103600083015262001b718184620017cc565b905092915050565b600062001b868262001354565b915062001b938362001354565b925082820262001ba38162001354565b9150828204841483151762001bbd5762001bbc62001719565b5b5092915050565b600062001bd18262001354565b915062001bde8362001354565b925082820190508082111562001bf95762001bf862001719565b5b92915050565b7f4e487b7100000000000000000000000000000000000000000000000000000000600052603260045260246000fd5b600062001c3b8262001354565b91506000820362001c515762001c5062001719565b5b600182039050919050565b7f537472696e67733a20686578206c656e67746820696e73756666696369656e74600082015250565b600062001c9460208362001696565b915062001ca18262001c5c565b602082019050919050565b6000602082019050818103600083015262001cc78162001c85565b905091905056fe608060405260006009553480156200001657600080fd5b50604051620035783803806200357883398181016040528101906200003c9190620003eb565b828281600090816200004f919062000725565b50806001908162000061919062000725565b5050506200008462000078620000ea60201b60201c565b620000f260201b60201c565b83600a908162000095919062000725565b5084600b60006101000a81548173ffffffffffffffffffffffffffffffffffffffff021916908373ffffffffffffffffffffffffffffffffffffffff16021790555080600c819055505050505050506200080c565b600033905090565b6000600760009054906101000a900473ffffffffffffffffffffffffffffffffffffffff16905081600760006101000a81548173ffffffffffffffffffffffffffffffffffffffff021916908373ffffffffffffffffffffffffffffffffffffffff1602179055508173ffffffffffffffffffffffffffffffffffffffff168173ffffffffffffffffffffffffffffffffffffffff167f8be0079c531659141344cd1fd0a4f28419497f9722a3daafe3b4186f6b6457e060405160405180910390a35050565b6000604051905090565b600080fd5b600080fd5b600073ffffffffffffffffffffffffffffffffffffffff82169050919050565b6000620001f982620001cc565b9050919050565b6200020b81620001ec565b81146200021757600080fd5b50565b6000815190506200022b8162000200565b92915050565b600080fd5b600080fd5b6000601f19601f8301169050919050565b7f4e487b7100000000000000000000000000000000000000000000000000000000600052604160045260246000fd5b62000286826200023b565b810181811067ffffffffffffffff82111715620002a857620002a76200024c565b5b80604052505050565b6000620002bd620001b8565b9050620002cb82826200027b565b919050565b600067ffffffffffffffff821115620002ee57620002ed6200024c565b5b620002f9826200023b565b9050602081019050919050565b60005b838110156200032657808201518184015260208101905062000309565b60008484015250505050565b6000620003496200034384620002d0565b620002b1565b90508281526020810184848401111562000368576200036762000236565b5b6200037584828562000306565b509392505050565b600082601f83011262000395576200039462000231565b5b8151620003a784826020860162000332565b91505092915050565b6000819050919050565b620003c581620003b0565b8114620003d157600080fd5b50565b600081519050620003e581620003ba565b92915050565b60008060008060008060c087890312156200040b576200040a620001c2565b5b60006200041b89828a016200021a565b96505060206200042e89828a016200021a565b955050604087015167ffffffffffffffff811115620004525762000451620001c7565b5b6200046089828a016200037d565b945050606087015167ffffffffffffffff811115620004845762000483620001c7565b5b6200049289828a016200037d565b935050608087015167ffffffffffffffff811115620004b657620004b5620001c7565b5b620004c489828a016200037d565b92505060a0620004d789828a01620003d4565b9150509295509295509295565b600081519050919050565b7f4e487b7100000000000000000000000000000000000000000000000000000000600052602260045260246000fd5b600060028204905060018216806200053757607f821691505b6020821081036200054d576200054c620004ef565b5b50919050565b60008190508160005260206000209050919050565b60006020601f8301049050919050565b600082821b905092915050565b600060088302620005b77fffffffffffffffffffffffffffffffffffffffffffffffffffffffffffffffff8262000578565b620005c3868362000578565b95508019841693508086168417925050509392505050565b6000819050919050565b60006200060662000600620005fa84620003b0565b620005db565b620003b0565b9050919050565b6000819050919050565b6200062283620005e5565b6200063a62000631826200060d565b84845462000585565b825550505050565b600090565b6200065162000642565b6200065e81848462000617565b505050565b5b8181101562000686576200067a60008262000647565b60018101905062000664565b5050565b601f821115620006d5576200069f8162000553565b620006aa8462000568565b81016020851015620006ba578190505b620006d2620006c98562000568565b83018262000663565b50505b505050565b600082821c905092915050565b6000620006fa60001984600802620006da565b1980831691505092915050565b6000620007158383620006e7565b9150826002028217905092915050565b6200073082620004e4565b67ffffffffffffffff8111156200074c576200074b6200024c565b5b6200075882546200051e565b620007658282856200068a565b600060209050601f8311600181146200079d576000841562000788578287015190505b62000794858262000707565b86555062000804565b601f198416620007ad8662000553565b60005b82811015620007d757848901518255600182019150602085019450602081019050620007b0565b86831015620007f75784890151620007f3601f891682620006e7565b8355505b6001600288020188555050505b505050505050565b612d5c806200081c6000396000f3fe6080604052600436106101145760003560e01c80636352211e116100a0578063a22cb46511610064578063a22cb46514610392578063b88d4fde146103bb578063c87b56dd146103e4578063e985e9c514610421578063f2fde38b1461045e57610114565b80636352211e146102ab57806370a08231146102e8578063715018a6146103255780638da5cb5b1461033c57806395d89b411461036757610114565b8063095ea7b3116100e7578063095ea7b3146101e95780630dccc9ad1461021257806323b872dd1461023d57806340c10f191461026657806342842e0e1461028257610114565b806301ffc9a7146101195780630387da421461015657806306fdde0314610181578063081812fc146101ac575b600080fd5b34801561012557600080fd5b50610140600480360381019061013b9190611ae0565b610487565b60405161014d9190611b28565b60405180910390f35b34801561016257600080fd5b5061016b610569565b6040516101789190611b5c565b60405180910390f35b34801561018d57600080fd5b5061019661056f565b6040516101a39190611c07565b60405180910390f35b3480156101b857600080fd5b506101d360048036038101906101ce9190611c55565b610601565b6040516101e09190611cc3565b60405180910390f35b3480156101f557600080fd5b50610210600480360381019061020b9190611d0a565b610647565b005b34801561021e57600080fd5b5061022761075e565b6040516102349190611c07565b60405180910390f35b34801561024957600080fd5b50610264600480360381019061025f9190611d4a565b6107ec565b005b610280600480360381019061027b9190611d0a565b61084c565b005b34801561028e57600080fd5b506102a960048036038101906102a49190611d4a565b61099d565b005b3480156102b757600080fd5b506102d260048036038101906102cd9190611c55565b6109bd565b6040516102df9190611cc3565b60405180910390f35b3480156102f457600080fd5b5061030f600480360381019061030a9190611d9d565b610a6e565b60405161031c9190611b5c565b60405180910390f35b34801561033157600080fd5b5061033a610b25565b005b34801561034857600080fd5b50610351610b39565b60405161035e9190611cc3565b60405180910390f35b34801561037357600080fd5b5061037c610b63565b6040516103899190611c07565b60405180910390f35b34801561039e57600080fd5b506103b960048036038101906103b49190611df6565b610bf5565b005b3480156103c757600080fd5b506103e260048036038101906103dd9190611f6b565b610c0b565b005b3480156103f057600080fd5b5061040b60048036038101906104069190611c55565b610c6d565b6040516104189190611c07565b60405180910390f35b34801561042d57600080fd5b5061044860048036038101906104439190611fee565b610d01565b6040516104559190611b28565b60405180910390f35b34801561046a57600080fd5b5061048560048036038101906104809190611d9d565b610d95565b005b60007f80ac58cd000000000000000000000000000000000000000000000000000000007bffffffffffffffffffffffffffffffffffffffffffffffffffffffff1916827bffffffffffffffffffffffffffffffffffffffffffffffffffffffff1916148061055257507f5b5e139f000000000000000000000000000000000000000000000000000000007bffffffffffffffffffffffffffffffffffffffffffffffffffffffff1916827bffffffffffffffffffffffffffffffffffffffffffffffffffffffff1916145b80610562575061056182610e18565b5b9050919050565b600c5481565b60606000805461057e9061205d565b80601f01602080910402602001604051908101604052809291908181526020018280546105aa9061205d565b80156105f75780601f106105cc576101008083540402835291602001916105f7565b820191906000526020600020905b8154815290600101906020018083116105da57829003601f168201915b5050505050905090565b600061060c82610e82565b6004600083815260200190815260200160002060009054906101000a900473ffffffffffffffffffffffffffffffffffffffff169050919050565b6000610652826109bd565b90508073ffffffffffffffffffffffffffffffffffffffff168373ffffffffffffffffffffffffffffffffffffffff16036106c2576040517f08c379a00000000000000000000000000000000000000000000000000000000081526004016106b990612100565b60405180910390fd5b8073ffffffffffffffffffffffffffffffffffffffff166106e1610ecd565b73ffffffffffffffffffffffffffffffffffffffff161480610710575061070f8161070a610ecd565b610d01565b5b61074f576040517f08c379a000000000000000000000000000000000000000000000000000000000815260040161074690612192565b60405180910390fd5b6107598383610ed5565b505050565b600a805461076b9061205d565b80601f01602080910402602001604051908101604052809291908181526020018280546107979061205d565b80156107e45780601f106107b9576101008083540402835291602001916107e4565b820191906000526020600020905b8154815290600101906020018083116107c757829003601f168201915b505050505081565b6107fd6107f7610ecd565b82610f8e565b61083c576040517f08c379a000000000000000000000000000000000000000000000000000000000815260040161083390612224565b60405180910390fd5b610847838383611023565b505050565b6000811161088f576040517f08c379a000000000000000000000000000000000000000000000000000000000815260040161088690612290565b60405180910390fd5b600c548161089d91906122df565b3410156108df576040517f08c379a00000000000000000000000000000000000000000000000000000000081526004016108d69061236d565b60405180910390fd5b6108eb82600954611289565b610981600954600a80546108fe9061205d565b80601f016020809104026020016040519081016040528092919081815260200182805461092a9061205d565b80156109775780601f1061094c57610100808354040283529160200191610977565b820191906000526020600020905b81548152906001019060200180831161095a57829003601f168201915b50505050506112a7565b600960008154809291906109949061238d565b91905055505050565b6109b883838360405180602001604052806000815250610c0b565b505050565b6000806002600084815260200190815260200160002060009054906101000a900473ffffffffffffffffffffffffffffffffffffffff169050600073ffffffffffffffffffffffffffffffffffffffff168173ffffffffffffffffffffffffffffffffffffffff1603610a65576040517f08c379a0000000000000000000000000000000000000000000000000000000008152600401610a5c90612421565b60405180910390fd5b80915050919050565b60008073ffffffffffffffffffffffffffffffffffffffff168273ffffffffffffffffffffffffffffffffffffffff1603610ade576040517f08c379a0000000000000000000000000000000000000000000000000000000008152600401610ad5906124b3565b60405180910390fd5b600360008373ffffffffffffffffffffffffffffffffffffffff1673ffffffffffffffffffffffffffffffffffffffff168152602001908152602001600020549050919050565b610b2d611314565b610b376000611392565b565b6000600760009054906101000a900473ffffffffffffffffffffffffffffffffffffffff16905090565b606060018054610b729061205d565b80601f0160208091040260200160405190810160405280929190818152602001828054610b9e9061205d565b8015610beb5780601f10610bc057610100808354040283529160200191610beb565b820191906000526020600020905b815481529060010190602001808311610bce57829003601f168201915b5050505050905090565b610c07610c00610ecd565b8383611458565b5050565b610c1c610c16610ecd565b83610f8e565b610c5b576040517f08c379a0000000000000000000000000000000000000000000000000000000008152600401610c5290612224565b60405180910390fd5b610c67848484846115c4565b50505050565b6060600a8054610c7c9061205d565b80601f0160208091040260200160405190810160405280929190818152602001828054610ca89061205d565b8015610cf55780601f10610cca57610100808354040283529160200191610cf5565b820191906000526020600020905b815481529060010190602001808311610cd857829003601f168201915b50505050509050919050565b6000600560008473ffffffffffffffffffffffffffffffffffffffff1673ffffffffffffffffffffffffffffffffffffffff16815260200190815260200160002060008373ffffffffffffffffffffffffffffffffffffffff1673ffffffffffffffffffffffffffffffffffffffff16815260200190815260200160002060009054906101000a900460ff16905092915050565b610d9d611314565b600073ffffffffffffffffffffffffffffffffffffffff168173ffffffffffffffffffffffffffffffffffffffff1603610e0c576040517f08c379a0000000000000000000000000000000000000000000000000000000008152600401610e0390612545565b60405180910390fd5b610e1581611392565b50565b60007f01ffc9a7000000000000000000000000000000000000000000000000000000007bffffffffffffffffffffffffffffffffffffffffffffffffffffffff1916827bffffffffffffffffffffffffffffffffffffffffffffffffffffffff1916149050919050565b610e8b81611620565b610eca576040517f08c379a0000000000000000000000000000000000000000000000000000000008152600401610ec190612421565b60405180910390fd5b50565b600033905090565b816004600083815260200190815260200160002060006101000a81548173ffffffffffffffffffffffffffffffffffffffff021916908373ffffffffffffffffffffffffffffffffffffffff160217905550808273ffffffffffffffffffffffffffffffffffffffff16610f48836109bd565b73ffffffffffffffffffffffffffffffffffffffff167f8c5be1e5ebec7d5bd14f71427d1e84f3dd0314c0f7b2291e5b200ac8c7c3b92560405160405180910390a45050565b600080610f9a836109bd565b90508073ffffffffffffffffffffffffffffffffffffffff168473ffffffffffffffffffffffffffffffffffffffff161480610fdc5750610fdb8185610d01565b5b8061101a57508373ffffffffffffffffffffffffffffffffffffffff1661100284610601565b73ffffffffffffffffffffffffffffffffffffffff16145b91505092915050565b8273ffffffffffffffffffffffffffffffffffffffff16611043826109bd565b73ffffffffffffffffffffffffffffffffffffffff1614611099576040517f08c379a0000000000000000000000000000000000000000000000000000000008152600401611090906125d7565b60405180910390fd5b600073ffffffffffffffffffffffffffffffffffffffff168273ffffffffffffffffffffffffffffffffffffffff1603611108576040517f08c379a00000000000000000000000000000000000000000000000000000000081526004016110ff90612669565b60405180910390fd5b61111383838361168c565b61111e600082610ed5565b6001600360008573ffffffffffffffffffffffffffffffffffffffff1673ffffffffffffffffffffffffffffffffffffffff168152602001908152602001600020600082825461116e9190612689565b925050819055506001600360008473ffffffffffffffffffffffffffffffffffffffff1673ffffffffffffffffffffffffffffffffffffffff16815260200190815260200160002060008282546111c591906126bd565b92505081905550816002600083815260200190815260200160002060006101000a81548173ffffffffffffffffffffffffffffffffffffffff021916908373ffffffffffffffffffffffffffffffffffffffff160217905550808273ffffffffffffffffffffffffffffffffffffffff168473ffffffffffffffffffffffffffffffffffffffff167fddf252ad1be2c89b69c2b068fc378daa952ba7f163c4a11628f55a4df523b3ef60405160405180910390a4611284838383611691565b505050565b6112a3828260405180602001604052806000815250611696565b5050565b6112b082611620565b6112ef576040517f08c379a00000000000000000000000000000000000000000000000000000000081526004016112e690612763565b60405180910390fd5b8060066000848152602001908152602001600020908161130f919061292f565b505050565b61131c610ecd565b73ffffffffffffffffffffffffffffffffffffffff1661133a610b39565b73ffffffffffffffffffffffffffffffffffffffff1614611390576040517f08c379a000000000000000000000000000000000000000000000000000000000815260040161138790612a4d565b60405180910390fd5b565b6000600760009054906101000a900473ffffffffffffffffffffffffffffffffffffffff16905081600760006101000a81548173ffffffffffffffffffffffffffffffffffffffff021916908373ffffffffffffffffffffffffffffffffffffffff1602179055508173ffffffffffffffffffffffffffffffffffffffff168173ffffffffffffffffffffffffffffffffffffffff167f8be0079c531659141344cd1fd0a4f28419497f9722a3daafe3b4186f6b6457e060405160405180910390a35050565b8173ffffffffffffffffffffffffffffffffffffffff168373ffffffffffffffffffffffffffffffffffffffff16036114c6576040517f08c379a00000000000000000000000000000000000000000000000000000000081526004016114bd90612ab9565b60405180910390fd5b80600560008573ffffffffffffffffffffffffffffffffffffffff1673ffffffffffffffffffffffffffffffffffffffff16815260200190815260200160002060008473ffffffffffffffffffffffffffffffffffffffff1673ffffffffffffffffffffffffffffffffffffffff16815260200190815260200160002060006101000a81548160ff0219169083151502179055508173ffffffffffffffffffffffffffffffffffffffff168373ffffffffffffffffffffffffffffffffffffffff167f17307eab39ab6107e8899845ad3d59bd9653f200f220920489ca2b5937696c31836040516115b79190611b28565b60405180910390a3505050565b6115cf848484611023565b6115db848484846116f1565b61161a576040517f08c379a000000000000000000000000000000000000000000000000000000000815260040161161190612b4b565b60405180910390fd5b50505050565b60008073ffffffffffffffffffffffffffffffffffffffff166002600084815260200190815260200160002060009054906101000a900473ffffffffffffffffffffffffffffffffffffffff1673ffffffffffffffffffffffffffffffffffffffff1614159050919050565b505050565b505050565b6116a08383611878565b6116ad60008484846116f1565b6116ec576040517f08c379a00000000000000000000000000000000000000000000000000000000081526004016116e390612b4b565b60405180910390fd5b505050565b60006117128473ffffffffffffffffffffffffffffffffffffffff16611a51565b1561186b578373ffffffffffffffffffffffffffffffffffffffff1663150b7a0261173b610ecd565b8786866040518563ffffffff1660e01b815260040161175d9493929190612bc0565b6020604051808303816000875af192505050801561179957506040513d601f19601f820116820180604052508101906117969190612c21565b60015b61181b573d80600081146117c9576040519150601f19603f3d011682016040523d82523d6000602084013e6117ce565b606091505b506000815103611813576040517f08c379a000000000000000000000000000000000000000000000000000000000815260040161180a90612b4b565b60405180910390fd5b805181602001fd5b63150b7a0260e01b7bffffffffffffffffffffffffffffffffffffffffffffffffffffffff1916817bffffffffffffffffffffffffffffffffffffffffffffffffffffffff191614915050611870565b600190505b949350505050565b600073ffffffffffffffffffffffffffffffffffffffff168273ffffffffffffffffffffffffffffffffffffffff16036118e7576040517f08c379a00000000000000000000000000000000000000000000000000000000081526004016118de90612c9a565b60405180910390fd5b6118f081611620565b15611930576040517f08c379a000000000000000000000000000000000000000000000000000000000815260040161192790612d06565b60405180910390fd5b61193c6000838361168c565b6001600360008473ffffffffffffffffffffffffffffffffffffffff1673ffffffffffffffffffffffffffffffffffffffff168152602001908152602001600020600082825461198c91906126bd565b92505081905550816002600083815260200190815260200160002060006101000a81548173ffffffffffffffffffffffffffffffffffffffff021916908373ffffffffffffffffffffffffffffffffffffffff160217905550808273ffffffffffffffffffffffffffffffffffffffff16600073ffffffffffffffffffffffffffffffffffffffff167fddf252ad1be2c89b69c2b068fc378daa952ba7f163c4a11628f55a4df523b3ef60405160405180910390a4611a4d60008383611691565b5050565b6000808273ffffffffffffffffffffffffffffffffffffffff163b119050919050565b6000604051905090565b600080fd5b600080fd5b60007fffffffff0000000000000000000000000000000000000000000000000000000082169050919050565b611abd81611a88565b8114611ac857600080fd5b50565b600081359050611ada81611ab4565b92915050565b600060208284031215611af657611af5611a7e565b5b6000611b0484828501611acb565b91505092915050565b60008115159050919050565b611b2281611b0d565b82525050565b6000602082019050611b3d6000830184611b19565b92915050565b6000819050919050565b611b5681611b43565b82525050565b6000602082019050611b716000830184611b4d565b92915050565b600081519050919050565b600082825260208201905092915050565b60005b83811015611bb1578082015181840152602081019050611b96565b60008484015250505050565b6000601f19601f8301169050919050565b6000611bd982611b77565b611be38185611b82565b9350611bf3818560208601611b93565b611bfc81611bbd565b840191505092915050565b60006020820190508181036000830152611c218184611bce565b905092915050565b611c3281611b43565b8114611c3d57600080fd5b50565b600081359050611c4f81611c29565b92915050565b600060208284031215611c6b57611c6a611a7e565b5b6000611c7984828501611c40565b91505092915050565b600073ffffffffffffffffffffffffffffffffffffffff82169050919050565b6000611cad82611c82565b9050919050565b611cbd81611ca2565b82525050565b6000602082019050611cd86000830184611cb4565b92915050565b611ce781611ca2565b8114611cf257600080fd5b50565b600081359050611d0481611cde565b92915050565b60008060408385031215611d2157611d20611a7e565b5b6000611d2f85828601611cf5565b9250506020611d4085828601611c40565b9150509250929050565b600080600060608486031215611d6357611d62611a7e565b5b6000611d7186828701611cf5565b9350506020611d8286828701611cf5565b9250506040611d9386828701611c40565b9150509250925092565b600060208284031215611db357611db2611a7e565b5b6000611dc184828501611cf5565b91505092915050565b611dd381611b0d565b8114611dde57600080fd5b50565b600081359050611df081611dca565b92915050565b60008060408385031215611e0d57611e0c611a7e565b5b6000611e1b85828601611cf5565b9250506020611e2c85828601611de1565b9150509250929050565b600080fd5b600080fd5b7f4e487b7100000000000000000000000000000000000000000000000000000000600052604160045260246000fd5b611e7882611bbd565b810181811067ffffffffffffffff82111715611e9757611e96611e40565b5b80604052505050565b6000611eaa611a74565b9050611eb68282611e6f565b919050565b600067ffffffffffffffff821115611ed657611ed5611e40565b5b611edf82611bbd565b9050602081019050919050565b82818337600083830152505050565b6000611f0e611f0984611ebb565b611ea0565b905082815260208101848484011115611f2a57611f29611e3b565b5b611f35848285611eec565b509392505050565b600082601f830112611f5257611f51611e36565b5b8135611f62848260208601611efb565b91505092915050565b60008060008060808587031215611f8557611f84611a7e565b5b6000611f9387828801611cf5565b9450506020611fa487828801611cf5565b9350506040611fb587828801611c40565b925050606085013567ffffffffffffffff811115611fd657611fd5611a83565b5b611fe287828801611f3d565b91505092959194509250565b6000806040838503121561200557612004611a7e565b5b600061201385828601611cf5565b925050602061202485828601611cf5565b9150509250929050565b7f4e487b7100000000000000000000000000000000000000000000000000000000600052602260045260246000fd5b6000600282049050600182168061207557607f821691505b6020821081036120885761208761202e565b5b50919050565b7f4552433732313a20617070726f76616c20746f2063757272656e74206f776e6560008201527f7200000000000000000000000000000000000000000000000000000000000000602082015250565b60006120ea602183611b82565b91506120f58261208e565b604082019050919050565b60006020820190508181036000830152612119816120dd565b9050919050565b7f4552433732313a20617070726f76652063616c6c6572206973206e6f7420746f60008201527f6b656e206f776e6572206e6f7220617070726f76656420666f7220616c6c0000602082015250565b600061217c603e83611b82565b915061218782612120565b604082019050919050565b600060208201905081810360008301526121ab8161216f565b9050919050565b7f4552433732313a2063616c6c6572206973206e6f7420746f6b656e206f776e6560008201527f72206e6f7220617070726f766564000000000000000000000000000000000000602082015250565b600061220e602e83611b82565b9150612219826121b2565b604082019050919050565b6000602082019050818103600083015261223d81612201565b9050919050565b7f5175616e74697479206d7573742062652067726561746572207468616e203000600082015250565b600061227a601f83611b82565b915061228582612244565b602082019050919050565b600060208201905081810360008301526122a98161226d565b9050919050565b7f4e487b7100000000000000000000000000000000000000000000000000000000600052601160045260246000fd5b60006122ea82611b43565b91506122f583611b43565b925082820261230381611b43565b9150828204841483151761231a576123196122b0565b5b5092915050565b7f496e73756666696369656e74204554482073656e740000000000000000000000600082015250565b6000612357601583611b82565b915061236282612321565b602082019050919050565b600060208201905081810360008301526123868161234a565b9050919050565b600061239882611b43565b91507fffffffffffffffffffffffffffffffffffffffffffffffffffffffffffffffff82036123ca576123c96122b0565b5b600182019050919050565b7f4552433732313a20696e76616c696420746f6b656e2049440000000000000000600082015250565b600061240b601883611b82565b9150612416826123d5565b602082019050919050565b6000602082019050818103600083015261243a816123fe565b9050919050565b7f4552433732313a2061646472657373207a65726f206973206e6f74206120766160008201527f6c6964206f776e65720000000000000000000000000000000000000000000000602082015250565b600061249d602983611b82565b91506124a882612441565b604082019050919050565b600060208201905081810360008301526124cc81612490565b9050919050565b7f4f776e61626c653a206e6577206f776e657220697320746865207a65726f206160008201527f6464726573730000000000000000000000000000000000000000000000000000602082015250565b600061252f602683611b82565b915061253a826124d3565b604082019050919050565b6000602082019050818103600083015261255e81612522565b9050919050565b7f4552433732313a207472616e736665722066726f6d20696e636f72726563742060008201527f6f776e6572000000000000000000000000000000000000000000000000000000602082015250565b60006125c1602583611b82565b91506125cc82612565565b604082019050919050565b600060208201905081810360008301526125f0816125b4565b9050919050565b7f4552433732313a207472616e7366657220746f20746865207a65726f2061646460008201527f7265737300000000000000000000000000000000000000000000000000000000602082015250565b6000612653602483611b82565b915061265e826125f7565b604082019050919050565b6000602082019050818103600083015261268281612646565b9050919050565b600061269482611b43565b915061269f83611b43565b92508282039050818111156126b7576126b66122b0565b5b92915050565b60006126c882611b43565b91506126d383611b43565b92508282019050808211156126eb576126ea6122b0565b5b92915050565b7f45524337323155524953746f726167653a2055524920736574206f66206e6f6e60008201527f6578697374656e7420746f6b656e000000000000000000000000000000000000602082015250565b600061274d602e83611b82565b9150612758826126f1565b604082019050919050565b6000602082019050818103600083015261277c81612740565b9050919050565b60008190508160005260206000209050919050565b60006020601f8301049050919050565b600082821b905092915050565b6000600883026127e57fffffffffffffffffffffffffffffffffffffffffffffffffffffffffffffffff826127a8565b6127ef86836127a8565b95508019841693508086168417925050509392505050565b6000819050919050565b600061282c61282761282284611b43565b612807565b611b43565b9050919050565b6000819050919050565b61284683612811565b61285a61285282612833565b8484546127b5565b825550505050565b600090565b61286f612862565b61287a81848461283d565b505050565b5b8181101561289e57612893600082612867565b600181019050612880565b5050565b601f8211156128e3576128b481612783565b6128bd84612798565b810160208510156128cc578190505b6128e06128d885612798565b83018261287f565b50505b505050565b600082821c905092915050565b6000612906600019846008026128e8565b1980831691505092915050565b600061291f83836128f5565b9150826002028217905092915050565b61293882611b77565b67ffffffffffffffff81111561295157612950611e40565b5b61295b825461205d565b6129668282856128a2565b600060209050601f8311600181146129995760008415612987578287015190505b6129918582612913565b8655506129f9565b601f1984166129a786612783565b60005b828110156129cf578489015182556001820191506020850194506020810190506129aa565b868310156129ec57848901516129e8601f8916826128f5565b8355505b6001600288020188555050505b505050505050565b7f4f776e61626c653a2063616c6c6572206973206e6f7420746865206f776e6572600082015250565b6000612a37602083611b82565b9150612a4282612a01565b602082019050919050565b60006020820190508181036000830152612a6681612a2a565b9050919050565b7f4552433732313a20617070726f766520746f2063616c6c657200000000000000600082015250565b6000612aa3601983611b82565b9150612aae82612a6d565b602082019050919050565b60006020820190508181036000830152612ad281612a96565b9050919050565b7f4552433732313a207472616e7366657220746f206e6f6e20455243373231526560008201527f63656976657220696d706c656d656e7465720000000000000000000000000000602082015250565b6000612b35603283611b82565b9150612b4082612ad9565b604082019050919050565b60006020820190508181036000830152612b6481612b28565b9050919050565b600081519050919050565b600082825260208201905092915050565b6000612b9282612b6b565b612b9c8185612b76565b9350612bac818560208601611b93565b612bb581611bbd565b840191505092915050565b6000608082019050612bd56000830187611cb4565b612be26020830186611cb4565b612bef6040830185611b4d565b8181036060830152612c018184612b87565b905095945050505050565b600081519050612c1b81611ab4565b92915050565b600060208284031215612c3757612c36611a7e565b5b6000612c4584828501612c0c565b91505092915050565b7f4552433732313a206d696e7420746f20746865207a65726f2061646472657373600082015250565b6000612c84602083611b82565b9150612c8f82612c4e565b602082019050919050565b60006020820190508181036000830152612cb381612c77565b9050919050565b7f4552433732313a20746f6b656e20616c7265616479206d696e74656400000000600082015250565b6000612cf0601c83611b82565b9150612cfb82612cba565b602082019050919050565b60006020820190508181036000830152612d1f81612ce3565b905091905056fea2646970667358221220c2239d60289710cbda6552ff37fab16b16b999f4bf40e38b105ea080b9dd12bb64736f6c63430008180033a2646970667358221220a2bd025fef82b2fa824cfb4bbd531bf4bed1d83a0807ddc7957636f875caf16964736f6c63430008180033",
  "linkReferences": {},
  "deployedLinkReferences": {}
}