{
  "_format": "hh-sol-artifact-1",
  "contractName": "DBeatsFactory",
  "sourceName": "contracts/Factory.sol",
  "abi": [
    {
      "inputs": [
        {
          "internalType": "address",
          "name": "_platformWalletAddress",
          "type": "address"
        }
      ],
      "stateMutability": "nonpayable",
      "type": "constructor"
    },
    {
      "anonymous": false,
      "inputs": [
        {
          "indexed": true,
          "internalType": "address",
          "name": "nftAddress",
          "type": "address"
        },
        {
          "indexed": false,
          "internalType": "uint256",
          "name": "_royaltyFeePercentage",
          "type": "uint256"
        },
        {
          "indexed": false,
          "internalType": "address",
          "name": "_artistAddress",
          "type": "address"
        },
        {
          "indexed": false,
          "internalType": "string",
          "name": "_newTokenURI",
          "type": "string"
        },
        {
          "indexed": false,
          "internalType": "string",
          "name": "name",
          "type": "string"
        },
        {
          "indexed": false,
          "internalType": "string",
          "name": "symbol",
          "type": "string"
        },
        {
          "indexed": false,
          "internalType": "uint256",
          "name": "mintPrice",
          "type": "uint256"
        }
      ],
      "name": "NewNFT",
      "type": "event"
    },
    {
      "anonymous": false,
      "inputs": [
        {
          "indexed": true,
          "internalType": "address",
          "name": "previousOwner",
          "type": "address"
        },
        {
          "indexed": true,
          "internalType": "address",
          "name": "newOwner",
          "type": "address"
        }
      ],
      "name": "OwnershipTransferred",
      "type": "event"
    },
    {
      "anonymous": false,
      "inputs": [
        {
          "indexed": true,
          "internalType": "bytes32",
          "name": "role",
          "type": "bytes32"
        },
        {
          "indexed": true,
          "internalType": "bytes32",
          "name": "previousAdminRole",
          "type": "bytes32"
        },
        {
          "indexed": true,
          "internalType": "bytes32",
          "name": "newAdminRole",
          "type": "bytes32"
        }
      ],
      "name": "RoleAdminChanged",
      "type": "event"
    },
    {
      "anonymous": false,
      "inputs": [
        {
          "indexed": true,
          "internalType": "bytes32",
          "name": "role",
          "type": "bytes32"
        },
        {
          "indexed": true,
          "internalType": "address",
          "name": "account",
          "type": "address"
        },
        {
          "indexed": true,
          "internalType": "address",
          "name": "sender",
          "type": "address"
        }
      ],
      "name": "RoleGranted",
      "type": "event"
    },
    {
      "anonymous": false,
      "inputs": [
        {
          "indexed": true,
          "internalType": "bytes32",
          "name": "role",
          "type": "bytes32"
        },
        {
          "indexed": true,
          "internalType": "address",
          "name": "account",
          "type": "address"
        },
        {
          "indexed": true,
          "internalType": "address",
          "name": "sender",
          "type": "address"
        }
      ],
      "name": "RoleRevoked",
      "type": "event"
    },
    {
      "inputs": [],
      "name": "ADMIN_ROLE",
      "outputs": [
        {
          "internalType": "bytes32",
          "name": "",
          "type": "bytes32"
        }
      ],
      "stateMutability": "view",
      "type": "function"
    },
    {
      "inputs": [],
      "name": "DEFAULT_ADMIN_ROLE",
      "outputs": [
        {
          "internalType": "bytes32",
          "name": "",
          "type": "bytes32"
        }
      ],
      "stateMutability": "view",
      "type": "function"
    },
    {
      "inputs": [
        {
          "internalType": "bytes32",
          "name": "role",
          "type": "bytes32"
        },
        {
          "internalType": "address",
          "name": "account",
          "type": "address"
        }
      ],
      "name": "addUserToRole",
      "outputs": [],
      "stateMutability": "nonpayable",
      "type": "function"
    },
    {
      "inputs": [
        {
          "internalType": "address",
          "name": "_artistAddress",
          "type": "address"
        },
        {
          "internalType": "string",
          "name": "_newTokenURI",
          "type": "string"
        },
        {
          "internalType": "string",
          "name": "name",
          "type": "string"
        },
        {
          "internalType": "string",
          "name": "symbol",
          "type": "string"
        },
        {
          "internalType": "uint256",
          "name": "mintPrice",
          "type": "uint256"
        },
        {
          "internalType": "uint256",
          "name": "_platformFeePercentage",
          "type": "uint256"
        },
        {
          "internalType": "uint256",
          "name": "_royaltyFeePercentage",
          "type": "uint256"
        }
      ],
      "name": "createNFT",
      "outputs": [],
      "stateMutability": "nonpayable",
      "type": "function"
    },
    {
      "inputs": [
        {
          "internalType": "address",
          "name": "creator",
          "type": "address"
        }
      ],
      "name": "getNFTsByCreator",
      "outputs": [
        {
          "internalType": "address[]",
          "name": "",
          "type": "address[]"
        }
      ],
      "stateMutability": "view",
      "type": "function"
    },
    {
      "inputs": [
        {
          "internalType": "bytes32",
          "name": "role",
          "type": "bytes32"
        }
      ],
      "name": "getRoleAdmin",
      "outputs": [
        {
          "internalType": "bytes32",
          "name": "",
          "type": "bytes32"
        }
      ],
      "stateMutability": "view",
      "type": "function"
    },
    {
      "inputs": [
        {
          "internalType": "bytes32",
          "name": "role",
          "type": "bytes32"
        },
        {
          "internalType": "address",
          "name": "account",
          "type": "address"
        }
      ],
      "name": "grantRole",
      "outputs": [],
      "stateMutability": "nonpayable",
      "type": "function"
    },
    {
      "inputs": [
        {
          "internalType": "bytes32",
          "name": "role",
          "type": "bytes32"
        },
        {
          "internalType": "address",
          "name": "account",
          "type": "address"
        }
      ],
      "name": "hasRole",
      "outputs": [
        {
          "internalType": "bool",
          "name": "",
          "type": "bool"
        }
      ],
      "stateMutability": "view",
      "type": "function"
    },
    {
      "inputs": [
        {
          "internalType": "address",
          "name": "",
          "type": "address"
        },
        {
          "internalType": "uint256",
          "name": "",
          "type": "uint256"
        }
      ],
      "name": "nftsByCreator",
      "outputs": [
        {
          "internalType": "address",
          "name": "",
          "type": "address"
        }
      ],
      "stateMutability": "view",
      "type": "function"
    },
    {
      "inputs": [],
      "name": "owner",
      "outputs": [
        {
          "internalType": "address",
          "name": "",
          "type": "address"
        }
      ],
      "stateMutability": "view",
      "type": "function"
    },
    {
      "inputs": [],
      "name": "platformWalletAddress",
      "outputs": [
        {
          "internalType": "address",
          "name": "",
          "type": "address"
        }
      ],
      "stateMutability": "view",
      "type": "function"
    },
    {
      "inputs": [],
      "name": "renounceOwnership",
      "outputs": [],
      "stateMutability": "nonpayable",
      "type": "function"
    },
    {
      "inputs": [
        {
          "internalType": "bytes32",
          "name": "role",
          "type": "bytes32"
        },
        {
          "internalType": "address",
          "name": "account",
          "type": "address"
        }
      ],
      "name": "renounceRole",
      "outputs": [],
      "stateMutability": "nonpayable",
      "type": "function"
    },
    {
      "inputs": [
        {
          "internalType": "bytes32",
          "name": "role",
          "type": "bytes32"
        },
        {
          "internalType": "address",
          "name": "account",
          "type": "address"
        }
      ],
      "name": "revokeRole",
      "outputs": [],
      "stateMutability": "nonpayable",
      "type": "function"
    },
    {
      "inputs": [
        {
          "internalType": "bytes4",
          "name": "interfaceId",
          "type": "bytes4"
        }
      ],
      "name": "supportsInterface",
      "outputs": [
        {
          "internalType": "bool",
          "name": "",
          "type": "bool"
        }
      ],
      "stateMutability": "view",
      "type": "function"
    },
    {
      "inputs": [],
      "name": "tokenCounter",
      "outputs": [
        {
          "internalType": "uint256",
          "name": "",
          "type": "uint256"
        }
      ],
      "stateMutability": "view",
      "type": "function"
    },
    {
      "inputs": [
        {
          "internalType": "address",
          "name": "newOwner",
          "type": "address"
        }
      ],
      "name": "transferOwnership",
      "outputs": [],
      "stateMutability": "nonpayable",
      "type": "function"
    }
  ],
  "bytecode": "0x60806040523480156200001157600080fd5b5060405162005e6538038062005e65833981810160405281019062000037919062000346565b620000576200004b620000b460201b60201c565b620000bc60201b60201c565b6200006c6000801b336200018060201b60201c565b80600360006101000a81548173ffffffffffffffffffffffffffffffffffffffff021916908373ffffffffffffffffffffffffffffffffffffffff1602179055505062000378565b600033905090565b60008060009054906101000a900473ffffffffffffffffffffffffffffffffffffffff169050816000806101000a81548173ffffffffffffffffffffffffffffffffffffffff021916908373ffffffffffffffffffffffffffffffffffffffff1602179055508173ffffffffffffffffffffffffffffffffffffffff168173ffffffffffffffffffffffffffffffffffffffff167f8be0079c531659141344cd1fd0a4f28419497f9722a3daafe3b4186f6b6457e060405160405180910390a35050565b6200019282826200027160201b60201c565b6200026d57600180600084815260200190815260200160002060000160008373ffffffffffffffffffffffffffffffffffffffff1673ffffffffffffffffffffffffffffffffffffffff16815260200190815260200160002060006101000a81548160ff02191690831515021790555062000212620000b460201b60201c565b73ffffffffffffffffffffffffffffffffffffffff168173ffffffffffffffffffffffffffffffffffffffff16837f2f8788117e7eff1d82e926ec794901d17c78024a50270940304540a733656f0d60405160405180910390a45b5050565b60006001600084815260200190815260200160002060000160008373ffffffffffffffffffffffffffffffffffffffff1673ffffffffffffffffffffffffffffffffffffffff16815260200190815260200160002060009054906101000a900460ff16905092915050565b600080fd5b600073ffffffffffffffffffffffffffffffffffffffff82169050919050565b60006200030e82620002e1565b9050919050565b620003208162000301565b81146200032c57600080fd5b50565b600081519050620003408162000315565b92915050565b6000602082840312156200035f576200035e620002dc565b5b60006200036f848285016200032f565b91505092915050565b615add80620003886000396000f3fe60806040523480156200001157600080fd5b5060043610620001245760003560e01c80638da5cb5b11620000b1578063c263bdaa116200007b578063c263bdaa14620002df578063d082e3811462000315578063d547741f1462000337578063f2fde38b1462000357578063ffa0382114620003775762000124565b80638da5cb5b146200024357806391d1485414620002655780639f2a6374146200029b578063a217fddf14620002bd5762000124565b80635b4975f111620000f35780635b4975f114620001d5578063715018a614620001f557806375b238fc1462000201578063818d7f7b14620002235762000124565b806301ffc9a71462000129578063248a9ca3146200015f5780632f2ff15d146200019557806336568abe14620001b5575b600080fd5b62000147600480360381019062000141919062001101565b620003ad565b60405162000156919062001150565b60405180910390f35b6200017d6004803603810190620001779190620011a8565b6200042a565b6040516200018c9190620011eb565b60405180910390f35b620001b36004803603810190620001ad91906200126d565b6200044a565b005b620001d36004803603810190620001cd91906200126d565b62000471565b005b620001f36004803603810190620001ed919062001451565b620004fb565b005b620001ff620006f4565b005b6200020b6200070c565b6040516200021a9190620011eb565b60405180910390f35b6200024160048036038101906200023b91906200126d565b62000730565b005b6200024d6200074a565b6040516200025c919062001572565b60405180910390f35b6200028360048036038101906200027d91906200126d565b62000773565b60405162000292919062001150565b60405180910390f35b620002a5620007de565b604051620002b4919062001572565b60405180910390f35b620002c762000804565b604051620002d69190620011eb565b60405180910390f35b620002fd6004803603810190620002f791906200158f565b6200080b565b6040516200030c919062001572565b60405180910390f35b6200031f6200085a565b6040516200032e9190620015e7565b60405180910390f35b6200035560048036038101906200034f91906200126d565b62000860565b005b6200037560048036038101906200036f919062001604565b62000887565b005b6200039560048036038101906200038f919062001604565b62000911565b604051620003a4919062001704565b60405180910390f35b60007f7965db0b000000000000000000000000000000000000000000000000000000007bffffffffffffffffffffffffffffffffffffffffffffffffffffffff1916827bffffffffffffffffffffffffffffffffffffffffffffffffffffffff191614806200042357506200042282620009e0565b5b9050919050565b600060016000838152602001908152602001600020600101549050919050565b62000455826200042a565b620004608162000a4a565b6200046c838362000a62565b505050565b6200047b62000b47565b73ffffffffffffffffffffffffffffffffffffffff168173ffffffffffffffffffffffffffffffffffffffff1614620004eb576040517f08c379a0000000000000000000000000000000000000000000000000000000008152600401620004e290620017af565b60405180910390fd5b620004f7828262000b4f565b5050565b620005277fa49807205ce4d355092ef5a8a18f56e8913cf4a201fbe287825b095693c217753362000773565b62000569576040517f08c379a0000000000000000000000000000000000000000000000000000000008152600401620005609062001821565b60405180910390fd5b600260008154809291906200057e9062001872565b9190505550600081888888888888600360009054906101000a900473ffffffffffffffffffffffffffffffffffffffff16604051620005bd9062001082565b620005d098979695949392919062001937565b604051809103906000f080158015620005ed573d6000803e3d6000fd5b5090508073ffffffffffffffffffffffffffffffffffffffff167fda9269f5e62f5e060d3e6ba7f7405114c7fe7bb1bac48e4924024b1fd5b61e2d838a8a8a8a8a6040516200064296959493929190620019da565b60405180910390a2600460008973ffffffffffffffffffffffffffffffffffffffff1673ffffffffffffffffffffffffffffffffffffffff168152602001908152602001600020819080600181540180825580915050600190039060005260206000200160009091909190916101000a81548173ffffffffffffffffffffffffffffffffffffffff021916908373ffffffffffffffffffffffffffffffffffffffff1602179055505050505050505050565b620006fe62000c36565b6200070a600062000cbb565b565b7fa49807205ce4d355092ef5a8a18f56e8913cf4a201fbe287825b095693c2177581565b6200073a62000c36565b6200074682826200044a565b5050565b60008060009054906101000a900473ffffffffffffffffffffffffffffffffffffffff16905090565b60006001600084815260200190815260200160002060000160008373ffffffffffffffffffffffffffffffffffffffff1673ffffffffffffffffffffffffffffffffffffffff16815260200190815260200160002060009054906101000a900460ff16905092915050565b600360009054906101000a900473ffffffffffffffffffffffffffffffffffffffff1681565b6000801b81565b600460205281600052604060002081815481106200082857600080fd5b906000526020600020016000915091509054906101000a900473ffffffffffffffffffffffffffffffffffffffff1681565b60025481565b6200086b826200042a565b620008768162000a4a565b62000882838362000b4f565b505050565b6200089162000c36565b600073ffffffffffffffffffffffffffffffffffffffff168173ffffffffffffffffffffffffffffffffffffffff160362000903576040517f08c379a0000000000000000000000000000000000000000000000000000000008152600401620008fa9062001ad2565b60405180910390fd5b6200090e8162000cbb565b50565b6060600460008373ffffffffffffffffffffffffffffffffffffffff1673ffffffffffffffffffffffffffffffffffffffff168152602001908152602001600020805480602002602001604051908101604052809291908181526020018280548015620009d457602002820191906000526020600020905b8160009054906101000a900473ffffffffffffffffffffffffffffffffffffffff1673ffffffffffffffffffffffffffffffffffffffff168152602001906001019080831162000989575b50505050509050919050565b60007f01ffc9a7000000000000000000000000000000000000000000000000000000007bffffffffffffffffffffffffffffffffffffffffffffffffffffffff1916827bffffffffffffffffffffffffffffffffffffffffffffffffffffffff1916149050919050565b62000a5f8162000a5962000b47565b62000d7f565b50565b62000a6e828262000773565b62000b4357600180600084815260200190815260200160002060000160008373ffffffffffffffffffffffffffffffffffffffff1673ffffffffffffffffffffffffffffffffffffffff16815260200190815260200160002060006101000a81548160ff02191690831515021790555062000ae862000b47565b73ffffffffffffffffffffffffffffffffffffffff168173ffffffffffffffffffffffffffffffffffffffff16837f2f8788117e7eff1d82e926ec794901d17c78024a50270940304540a733656f0d60405160405180910390a45b5050565b600033905090565b62000b5b828262000773565b1562000c325760006001600084815260200190815260200160002060000160008373ffffffffffffffffffffffffffffffffffffffff1673ffffffffffffffffffffffffffffffffffffffff16815260200190815260200160002060006101000a81548160ff02191690831515021790555062000bd762000b47565b73ffffffffffffffffffffffffffffffffffffffff168173ffffffffffffffffffffffffffffffffffffffff16837ff6391f5c32d9c69d2a47ea670b442974b53935d1edc7fd64eb21e047a839171b60405160405180910390a45b5050565b62000c4062000b47565b73ffffffffffffffffffffffffffffffffffffffff1662000c606200074a565b73ffffffffffffffffffffffffffffffffffffffff161462000cb9576040517f08c379a000000000000000000000000000000000000000000000000000000000815260040162000cb09062001b44565b60405180910390fd5b565b60008060009054906101000a900473ffffffffffffffffffffffffffffffffffffffff169050816000806101000a81548173ffffffffffffffffffffffffffffffffffffffff021916908373ffffffffffffffffffffffffffffffffffffffff1602179055508173ffffffffffffffffffffffffffffffffffffffff168173ffffffffffffffffffffffffffffffffffffffff167f8be0079c531659141344cd1fd0a4f28419497f9722a3daafe3b4186f6b6457e060405160405180910390a35050565b62000d8b828262000773565b62000e235762000db38173ffffffffffffffffffffffffffffffffffffffff16601462000e27565b62000dc38360001c602062000e27565b60405160200162000dd692919062001c48565b6040516020818303038152906040526040517f08c379a000000000000000000000000000000000000000000000000000000000815260040162000e1a919062001c8a565b60405180910390fd5b5050565b60606000600283600262000e3c919062001cae565b62000e48919062001cf9565b67ffffffffffffffff81111562000e645762000e63620012cf565b5b6040519080825280601f01601f19166020018201604052801562000e975781602001600182028036833780820191505090505b5090507f30000000000000000000000000000000000000000000000000000000000000008160008151811062000ed25762000ed162001d34565b5b60200101907effffffffffffffffffffffffffffffffffffffffffffffffffffffffffffff1916908160001a9053507f78000000000000000000000000000000000000000000000000000000000000008160018151811062000f395762000f3862001d34565b5b60200101907effffffffffffffffffffffffffffffffffffffffffffffffffffffffffffff1916908160001a9053506000600184600262000f7b919062001cae565b62000f87919062001cf9565b90505b600181111562001031577f3031323334353637383961626364656600000000000000000000000000000000600f86166010811062000fcd5762000fcc62001d34565b5b1a60f81b82828151811062000fe75762000fe662001d34565b5b60200101907effffffffffffffffffffffffffffffffffffffffffffffffffffffffffffff1916908160001a905350600485901c945080620010299062001d63565b905062000f8a565b506000841462001078576040517f08c379a00000000000000000000000000000000000000000000000000000000081526004016200106f9062001de1565b60405180910390fd5b8091505092915050565b613ca48062001e0483390190565b6000604051905090565b600080fd5b600080fd5b60007fffffffff0000000000000000000000000000000000000000000000000000000082169050919050565b620010db81620010a4565b8114620010e757600080fd5b50565b600081359050620010fb81620010d0565b92915050565b6000602082840312156200111a57620011196200109a565b5b60006200112a84828501620010ea565b91505092915050565b60008115159050919050565b6200114a8162001133565b82525050565b60006020820190506200116760008301846200113f565b92915050565b6000819050919050565b62001182816200116d565b81146200118e57600080fd5b50565b600081359050620011a28162001177565b92915050565b600060208284031215620011c157620011c06200109a565b5b6000620011d18482850162001191565b91505092915050565b620011e5816200116d565b82525050565b6000602082019050620012026000830184620011da565b92915050565b600073ffffffffffffffffffffffffffffffffffffffff82169050919050565b6000620012358262001208565b9050919050565b620012478162001228565b81146200125357600080fd5b50565b60008135905062001267816200123c565b92915050565b600080604083850312156200128757620012866200109a565b5b6000620012978582860162001191565b9250506020620012aa8582860162001256565b9150509250929050565b600080fd5b600080fd5b6000601f19601f8301169050919050565b7f4e487b7100000000000000000000000000000000000000000000000000000000600052604160045260246000fd5b6200130982620012be565b810181811067ffffffffffffffff821117156200132b576200132a620012cf565b5b80604052505050565b60006200134062001090565b90506200134e8282620012fe565b919050565b600067ffffffffffffffff821115620013715762001370620012cf565b5b6200137c82620012be565b9050602081019050919050565b82818337600083830152505050565b6000620013af620013a98462001353565b62001334565b905082815260208101848484011115620013ce57620013cd620012b9565b5b620013db84828562001389565b509392505050565b600082601f830112620013fb57620013fa620012b4565b5b81356200140d84826020860162001398565b91505092915050565b6000819050919050565b6200142b8162001416565b81146200143757600080fd5b50565b6000813590506200144b8162001420565b92915050565b600080600080600080600060e0888a0312156200147357620014726200109a565b5b6000620014838a828b0162001256565b975050602088013567ffffffffffffffff811115620014a757620014a66200109f565b5b620014b58a828b01620013e3565b965050604088013567ffffffffffffffff811115620014d957620014d86200109f565b5b620014e78a828b01620013e3565b955050606088013567ffffffffffffffff8111156200150b576200150a6200109f565b5b620015198a828b01620013e3565b94505060806200152c8a828b016200143a565b93505060a06200153f8a828b016200143a565b92505060c0620015528a828b016200143a565b91505092959891949750929550565b6200156c8162001228565b82525050565b600060208201905062001589600083018462001561565b92915050565b60008060408385031215620015a957620015a86200109a565b5b6000620015b98582860162001256565b9250506020620015cc858286016200143a565b9150509250929050565b620015e18162001416565b82525050565b6000602082019050620015fe6000830184620015d6565b92915050565b6000602082840312156200161d576200161c6200109a565b5b60006200162d8482850162001256565b91505092915050565b600081519050919050565b600082825260208201905092915050565b6000819050602082019050919050565b6200166d8162001228565b82525050565b600062001681838362001662565b60208301905092915050565b6000602082019050919050565b6000620016a78262001636565b620016b3818562001641565b9350620016c08362001652565b8060005b83811015620016f7578151620016db888262001673565b9750620016e8836200168d565b925050600181019050620016c4565b5085935050505092915050565b600060208201905081810360008301526200172081846200169a565b905092915050565b600082825260208201905092915050565b7f416363657373436f6e74726f6c3a2063616e206f6e6c792072656e6f756e636560008201527f20726f6c657320666f722073656c660000000000000000000000000000000000602082015250565b600062001797602f8362001728565b9150620017a48262001739565b604082019050919050565b60006020820190508181036000830152620017ca8162001788565b9050919050565b7f43616c6c6572206973206e6f7420616e2061646d696e00000000000000000000600082015250565b60006200180960168362001728565b91506200181682620017d1565b602082019050919050565b600060208201905081810360008301526200183c81620017fa565b9050919050565b7f4e487b7100000000000000000000000000000000000000000000000000000000600052601160045260246000fd5b60006200187f8262001416565b91507fffffffffffffffffffffffffffffffffffffffffffffffffffffffffffffffff8203620018b457620018b362001843565b5b600182019050919050565b600081519050919050565b60005b83811015620018ea578082015181840152602081019050620018cd565b60008484015250505050565b60006200190382620018bf565b6200190f818562001728565b935062001921818560208601620018ca565b6200192c81620012be565b840191505092915050565b6000610100820190506200194f600083018b620015d6565b6200195e602083018a62001561565b8181036040830152620019728189620018f6565b90508181036060830152620019888188620018f6565b905081810360808301526200199e8187620018f6565b9050620019af60a0830186620015d6565b620019be60c0830185620015d6565b620019cd60e083018462001561565b9998505050505050505050565b600060c082019050620019f16000830189620015d6565b62001a00602083018862001561565b818103604083015262001a148187620018f6565b9050818103606083015262001a2a8186620018f6565b9050818103608083015262001a408185620018f6565b905062001a5160a0830184620015d6565b979650505050505050565b7f4f776e61626c653a206e6577206f776e657220697320746865207a65726f206160008201527f6464726573730000000000000000000000000000000000000000000000000000602082015250565b600062001aba60268362001728565b915062001ac78262001a5c565b604082019050919050565b6000602082019050818103600083015262001aed8162001aab565b9050919050565b7f4f776e61626c653a2063616c6c6572206973206e6f7420746865206f776e6572600082015250565b600062001b2c60208362001728565b915062001b398262001af4565b602082019050919050565b6000602082019050818103600083015262001b5f8162001b1d565b9050919050565b600081905092915050565b7f416363657373436f6e74726f6c3a206163636f756e7420000000000000000000600082015250565b600062001ba960178362001b66565b915062001bb68262001b71565b601782019050919050565b600062001bce82620018bf565b62001bda818562001b66565b935062001bec818560208601620018ca565b80840191505092915050565b7f206973206d697373696e6720726f6c6520000000000000000000000000000000600082015250565b600062001c3060118362001b66565b915062001c3d8262001bf8565b601182019050919050565b600062001c558262001b9a565b915062001c63828562001bc1565b915062001c708262001c21565b915062001c7e828462001bc1565b91508190509392505050565b6000602082019050818103600083015262001ca68184620018f6565b905092915050565b600062001cbb8262001416565b915062001cc88362001416565b925082820262001cd88162001416565b9150828204841483151762001cf25762001cf162001843565b5b5092915050565b600062001d068262001416565b915062001d138362001416565b925082820190508082111562001d2e5762001d2d62001843565b5b92915050565b7f4e487b7100000000000000000000000000000000000000000000000000000000600052603260045260246000fd5b600062001d708262001416565b91506000820362001d865762001d8562001843565b5b600182039050919050565b7f537472696e67733a20686578206c656e67746820696e73756666696369656e74600082015250565b600062001dc960208362001728565b915062001dd68262001d91565b602082019050919050565b6000602082019050818103600083015262001dfc8162001dba565b905091905056fe608060405260006008553480156200001657600080fd5b5060405162003ca438038062003ca483398181016040528101906200003c91906200043c565b848481600090816200004f9190620007a3565b508060019081620000619190620007a3565b50505062000084620000786200013b60201b60201c565b6200014360201b60201c565b85600c9081620000959190620007a3565b5086600d60006101000a81548173ffffffffffffffffffffffffffffffffffffffff021916908373ffffffffffffffffffffffffffffffffffffffff1602179055508260098190555081600a8190555080600e60006101000a81548173ffffffffffffffffffffffffffffffffffffffff021916908373ffffffffffffffffffffffffffffffffffffffff16021790555087600b8190555050505050505050506200088a565b600033905090565b6000600760009054906101000a900473ffffffffffffffffffffffffffffffffffffffff16905081600760006101000a81548173ffffffffffffffffffffffffffffffffffffffff021916908373ffffffffffffffffffffffffffffffffffffffff1602179055508173ffffffffffffffffffffffffffffffffffffffff168173ffffffffffffffffffffffffffffffffffffffff167f8be0079c531659141344cd1fd0a4f28419497f9722a3daafe3b4186f6b6457e060405160405180910390a35050565b6000604051905090565b600080fd5b600080fd5b6000819050919050565b62000232816200021d565b81146200023e57600080fd5b50565b600081519050620002528162000227565b92915050565b600073ffffffffffffffffffffffffffffffffffffffff82169050919050565b6000620002858262000258565b9050919050565b620002978162000278565b8114620002a357600080fd5b50565b600081519050620002b7816200028c565b92915050565b600080fd5b600080fd5b6000601f19601f8301169050919050565b7f4e487b7100000000000000000000000000000000000000000000000000000000600052604160045260246000fd5b6200031282620002c7565b810181811067ffffffffffffffff82111715620003345762000333620002d8565b5b80604052505050565b60006200034962000209565b905062000357828262000307565b919050565b600067ffffffffffffffff8211156200037a5762000379620002d8565b5b6200038582620002c7565b9050602081019050919050565b60005b83811015620003b257808201518184015260208101905062000395565b60008484015250505050565b6000620003d5620003cf846200035c565b6200033d565b905082815260208101848484011115620003f457620003f3620002c2565b5b6200040184828562000392565b509392505050565b600082601f830112620004215762000420620002bd565b5b815162000433848260208601620003be565b91505092915050565b600080600080600080600080610100898b03121562000460576200045f62000213565b5b6000620004708b828c0162000241565b9850506020620004838b828c01620002a6565b975050604089015167ffffffffffffffff811115620004a757620004a662000218565b5b620004b58b828c0162000409565b965050606089015167ffffffffffffffff811115620004d957620004d862000218565b5b620004e78b828c0162000409565b955050608089015167ffffffffffffffff8111156200050b576200050a62000218565b5b620005198b828c0162000409565b94505060a06200052c8b828c0162000241565b93505060c06200053f8b828c0162000241565b92505060e0620005528b828c01620002a6565b9150509295985092959890939650565b600081519050919050565b7f4e487b7100000000000000000000000000000000000000000000000000000000600052602260045260246000fd5b60006002820490506001821680620005b557607f821691505b602082108103620005cb57620005ca6200056d565b5b50919050565b60008190508160005260206000209050919050565b60006020601f8301049050919050565b600082821b905092915050565b600060088302620006357fffffffffffffffffffffffffffffffffffffffffffffffffffffffffffffffff82620005f6565b620006418683620005f6565b95508019841693508086168417925050509392505050565b6000819050919050565b6000620006846200067e62000678846200021d565b62000659565b6200021d565b9050919050565b6000819050919050565b620006a08362000663565b620006b8620006af826200068b565b84845462000603565b825550505050565b600090565b620006cf620006c0565b620006dc81848462000695565b505050565b5b818110156200070457620006f8600082620006c5565b600181019050620006e2565b5050565b601f82111562000753576200071d81620005d1565b6200072884620005e6565b8101602085101562000738578190505b620007506200074785620005e6565b830182620006e1565b50505b505050565b600082821c905092915050565b6000620007786000198460080262000758565b1980831691505092915050565b600062000793838362000765565b9150826002028217905092915050565b620007ae8262000562565b67ffffffffffffffff811115620007ca57620007c9620002d8565b5b620007d682546200059c565b620007e382828562000708565b600060209050601f8311600181146200081b576000841562000806578287015190505b62000812858262000785565b86555062000882565b601f1984166200082b86620005d1565b60005b8281101562000855578489015182556001820191506020850194506020810190506200082e565b8683101562000875578489015162000871601f89168262000765565b8355505b6001600288020188555050505b505050505050565b61340a806200089a6000396000f3fe60806040526004361061014b5760003560e01c8063715018a6116100b6578063b88d4fde1161006f578063b88d4fde1461045d578063bb244e4014610486578063c87b56dd146104b1578063d6da2ccf146104ee578063e985e9c514610519578063f2fde38b146105565761014b565b8063715018a6146103735780638da5cb5b1461038a57806393dd6446146103b557806395d89b41146103e0578063a22cb4651461040b578063aa0b5988146104345761014b565b806323b872dd1161010857806323b872dd146102745780633ccfd60b1461029d57806340c10f19146102b457806342842e0e146102d05780636352211e146102f957806370a08231146103365761014b565b806301ffc9a7146101505780630387da421461018d57806306fdde03146101b8578063081812fc146101e3578063095ea7b3146102205780630dccc9ad14610249575b600080fd5b34801561015c57600080fd5b5061017760048036038101906101729190612030565b61057f565b6040516101849190612078565b60405180910390f35b34801561019957600080fd5b506101a2610661565b6040516101af91906120ac565b60405180910390f35b3480156101c457600080fd5b506101cd610667565b6040516101da9190612157565b60405180910390f35b3480156101ef57600080fd5b5061020a600480360381019061020591906121a5565b6106f9565b6040516102179190612213565b60405180910390f35b34801561022c57600080fd5b506102476004803603810190610242919061225a565b61073f565b005b34801561025557600080fd5b5061025e610856565b60405161026b9190612157565b60405180910390f35b34801561028057600080fd5b5061029b6004803603810190610296919061229a565b6108e4565b005b3480156102a957600080fd5b506102b2610944565b005b6102ce60048036038101906102c9919061225a565b610a25565b005b3480156102dc57600080fd5b506102f760048036038101906102f2919061229a565b610c72565b005b34801561030557600080fd5b50610320600480360381019061031b91906121a5565b610c92565b60405161032d9190612213565b60405180910390f35b34801561034257600080fd5b5061035d600480360381019061035891906122ed565b610d43565b60405161036a91906120ac565b60405180910390f35b34801561037f57600080fd5b50610388610dfa565b005b34801561039657600080fd5b5061039f610e0e565b6040516103ac9190612213565b60405180910390f35b3480156103c157600080fd5b506103ca610e38565b6040516103d79190612213565b60405180910390f35b3480156103ec57600080fd5b506103f5610e5e565b6040516104029190612157565b60405180910390f35b34801561041757600080fd5b50610432600480360381019061042d9190612346565b610ef0565b005b34801561044057600080fd5b5061045b600480360381019061045691906121a5565b610f06565b005b34801561046957600080fd5b50610484600480360381019061047f91906124bb565b610fa0565b005b34801561049257600080fd5b5061049b611002565b6040516104a89190612213565b60405180910390f35b3480156104bd57600080fd5b506104d860048036038101906104d391906121a5565b611028565b6040516104e59190612157565b60405180910390f35b3480156104fa57600080fd5b506105036110bc565b60405161051091906120ac565b60405180910390f35b34801561052557600080fd5b50610540600480360381019061053b919061253e565b6110c2565b60405161054d9190612078565b60405180910390f35b34801561056257600080fd5b5061057d600480360381019061057891906122ed565b611156565b005b60007f80ac58cd000000000000000000000000000000000000000000000000000000007bffffffffffffffffffffffffffffffffffffffffffffffffffffffff1916827bffffffffffffffffffffffffffffffffffffffffffffffffffffffff1916148061064a57507f5b5e139f000000000000000000000000000000000000000000000000000000007bffffffffffffffffffffffffffffffffffffffffffffffffffffffff1916827bffffffffffffffffffffffffffffffffffffffffffffffffffffffff1916145b8061065a5750610659826111d9565b5b9050919050565b60095481565b606060008054610676906125ad565b80601f01602080910402602001604051908101604052809291908181526020018280546106a2906125ad565b80156106ef5780601f106106c4576101008083540402835291602001916106ef565b820191906000526020600020905b8154815290600101906020018083116106d257829003601f168201915b5050505050905090565b600061070482611243565b6004600083815260200190815260200160002060009054906101000a900473ffffffffffffffffffffffffffffffffffffffff169050919050565b600061074a82610c92565b90508073ffffffffffffffffffffffffffffffffffffffff168373ffffffffffffffffffffffffffffffffffffffff16036107ba576040517f08c379a00000000000000000000000000000000000000000000000000000000081526004016107b190612650565b60405180910390fd5b8073ffffffffffffffffffffffffffffffffffffffff166107d961128e565b73ffffffffffffffffffffffffffffffffffffffff16148061080857506108078161080261128e565b6110c2565b5b610847576040517f08c379a000000000000000000000000000000000000000000000000000000000815260040161083e906126e2565b60405180910390fd5b6108518383611296565b505050565b600c8054610863906125ad565b80601f016020809104026020016040519081016040528092919081815260200182805461088f906125ad565b80156108dc5780601f106108b1576101008083540402835291602001916108dc565b820191906000526020600020905b8154815290600101906020018083116108bf57829003601f168201915b505050505081565b6108f56108ef61128e565b8261134f565b610934576040517f08c379a000000000000000000000000000000000000000000000000000000000815260040161092b90612774565b60405180910390fd5b61093f8383836113e4565b505050565b61094c61164a565b600d60009054906101000a900473ffffffffffffffffffffffffffffffffffffffff1673ffffffffffffffffffffffffffffffffffffffff163373ffffffffffffffffffffffffffffffffffffffff16146109dc576040517f08c379a00000000000000000000000000000000000000000000000000000000081526004016109d3906127e0565b60405180910390fd5b3373ffffffffffffffffffffffffffffffffffffffff166108fc479081150290604051600060405180830381858888f19350505050158015610a22573d6000803e3d6000fd5b50565b60008111610a68576040517f08c379a0000000000000000000000000000000000000000000000000000000008152600401610a5f9061284c565b60405180910390fd5b60095481610a76919061289b565b341015610ab8576040517f08c379a0000000000000000000000000000000000000000000000000000000008152600401610aaf90612929565b60405180910390fd5b60006064600a5434610aca919061289b565b610ad49190612978565b9050600e60009054906101000a900473ffffffffffffffffffffffffffffffffffffffff1673ffffffffffffffffffffffffffffffffffffffff166108fc829081150290604051600060405180830381858888f19350505050158015610b3e573d6000803e3d6000fd5b5060005b82811015610c6c57610b56846008546116c8565b6008548473ffffffffffffffffffffffffffffffffffffffff167fe7cd4ce7f2a465edc730269a1305e8a48bad821e8fb7e152ec413829c01a53c4610b9c600854611028565b604051610ba99190612157565b60405180910390a3610c47600854600c8054610bc4906125ad565b80601f0160208091040260200160405190810160405280929190818152602001828054610bf0906125ad565b8015610c3d5780601f10610c1257610100808354040283529160200191610c3d565b820191906000526020600020905b815481529060010190602001808311610c2057829003601f168201915b50505050506116e6565b60086000815480929190610c5a906129a9565b91905055508080600101915050610b42565b50505050565b610c8d83838360405180602001604052806000815250610fa0565b505050565b6000806002600084815260200190815260200160002060009054906101000a900473ffffffffffffffffffffffffffffffffffffffff169050600073ffffffffffffffffffffffffffffffffffffffff168173ffffffffffffffffffffffffffffffffffffffff1603610d3a576040517f08c379a0000000000000000000000000000000000000000000000000000000008152600401610d3190612a3d565b60405180910390fd5b80915050919050565b60008073ffffffffffffffffffffffffffffffffffffffff168273ffffffffffffffffffffffffffffffffffffffff1603610db3576040517f08c379a0000000000000000000000000000000000000000000000000000000008152600401610daa90612acf565b60405180910390fd5b600360008373ffffffffffffffffffffffffffffffffffffffff1673ffffffffffffffffffffffffffffffffffffffff168152602001908152602001600020549050919050565b610e0261164a565b610e0c6000611753565b565b6000600760009054906101000a900473ffffffffffffffffffffffffffffffffffffffff16905090565b600d60009054906101000a900473ffffffffffffffffffffffffffffffffffffffff1681565b606060018054610e6d906125ad565b80601f0160208091040260200160405190810160405280929190818152602001828054610e99906125ad565b8015610ee65780601f10610ebb57610100808354040283529160200191610ee6565b820191906000526020600020905b815481529060010190602001808311610ec957829003601f168201915b5050505050905090565b610f02610efb61128e565b8383611819565b5050565b600e60009054906101000a900473ffffffffffffffffffffffffffffffffffffffff1673ffffffffffffffffffffffffffffffffffffffff163373ffffffffffffffffffffffffffffffffffffffff1614610f96576040517f08c379a0000000000000000000000000000000000000000000000000000000008152600401610f8d90612b61565b60405180910390fd5b80600a8190555050565b610fb1610fab61128e565b8361134f565b610ff0576040517f08c379a0000000000000000000000000000000000000000000000000000000008152600401610fe790612774565b60405180910390fd5b610ffc84848484611985565b50505050565b600e60009054906101000a900473ffffffffffffffffffffffffffffffffffffffff1681565b6060600c8054611037906125ad565b80601f0160208091040260200160405190810160405280929190818152602001828054611063906125ad565b80156110b05780601f10611085576101008083540402835291602001916110b0565b820191906000526020600020905b81548152906001019060200180831161109357829003601f168201915b50505050509050919050565b600b5481565b6000600560008473ffffffffffffffffffffffffffffffffffffffff1673ffffffffffffffffffffffffffffffffffffffff16815260200190815260200160002060008373ffffffffffffffffffffffffffffffffffffffff1673ffffffffffffffffffffffffffffffffffffffff16815260200190815260200160002060009054906101000a900460ff16905092915050565b61115e61164a565b600073ffffffffffffffffffffffffffffffffffffffff168173ffffffffffffffffffffffffffffffffffffffff16036111cd576040517f08c379a00000000000000000000000000000000000000000000000000000000081526004016111c490612bf3565b60405180910390fd5b6111d681611753565b50565b60007f01ffc9a7000000000000000000000000000000000000000000000000000000007bffffffffffffffffffffffffffffffffffffffffffffffffffffffff1916827bffffffffffffffffffffffffffffffffffffffffffffffffffffffff1916149050919050565b61124c816119e1565b61128b576040517f08c379a000000000000000000000000000000000000000000000000000000000815260040161128290612a3d565b60405180910390fd5b50565b600033905090565b816004600083815260200190815260200160002060006101000a81548173ffffffffffffffffffffffffffffffffffffffff021916908373ffffffffffffffffffffffffffffffffffffffff160217905550808273ffffffffffffffffffffffffffffffffffffffff1661130983610c92565b73ffffffffffffffffffffffffffffffffffffffff167f8c5be1e5ebec7d5bd14f71427d1e84f3dd0314c0f7b2291e5b200ac8c7c3b92560405160405180910390a45050565b60008061135b83610c92565b90508073ffffffffffffffffffffffffffffffffffffffff168473ffffffffffffffffffffffffffffffffffffffff16148061139d575061139c81856110c2565b5b806113db57508373ffffffffffffffffffffffffffffffffffffffff166113c3846106f9565b73ffffffffffffffffffffffffffffffffffffffff16145b91505092915050565b8273ffffffffffffffffffffffffffffffffffffffff1661140482610c92565b73ffffffffffffffffffffffffffffffffffffffff161461145a576040517f08c379a000000000000000000000000000000000000000000000000000000000815260040161145190612c85565b60405180910390fd5b600073ffffffffffffffffffffffffffffffffffffffff168273ffffffffffffffffffffffffffffffffffffffff16036114c9576040517f08c379a00000000000000000000000000000000000000000000000000000000081526004016114c090612d17565b60405180910390fd5b6114d4838383611a4d565b6114df600082611296565b6001600360008573ffffffffffffffffffffffffffffffffffffffff1673ffffffffffffffffffffffffffffffffffffffff168152602001908152602001600020600082825461152f9190612d37565b925050819055506001600360008473ffffffffffffffffffffffffffffffffffffffff1673ffffffffffffffffffffffffffffffffffffffff16815260200190815260200160002060008282546115869190612d6b565b92505081905550816002600083815260200190815260200160002060006101000a81548173ffffffffffffffffffffffffffffffffffffffff021916908373ffffffffffffffffffffffffffffffffffffffff160217905550808273ffffffffffffffffffffffffffffffffffffffff168473ffffffffffffffffffffffffffffffffffffffff167fddf252ad1be2c89b69c2b068fc378daa952ba7f163c4a11628f55a4df523b3ef60405160405180910390a4611645838383611bdc565b505050565b61165261128e565b73ffffffffffffffffffffffffffffffffffffffff16611670610e0e565b73ffffffffffffffffffffffffffffffffffffffff16146116c6576040517f08c379a00000000000000000000000000000000000000000000000000000000081526004016116bd90612deb565b60405180910390fd5b565b6116e2828260405180602001604052806000815250611be1565b5050565b6116ef826119e1565b61172e576040517f08c379a000000000000000000000000000000000000000000000000000000000815260040161172590612e7d565b60405180910390fd5b8060066000848152602001908152602001600020908161174e9190613049565b505050565b6000600760009054906101000a900473ffffffffffffffffffffffffffffffffffffffff16905081600760006101000a81548173ffffffffffffffffffffffffffffffffffffffff021916908373ffffffffffffffffffffffffffffffffffffffff1602179055508173ffffffffffffffffffffffffffffffffffffffff168173ffffffffffffffffffffffffffffffffffffffff167f8be0079c531659141344cd1fd0a4f28419497f9722a3daafe3b4186f6b6457e060405160405180910390a35050565b8173ffffffffffffffffffffffffffffffffffffffff168373ffffffffffffffffffffffffffffffffffffffff1603611887576040517f08c379a000000000000000000000000000000000000000000000000000000000815260040161187e90613167565b60405180910390fd5b80600560008573ffffffffffffffffffffffffffffffffffffffff1673ffffffffffffffffffffffffffffffffffffffff16815260200190815260200160002060008473ffffffffffffffffffffffffffffffffffffffff1673ffffffffffffffffffffffffffffffffffffffff16815260200190815260200160002060006101000a81548160ff0219169083151502179055508173ffffffffffffffffffffffffffffffffffffffff168373ffffffffffffffffffffffffffffffffffffffff167f17307eab39ab6107e8899845ad3d59bd9653f200f220920489ca2b5937696c31836040516119789190612078565b60405180910390a3505050565b6119908484846113e4565b61199c84848484611c3c565b6119db576040517f08c379a00000000000000000000000000000000000000000000000000000000081526004016119d2906131f9565b60405180910390fd5b50505050565b60008073ffffffffffffffffffffffffffffffffffffffff166002600084815260200190815260200160002060009054906101000a900473ffffffffffffffffffffffffffffffffffffffff1673ffffffffffffffffffffffffffffffffffffffff1614159050919050565b600073ffffffffffffffffffffffffffffffffffffffff168373ffffffffffffffffffffffffffffffffffffffff1614158015611ab75750600073ffffffffffffffffffffffffffffffffffffffff168273ffffffffffffffffffffffffffffffffffffffff1614155b15611bcc5760006064600b5434611ace919061289b565b611ad89190612978565b9050600d60009054906101000a900473ffffffffffffffffffffffffffffffffffffffff1673ffffffffffffffffffffffffffffffffffffffff166108fc829081150290604051600060405180830381858888f19350505050158015611b42573d6000803e3d6000fd5b508273ffffffffffffffffffffffffffffffffffffffff16600d60009054906101000a900473ffffffffffffffffffffffffffffffffffffffff1673ffffffffffffffffffffffffffffffffffffffff167fbdf0502df1b76d58521b2a929580ca100c2121e0ae38717b260d9cfa44c23b3283604051611bc291906120ac565b60405180910390a3505b611bd7838383611dc3565b505050565b505050565b611beb8383611dc8565b611bf86000848484611c3c565b611c37576040517f08c379a0000000000000000000000000000000000000000000000000000000008152600401611c2e906131f9565b60405180910390fd5b505050565b6000611c5d8473ffffffffffffffffffffffffffffffffffffffff16611fa1565b15611db6578373ffffffffffffffffffffffffffffffffffffffff1663150b7a02611c8661128e565b8786866040518563ffffffff1660e01b8152600401611ca8949392919061326e565b6020604051808303816000875af1925050508015611ce457506040513d601f19601f82011682018060405250810190611ce191906132cf565b60015b611d66573d8060008114611d14576040519150601f19603f3d011682016040523d82523d6000602084013e611d19565b606091505b506000815103611d5e576040517f08c379a0000000000000000000000000000000000000000000000000000000008152600401611d55906131f9565b60405180910390fd5b805181602001fd5b63150b7a0260e01b7bffffffffffffffffffffffffffffffffffffffffffffffffffffffff1916817bffffffffffffffffffffffffffffffffffffffffffffffffffffffff191614915050611dbb565b600190505b949350505050565b505050565b600073ffffffffffffffffffffffffffffffffffffffff168273ffffffffffffffffffffffffffffffffffffffff1603611e37576040517f08c379a0000000000000000000000000000000000000000000000000000000008152600401611e2e90613348565b60405180910390fd5b611e40816119e1565b15611e80576040517f08c379a0000000000000000000000000000000000000000000000000000000008152600401611e77906133b4565b60405180910390fd5b611e8c60008383611a4d565b6001600360008473ffffffffffffffffffffffffffffffffffffffff1673ffffffffffffffffffffffffffffffffffffffff1681526020019081526020016000206000828254611edc9190612d6b565b92505081905550816002600083815260200190815260200160002060006101000a81548173ffffffffffffffffffffffffffffffffffffffff021916908373ffffffffffffffffffffffffffffffffffffffff160217905550808273ffffffffffffffffffffffffffffffffffffffff16600073ffffffffffffffffffffffffffffffffffffffff167fddf252ad1be2c89b69c2b068fc378daa952ba7f163c4a11628f55a4df523b3ef60405160405180910390a4611f9d60008383611bdc565b5050565b6000808273ffffffffffffffffffffffffffffffffffffffff163b119050919050565b6000604051905090565b600080fd5b600080fd5b60007fffffffff0000000000000000000000000000000000000000000000000000000082169050919050565b61200d81611fd8565b811461201857600080fd5b50565b60008135905061202a81612004565b92915050565b60006020828403121561204657612045611fce565b5b60006120548482850161201b565b91505092915050565b60008115159050919050565b6120728161205d565b82525050565b600060208201905061208d6000830184612069565b92915050565b6000819050919050565b6120a681612093565b82525050565b60006020820190506120c1600083018461209d565b92915050565b600081519050919050565b600082825260208201905092915050565b60005b838110156121015780820151818401526020810190506120e6565b60008484015250505050565b6000601f19601f8301169050919050565b6000612129826120c7565b61213381856120d2565b93506121438185602086016120e3565b61214c8161210d565b840191505092915050565b60006020820190508181036000830152612171818461211e565b905092915050565b61218281612093565b811461218d57600080fd5b50565b60008135905061219f81612179565b92915050565b6000602082840312156121bb576121ba611fce565b5b60006121c984828501612190565b91505092915050565b600073ffffffffffffffffffffffffffffffffffffffff82169050919050565b60006121fd826121d2565b9050919050565b61220d816121f2565b82525050565b60006020820190506122286000830184612204565b92915050565b612237816121f2565b811461224257600080fd5b50565b6000813590506122548161222e565b92915050565b6000806040838503121561227157612270611fce565b5b600061227f85828601612245565b925050602061229085828601612190565b9150509250929050565b6000806000606084860312156122b3576122b2611fce565b5b60006122c186828701612245565b93505060206122d286828701612245565b92505060406122e386828701612190565b9150509250925092565b60006020828403121561230357612302611fce565b5b600061231184828501612245565b91505092915050565b6123238161205d565b811461232e57600080fd5b50565b6000813590506123408161231a565b92915050565b6000806040838503121561235d5761235c611fce565b5b600061236b85828601612245565b925050602061237c85828601612331565b9150509250929050565b600080fd5b600080fd5b7f4e487b7100000000000000000000000000000000000000000000000000000000600052604160045260246000fd5b6123c88261210d565b810181811067ffffffffffffffff821117156123e7576123e6612390565b5b80604052505050565b60006123fa611fc4565b905061240682826123bf565b919050565b600067ffffffffffffffff82111561242657612425612390565b5b61242f8261210d565b9050602081019050919050565b82818337600083830152505050565b600061245e6124598461240b565b6123f0565b90508281526020810184848401111561247a5761247961238b565b5b61248584828561243c565b509392505050565b600082601f8301126124a2576124a1612386565b5b81356124b284826020860161244b565b91505092915050565b600080600080608085870312156124d5576124d4611fce565b5b60006124e387828801612245565b94505060206124f487828801612245565b935050604061250587828801612190565b925050606085013567ffffffffffffffff81111561252657612525611fd3565b5b6125328782880161248d565b91505092959194509250565b6000806040838503121561255557612554611fce565b5b600061256385828601612245565b925050602061257485828601612245565b9150509250929050565b7f4e487b7100000000000000000000000000000000000000000000000000000000600052602260045260246000fd5b600060028204905060018216806125c557607f821691505b6020821081036125d8576125d761257e565b5b50919050565b7f4552433732313a20617070726f76616c20746f2063757272656e74206f776e6560008201527f7200000000000000000000000000000000000000000000000000000000000000602082015250565b600061263a6021836120d2565b9150612645826125de565b604082019050919050565b600060208201905081810360008301526126698161262d565b9050919050565b7f4552433732313a20617070726f76652063616c6c6572206973206e6f7420746f60008201527f6b656e206f776e6572206e6f7220617070726f76656420666f7220616c6c0000602082015250565b60006126cc603e836120d2565b91506126d782612670565b604082019050919050565b600060208201905081810360008301526126fb816126bf565b9050919050565b7f4552433732313a2063616c6c6572206973206e6f7420746f6b656e206f776e6560008201527f72206e6f7220617070726f766564000000000000000000000000000000000000602082015250565b600061275e602e836120d2565b915061276982612702565b604082019050919050565b6000602082019050818103600083015261278d81612751565b9050919050565b7f4f6e6c7920746865206172746973742063616e20776974686472617700000000600082015250565b60006127ca601c836120d2565b91506127d582612794565b602082019050919050565b600060208201905081810360008301526127f9816127bd565b9050919050565b7f5175616e74697479206d7573742062652067726561746572207468616e203000600082015250565b6000612836601f836120d2565b915061284182612800565b602082019050919050565b6000602082019050818103600083015261286581612829565b9050919050565b7f4e487b7100000000000000000000000000000000000000000000000000000000600052601160045260246000fd5b60006128a682612093565b91506128b183612093565b92508282026128bf81612093565b915082820484148315176128d6576128d561286c565b5b5092915050565b7f496e73756666696369656e74204554482073656e740000000000000000000000600082015250565b60006129136015836120d2565b915061291e826128dd565b602082019050919050565b6000602082019050818103600083015261294281612906565b9050919050565b7f4e487b7100000000000000000000000000000000000000000000000000000000600052601260045260246000fd5b600061298382612093565b915061298e83612093565b92508261299e5761299d612949565b5b828204905092915050565b60006129b482612093565b91507fffffffffffffffffffffffffffffffffffffffffffffffffffffffffffffffff82036129e6576129e561286c565b5b600182019050919050565b7f4552433732313a20696e76616c696420746f6b656e2049440000000000000000600082015250565b6000612a276018836120d2565b9150612a32826129f1565b602082019050919050565b60006020820190508181036000830152612a5681612a1a565b9050919050565b7f4552433732313a2061646472657373207a65726f206973206e6f74206120766160008201527f6c6964206f776e65720000000000000000000000000000000000000000000000602082015250565b6000612ab96029836120d2565b9150612ac482612a5d565b604082019050919050565b60006020820190508181036000830152612ae881612aac565b9050919050565b7f4f6e6c7920706c6174666f726d2061646d696e2077616c6c65742063616e206360008201527f616c6c20746869732066756e6374696f6e000000000000000000000000000000602082015250565b6000612b4b6031836120d2565b9150612b5682612aef565b604082019050919050565b60006020820190508181036000830152612b7a81612b3e565b9050919050565b7f4f776e61626c653a206e6577206f776e657220697320746865207a65726f206160008201527f6464726573730000000000000000000000000000000000000000000000000000602082015250565b6000612bdd6026836120d2565b9150612be882612b81565b604082019050919050565b60006020820190508181036000830152612c0c81612bd0565b9050919050565b7f4552433732313a207472616e736665722066726f6d20696e636f72726563742060008201527f6f776e6572000000000000000000000000000000000000000000000000000000602082015250565b6000612c6f6025836120d2565b9150612c7a82612c13565b604082019050919050565b60006020820190508181036000830152612c9e81612c62565b9050919050565b7f4552433732313a207472616e7366657220746f20746865207a65726f2061646460008201527f7265737300000000000000000000000000000000000000000000000000000000602082015250565b6000612d016024836120d2565b9150612d0c82612ca5565b604082019050919050565b60006020820190508181036000830152612d3081612cf4565b9050919050565b6000612d4282612093565b9150612d4d83612093565b9250828203905081811115612d6557612d6461286c565b5b92915050565b6000612d7682612093565b9150612d8183612093565b9250828201905080821115612d9957612d9861286c565b5b92915050565b7f4f776e61626c653a2063616c6c6572206973206e6f7420746865206f776e6572600082015250565b6000612dd56020836120d2565b9150612de082612d9f565b602082019050919050565b60006020820190508181036000830152612e0481612dc8565b9050919050565b7f45524337323155524953746f726167653a2055524920736574206f66206e6f6e60008201527f6578697374656e7420746f6b656e000000000000000000000000000000000000602082015250565b6000612e67602e836120d2565b9150612e7282612e0b565b604082019050919050565b60006020820190508181036000830152612e9681612e5a565b9050919050565b60008190508160005260206000209050919050565b60006020601f8301049050919050565b600082821b905092915050565b600060088302612eff7fffffffffffffffffffffffffffffffffffffffffffffffffffffffffffffffff82612ec2565b612f098683612ec2565b95508019841693508086168417925050509392505050565b6000819050919050565b6000612f46612f41612f3c84612093565b612f21565b612093565b9050919050565b6000819050919050565b612f6083612f2b565b612f74612f6c82612f4d565b848454612ecf565b825550505050565b600090565b612f89612f7c565b612f94818484612f57565b505050565b5b81811015612fb857612fad600082612f81565b600181019050612f9a565b5050565b601f821115612ffd57612fce81612e9d565b612fd784612eb2565b81016020851015612fe6578190505b612ffa612ff285612eb2565b830182612f99565b50505b505050565b600082821c905092915050565b600061302060001984600802613002565b1980831691505092915050565b6000613039838361300f565b9150826002028217905092915050565b613052826120c7565b67ffffffffffffffff81111561306b5761306a612390565b5b61307582546125ad565b613080828285612fbc565b600060209050601f8311600181146130b357600084156130a1578287015190505b6130ab858261302d565b865550613113565b601f1984166130c186612e9d565b60005b828110156130e9578489015182556001820191506020850194506020810190506130c4565b868310156131065784890151613102601f89168261300f565b8355505b6001600288020188555050505b505050505050565b7f4552433732313a20617070726f766520746f2063616c6c657200000000000000600082015250565b60006131516019836120d2565b915061315c8261311b565b602082019050919050565b6000602082019050818103600083015261318081613144565b9050919050565b7f4552433732313a207472616e7366657220746f206e6f6e20455243373231526560008201527f63656976657220696d706c656d656e7465720000000000000000000000000000602082015250565b60006131e36032836120d2565b91506131ee82613187565b604082019050919050565b60006020820190508181036000830152613212816131d6565b9050919050565b600081519050919050565b600082825260208201905092915050565b600061324082613219565b61324a8185613224565b935061325a8185602086016120e3565b6132638161210d565b840191505092915050565b60006080820190506132836000830187612204565b6132906020830186612204565b61329d604083018561209d565b81810360608301526132af8184613235565b905095945050505050565b6000815190506132c981612004565b92915050565b6000602082840312156132e5576132e4611fce565b5b60006132f3848285016132ba565b91505092915050565b7f4552433732313a206d696e7420746f20746865207a65726f2061646472657373600082015250565b60006133326020836120d2565b915061333d826132fc565b602082019050919050565b6000602082019050818103600083015261336181613325565b9050919050565b7f4552433732313a20746f6b656e20616c7265616479206d696e74656400000000600082015250565b600061339e601c836120d2565b91506133a982613368565b602082019050919050565b600060208201905081810360008301526133cd81613391565b905091905056fea2646970667358221220057b999c789d0b3a9728c8d8fa872d636461140101e2a2531354c4e8e589b1c064736f6c63430008180033a264697066735822122082228539f4acda0043e7d89c6ace76e7a9fad1c8edaa6f1c795838ba11627c3b64736f6c63430008180033",
  "linkReferences": {},
  "deployedLinkReferences": {}
}